{
  "_format": "hh-sol-artifact-1",
  "contractName": "DebitCard",
  "sourceName": "contracts/Debit Card/DebitCard.sol",
  "abi": [
    {
      "inputs": [
        {
          "internalType": "string",
          "name": "name",
          "type": "string"
        },
        {
          "internalType": "string",
          "name": "symbol",
          "type": "string"
        },
        {
          "internalType": "address",
          "name": "initialOwner",
          "type": "address"
        }
      ],
      "stateMutability": "nonpayable",
      "type": "constructor"
    },
    {
      "inputs": [],
      "name": "CardExpired",
      "type": "error"
    },
    {
      "inputs": [],
      "name": "CardHasBeenDiscarded",
      "type": "error"
    },
    {
      "inputs": [],
      "name": "ERC721EnumerableForbiddenBatchMint",
      "type": "error"
    },
    {
      "inputs": [
        {
          "internalType": "address",
          "name": "sender",
          "type": "address"
        },
        {
          "internalType": "uint256",
          "name": "tokenId",
          "type": "uint256"
        },
        {
          "internalType": "address",
          "name": "owner",
          "type": "address"
        }
      ],
      "name": "ERC721IncorrectOwner",
      "type": "error"
    },
    {
      "inputs": [
        {
          "internalType": "address",
          "name": "operator",
          "type": "address"
        },
        {
          "internalType": "uint256",
          "name": "tokenId",
          "type": "uint256"
        }
      ],
      "name": "ERC721InsufficientApproval",
      "type": "error"
    },
    {
      "inputs": [
        {
          "internalType": "address",
          "name": "approver",
          "type": "address"
        }
      ],
      "name": "ERC721InvalidApprover",
      "type": "error"
    },
    {
      "inputs": [
        {
          "internalType": "address",
          "name": "operator",
          "type": "address"
        }
      ],
      "name": "ERC721InvalidOperator",
      "type": "error"
    },
    {
      "inputs": [
        {
          "internalType": "address",
          "name": "owner",
          "type": "address"
        }
      ],
      "name": "ERC721InvalidOwner",
      "type": "error"
    },
    {
      "inputs": [
        {
          "internalType": "address",
          "name": "receiver",
          "type": "address"
        }
      ],
      "name": "ERC721InvalidReceiver",
      "type": "error"
    },
    {
      "inputs": [
        {
          "internalType": "address",
          "name": "sender",
          "type": "address"
        }
      ],
      "name": "ERC721InvalidSender",
      "type": "error"
    },
    {
      "inputs": [
        {
          "internalType": "uint256",
          "name": "tokenId",
          "type": "uint256"
        }
      ],
      "name": "ERC721NonexistentToken",
      "type": "error"
    },
    {
      "inputs": [
        {
          "internalType": "address",
          "name": "owner",
          "type": "address"
        },
        {
          "internalType": "uint256",
          "name": "index",
          "type": "uint256"
        }
      ],
      "name": "ERC721OutOfBoundsIndex",
      "type": "error"
    },
    {
      "inputs": [],
      "name": "EnforcedPause",
      "type": "error"
    },
    {
      "inputs": [],
      "name": "ExpectedPause",
      "type": "error"
    },
    {
      "inputs": [],
      "name": "InsufficientCredit",
      "type": "error"
    },
    {
      "inputs": [],
      "name": "InsufficientPoolBalance",
      "type": "error"
    },
    {
      "inputs": [],
      "name": "NotAuthorized",
      "type": "error"
    },
    {
      "inputs": [
        {
          "internalType": "address",
          "name": "owner",
          "type": "address"
        }
      ],
      "name": "OwnableInvalidOwner",
      "type": "error"
    },
    {
      "inputs": [
        {
          "internalType": "address",
          "name": "account",
          "type": "address"
        }
      ],
      "name": "OwnableUnauthorizedAccount",
      "type": "error"
    },
    {
      "inputs": [],
      "name": "SendEnoughFunds",
      "type": "error"
    },
    {
      "inputs": [],
      "name": "TransferFailed",
      "type": "error"
    },
    {
      "inputs": [],
      "name": "ZeroAmountIssued",
      "type": "error"
    },
    {
      "anonymous": false,
      "inputs": [
        {
          "indexed": true,
          "internalType": "address",
          "name": "owner",
          "type": "address"
        },
        {
          "indexed": true,
          "internalType": "address",
          "name": "approved",
          "type": "address"
        },
        {
          "indexed": true,
          "internalType": "uint256",
          "name": "tokenId",
          "type": "uint256"
        }
      ],
      "name": "Approval",
      "type": "event"
    },
    {
      "anonymous": false,
      "inputs": [
        {
          "indexed": true,
          "internalType": "address",
          "name": "owner",
          "type": "address"
        },
        {
          "indexed": true,
          "internalType": "address",
          "name": "operator",
          "type": "address"
        },
        {
          "indexed": false,
          "internalType": "bool",
          "name": "approved",
          "type": "bool"
        }
      ],
      "name": "ApprovalForAll",
      "type": "event"
    },
    {
      "anonymous": false,
      "inputs": [
        {
          "indexed": false,
          "internalType": "uint256",
          "name": "tokenId",
          "type": "uint256"
        }
      ],
      "name": "CardDiscarded",
      "type": "event"
    },
    {
      "anonymous": false,
      "inputs": [
        {
          "indexed": false,
          "internalType": "uint256",
          "name": "tokenId",
          "type": "uint256"
        },
        {
          "indexed": false,
          "internalType": "string",
          "name": "cardName",
          "type": "string"
        },
        {
          "indexed": false,
          "internalType": "address",
          "name": "issuedTo",
          "type": "address"
        },
        {
          "indexed": false,
          "internalType": "uint256",
          "name": "amountIssued",
          "type": "uint256"
        },
        {
          "indexed": false,
          "internalType": "uint256",
          "name": "expirationTime",
          "type": "uint256"
        }
      ],
      "name": "CardIssued",
      "type": "event"
    },
    {
      "anonymous": false,
      "inputs": [
        {
          "indexed": false,
          "internalType": "uint256",
          "name": "tokenId",
          "type": "uint256"
        },
        {
          "indexed": false,
          "internalType": "uint256",
          "name": "additionalAmount",
          "type": "uint256"
        },
        {
          "indexed": false,
          "internalType": "uint256",
          "name": "newExpirationTime",
          "type": "uint256"
        }
      ],
      "name": "CardUpdated",
      "type": "event"
    },
    {
      "anonymous": false,
      "inputs": [],
      "name": "ContractPaused",
      "type": "event"
    },
    {
      "anonymous": false,
      "inputs": [],
      "name": "ContractUnpaused",
      "type": "event"
    },
    {
      "anonymous": false,
      "inputs": [
        {
          "indexed": false,
          "internalType": "uint256",
          "name": "amount",
          "type": "uint256"
        },
        {
          "indexed": false,
          "internalType": "address",
          "name": "addedBy",
          "type": "address"
        }
      ],
      "name": "FundsAddedToPool",
      "type": "event"
    },
    {
      "anonymous": false,
      "inputs": [
        {
          "indexed": false,
          "internalType": "uint256",
          "name": "tokenId",
          "type": "uint256"
        },
        {
          "indexed": false,
          "internalType": "address",
          "name": "recipient",
          "type": "address"
        },
        {
          "indexed": false,
          "internalType": "uint256",
          "name": "spendAmount",
          "type": "uint256"
        }
      ],
      "name": "FundsSpentFromCard",
      "type": "event"
    },
    {
      "anonymous": false,
      "inputs": [
        {
          "indexed": true,
          "internalType": "address",
          "name": "previousOwner",
          "type": "address"
        },
        {
          "indexed": true,
          "internalType": "address",
          "name": "newOwner",
          "type": "address"
        }
      ],
      "name": "OwnershipTransferred",
      "type": "event"
    },
    {
      "anonymous": false,
      "inputs": [
        {
          "indexed": false,
          "internalType": "address",
          "name": "account",
          "type": "address"
        }
      ],
      "name": "Paused",
      "type": "event"
    },
    {
      "anonymous": false,
      "inputs": [
        {
          "indexed": true,
          "internalType": "address",
          "name": "from",
          "type": "address"
        },
        {
          "indexed": true,
          "internalType": "address",
          "name": "to",
          "type": "address"
        },
        {
          "indexed": true,
          "internalType": "uint256",
          "name": "tokenId",
          "type": "uint256"
        }
      ],
      "name": "Transfer",
      "type": "event"
    },
    {
      "anonymous": false,
      "inputs": [
        {
          "indexed": false,
          "internalType": "address",
          "name": "account",
          "type": "address"
        }
      ],
      "name": "Unpaused",
      "type": "event"
    },
    {
      "inputs": [
        {
          "internalType": "uint256",
          "name": "amount",
          "type": "uint256"
        }
      ],
      "name": "addFundsToPool",
      "outputs": [],
      "stateMutability": "payable",
      "type": "function"
    },
    {
      "inputs": [
        {
          "internalType": "address",
          "name": "to",
          "type": "address"
        },
        {
          "internalType": "uint256",
          "name": "tokenId",
          "type": "uint256"
        }
      ],
      "name": "approve",
      "outputs": [],
      "stateMutability": "nonpayable",
      "type": "function"
    },
    {
      "inputs": [
        {
          "internalType": "address",
          "name": "owner",
          "type": "address"
        }
      ],
      "name": "balanceOf",
      "outputs": [
        {
          "internalType": "uint256",
          "name": "",
          "type": "uint256"
        }
      ],
      "stateMutability": "view",
      "type": "function"
    },
    {
      "inputs": [
        {
          "internalType": "uint256",
          "name": "tokenId",
          "type": "uint256"
        }
      ],
      "name": "discardCard",
      "outputs": [],
      "stateMutability": "nonpayable",
      "type": "function"
    },
    {
      "inputs": [
        {
          "internalType": "uint256",
          "name": "tokenId",
          "type": "uint256"
        }
      ],
      "name": "getApproved",
      "outputs": [
        {
          "internalType": "address",
          "name": "",
          "type": "address"
        }
      ],
      "stateMutability": "view",
      "type": "function"
    },
    {
      "inputs": [
        {
          "internalType": "uint256",
          "name": "tokenId",
          "type": "uint256"
        }
      ],
      "name": "getCardInfo",
      "outputs": [
        {
          "components": [
            {
              "internalType": "string",
              "name": "cardName",
              "type": "string"
            },
            {
              "internalType": "uint256",
              "name": "amountIssued",
              "type": "uint256"
            },
            {
              "internalType": "uint256",
              "name": "amountSpent",
              "type": "uint256"
            },
            {
              "internalType": "uint256",
              "name": "expirationTime",
              "type": "uint256"
            },
            {
              "internalType": "bool",
              "name": "hasBeenDiscarded",
              "type": "bool"
            }
          ],
          "internalType": "struct DebitCard.CardInfo",
          "name": "",
          "type": "tuple"
        }
      ],
      "stateMutability": "view",
      "type": "function"
    },
    {
      "inputs": [
        {
          "internalType": "uint256",
          "name": "tokenId",
          "type": "uint256"
        }
      ],
      "name": "getDaysUntilExpiration",
      "outputs": [
        {
          "internalType": "uint256",
          "name": "",
          "type": "uint256"
        }
      ],
      "stateMutability": "view",
      "type": "function"
    },
    {
      "inputs": [],
      "name": "getTotalSupply",
      "outputs": [
        {
          "internalType": "uint256",
          "name": "",
          "type": "uint256"
        }
      ],
      "stateMutability": "view",
      "type": "function"
    },
    {
      "inputs": [
        {
          "internalType": "address",
          "name": "owner",
          "type": "address"
        },
        {
          "internalType": "address",
          "name": "operator",
          "type": "address"
        }
      ],
      "name": "isApprovedForAll",
      "outputs": [
        {
          "internalType": "bool",
          "name": "",
          "type": "bool"
        }
      ],
      "stateMutability": "view",
      "type": "function"
    },
    {
      "inputs": [
        {
          "internalType": "string",
          "name": "name",
          "type": "string"
        },
        {
          "internalType": "address",
          "name": "to",
          "type": "address"
        },
        {
          "internalType": "uint256",
          "name": "amountIssued",
          "type": "uint256"
        },
        {
          "internalType": "uint256",
          "name": "expirationDays",
          "type": "uint256"
        }
      ],
      "name": "issueCard",
      "outputs": [],
      "stateMutability": "nonpayable",
      "type": "function"
    },
    {
      "inputs": [],
      "name": "name",
      "outputs": [
        {
          "internalType": "string",
          "name": "",
          "type": "string"
        }
      ],
      "stateMutability": "view",
      "type": "function"
    },
    {
      "inputs": [],
      "name": "owner",
      "outputs": [
        {
          "internalType": "address",
          "name": "",
          "type": "address"
        }
      ],
      "stateMutability": "view",
      "type": "function"
    },
    {
      "inputs": [
        {
          "internalType": "uint256",
          "name": "tokenId",
          "type": "uint256"
        }
      ],
      "name": "ownerOf",
      "outputs": [
        {
          "internalType": "address",
          "name": "",
          "type": "address"
        }
      ],
      "stateMutability": "view",
      "type": "function"
    },
    {
      "inputs": [],
      "name": "pause",
      "outputs": [],
      "stateMutability": "nonpayable",
      "type": "function"
    },
    {
      "inputs": [],
      "name": "paused",
      "outputs": [
        {
          "internalType": "bool",
          "name": "",
          "type": "bool"
        }
      ],
      "stateMutability": "view",
      "type": "function"
    },
    {
      "inputs": [],
      "name": "poolName",
      "outputs": [
        {
          "internalType": "string",
          "name": "",
          "type": "string"
        }
      ],
      "stateMutability": "view",
      "type": "function"
    },
    {
      "inputs": [],
      "name": "poolSize",
      "outputs": [
        {
          "internalType": "uint256",
          "name": "",
          "type": "uint256"
        }
      ],
      "stateMutability": "view",
      "type": "function"
    },
    {
      "inputs": [],
      "name": "renounceOwnership",
      "outputs": [],
      "stateMutability": "nonpayable",
      "type": "function"
    },
    {
      "inputs": [
        {
          "internalType": "address",
          "name": "from",
          "type": "address"
        },
        {
          "internalType": "address",
          "name": "to",
          "type": "address"
        },
        {
          "internalType": "uint256",
          "name": "tokenId",
          "type": "uint256"
        }
      ],
      "name": "safeTransferFrom",
      "outputs": [],
      "stateMutability": "nonpayable",
      "type": "function"
    },
    {
      "inputs": [
        {
          "internalType": "address",
          "name": "from",
          "type": "address"
        },
        {
          "internalType": "address",
          "name": "to",
          "type": "address"
        },
        {
          "internalType": "uint256",
          "name": "tokenId",
          "type": "uint256"
        },
        {
          "internalType": "bytes",
          "name": "data",
          "type": "bytes"
        }
      ],
      "name": "safeTransferFrom",
      "outputs": [],
      "stateMutability": "nonpayable",
      "type": "function"
    },
    {
      "inputs": [
        {
          "internalType": "address",
          "name": "operator",
          "type": "address"
        },
        {
          "internalType": "bool",
          "name": "approved",
          "type": "bool"
        }
      ],
      "name": "setApprovalForAll",
      "outputs": [],
      "stateMutability": "nonpayable",
      "type": "function"
    },
    {
      "inputs": [
        {
          "internalType": "uint256",
          "name": "tokenId",
          "type": "uint256"
        },
        {
          "internalType": "address",
          "name": "recipient",
          "type": "address"
        },
        {
          "internalType": "uint256",
          "name": "spendAmount",
          "type": "uint256"
        }
      ],
      "name": "spendFromCard",
      "outputs": [],
      "stateMutability": "nonpayable",
      "type": "function"
    },
    {
      "inputs": [
        {
          "internalType": "bytes4",
          "name": "interfaceId",
          "type": "bytes4"
        }
      ],
      "name": "supportsInterface",
      "outputs": [
        {
          "internalType": "bool",
          "name": "",
          "type": "bool"
        }
      ],
      "stateMutability": "view",
      "type": "function"
    },
    {
      "inputs": [],
      "name": "symbol",
      "outputs": [
        {
          "internalType": "string",
          "name": "",
          "type": "string"
        }
      ],
      "stateMutability": "view",
      "type": "function"
    },
    {
      "inputs": [
        {
          "internalType": "uint256",
          "name": "index",
          "type": "uint256"
        }
      ],
      "name": "tokenByIndex",
      "outputs": [
        {
          "internalType": "uint256",
          "name": "",
          "type": "uint256"
        }
      ],
      "stateMutability": "view",
      "type": "function"
    },
    {
      "inputs": [
        {
          "internalType": "address",
          "name": "owner",
          "type": "address"
        },
        {
          "internalType": "uint256",
          "name": "index",
          "type": "uint256"
        }
      ],
      "name": "tokenOfOwnerByIndex",
      "outputs": [
        {
          "internalType": "uint256",
          "name": "",
          "type": "uint256"
        }
      ],
      "stateMutability": "view",
      "type": "function"
    },
    {
      "inputs": [
        {
          "internalType": "uint256",
          "name": "tokenId",
          "type": "uint256"
        }
      ],
      "name": "tokenURI",
      "outputs": [
        {
          "internalType": "string",
          "name": "",
          "type": "string"
        }
      ],
      "stateMutability": "view",
      "type": "function"
    },
    {
      "inputs": [],
      "name": "totalSupply",
      "outputs": [
        {
          "internalType": "uint256",
          "name": "",
          "type": "uint256"
        }
      ],
      "stateMutability": "view",
      "type": "function"
    },
    {
      "inputs": [
        {
          "internalType": "address",
          "name": "from",
          "type": "address"
        },
        {
          "internalType": "address",
          "name": "to",
          "type": "address"
        },
        {
          "internalType": "uint256",
          "name": "tokenId",
          "type": "uint256"
        }
      ],
      "name": "transferFrom",
      "outputs": [],
      "stateMutability": "nonpayable",
      "type": "function"
    },
    {
      "inputs": [
        {
          "internalType": "address",
          "name": "newOwner",
          "type": "address"
        }
      ],
      "name": "transferOwnership",
      "outputs": [],
      "stateMutability": "nonpayable",
      "type": "function"
    },
    {
      "inputs": [],
      "name": "unpause",
      "outputs": [],
      "stateMutability": "nonpayable",
      "type": "function"
    },
    {
      "inputs": [
        {
          "internalType": "uint256",
          "name": "tokenId",
          "type": "uint256"
        },
        {
          "internalType": "uint256",
          "name": "additionalAmount",
          "type": "uint256"
        },
        {
          "internalType": "uint256",
          "name": "newExpirationDays",
          "type": "uint256"
        }
      ],
      "name": "updateCard",
      "outputs": [],
      "stateMutability": "nonpayable",
      "type": "function"
    },
    {
      "inputs": [
        {
          "internalType": "uint256",
          "name": "amount",
          "type": "uint256"
        }
      ],
      "name": "withdrawFunds",
      "outputs": [],
      "stateMutability": "nonpayable",
      "type": "function"
    }
  ],
  "bytecode": "0x60806040523480156200001157600080fd5b5060405162004617380380620046178339818101604052810190620000379190620003db565b80838381600090816200004b9190620006c0565b5080600190816200005d9190620006c0565b5050506000600a60006101000a81548160ff021916908315150217905550600073ffffffffffffffffffffffffffffffffffffffff168173ffffffffffffffffffffffffffffffffffffffff1603620000f05760006040517f1e4fbdf7000000000000000000000000000000000000000000000000000000008152600401620000e79190620007b8565b60405180910390fd5b62000101816200011d60201b60201c565b5082600d9081620001139190620006c0565b50505050620007d5565b6000600a60019054906101000a900473ffffffffffffffffffffffffffffffffffffffff16905081600a60016101000a81548173ffffffffffffffffffffffffffffffffffffffff021916908373ffffffffffffffffffffffffffffffffffffffff1602179055508173ffffffffffffffffffffffffffffffffffffffff168173ffffffffffffffffffffffffffffffffffffffff167f8be0079c531659141344cd1fd0a4f28419497f9722a3daafe3b4186f6b6457e060405160405180910390a35050565b6000604051905090565b600080fd5b600080fd5b600080fd5b600080fd5b6000601f19601f8301169050919050565b7f4e487b7100000000000000000000000000000000000000000000000000000000600052604160045260246000fd5b6200024c8262000201565b810181811067ffffffffffffffff821117156200026e576200026d62000212565b5b80604052505050565b600062000283620001e3565b905062000291828262000241565b919050565b600067ffffffffffffffff821115620002b457620002b362000212565b5b620002bf8262000201565b9050602081019050919050565b60005b83811015620002ec578082015181840152602081019050620002cf565b60008484015250505050565b60006200030f620003098462000296565b62000277565b9050828152602081018484840111156200032e576200032d620001fc565b5b6200033b848285620002cc565b509392505050565b600082601f8301126200035b576200035a620001f7565b5b81516200036d848260208601620002f8565b91505092915050565b600073ffffffffffffffffffffffffffffffffffffffff82169050919050565b6000620003a38262000376565b9050919050565b620003b58162000396565b8114620003c157600080fd5b50565b600081519050620003d581620003aa565b92915050565b600080600060608486031215620003f757620003f6620001ed565b5b600084015167ffffffffffffffff811115620004185762000417620001f2565b5b620004268682870162000343565b935050602084015167ffffffffffffffff8111156200044a5762000449620001f2565b5b620004588682870162000343565b92505060406200046b86828701620003c4565b9150509250925092565b600081519050919050565b7f4e487b7100000000000000000000000000000000000000000000000000000000600052602260045260246000fd5b60006002820490506001821680620004c857607f821691505b602082108103620004de57620004dd62000480565b5b50919050565b60008190508160005260206000209050919050565b60006020601f8301049050919050565b600082821b905092915050565b600060088302620005487fffffffffffffffffffffffffffffffffffffffffffffffffffffffffffffffff8262000509565b62000554868362000509565b95508019841693508086168417925050509392505050565b6000819050919050565b6000819050919050565b6000620005a16200059b62000595846200056c565b62000576565b6200056c565b9050919050565b6000819050919050565b620005bd8362000580565b620005d5620005cc82620005a8565b84845462000516565b825550505050565b600090565b620005ec620005dd565b620005f9818484620005b2565b505050565b5b81811015620006215762000615600082620005e2565b600181019050620005ff565b5050565b601f82111562000670576200063a81620004e4565b6200064584620004f9565b8101602085101562000655578190505b6200066d6200066485620004f9565b830182620005fe565b50505b505050565b600082821c905092915050565b6000620006956000198460080262000675565b1980831691505092915050565b6000620006b0838362000682565b9150826002028217905092915050565b620006cb8262000475565b67ffffffffffffffff811115620006e757620006e662000212565b5b620006f38254620004af565b6200070082828562000625565b600060209050601f83116001811462000738576000841562000723578287015190505b6200072f8582620006a2565b8655506200079f565b601f1984166200074886620004e4565b60005b8281101562000772578489015182556001820191506020850194506020810190506200074b565b868310156200079257848901516200078e601f89168262000682565b8355505b6001600288020188555050505b505050505050565b620007b28162000396565b82525050565b6000602082019050620007cf6000830184620007a7565b92915050565b613e3280620007e56000396000f3fe6080604052600436106101ee5760003560e01c80634f6ccce71161010d57806395d89b41116100a0578063c4e41b221161006f578063c4e41b22146106d8578063c87b56dd14610703578063e985e9c514610740578063f2fde38b1461077d578063f3466dfa146107a6576101ee565b806395d89b411461061e578063970129be14610649578063a22cb46514610686578063b88d4fde146106af576101ee565b806370a08231116100dc57806370a0823114610588578063715018a6146105c55780638456cb59146105dc5780638da5cb5b146105f3576101ee565b80634f6ccce7146104ba5780635c975abb146104f75780636352211e14610522578063668c745d1461055f576101ee565b806323b872dd1161018557806342842e0e1161015457806342842e0e146104005780634466f18b146104295780634765f101146104525780634ec18db91461048f576101ee565b806323b872dd1461035a57806326ab7b34146103835780632f745c59146103ac5780633f4ba83a146103e9576101ee565b80630c2250e5116101c15780630c2250e5146102c1578063155dd5ee146102ea57806318160ddd1461031357806321fcb0dd1461033e576101ee565b806301ffc9a7146101f357806306fdde0314610230578063081812fc1461025b578063095ea7b314610298575b600080fd5b3480156101ff57600080fd5b5061021a60048036038101906102159190612dbb565b6107d1565b6040516102279190612e03565b60405180910390f35b34801561023c57600080fd5b506102456107e3565b6040516102529190612eae565b60405180910390f35b34801561026757600080fd5b50610282600480360381019061027d9190612f06565b610875565b60405161028f9190612f74565b60405180910390f35b3480156102a457600080fd5b506102bf60048036038101906102ba9190612fbb565b610891565b005b3480156102cd57600080fd5b506102e860048036038101906102e39190612f06565b6108a7565b005b3480156102f657600080fd5b50610311600480360381019061030c9190612f06565b61091e565b005b34801561031f57600080fd5b506103286109d3565b604051610335919061300a565b60405180910390f35b61035860048036038101906103539190612f06565b6109e0565b005b34801561036657600080fd5b50610381600480360381019061037c9190613025565b610a76565b005b34801561038f57600080fd5b506103aa60048036038101906103a59190613078565b610b78565b005b3480156103b857600080fd5b506103d360048036038101906103ce9190612fbb565b610c1b565b6040516103e0919061300a565b60405180910390f35b3480156103f557600080fd5b506103fe610cc4565b005b34801561040c57600080fd5b5061042760048036038101906104229190613025565b610d02565b005b34801561043557600080fd5b50610450600480360381019061044b91906130cb565b610d22565b005b34801561045e57600080fd5b5061047960048036038101906104749190612f06565b611000565b604051610486919061300a565b60405180910390f35b34801561049b57600080fd5b506104a4611060565b6040516104b1919061300a565b60405180910390f35b3480156104c657600080fd5b506104e160048036038101906104dc9190612f06565b611066565b6040516104ee919061300a565b60405180910390f35b34801561050357600080fd5b5061050c6110dc565b6040516105199190612e03565b60405180910390f35b34801561052e57600080fd5b5061054960048036038101906105449190612f06565b6110f3565b6040516105569190612f74565b60405180910390f35b34801561056b57600080fd5b5061058660048036038101906105819190613253565b611105565b005b34801561059457600080fd5b506105af60048036038101906105aa91906132d6565b61121a565b6040516105bc919061300a565b60405180910390f35b3480156105d157600080fd5b506105da6112d4565b005b3480156105e857600080fd5b506105f16112e8565b005b3480156105ff57600080fd5b50610608611326565b6040516106159190612f74565b60405180910390f35b34801561062a57600080fd5b50610633611350565b6040516106409190612eae565b60405180910390f35b34801561065557600080fd5b50610670600480360381019061066b9190612f06565b6113e2565b60405161067d91906133e1565b60405180910390f35b34801561069257600080fd5b506106ad60048036038101906106a8919061342f565b6114da565b005b3480156106bb57600080fd5b506106d660048036038101906106d19190613510565b6114f0565b005b3480156106e457600080fd5b506106ed61150d565b6040516106fa919061300a565b60405180910390f35b34801561070f57600080fd5b5061072a60048036038101906107259190612f06565b61151c565b6040516107379190612eae565b60405180910390f35b34801561074c57600080fd5b5061076760048036038101906107629190613593565b611585565b6040516107749190612e03565b60405180910390f35b34801561078957600080fd5b506107a4600480360381019061079f91906132d6565b611619565b005b3480156107b257600080fd5b506107bb61169f565b6040516107c89190612eae565b60405180910390f35b60006107dc8261172d565b9050919050565b6060600080546107f290613602565b80601f016020809104026020016040519081016040528092919081815260200182805461081e90613602565b801561086b5780601f106108405761010080835404028352916020019161086b565b820191906000526020600020905b81548152906001019060200180831161084e57829003601f168201915b5050505050905090565b6000610880826117a7565b5061088a8261182f565b9050919050565b6108a3828261089e61186c565b611874565b5050565b6108af611886565b6000600e6000838152602001908152602001600020905060018160040160006101000a81548160ff0219169083151502179055507f5e718c7871bfd8857599af41b40f69b6a7406960840c986fc47338eba8808b8582604051610912919061300a565b60405180910390a15050565b610926611886565b47811115610969576040517f08c379a0000000000000000000000000000000000000000000000000000000008152600401610960906136a5565b60405180910390fd5b80600c600082825461097b91906136f4565b9250508190555061098a611326565b73ffffffffffffffffffffffffffffffffffffffff166108fc829081150290604051600060405180830381858888f193505050501580156109cf573d6000803e3d6000fd5b5050565b6000600880549050905090565b6109e8611886565b348114610a21576040517ff9db597800000000000000000000000000000000000000000000000000000000815260040160405180910390fd5b80600c6000828254610a3391906136f4565b925050819055507fdd9502f23468ca95d8409f0a29a3d85ccd00929e542794b33dfbd69a7eab563f8133604051610a6b929190613728565b60405180910390a150565b600073ffffffffffffffffffffffffffffffffffffffff168273ffffffffffffffffffffffffffffffffffffffff1603610ae85760006040517f64a0ae92000000000000000000000000000000000000000000000000000000008152600401610adf9190612f74565b60405180910390fd5b6000610afc8383610af761186c565b61190d565b90508373ffffffffffffffffffffffffffffffffffffffff168173ffffffffffffffffffffffffffffffffffffffff1614610b72578382826040517f64283d7b000000000000000000000000000000000000000000000000000000008152600401610b6993929190613751565b60405180910390fd5b50505050565b610b80611886565b60006201518082610b919190613788565b42610b9c91906136f4565b90506000600e6000868152602001908152602001600020905083816001016000828254610bc991906136f4565b925050819055508181600301819055507f748cfa0f8261f0b8cac61804f8a85ca562c08c1befbf32bbd6dfe03960d29e0f858584604051610c0c939291906137ca565b60405180910390a15050505050565b6000610c268361121a565b8210610c6b5782826040517fa57d13dc000000000000000000000000000000000000000000000000000000008152600401610c62929190613801565b60405180910390fd5b600660008473ffffffffffffffffffffffffffffffffffffffff1673ffffffffffffffffffffffffffffffffffffffff168152602001908152602001600020600083815260200190815260200160002054905092915050565b610ccc611886565b610cd4611923565b7f0e5e3b3fb504c22cf5c42fa07d521225937514c654007e1f12646f89768d6f9460405160405180910390a1565b610d1d838383604051806020016040528060008152506114f0565b505050565b610d2a611986565b6000600e600085815260200190815260200160002090503373ffffffffffffffffffffffffffffffffffffffff16610d61856110f3565b73ffffffffffffffffffffffffffffffffffffffff1614610dae576040517fea8e4eb500000000000000000000000000000000000000000000000000000000815260040160405180910390fd5b8060030154421115610dec576040517fa21660f000000000000000000000000000000000000000000000000000000000815260040160405180910390fd5b600115158160040160009054906101000a900460ff16151503610e3b576040517f9ae33a2600000000000000000000000000000000000000000000000000000000815260040160405180910390fd5b6000816001015403610e79576040517f690a407600000000000000000000000000000000000000000000000000000000815260040160405180910390fd5b8181600201548260010154610e8e919061382a565b1015610ec6576040517f8ac4bc7300000000000000000000000000000000000000000000000000000000815260040160405180910390fd5b81471015610f00576040517fbc6072f100000000000000000000000000000000000000000000000000000000815260040160405180910390fd5b81816002016000828254610f1491906136f4565b9250508190555060008373ffffffffffffffffffffffffffffffffffffffff1683604051610f419061388f565b60006040518083038185875af1925050503d8060008114610f7e576040519150601f19603f3d011682016040523d82523d6000602084013e610f83565b606091505b5050905080610fbe576040517f90b8ec1800000000000000000000000000000000000000000000000000000000815260040160405180910390fd5b7f7e3c238356c8eb6519c01391fd819024a54e7219735fda1b58ecbf6f6335e301858585604051610ff1939291906138a4565b60405180910390a15050505050565b600080600e600084815260200190815260200160002090508060030154421061102d57600091505061105b565b600042826003015461103f919061382a565b905060006201518082611052919061390a565b90508093505050505b919050565b600c5481565b60006110706109d3565b82106110b6576000826040517fa57d13dc0000000000000000000000000000000000000000000000000000000081526004016110ad929190613801565b60405180910390fd5b600882815481106110ca576110c961393b565b5b90600052602060002001549050919050565b6000600a60009054906101000a900460ff16905090565b60006110fe826117a7565b9050919050565b61110d611886565b6000620151808261111e9190613788565b4261112991906136f4565b90506000611136856119c7565b905060006040518060a001604052808881526020018681526020016000815260200184815260200160001515815250905080600e600084815260200190815260200160002060008201518160000190816111909190613b16565b5060208201518160010155604082015181600201556060820151816003015560808201518160040160006101000a81548160ff0219169083151502179055509050507fbffd54593e1ce21bc0cf8a13206ba0358211dd80b29f9b09553c673c6519c97c8288888887604051611209959493929190613be8565b60405180910390a150505050505050565b60008073ffffffffffffffffffffffffffffffffffffffff168273ffffffffffffffffffffffffffffffffffffffff160361128d5760006040517f89c62b640000000000000000000000000000000000000000000000000000000081526004016112849190612f74565b60405180910390fd5b600360008373ffffffffffffffffffffffffffffffffffffffff1673ffffffffffffffffffffffffffffffffffffffff168152602001908152602001600020549050919050565b6112dc611886565b6112e660006119f6565b565b6112f0611886565b6112f8611abc565b7fab35696f06e428ebc5ceba8cd17f8fed287baf43440206d1943af1ee53e6d26760405160405180910390a1565b6000600a60019054906101000a900473ffffffffffffffffffffffffffffffffffffffff16905090565b60606001805461135f90613602565b80601f016020809104026020016040519081016040528092919081815260200182805461138b90613602565b80156113d85780601f106113ad576101008083540402835291602001916113d8565b820191906000526020600020905b8154815290600101906020018083116113bb57829003601f168201915b5050505050905090565b6113ea612d1e565b600e60008381526020019081526020016000206040518060a001604052908160008201805461141890613602565b80601f016020809104026020016040519081016040528092919081815260200182805461144490613602565b80156114915780601f1061146657610100808354040283529160200191611491565b820191906000526020600020905b81548152906001019060200180831161147457829003601f168201915b505050505081526020016001820154815260200160028201548152602001600382015481526020016004820160009054906101000a900460ff1615151515815250509050919050565b6114ec6114e561186c565b8383611b1f565b5050565b6114fb848484610a76565b61150784848484611c8e565b50505050565b60006115176109d3565b905090565b6060611527826117a7565b506000611532611e45565b90506000815111611552576040518060200160405280600081525061157d565b8061155c84611e5c565b60405160200161156d929190613c7e565b6040516020818303038152906040525b915050919050565b6000600560008473ffffffffffffffffffffffffffffffffffffffff1673ffffffffffffffffffffffffffffffffffffffff16815260200190815260200160002060008373ffffffffffffffffffffffffffffffffffffffff1673ffffffffffffffffffffffffffffffffffffffff16815260200190815260200160002060009054906101000a900460ff16905092915050565b611621611886565b600073ffffffffffffffffffffffffffffffffffffffff168173ffffffffffffffffffffffffffffffffffffffff16036116935760006040517f1e4fbdf700000000000000000000000000000000000000000000000000000000815260040161168a9190612f74565b60405180910390fd5b61169c816119f6565b50565b600d80546116ac90613602565b80601f01602080910402602001604051908101604052809291908181526020018280546116d890613602565b80156117255780601f106116fa57610100808354040283529160200191611725565b820191906000526020600020905b81548152906001019060200180831161170857829003601f168201915b505050505081565b60007f780e9d63000000000000000000000000000000000000000000000000000000007bffffffffffffffffffffffffffffffffffffffffffffffffffffffff1916827bffffffffffffffffffffffffffffffffffffffffffffffffffffffff191614806117a0575061179f82611f2a565b5b9050919050565b6000806117b38361200c565b9050600073ffffffffffffffffffffffffffffffffffffffff168173ffffffffffffffffffffffffffffffffffffffff160361182657826040517f7e27328900000000000000000000000000000000000000000000000000000000815260040161181d919061300a565b60405180910390fd5b80915050919050565b60006004600083815260200190815260200160002060009054906101000a900473ffffffffffffffffffffffffffffffffffffffff169050919050565b600033905090565b6118818383836001612049565b505050565b61188e61186c565b73ffffffffffffffffffffffffffffffffffffffff166118ac611326565b73ffffffffffffffffffffffffffffffffffffffff161461190b576118cf61186c565b6040517f118cdaa70000000000000000000000000000000000000000000000000000000081526004016119029190612f74565b60405180910390fd5b565b600061191a84848461220e565b90509392505050565b61192b61222c565b6000600a60006101000a81548160ff0219169083151502179055507f5db9ee0a495bf2e6ff9c91a7834c1ba4fdd244a5e8aa4e537bd38aeae4b073aa61196f61186c565b60405161197c9190612f74565b60405180910390a1565b61198e6110dc565b156119c5576040517fd93c066500000000000000000000000000000000000000000000000000000000815260040160405180910390fd5b565b600080600b60008154809291906119dd90613ca2565b9190505590506119ed838261226c565b80915050919050565b6000600a60019054906101000a900473ffffffffffffffffffffffffffffffffffffffff16905081600a60016101000a81548173ffffffffffffffffffffffffffffffffffffffff021916908373ffffffffffffffffffffffffffffffffffffffff1602179055508173ffffffffffffffffffffffffffffffffffffffff168173ffffffffffffffffffffffffffffffffffffffff167f8be0079c531659141344cd1fd0a4f28419497f9722a3daafe3b4186f6b6457e060405160405180910390a35050565b611ac4611986565b6001600a60006101000a81548160ff0219169083151502179055507f62e78cea01bee320cd4e420270b5ea74000d11b0c9f74754ebdbfc544b05a258611b0861186c565b604051611b159190612f74565b60405180910390a1565b600073ffffffffffffffffffffffffffffffffffffffff168273ffffffffffffffffffffffffffffffffffffffff1603611b9057816040517f5b08ba18000000000000000000000000000000000000000000000000000000008152600401611b879190612f74565b60405180910390fd5b80600560008573ffffffffffffffffffffffffffffffffffffffff1673ffffffffffffffffffffffffffffffffffffffff16815260200190815260200160002060008473ffffffffffffffffffffffffffffffffffffffff1673ffffffffffffffffffffffffffffffffffffffff16815260200190815260200160002060006101000a81548160ff0219169083151502179055508173ffffffffffffffffffffffffffffffffffffffff168373ffffffffffffffffffffffffffffffffffffffff167f17307eab39ab6107e8899845ad3d59bd9653f200f220920489ca2b5937696c3183604051611c819190612e03565b60405180910390a3505050565b60008373ffffffffffffffffffffffffffffffffffffffff163b1115611e3f578273ffffffffffffffffffffffffffffffffffffffff1663150b7a02611cd261186c565b8685856040518563ffffffff1660e01b8152600401611cf49493929190613d3f565b6020604051808303816000875af1925050508015611d3057506040513d601f19601f82011682018060405250810190611d2d9190613da0565b60015b611db4573d8060008114611d60576040519150601f19603f3d011682016040523d82523d6000602084013e611d65565b606091505b506000815103611dac57836040517f64a0ae92000000000000000000000000000000000000000000000000000000008152600401611da39190612f74565b60405180910390fd5b805181602001fd5b63150b7a0260e01b7bffffffffffffffffffffffffffffffffffffffffffffffffffffffff1916817bffffffffffffffffffffffffffffffffffffffffffffffffffffffff191614611e3d57836040517f64a0ae92000000000000000000000000000000000000000000000000000000008152600401611e349190612f74565b60405180910390fd5b505b50505050565b606060405180602001604052806000815250905090565b606060006001611e6b8461228a565b01905060008167ffffffffffffffff811115611e8a57611e89613128565b5b6040519080825280601f01601f191660200182016040528015611ebc5781602001600182028036833780820191505090505b509050600082602001820190505b600115611f1f578080600190039150507f3031323334353637383961626364656600000000000000000000000000000000600a86061a8153600a8581611f1357611f126138db565b5b04945060008503611eca575b819350505050919050565b60007f80ac58cd000000000000000000000000000000000000000000000000000000007bffffffffffffffffffffffffffffffffffffffffffffffffffffffff1916827bffffffffffffffffffffffffffffffffffffffffffffffffffffffff19161480611ff557507f5b5e139f000000000000000000000000000000000000000000000000000000007bffffffffffffffffffffffffffffffffffffffffffffffffffffffff1916827bffffffffffffffffffffffffffffffffffffffffffffffffffffffff1916145b806120055750612004826123dd565b5b9050919050565b60006002600083815260200190815260200160002060009054906101000a900473ffffffffffffffffffffffffffffffffffffffff169050919050565b80806120825750600073ffffffffffffffffffffffffffffffffffffffff168273ffffffffffffffffffffffffffffffffffffffff1614155b156121b6576000612092846117a7565b9050600073ffffffffffffffffffffffffffffffffffffffff168373ffffffffffffffffffffffffffffffffffffffff16141580156120fd57508273ffffffffffffffffffffffffffffffffffffffff168173ffffffffffffffffffffffffffffffffffffffff1614155b8015612110575061210e8184611585565b155b1561215257826040517fa9fbf51f0000000000000000000000000000000000000000000000000000000081526004016121499190612f74565b60405180910390fd5b81156121b457838573ffffffffffffffffffffffffffffffffffffffff168273ffffffffffffffffffffffffffffffffffffffff167f8c5be1e5ebec7d5bd14f71427d1e84f3dd0314c0f7b2291e5b200ac8c7c3b92560405160405180910390a45b505b836004600085815260200190815260200160002060006101000a81548173ffffffffffffffffffffffffffffffffffffffff021916908373ffffffffffffffffffffffffffffffffffffffff16021790555050505050565b6000612218611986565b612223848484612447565b90509392505050565b6122346110dc565b61226a576040517f8dfc202b00000000000000000000000000000000000000000000000000000000815260040160405180910390fd5b565b612286828260405180602001604052806000815250612564565b5050565b600080600090507a184f03e93ff9f4daa797ed6e38ed64bf6a1f01000000000000000083106122e8577a184f03e93ff9f4daa797ed6e38ed64bf6a1f01000000000000000083816122de576122dd6138db565b5b0492506040810190505b6d04ee2d6d415b85acef81000000008310612325576d04ee2d6d415b85acef8100000000838161231b5761231a6138db565b5b0492506020810190505b662386f26fc10000831061235457662386f26fc10000838161234a576123496138db565b5b0492506010810190505b6305f5e100831061237d576305f5e1008381612373576123726138db565b5b0492506008810190505b61271083106123a2576127108381612398576123976138db565b5b0492506004810190505b606483106123c557606483816123bb576123ba6138db565b5b0492506002810190505b600a83106123d4576001810190505b80915050919050565b60007f01ffc9a7000000000000000000000000000000000000000000000000000000007bffffffffffffffffffffffffffffffffffffffffffffffffffffffff1916827bffffffffffffffffffffffffffffffffffffffffffffffffffffffff1916149050919050565b600080612455858585612580565b9050600073ffffffffffffffffffffffffffffffffffffffff168173ffffffffffffffffffffffffffffffffffffffff1603612499576124948461279a565b6124d8565b8473ffffffffffffffffffffffffffffffffffffffff168173ffffffffffffffffffffffffffffffffffffffff16146124d7576124d681856127e3565b5b5b600073ffffffffffffffffffffffffffffffffffffffff168573ffffffffffffffffffffffffffffffffffffffff160361251a5761251584612944565b612559565b8473ffffffffffffffffffffffffffffffffffffffff168173ffffffffffffffffffffffffffffffffffffffff1614612558576125578585612a15565b5b5b809150509392505050565b61256e8383612aa0565b61257b6000848484611c8e565b505050565b60008061258c8461200c565b9050600073ffffffffffffffffffffffffffffffffffffffff168373ffffffffffffffffffffffffffffffffffffffff16146125ce576125cd818486612b99565b5b600073ffffffffffffffffffffffffffffffffffffffff168173ffffffffffffffffffffffffffffffffffffffff161461265f57612610600085600080612049565b6001600360008373ffffffffffffffffffffffffffffffffffffffff1673ffffffffffffffffffffffffffffffffffffffff168152602001908152602001600020600082825403925050819055505b600073ffffffffffffffffffffffffffffffffffffffff168573ffffffffffffffffffffffffffffffffffffffff16146126e2576001600360008773ffffffffffffffffffffffffffffffffffffffff1673ffffffffffffffffffffffffffffffffffffffff168152602001908152602001600020600082825401925050819055505b846002600086815260200190815260200160002060006101000a81548173ffffffffffffffffffffffffffffffffffffffff021916908373ffffffffffffffffffffffffffffffffffffffff160217905550838573ffffffffffffffffffffffffffffffffffffffff168273ffffffffffffffffffffffffffffffffffffffff167fddf252ad1be2c89b69c2b068fc378daa952ba7f163c4a11628f55a4df523b3ef60405160405180910390a4809150509392505050565b6008805490506009600083815260200190815260200160002081905550600881908060018154018082558091505060019003906000526020600020016000909190919091505550565b60006127ee8361121a565b90506000600760008481526020019081526020016000205490508181146128d3576000600660008673ffffffffffffffffffffffffffffffffffffffff1673ffffffffffffffffffffffffffffffffffffffff168152602001908152602001600020600084815260200190815260200160002054905080600660008773ffffffffffffffffffffffffffffffffffffffff1673ffffffffffffffffffffffffffffffffffffffff168152602001908152602001600020600084815260200190815260200160002081905550816007600083815260200190815260200160002081905550505b6007600084815260200190815260200160002060009055600660008573ffffffffffffffffffffffffffffffffffffffff1673ffffffffffffffffffffffffffffffffffffffff16815260200190815260200160002060008381526020019081526020016000206000905550505050565b60006001600880549050612958919061382a565b90506000600960008481526020019081526020016000205490506000600883815481106129885761298761393b565b5b9060005260206000200154905080600883815481106129aa576129a961393b565b5b9060005260206000200181905550816009600083815260200190815260200160002081905550600960008581526020019081526020016000206000905560088054806129f9576129f8613dcd565b5b6001900381819060005260206000200160009055905550505050565b60006001612a228461121a565b612a2c919061382a565b905081600660008573ffffffffffffffffffffffffffffffffffffffff1673ffffffffffffffffffffffffffffffffffffffff168152602001908152602001600020600083815260200190815260200160002081905550806007600084815260200190815260200160002081905550505050565b600073ffffffffffffffffffffffffffffffffffffffff168273ffffffffffffffffffffffffffffffffffffffff1603612b125760006040517f64a0ae92000000000000000000000000000000000000000000000000000000008152600401612b099190612f74565b60405180910390fd5b6000612b208383600061190d565b9050600073ffffffffffffffffffffffffffffffffffffffff168173ffffffffffffffffffffffffffffffffffffffff1614612b945760006040517f73c6ac6e000000000000000000000000000000000000000000000000000000008152600401612b8b9190612f74565b60405180910390fd5b505050565b612ba4838383612c5d565b612c5857600073ffffffffffffffffffffffffffffffffffffffff168373ffffffffffffffffffffffffffffffffffffffff1603612c1957806040517f7e273289000000000000000000000000000000000000000000000000000000008152600401612c10919061300a565b60405180910390fd5b81816040517f177e802f000000000000000000000000000000000000000000000000000000008152600401612c4f929190613801565b60405180910390fd5b505050565b60008073ffffffffffffffffffffffffffffffffffffffff168373ffffffffffffffffffffffffffffffffffffffff1614158015612d1557508273ffffffffffffffffffffffffffffffffffffffff168473ffffffffffffffffffffffffffffffffffffffff161480612cd65750612cd58484611585565b5b80612d1457508273ffffffffffffffffffffffffffffffffffffffff16612cfc8361182f565b73ffffffffffffffffffffffffffffffffffffffff16145b5b90509392505050565b6040518060a00160405280606081526020016000815260200160008152602001600081526020016000151581525090565b6000604051905090565b600080fd5b600080fd5b60007fffffffff0000000000000000000000000000000000000000000000000000000082169050919050565b612d9881612d63565b8114612da357600080fd5b50565b600081359050612db581612d8f565b92915050565b600060208284031215612dd157612dd0612d59565b5b6000612ddf84828501612da6565b91505092915050565b60008115159050919050565b612dfd81612de8565b82525050565b6000602082019050612e186000830184612df4565b92915050565b600081519050919050565b600082825260208201905092915050565b60005b83811015612e58578082015181840152602081019050612e3d565b60008484015250505050565b6000601f19601f8301169050919050565b6000612e8082612e1e565b612e8a8185612e29565b9350612e9a818560208601612e3a565b612ea381612e64565b840191505092915050565b60006020820190508181036000830152612ec88184612e75565b905092915050565b6000819050919050565b612ee381612ed0565b8114612eee57600080fd5b50565b600081359050612f0081612eda565b92915050565b600060208284031215612f1c57612f1b612d59565b5b6000612f2a84828501612ef1565b91505092915050565b600073ffffffffffffffffffffffffffffffffffffffff82169050919050565b6000612f5e82612f33565b9050919050565b612f6e81612f53565b82525050565b6000602082019050612f896000830184612f65565b92915050565b612f9881612f53565b8114612fa357600080fd5b50565b600081359050612fb581612f8f565b92915050565b60008060408385031215612fd257612fd1612d59565b5b6000612fe085828601612fa6565b9250506020612ff185828601612ef1565b9150509250929050565b61300481612ed0565b82525050565b600060208201905061301f6000830184612ffb565b92915050565b60008060006060848603121561303e5761303d612d59565b5b600061304c86828701612fa6565b935050602061305d86828701612fa6565b925050604061306e86828701612ef1565b9150509250925092565b60008060006060848603121561309157613090612d59565b5b600061309f86828701612ef1565b93505060206130b086828701612ef1565b92505060406130c186828701612ef1565b9150509250925092565b6000806000606084860312156130e4576130e3612d59565b5b60006130f286828701612ef1565b935050602061310386828701612fa6565b925050604061311486828701612ef1565b9150509250925092565b600080fd5b600080fd5b7f4e487b7100000000000000000000000000000000000000000000000000000000600052604160045260246000fd5b61316082612e64565b810181811067ffffffffffffffff8211171561317f5761317e613128565b5b80604052505050565b6000613192612d4f565b905061319e8282613157565b919050565b600067ffffffffffffffff8211156131be576131bd613128565b5b6131c782612e64565b9050602081019050919050565b82818337600083830152505050565b60006131f66131f1846131a3565b613188565b90508281526020810184848401111561321257613211613123565b5b61321d8482856131d4565b509392505050565b600082601f83011261323a5761323961311e565b5b813561324a8482602086016131e3565b91505092915050565b6000806000806080858703121561326d5761326c612d59565b5b600085013567ffffffffffffffff81111561328b5761328a612d5e565b5b61329787828801613225565b94505060206132a887828801612fa6565b93505060406132b987828801612ef1565b92505060606132ca87828801612ef1565b91505092959194509250565b6000602082840312156132ec576132eb612d59565b5b60006132fa84828501612fa6565b91505092915050565b600082825260208201905092915050565b600061331f82612e1e565b6133298185613303565b9350613339818560208601612e3a565b61334281612e64565b840191505092915050565b61335681612ed0565b82525050565b61336581612de8565b82525050565b600060a08301600083015184820360008601526133888282613314565b915050602083015161339d602086018261334d565b5060408301516133b0604086018261334d565b5060608301516133c3606086018261334d565b5060808301516133d6608086018261335c565b508091505092915050565b600060208201905081810360008301526133fb818461336b565b905092915050565b61340c81612de8565b811461341757600080fd5b50565b60008135905061342981613403565b92915050565b6000806040838503121561344657613445612d59565b5b600061345485828601612fa6565b92505060206134658582860161341a565b9150509250929050565b600067ffffffffffffffff82111561348a57613489613128565b5b61349382612e64565b9050602081019050919050565b60006134b36134ae8461346f565b613188565b9050828152602081018484840111156134cf576134ce613123565b5b6134da8482856131d4565b509392505050565b600082601f8301126134f7576134f661311e565b5b81356135078482602086016134a0565b91505092915050565b6000806000806080858703121561352a57613529612d59565b5b600061353887828801612fa6565b945050602061354987828801612fa6565b935050604061355a87828801612ef1565b925050606085013567ffffffffffffffff81111561357b5761357a612d5e565b5b613587878288016134e2565b91505092959194509250565b600080604083850312156135aa576135a9612d59565b5b60006135b885828601612fa6565b92505060206135c985828601612fa6565b9150509250929050565b7f4e487b7100000000000000000000000000000000000000000000000000000000600052602260045260246000fd5b6000600282049050600182168061361a57607f821691505b60208210810361362d5761362c6135d3565b5b50919050565b7f4e6f7420656e6f7567682066756e647320696e2074686520636f6e747261637460008201527f2100000000000000000000000000000000000000000000000000000000000000602082015250565b600061368f602183612e29565b915061369a82613633565b604082019050919050565b600060208201905081810360008301526136be81613682565b9050919050565b7f4e487b7100000000000000000000000000000000000000000000000000000000600052601160045260246000fd5b60006136ff82612ed0565b915061370a83612ed0565b9250828201905080821115613722576137216136c5565b5b92915050565b600060408201905061373d6000830185612ffb565b61374a6020830184612f65565b9392505050565b60006060820190506137666000830186612f65565b6137736020830185612ffb565b6137806040830184612f65565b949350505050565b600061379382612ed0565b915061379e83612ed0565b92508282026137ac81612ed0565b915082820484148315176137c3576137c26136c5565b5b5092915050565b60006060820190506137df6000830186612ffb565b6137ec6020830185612ffb565b6137f96040830184612ffb565b949350505050565b60006040820190506138166000830185612f65565b6138236020830184612ffb565b9392505050565b600061383582612ed0565b915061384083612ed0565b9250828203905081811115613858576138576136c5565b5b92915050565b600081905092915050565b50565b600061387960008361385e565b915061388482613869565b600082019050919050565b600061389a8261386c565b9150819050919050565b60006060820190506138b96000830186612ffb565b6138c66020830185612f65565b6138d36040830184612ffb565b949350505050565b7f4e487b7100000000000000000000000000000000000000000000000000000000600052601260045260246000fd5b600061391582612ed0565b915061392083612ed0565b9250826139305761392f6138db565b5b828204905092915050565b7f4e487b7100000000000000000000000000000000000000000000000000000000600052603260045260246000fd5b60008190508160005260206000209050919050565b60006020601f8301049050919050565b600082821b905092915050565b6000600883026139cc7fffffffffffffffffffffffffffffffffffffffffffffffffffffffffffffffff8261398f565b6139d6868361398f565b95508019841693508086168417925050509392505050565b6000819050919050565b6000613a13613a0e613a0984612ed0565b6139ee565b612ed0565b9050919050565b6000819050919050565b613a2d836139f8565b613a41613a3982613a1a565b84845461399c565b825550505050565b600090565b613a56613a49565b613a61818484613a24565b505050565b5b81811015613a8557613a7a600082613a4e565b600181019050613a67565b5050565b601f821115613aca57613a9b8161396a565b613aa48461397f565b81016020851015613ab3578190505b613ac7613abf8561397f565b830182613a66565b50505b505050565b600082821c905092915050565b6000613aed60001984600802613acf565b1980831691505092915050565b6000613b068383613adc565b9150826002028217905092915050565b613b1f82612e1e565b67ffffffffffffffff811115613b3857613b37613128565b5b613b428254613602565b613b4d828285613a89565b600060209050601f831160018114613b805760008415613b6e578287015190505b613b788582613afa565b865550613be0565b601f198416613b8e8661396a565b60005b82811015613bb657848901518255600182019150602085019450602081019050613b91565b86831015613bd35784890151613bcf601f891682613adc565b8355505b6001600288020188555050505b505050505050565b600060a082019050613bfd6000830188612ffb565b8181036020830152613c0f8187612e75565b9050613c1e6040830186612f65565b613c2b6060830185612ffb565b613c386080830184612ffb565b9695505050505050565b600081905092915050565b6000613c5882612e1e565b613c628185613c42565b9350613c72818560208601612e3a565b80840191505092915050565b6000613c8a8285613c4d565b9150613c968284613c4d565b91508190509392505050565b6000613cad82612ed0565b91507fffffffffffffffffffffffffffffffffffffffffffffffffffffffffffffffff8203613cdf57613cde6136c5565b5b600182019050919050565b600081519050919050565b600082825260208201905092915050565b6000613d1182613cea565b613d1b8185613cf5565b9350613d2b818560208601612e3a565b613d3481612e64565b840191505092915050565b6000608082019050613d546000830187612f65565b613d616020830186612f65565b613d6e6040830185612ffb565b8181036060830152613d808184613d06565b905095945050505050565b600081519050613d9a81612d8f565b92915050565b600060208284031215613db657613db5612d59565b5b6000613dc484828501613d8b565b91505092915050565b7f4e487b7100000000000000000000000000000000000000000000000000000000600052603160045260246000fdfea26469706673582212201434049dcd0ba2beb6bce2c206b11fe73687ee9e26e6502b63ed3e3b7d1e2bf764736f6c63430008150033",
  "linkReferences": {},
  "deployedLinkReferences": {}
}