{
  "_format": "hh-sol-artifact-1",
  "contractName": "DebitCard",
  "sourceName": "contracts/Debit Card/DebitCard.sol",
  "abi": [
    {
      "inputs": [
        {
          "internalType": "string",
          "name": "name",
          "type": "string"
        },
        {
          "internalType": "string",
          "name": "symbol",
          "type": "string"
        },
        {
          "internalType": "address",
          "name": "initialOwner",
          "type": "address"
        }
      ],
      "stateMutability": "nonpayable",
      "type": "constructor"
    },
    {
      "inputs": [],
      "name": "CardExpired",
      "type": "error"
    },
    {
      "inputs": [],
      "name": "CardHasBeenDiscarded",
      "type": "error"
    },
    {
      "inputs": [],
      "name": "ERC721EnumerableForbiddenBatchMint",
      "type": "error"
    },
    {
      "inputs": [
        {
          "internalType": "address",
          "name": "sender",
          "type": "address"
        },
        {
          "internalType": "uint256",
          "name": "tokenId",
          "type": "uint256"
        },
        {
          "internalType": "address",
          "name": "owner",
          "type": "address"
        }
      ],
      "name": "ERC721IncorrectOwner",
      "type": "error"
    },
    {
      "inputs": [
        {
          "internalType": "address",
          "name": "operator",
          "type": "address"
        },
        {
          "internalType": "uint256",
          "name": "tokenId",
          "type": "uint256"
        }
      ],
      "name": "ERC721InsufficientApproval",
      "type": "error"
    },
    {
      "inputs": [
        {
          "internalType": "address",
          "name": "approver",
          "type": "address"
        }
      ],
      "name": "ERC721InvalidApprover",
      "type": "error"
    },
    {
      "inputs": [
        {
          "internalType": "address",
          "name": "operator",
          "type": "address"
        }
      ],
      "name": "ERC721InvalidOperator",
      "type": "error"
    },
    {
      "inputs": [
        {
          "internalType": "address",
          "name": "owner",
          "type": "address"
        }
      ],
      "name": "ERC721InvalidOwner",
      "type": "error"
    },
    {
      "inputs": [
        {
          "internalType": "address",
          "name": "receiver",
          "type": "address"
        }
      ],
      "name": "ERC721InvalidReceiver",
      "type": "error"
    },
    {
      "inputs": [
        {
          "internalType": "address",
          "name": "sender",
          "type": "address"
        }
      ],
      "name": "ERC721InvalidSender",
      "type": "error"
    },
    {
      "inputs": [
        {
          "internalType": "uint256",
          "name": "tokenId",
          "type": "uint256"
        }
      ],
      "name": "ERC721NonexistentToken",
      "type": "error"
    },
    {
      "inputs": [
        {
          "internalType": "address",
          "name": "owner",
          "type": "address"
        },
        {
          "internalType": "uint256",
          "name": "index",
          "type": "uint256"
        }
      ],
      "name": "ERC721OutOfBoundsIndex",
      "type": "error"
    },
    {
      "inputs": [],
      "name": "EnforcedPause",
      "type": "error"
    },
    {
      "inputs": [],
      "name": "ExpectedPause",
      "type": "error"
    },
    {
      "inputs": [],
      "name": "InsufficientCredit",
      "type": "error"
    },
    {
      "inputs": [],
      "name": "InsufficientPoolBalance",
      "type": "error"
    },
    {
      "inputs": [],
      "name": "NotAuthorized",
      "type": "error"
    },
    {
      "inputs": [
        {
          "internalType": "address",
          "name": "owner",
          "type": "address"
        }
      ],
      "name": "OwnableInvalidOwner",
      "type": "error"
    },
    {
      "inputs": [
        {
          "internalType": "address",
          "name": "account",
          "type": "address"
        }
      ],
      "name": "OwnableUnauthorizedAccount",
      "type": "error"
    },
    {
      "inputs": [],
      "name": "SendEnoughFunds",
      "type": "error"
    },
    {
      "inputs": [],
      "name": "TransferFailed",
      "type": "error"
    },
    {
      "inputs": [],
      "name": "ZeroAmountIssued",
      "type": "error"
    },
    {
      "anonymous": false,
      "inputs": [
        {
          "indexed": true,
          "internalType": "address",
          "name": "owner",
          "type": "address"
        },
        {
          "indexed": true,
          "internalType": "address",
          "name": "approved",
          "type": "address"
        },
        {
          "indexed": true,
          "internalType": "uint256",
          "name": "tokenId",
          "type": "uint256"
        }
      ],
      "name": "Approval",
      "type": "event"
    },
    {
      "anonymous": false,
      "inputs": [
        {
          "indexed": true,
          "internalType": "address",
          "name": "owner",
          "type": "address"
        },
        {
          "indexed": true,
          "internalType": "address",
          "name": "operator",
          "type": "address"
        },
        {
          "indexed": false,
          "internalType": "bool",
          "name": "approved",
          "type": "bool"
        }
      ],
      "name": "ApprovalForAll",
      "type": "event"
    },
    {
      "anonymous": false,
      "inputs": [
        {
          "indexed": false,
          "internalType": "uint256",
          "name": "tokenId",
          "type": "uint256"
        }
      ],
      "name": "CardDiscarded",
      "type": "event"
    },
    {
      "anonymous": false,
      "inputs": [
        {
          "indexed": false,
          "internalType": "uint256",
          "name": "tokenId",
          "type": "uint256"
        },
        {
          "indexed": false,
          "internalType": "string",
          "name": "cardName",
          "type": "string"
        },
        {
          "indexed": false,
          "internalType": "address",
          "name": "issuedTo",
          "type": "address"
        },
        {
          "indexed": false,
          "internalType": "uint256",
          "name": "amountIssued",
          "type": "uint256"
        },
        {
          "indexed": false,
          "internalType": "uint256",
          "name": "expirationTime",
          "type": "uint256"
        }
      ],
      "name": "CardIssued",
      "type": "event"
    },
    {
      "anonymous": false,
      "inputs": [
        {
          "indexed": false,
          "internalType": "uint256",
          "name": "tokenId",
          "type": "uint256"
        },
        {
          "indexed": false,
          "internalType": "uint256",
          "name": "additionalAmount",
          "type": "uint256"
        },
        {
          "indexed": false,
          "internalType": "uint256",
          "name": "newExpirationTime",
          "type": "uint256"
        }
      ],
      "name": "CardUpdated",
      "type": "event"
    },
    {
      "anonymous": false,
      "inputs": [],
      "name": "ContractPaused",
      "type": "event"
    },
    {
      "anonymous": false,
      "inputs": [],
      "name": "ContractUnpaused",
      "type": "event"
    },
    {
      "anonymous": false,
      "inputs": [
        {
          "indexed": false,
          "internalType": "uint256",
          "name": "amount",
          "type": "uint256"
        },
        {
          "indexed": false,
          "internalType": "address",
          "name": "addedBy",
          "type": "address"
        }
      ],
      "name": "FundsAddedToPool",
      "type": "event"
    },
    {
      "anonymous": false,
      "inputs": [
        {
          "indexed": false,
          "internalType": "uint256",
          "name": "tokenId",
          "type": "uint256"
        },
        {
          "indexed": false,
          "internalType": "address",
          "name": "recipient",
          "type": "address"
        },
        {
          "indexed": false,
          "internalType": "uint256",
          "name": "spendAmount",
          "type": "uint256"
        }
      ],
      "name": "FundsSpentFromCard",
      "type": "event"
    },
    {
      "anonymous": false,
      "inputs": [
        {
          "indexed": true,
          "internalType": "address",
          "name": "previousOwner",
          "type": "address"
        },
        {
          "indexed": true,
          "internalType": "address",
          "name": "newOwner",
          "type": "address"
        }
      ],
      "name": "OwnershipTransferred",
      "type": "event"
    },
    {
      "anonymous": false,
      "inputs": [
        {
          "indexed": false,
          "internalType": "address",
          "name": "account",
          "type": "address"
        }
      ],
      "name": "Paused",
      "type": "event"
    },
    {
      "anonymous": false,
      "inputs": [
        {
          "indexed": true,
          "internalType": "address",
          "name": "from",
          "type": "address"
        },
        {
          "indexed": true,
          "internalType": "address",
          "name": "to",
          "type": "address"
        },
        {
          "indexed": true,
          "internalType": "uint256",
          "name": "tokenId",
          "type": "uint256"
        }
      ],
      "name": "Transfer",
      "type": "event"
    },
    {
      "anonymous": false,
      "inputs": [
        {
          "indexed": false,
          "internalType": "address",
          "name": "account",
          "type": "address"
        }
      ],
      "name": "Unpaused",
      "type": "event"
    },
    {
      "inputs": [
        {
          "internalType": "uint256",
          "name": "amount",
          "type": "uint256"
        }
      ],
      "name": "addFundsToPool",
      "outputs": [],
      "stateMutability": "payable",
      "type": "function"
    },
    {
      "inputs": [
        {
          "internalType": "address",
          "name": "to",
          "type": "address"
        },
        {
          "internalType": "uint256",
          "name": "tokenId",
          "type": "uint256"
        }
      ],
      "name": "approve",
      "outputs": [],
      "stateMutability": "nonpayable",
      "type": "function"
    },
    {
      "inputs": [
        {
          "internalType": "address",
          "name": "owner",
          "type": "address"
        }
      ],
      "name": "balanceOf",
      "outputs": [
        {
          "internalType": "uint256",
          "name": "",
          "type": "uint256"
        }
      ],
      "stateMutability": "view",
      "type": "function"
    },
    {
      "inputs": [
        {
          "internalType": "uint256",
          "name": "tokenId",
          "type": "uint256"
        }
      ],
      "name": "discardCard",
      "outputs": [],
      "stateMutability": "nonpayable",
      "type": "function"
    },
    {
      "inputs": [
        {
          "internalType": "uint256",
          "name": "tokenId",
          "type": "uint256"
        }
      ],
      "name": "getApproved",
      "outputs": [
        {
          "internalType": "address",
          "name": "",
          "type": "address"
        }
      ],
      "stateMutability": "view",
      "type": "function"
    },
    {
      "inputs": [
        {
          "internalType": "uint256",
          "name": "tokenId",
          "type": "uint256"
        }
      ],
      "name": "getCardInfo",
      "outputs": [
        {
          "components": [
            {
              "internalType": "string",
              "name": "cardName",
              "type": "string"
            },
            {
              "internalType": "uint256",
              "name": "amountIssued",
              "type": "uint256"
            },
            {
              "internalType": "uint256",
              "name": "amountSpent",
              "type": "uint256"
            },
            {
              "internalType": "uint256",
              "name": "expirationTime",
              "type": "uint256"
            },
            {
              "internalType": "bool",
              "name": "hasBeenDiscarded",
              "type": "bool"
            }
          ],
          "internalType": "struct DebitCard.CardInfo",
          "name": "",
          "type": "tuple"
        }
      ],
      "stateMutability": "view",
      "type": "function"
    },
    {
      "inputs": [
        {
          "internalType": "uint256",
          "name": "tokenId",
          "type": "uint256"
        }
      ],
      "name": "getDaysUntilExpiration",
      "outputs": [
        {
          "internalType": "uint256",
          "name": "",
          "type": "uint256"
        }
      ],
      "stateMutability": "view",
      "type": "function"
    },
    {
      "inputs": [],
      "name": "getTotalSupply",
      "outputs": [
        {
          "internalType": "uint256",
          "name": "",
          "type": "uint256"
        }
      ],
      "stateMutability": "view",
      "type": "function"
    },
    {
      "inputs": [
        {
          "internalType": "address",
          "name": "owner",
          "type": "address"
        },
        {
          "internalType": "address",
          "name": "operator",
          "type": "address"
        }
      ],
      "name": "isApprovedForAll",
      "outputs": [
        {
          "internalType": "bool",
          "name": "",
          "type": "bool"
        }
      ],
      "stateMutability": "view",
      "type": "function"
    },
    {
      "inputs": [
        {
          "internalType": "string",
          "name": "name",
          "type": "string"
        },
        {
          "internalType": "address",
          "name": "to",
          "type": "address"
        },
        {
          "internalType": "uint256",
          "name": "amountIssued",
          "type": "uint256"
        },
        {
          "internalType": "uint256",
          "name": "expirationDays",
          "type": "uint256"
        }
      ],
      "name": "issueCard",
      "outputs": [],
      "stateMutability": "nonpayable",
      "type": "function"
    },
    {
      "inputs": [],
      "name": "name",
      "outputs": [
        {
          "internalType": "string",
          "name": "",
          "type": "string"
        }
      ],
      "stateMutability": "view",
      "type": "function"
    },
    {
      "inputs": [],
      "name": "owner",
      "outputs": [
        {
          "internalType": "address",
          "name": "",
          "type": "address"
        }
      ],
      "stateMutability": "view",
      "type": "function"
    },
    {
      "inputs": [
        {
          "internalType": "uint256",
          "name": "tokenId",
          "type": "uint256"
        }
      ],
      "name": "ownerOf",
      "outputs": [
        {
          "internalType": "address",
          "name": "",
          "type": "address"
        }
      ],
      "stateMutability": "view",
      "type": "function"
    },
    {
      "inputs": [],
      "name": "pause",
      "outputs": [],
      "stateMutability": "nonpayable",
      "type": "function"
    },
    {
      "inputs": [],
      "name": "paused",
      "outputs": [
        {
          "internalType": "bool",
          "name": "",
          "type": "bool"
        }
      ],
      "stateMutability": "view",
      "type": "function"
    },
    {
      "inputs": [],
      "name": "poolName",
      "outputs": [
        {
          "internalType": "string",
          "name": "",
          "type": "string"
        }
      ],
      "stateMutability": "view",
      "type": "function"
    },
    {
      "inputs": [],
      "name": "poolSize",
      "outputs": [
        {
          "internalType": "uint256",
          "name": "",
          "type": "uint256"
        }
      ],
      "stateMutability": "view",
      "type": "function"
    },
    {
      "inputs": [],
      "name": "renounceOwnership",
      "outputs": [],
      "stateMutability": "nonpayable",
      "type": "function"
    },
    {
      "inputs": [
        {
          "internalType": "address",
          "name": "from",
          "type": "address"
        },
        {
          "internalType": "address",
          "name": "to",
          "type": "address"
        },
        {
          "internalType": "uint256",
          "name": "tokenId",
          "type": "uint256"
        }
      ],
      "name": "safeTransferFrom",
      "outputs": [],
      "stateMutability": "nonpayable",
      "type": "function"
    },
    {
      "inputs": [
        {
          "internalType": "address",
          "name": "from",
          "type": "address"
        },
        {
          "internalType": "address",
          "name": "to",
          "type": "address"
        },
        {
          "internalType": "uint256",
          "name": "tokenId",
          "type": "uint256"
        },
        {
          "internalType": "bytes",
          "name": "data",
          "type": "bytes"
        }
      ],
      "name": "safeTransferFrom",
      "outputs": [],
      "stateMutability": "nonpayable",
      "type": "function"
    },
    {
      "inputs": [
        {
          "internalType": "address",
          "name": "operator",
          "type": "address"
        },
        {
          "internalType": "bool",
          "name": "approved",
          "type": "bool"
        }
      ],
      "name": "setApprovalForAll",
      "outputs": [],
      "stateMutability": "nonpayable",
      "type": "function"
    },
    {
      "inputs": [
        {
          "internalType": "uint256",
          "name": "tokenId",
          "type": "uint256"
        },
        {
          "internalType": "address",
          "name": "recipient",
          "type": "address"
        },
        {
          "internalType": "uint256",
          "name": "spendAmount",
          "type": "uint256"
        }
      ],
      "name": "spendFromCard",
      "outputs": [],
      "stateMutability": "nonpayable",
      "type": "function"
    },
    {
      "inputs": [
        {
          "internalType": "bytes4",
          "name": "interfaceId",
          "type": "bytes4"
        }
      ],
      "name": "supportsInterface",
      "outputs": [
        {
          "internalType": "bool",
          "name": "",
          "type": "bool"
        }
      ],
      "stateMutability": "view",
      "type": "function"
    },
    {
      "inputs": [],
      "name": "symbol",
      "outputs": [
        {
          "internalType": "string",
          "name": "",
          "type": "string"
        }
      ],
      "stateMutability": "view",
      "type": "function"
    },
    {
      "inputs": [
        {
          "internalType": "uint256",
          "name": "index",
          "type": "uint256"
        }
      ],
      "name": "tokenByIndex",
      "outputs": [
        {
          "internalType": "uint256",
          "name": "",
          "type": "uint256"
        }
      ],
      "stateMutability": "view",
      "type": "function"
    },
    {
      "inputs": [
        {
          "internalType": "address",
          "name": "owner",
          "type": "address"
        },
        {
          "internalType": "uint256",
          "name": "index",
          "type": "uint256"
        }
      ],
      "name": "tokenOfOwnerByIndex",
      "outputs": [
        {
          "internalType": "uint256",
          "name": "",
          "type": "uint256"
        }
      ],
      "stateMutability": "view",
      "type": "function"
    },
    {
      "inputs": [
        {
          "internalType": "uint256",
          "name": "tokenId",
          "type": "uint256"
        }
      ],
      "name": "tokenURI",
      "outputs": [
        {
          "internalType": "string",
          "name": "",
          "type": "string"
        }
      ],
      "stateMutability": "view",
      "type": "function"
    },
    {
      "inputs": [],
      "name": "totalSupply",
      "outputs": [
        {
          "internalType": "uint256",
          "name": "",
          "type": "uint256"
        }
      ],
      "stateMutability": "view",
      "type": "function"
    },
    {
      "inputs": [
        {
          "internalType": "address",
          "name": "from",
          "type": "address"
        },
        {
          "internalType": "address",
          "name": "to",
          "type": "address"
        },
        {
          "internalType": "uint256",
          "name": "tokenId",
          "type": "uint256"
        }
      ],
      "name": "transferFrom",
      "outputs": [],
      "stateMutability": "nonpayable",
      "type": "function"
    },
    {
      "inputs": [
        {
          "internalType": "address",
          "name": "newOwner",
          "type": "address"
        }
      ],
      "name": "transferOwnership",
      "outputs": [],
      "stateMutability": "nonpayable",
      "type": "function"
    },
    {
      "inputs": [],
      "name": "unpause",
      "outputs": [],
      "stateMutability": "nonpayable",
      "type": "function"
    },
    {
      "inputs": [
        {
          "internalType": "uint256",
          "name": "tokenId",
          "type": "uint256"
        },
        {
          "internalType": "uint256",
          "name": "additionalAmount",
          "type": "uint256"
        },
        {
          "internalType": "uint256",
          "name": "newExpirationDays",
          "type": "uint256"
        }
      ],
      "name": "updateCard",
      "outputs": [],
      "stateMutability": "nonpayable",
      "type": "function"
    },
    {
      "inputs": [
        {
          "internalType": "uint256",
          "name": "amount",
          "type": "uint256"
        }
      ],
      "name": "withdrawFunds",
      "outputs": [],
      "stateMutability": "nonpayable",
      "type": "function"
    }
  ],
  "bytecode": "0x60806040523480156200001157600080fd5b50604051620045fe380380620045fe8339818101604052810190620000379190620003db565b80838381600090816200004b9190620006c0565b5080600190816200005d9190620006c0565b5050506000600a60006101000a81548160ff021916908315150217905550600073ffffffffffffffffffffffffffffffffffffffff168173ffffffffffffffffffffffffffffffffffffffff1603620000f05760006040517f1e4fbdf7000000000000000000000000000000000000000000000000000000008152600401620000e79190620007b8565b60405180910390fd5b62000101816200011d60201b60201c565b5082600d9081620001139190620006c0565b50505050620007d5565b6000600a60019054906101000a900473ffffffffffffffffffffffffffffffffffffffff16905081600a60016101000a81548173ffffffffffffffffffffffffffffffffffffffff021916908373ffffffffffffffffffffffffffffffffffffffff1602179055508173ffffffffffffffffffffffffffffffffffffffff168173ffffffffffffffffffffffffffffffffffffffff167f8be0079c531659141344cd1fd0a4f28419497f9722a3daafe3b4186f6b6457e060405160405180910390a35050565b6000604051905090565b600080fd5b600080fd5b600080fd5b600080fd5b6000601f19601f8301169050919050565b7f4e487b7100000000000000000000000000000000000000000000000000000000600052604160045260246000fd5b6200024c8262000201565b810181811067ffffffffffffffff821117156200026e576200026d62000212565b5b80604052505050565b600062000283620001e3565b905062000291828262000241565b919050565b600067ffffffffffffffff821115620002b457620002b362000212565b5b620002bf8262000201565b9050602081019050919050565b60005b83811015620002ec578082015181840152602081019050620002cf565b60008484015250505050565b60006200030f620003098462000296565b62000277565b9050828152602081018484840111156200032e576200032d620001fc565b5b6200033b848285620002cc565b509392505050565b600082601f8301126200035b576200035a620001f7565b5b81516200036d848260208601620002f8565b91505092915050565b600073ffffffffffffffffffffffffffffffffffffffff82169050919050565b6000620003a38262000376565b9050919050565b620003b58162000396565b8114620003c157600080fd5b50565b600081519050620003d581620003aa565b92915050565b600080600060608486031215620003f757620003f6620001ed565b5b600084015167ffffffffffffffff811115620004185762000417620001f2565b5b620004268682870162000343565b935050602084015167ffffffffffffffff8111156200044a5762000449620001f2565b5b620004588682870162000343565b92505060406200046b86828701620003c4565b9150509250925092565b600081519050919050565b7f4e487b7100000000000000000000000000000000000000000000000000000000600052602260045260246000fd5b60006002820490506001821680620004c857607f821691505b602082108103620004de57620004dd62000480565b5b50919050565b60008190508160005260206000209050919050565b60006020601f8301049050919050565b600082821b905092915050565b600060088302620005487fffffffffffffffffffffffffffffffffffffffffffffffffffffffffffffffff8262000509565b62000554868362000509565b95508019841693508086168417925050509392505050565b6000819050919050565b6000819050919050565b6000620005a16200059b62000595846200056c565b62000576565b6200056c565b9050919050565b6000819050919050565b620005bd8362000580565b620005d5620005cc82620005a8565b84845462000516565b825550505050565b600090565b620005ec620005dd565b620005f9818484620005b2565b505050565b5b81811015620006215762000615600082620005e2565b600181019050620005ff565b5050565b601f82111562000670576200063a81620004e4565b6200064584620004f9565b8101602085101562000655578190505b6200066d6200066485620004f9565b830182620005fe565b50505b505050565b600082821c905092915050565b6000620006956000198460080262000675565b1980831691505092915050565b6000620006b0838362000682565b9150826002028217905092915050565b620006cb8262000475565b67ffffffffffffffff811115620006e757620006e662000212565b5b620006f38254620004af565b6200070082828562000625565b600060209050601f83116001811462000738576000841562000723578287015190505b6200072f8582620006a2565b8655506200079f565b601f1984166200074886620004e4565b60005b8281101562000772578489015182556001820191506020850194506020810190506200074b565b868310156200079257848901516200078e601f89168262000682565b8355505b6001600288020188555050505b505050505050565b620007b28162000396565b82525050565b6000602082019050620007cf6000830184620007a7565b92915050565b613e1980620007e56000396000f3fe6080604052600436106101ee5760003560e01c80634f6ccce71161010d57806395d89b41116100a0578063c4e41b221161006f578063c4e41b22146106d8578063c87b56dd14610703578063e985e9c514610740578063f2fde38b1461077d578063f3466dfa146107a6576101ee565b806395d89b411461061e578063970129be14610649578063a22cb46514610686578063b88d4fde146106af576101ee565b806370a08231116100dc57806370a0823114610588578063715018a6146105c55780638456cb59146105dc5780638da5cb5b146105f3576101ee565b80634f6ccce7146104ba5780635c975abb146104f75780636352211e14610522578063668c745d1461055f576101ee565b806323b872dd1161018557806342842e0e1161015457806342842e0e146104005780634466f18b146104295780634765f101146104525780634ec18db91461048f576101ee565b806323b872dd1461035a57806326ab7b34146103835780632f745c59146103ac5780633f4ba83a146103e9576101ee565b80630c2250e5116101c15780630c2250e5146102c1578063155dd5ee146102ea57806318160ddd1461031357806321fcb0dd1461033e576101ee565b806301ffc9a7146101f357806306fdde0314610230578063081812fc1461025b578063095ea7b314610298575b600080fd5b3480156101ff57600080fd5b5061021a60048036038101906102159190612da2565b6107d1565b6040516102279190612dea565b60405180910390f35b34801561023c57600080fd5b506102456107e3565b6040516102529190612e95565b60405180910390f35b34801561026757600080fd5b50610282600480360381019061027d9190612eed565b610875565b60405161028f9190612f5b565b60405180910390f35b3480156102a457600080fd5b506102bf60048036038101906102ba9190612fa2565b610891565b005b3480156102cd57600080fd5b506102e860048036038101906102e39190612eed565b6108a7565b005b3480156102f657600080fd5b50610311600480360381019061030c9190612eed565b61091e565b005b34801561031f57600080fd5b506103286109ba565b6040516103359190612ff1565b60405180910390f35b61035860048036038101906103539190612eed565b6109c7565b005b34801561036657600080fd5b50610381600480360381019061037c919061300c565b610a5d565b005b34801561038f57600080fd5b506103aa60048036038101906103a5919061305f565b610b5f565b005b3480156103b857600080fd5b506103d360048036038101906103ce9190612fa2565b610c02565b6040516103e09190612ff1565b60405180910390f35b3480156103f557600080fd5b506103fe610cab565b005b34801561040c57600080fd5b506104276004803603810190610422919061300c565b610ce9565b005b34801561043557600080fd5b50610450600480360381019061044b91906130b2565b610d09565b005b34801561045e57600080fd5b5061047960048036038101906104749190612eed565b610fe7565b6040516104869190612ff1565b60405180910390f35b34801561049b57600080fd5b506104a4611047565b6040516104b19190612ff1565b60405180910390f35b3480156104c657600080fd5b506104e160048036038101906104dc9190612eed565b61104d565b6040516104ee9190612ff1565b60405180910390f35b34801561050357600080fd5b5061050c6110c3565b6040516105199190612dea565b60405180910390f35b34801561052e57600080fd5b5061054960048036038101906105449190612eed565b6110da565b6040516105569190612f5b565b60405180910390f35b34801561056b57600080fd5b506105866004803603810190610581919061323a565b6110ec565b005b34801561059457600080fd5b506105af60048036038101906105aa91906132bd565b611201565b6040516105bc9190612ff1565b60405180910390f35b3480156105d157600080fd5b506105da6112bb565b005b3480156105e857600080fd5b506105f16112cf565b005b3480156105ff57600080fd5b5061060861130d565b6040516106159190612f5b565b60405180910390f35b34801561062a57600080fd5b50610633611337565b6040516106409190612e95565b60405180910390f35b34801561065557600080fd5b50610670600480360381019061066b9190612eed565b6113c9565b60405161067d91906133c8565b60405180910390f35b34801561069257600080fd5b506106ad60048036038101906106a89190613416565b6114c1565b005b3480156106bb57600080fd5b506106d660048036038101906106d191906134f7565b6114d7565b005b3480156106e457600080fd5b506106ed6114f4565b6040516106fa9190612ff1565b60405180910390f35b34801561070f57600080fd5b5061072a60048036038101906107259190612eed565b611503565b6040516107379190612e95565b60405180910390f35b34801561074c57600080fd5b506107676004803603810190610762919061357a565b61156c565b6040516107749190612dea565b60405180910390f35b34801561078957600080fd5b506107a4600480360381019061079f91906132bd565b611600565b005b3480156107b257600080fd5b506107bb611686565b6040516107c89190612e95565b60405180910390f35b60006107dc82611714565b9050919050565b6060600080546107f2906135e9565b80601f016020809104026020016040519081016040528092919081815260200182805461081e906135e9565b801561086b5780601f106108405761010080835404028352916020019161086b565b820191906000526020600020905b81548152906001019060200180831161084e57829003601f168201915b5050505050905090565b60006108808261178e565b5061088a82611816565b9050919050565b6108a3828261089e611853565b61185b565b5050565b6108af61186d565b6000600e6000838152602001908152602001600020905060018160040160006101000a81548160ff0219169083151502179055507f5e718c7871bfd8857599af41b40f69b6a7406960840c986fc47338eba8808b85826040516109129190612ff1565b60405180910390a15050565b61092661186d565b47811115610969576040517f08c379a00000000000000000000000000000000000000000000000000000000081526004016109609061368c565b60405180910390fd5b61097161130d565b73ffffffffffffffffffffffffffffffffffffffff166108fc829081150290604051600060405180830381858888f193505050501580156109b6573d6000803e3d6000fd5b5050565b6000600880549050905090565b6109cf61186d565b348114610a08576040517ff9db597800000000000000000000000000000000000000000000000000000000815260040160405180910390fd5b80600c6000828254610a1a91906136db565b925050819055507fdd9502f23468ca95d8409f0a29a3d85ccd00929e542794b33dfbd69a7eab563f8133604051610a5292919061370f565b60405180910390a150565b600073ffffffffffffffffffffffffffffffffffffffff168273ffffffffffffffffffffffffffffffffffffffff1603610acf5760006040517f64a0ae92000000000000000000000000000000000000000000000000000000008152600401610ac69190612f5b565b60405180910390fd5b6000610ae38383610ade611853565b6118f4565b90508373ffffffffffffffffffffffffffffffffffffffff168173ffffffffffffffffffffffffffffffffffffffff1614610b59578382826040517f64283d7b000000000000000000000000000000000000000000000000000000008152600401610b5093929190613738565b60405180910390fd5b50505050565b610b6761186d565b60006201518082610b78919061376f565b42610b8391906136db565b90506000600e6000868152602001908152602001600020905083816001016000828254610bb091906136db565b925050819055508181600301819055507f748cfa0f8261f0b8cac61804f8a85ca562c08c1befbf32bbd6dfe03960d29e0f858584604051610bf3939291906137b1565b60405180910390a15050505050565b6000610c0d83611201565b8210610c525782826040517fa57d13dc000000000000000000000000000000000000000000000000000000008152600401610c499291906137e8565b60405180910390fd5b600660008473ffffffffffffffffffffffffffffffffffffffff1673ffffffffffffffffffffffffffffffffffffffff168152602001908152602001600020600083815260200190815260200160002054905092915050565b610cb361186d565b610cbb61190a565b7f0e5e3b3fb504c22cf5c42fa07d521225937514c654007e1f12646f89768d6f9460405160405180910390a1565b610d04838383604051806020016040528060008152506114d7565b505050565b610d1161196d565b6000600e600085815260200190815260200160002090503373ffffffffffffffffffffffffffffffffffffffff16610d48856110da565b73ffffffffffffffffffffffffffffffffffffffff1614610d95576040517fea8e4eb500000000000000000000000000000000000000000000000000000000815260040160405180910390fd5b8060030154421115610dd3576040517fa21660f000000000000000000000000000000000000000000000000000000000815260040160405180910390fd5b600115158160040160009054906101000a900460ff16151503610e22576040517f9ae33a2600000000000000000000000000000000000000000000000000000000815260040160405180910390fd5b6000816001015403610e60576040517f690a407600000000000000000000000000000000000000000000000000000000815260040160405180910390fd5b8181600201548260010154610e759190613811565b1015610ead576040517f8ac4bc7300000000000000000000000000000000000000000000000000000000815260040160405180910390fd5b81471015610ee7576040517fbc6072f100000000000000000000000000000000000000000000000000000000815260040160405180910390fd5b81816002016000828254610efb91906136db565b9250508190555060008373ffffffffffffffffffffffffffffffffffffffff1683604051610f2890613876565b60006040518083038185875af1925050503d8060008114610f65576040519150601f19603f3d011682016040523d82523d6000602084013e610f6a565b606091505b5050905080610fa5576040517f90b8ec1800000000000000000000000000000000000000000000000000000000815260040160405180910390fd5b7f7e3c238356c8eb6519c01391fd819024a54e7219735fda1b58ecbf6f6335e301858585604051610fd89392919061388b565b60405180910390a15050505050565b600080600e6000848152602001908152602001600020905080600301544210611014576000915050611042565b60004282600301546110269190613811565b90506000620151808261103991906138f1565b90508093505050505b919050565b600c5481565b60006110576109ba565b821061109d576000826040517fa57d13dc0000000000000000000000000000000000000000000000000000000081526004016110949291906137e8565b60405180910390fd5b600882815481106110b1576110b0613922565b5b90600052602060002001549050919050565b6000600a60009054906101000a900460ff16905090565b60006110e58261178e565b9050919050565b6110f461186d565b60006201518082611105919061376f565b4261111091906136db565b9050600061111d856119ae565b905060006040518060a001604052808881526020018681526020016000815260200184815260200160001515815250905080600e600084815260200190815260200160002060008201518160000190816111779190613afd565b5060208201518160010155604082015181600201556060820151816003015560808201518160040160006101000a81548160ff0219169083151502179055509050507fbffd54593e1ce21bc0cf8a13206ba0358211dd80b29f9b09553c673c6519c97c82888888876040516111f0959493929190613bcf565b60405180910390a150505050505050565b60008073ffffffffffffffffffffffffffffffffffffffff168273ffffffffffffffffffffffffffffffffffffffff16036112745760006040517f89c62b6400000000000000000000000000000000000000000000000000000000815260040161126b9190612f5b565b60405180910390fd5b600360008373ffffffffffffffffffffffffffffffffffffffff1673ffffffffffffffffffffffffffffffffffffffff168152602001908152602001600020549050919050565b6112c361186d565b6112cd60006119dd565b565b6112d761186d565b6112df611aa3565b7fab35696f06e428ebc5ceba8cd17f8fed287baf43440206d1943af1ee53e6d26760405160405180910390a1565b6000600a60019054906101000a900473ffffffffffffffffffffffffffffffffffffffff16905090565b606060018054611346906135e9565b80601f0160208091040260200160405190810160405280929190818152602001828054611372906135e9565b80156113bf5780601f10611394576101008083540402835291602001916113bf565b820191906000526020600020905b8154815290600101906020018083116113a257829003601f168201915b5050505050905090565b6113d1612d05565b600e60008381526020019081526020016000206040518060a00160405290816000820180546113ff906135e9565b80601f016020809104026020016040519081016040528092919081815260200182805461142b906135e9565b80156114785780601f1061144d57610100808354040283529160200191611478565b820191906000526020600020905b81548152906001019060200180831161145b57829003601f168201915b505050505081526020016001820154815260200160028201548152602001600382015481526020016004820160009054906101000a900460ff1615151515815250509050919050565b6114d36114cc611853565b8383611b06565b5050565b6114e2848484610a5d565b6114ee84848484611c75565b50505050565b60006114fe6109ba565b905090565b606061150e8261178e565b506000611519611e2c565b905060008151116115395760405180602001604052806000815250611564565b8061154384611e43565b604051602001611554929190613c65565b6040516020818303038152906040525b915050919050565b6000600560008473ffffffffffffffffffffffffffffffffffffffff1673ffffffffffffffffffffffffffffffffffffffff16815260200190815260200160002060008373ffffffffffffffffffffffffffffffffffffffff1673ffffffffffffffffffffffffffffffffffffffff16815260200190815260200160002060009054906101000a900460ff16905092915050565b61160861186d565b600073ffffffffffffffffffffffffffffffffffffffff168173ffffffffffffffffffffffffffffffffffffffff160361167a5760006040517f1e4fbdf70000000000000000000000000000000000000000000000000000000081526004016116719190612f5b565b60405180910390fd5b611683816119dd565b50565b600d8054611693906135e9565b80601f01602080910402602001604051908101604052809291908181526020018280546116bf906135e9565b801561170c5780601f106116e15761010080835404028352916020019161170c565b820191906000526020600020905b8154815290600101906020018083116116ef57829003601f168201915b505050505081565b60007f780e9d63000000000000000000000000000000000000000000000000000000007bffffffffffffffffffffffffffffffffffffffffffffffffffffffff1916827bffffffffffffffffffffffffffffffffffffffffffffffffffffffff19161480611787575061178682611f11565b5b9050919050565b60008061179a83611ff3565b9050600073ffffffffffffffffffffffffffffffffffffffff168173ffffffffffffffffffffffffffffffffffffffff160361180d57826040517f7e2732890000000000000000000000000000000000000000000000000000000081526004016118049190612ff1565b60405180910390fd5b80915050919050565b60006004600083815260200190815260200160002060009054906101000a900473ffffffffffffffffffffffffffffffffffffffff169050919050565b600033905090565b6118688383836001612030565b505050565b611875611853565b73ffffffffffffffffffffffffffffffffffffffff1661189361130d565b73ffffffffffffffffffffffffffffffffffffffff16146118f2576118b6611853565b6040517f118cdaa70000000000000000000000000000000000000000000000000000000081526004016118e99190612f5b565b60405180910390fd5b565b60006119018484846121f5565b90509392505050565b611912612213565b6000600a60006101000a81548160ff0219169083151502179055507f5db9ee0a495bf2e6ff9c91a7834c1ba4fdd244a5e8aa4e537bd38aeae4b073aa611956611853565b6040516119639190612f5b565b60405180910390a1565b6119756110c3565b156119ac576040517fd93c066500000000000000000000000000000000000000000000000000000000815260040160405180910390fd5b565b600080600b60008154809291906119c490613c89565b9190505590506119d48382612253565b80915050919050565b6000600a60019054906101000a900473ffffffffffffffffffffffffffffffffffffffff16905081600a60016101000a81548173ffffffffffffffffffffffffffffffffffffffff021916908373ffffffffffffffffffffffffffffffffffffffff1602179055508173ffffffffffffffffffffffffffffffffffffffff168173ffffffffffffffffffffffffffffffffffffffff167f8be0079c531659141344cd1fd0a4f28419497f9722a3daafe3b4186f6b6457e060405160405180910390a35050565b611aab61196d565b6001600a60006101000a81548160ff0219169083151502179055507f62e78cea01bee320cd4e420270b5ea74000d11b0c9f74754ebdbfc544b05a258611aef611853565b604051611afc9190612f5b565b60405180910390a1565b600073ffffffffffffffffffffffffffffffffffffffff168273ffffffffffffffffffffffffffffffffffffffff1603611b7757816040517f5b08ba18000000000000000000000000000000000000000000000000000000008152600401611b6e9190612f5b565b60405180910390fd5b80600560008573ffffffffffffffffffffffffffffffffffffffff1673ffffffffffffffffffffffffffffffffffffffff16815260200190815260200160002060008473ffffffffffffffffffffffffffffffffffffffff1673ffffffffffffffffffffffffffffffffffffffff16815260200190815260200160002060006101000a81548160ff0219169083151502179055508173ffffffffffffffffffffffffffffffffffffffff168373ffffffffffffffffffffffffffffffffffffffff167f17307eab39ab6107e8899845ad3d59bd9653f200f220920489ca2b5937696c3183604051611c689190612dea565b60405180910390a3505050565b60008373ffffffffffffffffffffffffffffffffffffffff163b1115611e26578273ffffffffffffffffffffffffffffffffffffffff1663150b7a02611cb9611853565b8685856040518563ffffffff1660e01b8152600401611cdb9493929190613d26565b6020604051808303816000875af1925050508015611d1757506040513d601f19601f82011682018060405250810190611d149190613d87565b60015b611d9b573d8060008114611d47576040519150601f19603f3d011682016040523d82523d6000602084013e611d4c565b606091505b506000815103611d9357836040517f64a0ae92000000000000000000000000000000000000000000000000000000008152600401611d8a9190612f5b565b60405180910390fd5b805181602001fd5b63150b7a0260e01b7bffffffffffffffffffffffffffffffffffffffffffffffffffffffff1916817bffffffffffffffffffffffffffffffffffffffffffffffffffffffff191614611e2457836040517f64a0ae92000000000000000000000000000000000000000000000000000000008152600401611e1b9190612f5b565b60405180910390fd5b505b50505050565b606060405180602001604052806000815250905090565b606060006001611e5284612271565b01905060008167ffffffffffffffff811115611e7157611e7061310f565b5b6040519080825280601f01601f191660200182016040528015611ea35781602001600182028036833780820191505090505b509050600082602001820190505b600115611f06578080600190039150507f3031323334353637383961626364656600000000000000000000000000000000600a86061a8153600a8581611efa57611ef96138c2565b5b04945060008503611eb1575b819350505050919050565b60007f80ac58cd000000000000000000000000000000000000000000000000000000007bffffffffffffffffffffffffffffffffffffffffffffffffffffffff1916827bffffffffffffffffffffffffffffffffffffffffffffffffffffffff19161480611fdc57507f5b5e139f000000000000000000000000000000000000000000000000000000007bffffffffffffffffffffffffffffffffffffffffffffffffffffffff1916827bffffffffffffffffffffffffffffffffffffffffffffffffffffffff1916145b80611fec5750611feb826123c4565b5b9050919050565b60006002600083815260200190815260200160002060009054906101000a900473ffffffffffffffffffffffffffffffffffffffff169050919050565b80806120695750600073ffffffffffffffffffffffffffffffffffffffff168273ffffffffffffffffffffffffffffffffffffffff1614155b1561219d5760006120798461178e565b9050600073ffffffffffffffffffffffffffffffffffffffff168373ffffffffffffffffffffffffffffffffffffffff16141580156120e457508273ffffffffffffffffffffffffffffffffffffffff168173ffffffffffffffffffffffffffffffffffffffff1614155b80156120f757506120f5818461156c565b155b1561213957826040517fa9fbf51f0000000000000000000000000000000000000000000000000000000081526004016121309190612f5b565b60405180910390fd5b811561219b57838573ffffffffffffffffffffffffffffffffffffffff168273ffffffffffffffffffffffffffffffffffffffff167f8c5be1e5ebec7d5bd14f71427d1e84f3dd0314c0f7b2291e5b200ac8c7c3b92560405160405180910390a45b505b836004600085815260200190815260200160002060006101000a81548173ffffffffffffffffffffffffffffffffffffffff021916908373ffffffffffffffffffffffffffffffffffffffff16021790555050505050565b60006121ff61196d565b61220a84848461242e565b90509392505050565b61221b6110c3565b612251576040517f8dfc202b00000000000000000000000000000000000000000000000000000000815260040160405180910390fd5b565b61226d82826040518060200160405280600081525061254b565b5050565b600080600090507a184f03e93ff9f4daa797ed6e38ed64bf6a1f01000000000000000083106122cf577a184f03e93ff9f4daa797ed6e38ed64bf6a1f01000000000000000083816122c5576122c46138c2565b5b0492506040810190505b6d04ee2d6d415b85acef8100000000831061230c576d04ee2d6d415b85acef81000000008381612302576123016138c2565b5b0492506020810190505b662386f26fc10000831061233b57662386f26fc100008381612331576123306138c2565b5b0492506010810190505b6305f5e1008310612364576305f5e100838161235a576123596138c2565b5b0492506008810190505b612710831061238957612710838161237f5761237e6138c2565b5b0492506004810190505b606483106123ac57606483816123a2576123a16138c2565b5b0492506002810190505b600a83106123bb576001810190505b80915050919050565b60007f01ffc9a7000000000000000000000000000000000000000000000000000000007bffffffffffffffffffffffffffffffffffffffffffffffffffffffff1916827bffffffffffffffffffffffffffffffffffffffffffffffffffffffff1916149050919050565b60008061243c858585612567565b9050600073ffffffffffffffffffffffffffffffffffffffff168173ffffffffffffffffffffffffffffffffffffffff16036124805761247b84612781565b6124bf565b8473ffffffffffffffffffffffffffffffffffffffff168173ffffffffffffffffffffffffffffffffffffffff16146124be576124bd81856127ca565b5b5b600073ffffffffffffffffffffffffffffffffffffffff168573ffffffffffffffffffffffffffffffffffffffff1603612501576124fc8461292b565b612540565b8473ffffffffffffffffffffffffffffffffffffffff168173ffffffffffffffffffffffffffffffffffffffff161461253f5761253e85856129fc565b5b5b809150509392505050565b6125558383612a87565b6125626000848484611c75565b505050565b60008061257384611ff3565b9050600073ffffffffffffffffffffffffffffffffffffffff168373ffffffffffffffffffffffffffffffffffffffff16146125b5576125b4818486612b80565b5b600073ffffffffffffffffffffffffffffffffffffffff168173ffffffffffffffffffffffffffffffffffffffff1614612646576125f7600085600080612030565b6001600360008373ffffffffffffffffffffffffffffffffffffffff1673ffffffffffffffffffffffffffffffffffffffff168152602001908152602001600020600082825403925050819055505b600073ffffffffffffffffffffffffffffffffffffffff168573ffffffffffffffffffffffffffffffffffffffff16146126c9576001600360008773ffffffffffffffffffffffffffffffffffffffff1673ffffffffffffffffffffffffffffffffffffffff168152602001908152602001600020600082825401925050819055505b846002600086815260200190815260200160002060006101000a81548173ffffffffffffffffffffffffffffffffffffffff021916908373ffffffffffffffffffffffffffffffffffffffff160217905550838573ffffffffffffffffffffffffffffffffffffffff168273ffffffffffffffffffffffffffffffffffffffff167fddf252ad1be2c89b69c2b068fc378daa952ba7f163c4a11628f55a4df523b3ef60405160405180910390a4809150509392505050565b6008805490506009600083815260200190815260200160002081905550600881908060018154018082558091505060019003906000526020600020016000909190919091505550565b60006127d583611201565b90506000600760008481526020019081526020016000205490508181146128ba576000600660008673ffffffffffffffffffffffffffffffffffffffff1673ffffffffffffffffffffffffffffffffffffffff168152602001908152602001600020600084815260200190815260200160002054905080600660008773ffffffffffffffffffffffffffffffffffffffff1673ffffffffffffffffffffffffffffffffffffffff168152602001908152602001600020600084815260200190815260200160002081905550816007600083815260200190815260200160002081905550505b6007600084815260200190815260200160002060009055600660008573ffffffffffffffffffffffffffffffffffffffff1673ffffffffffffffffffffffffffffffffffffffff16815260200190815260200160002060008381526020019081526020016000206000905550505050565b6000600160088054905061293f9190613811565b905060006009600084815260200190815260200160002054905060006008838154811061296f5761296e613922565b5b90600052602060002001549050806008838154811061299157612990613922565b5b9060005260206000200181905550816009600083815260200190815260200160002081905550600960008581526020019081526020016000206000905560088054806129e0576129df613db4565b5b6001900381819060005260206000200160009055905550505050565b60006001612a0984611201565b612a139190613811565b905081600660008573ffffffffffffffffffffffffffffffffffffffff1673ffffffffffffffffffffffffffffffffffffffff168152602001908152602001600020600083815260200190815260200160002081905550806007600084815260200190815260200160002081905550505050565b600073ffffffffffffffffffffffffffffffffffffffff168273ffffffffffffffffffffffffffffffffffffffff1603612af95760006040517f64a0ae92000000000000000000000000000000000000000000000000000000008152600401612af09190612f5b565b60405180910390fd5b6000612b07838360006118f4565b9050600073ffffffffffffffffffffffffffffffffffffffff168173ffffffffffffffffffffffffffffffffffffffff1614612b7b5760006040517f73c6ac6e000000000000000000000000000000000000000000000000000000008152600401612b729190612f5b565b60405180910390fd5b505050565b612b8b838383612c44565b612c3f57600073ffffffffffffffffffffffffffffffffffffffff168373ffffffffffffffffffffffffffffffffffffffff1603612c0057806040517f7e273289000000000000000000000000000000000000000000000000000000008152600401612bf79190612ff1565b60405180910390fd5b81816040517f177e802f000000000000000000000000000000000000000000000000000000008152600401612c369291906137e8565b60405180910390fd5b505050565b60008073ffffffffffffffffffffffffffffffffffffffff168373ffffffffffffffffffffffffffffffffffffffff1614158015612cfc57508273ffffffffffffffffffffffffffffffffffffffff168473ffffffffffffffffffffffffffffffffffffffff161480612cbd5750612cbc848461156c565b5b80612cfb57508273ffffffffffffffffffffffffffffffffffffffff16612ce383611816565b73ffffffffffffffffffffffffffffffffffffffff16145b5b90509392505050565b6040518060a00160405280606081526020016000815260200160008152602001600081526020016000151581525090565b6000604051905090565b600080fd5b600080fd5b60007fffffffff0000000000000000000000000000000000000000000000000000000082169050919050565b612d7f81612d4a565b8114612d8a57600080fd5b50565b600081359050612d9c81612d76565b92915050565b600060208284031215612db857612db7612d40565b5b6000612dc684828501612d8d565b91505092915050565b60008115159050919050565b612de481612dcf565b82525050565b6000602082019050612dff6000830184612ddb565b92915050565b600081519050919050565b600082825260208201905092915050565b60005b83811015612e3f578082015181840152602081019050612e24565b60008484015250505050565b6000601f19601f8301169050919050565b6000612e6782612e05565b612e718185612e10565b9350612e81818560208601612e21565b612e8a81612e4b565b840191505092915050565b60006020820190508181036000830152612eaf8184612e5c565b905092915050565b6000819050919050565b612eca81612eb7565b8114612ed557600080fd5b50565b600081359050612ee781612ec1565b92915050565b600060208284031215612f0357612f02612d40565b5b6000612f1184828501612ed8565b91505092915050565b600073ffffffffffffffffffffffffffffffffffffffff82169050919050565b6000612f4582612f1a565b9050919050565b612f5581612f3a565b82525050565b6000602082019050612f706000830184612f4c565b92915050565b612f7f81612f3a565b8114612f8a57600080fd5b50565b600081359050612f9c81612f76565b92915050565b60008060408385031215612fb957612fb8612d40565b5b6000612fc785828601612f8d565b9250506020612fd885828601612ed8565b9150509250929050565b612feb81612eb7565b82525050565b60006020820190506130066000830184612fe2565b92915050565b60008060006060848603121561302557613024612d40565b5b600061303386828701612f8d565b935050602061304486828701612f8d565b925050604061305586828701612ed8565b9150509250925092565b60008060006060848603121561307857613077612d40565b5b600061308686828701612ed8565b935050602061309786828701612ed8565b92505060406130a886828701612ed8565b9150509250925092565b6000806000606084860312156130cb576130ca612d40565b5b60006130d986828701612ed8565b93505060206130ea86828701612f8d565b92505060406130fb86828701612ed8565b9150509250925092565b600080fd5b600080fd5b7f4e487b7100000000000000000000000000000000000000000000000000000000600052604160045260246000fd5b61314782612e4b565b810181811067ffffffffffffffff821117156131665761316561310f565b5b80604052505050565b6000613179612d36565b9050613185828261313e565b919050565b600067ffffffffffffffff8211156131a5576131a461310f565b5b6131ae82612e4b565b9050602081019050919050565b82818337600083830152505050565b60006131dd6131d88461318a565b61316f565b9050828152602081018484840111156131f9576131f861310a565b5b6132048482856131bb565b509392505050565b600082601f83011261322157613220613105565b5b81356132318482602086016131ca565b91505092915050565b6000806000806080858703121561325457613253612d40565b5b600085013567ffffffffffffffff81111561327257613271612d45565b5b61327e8782880161320c565b945050602061328f87828801612f8d565b93505060406132a087828801612ed8565b92505060606132b187828801612ed8565b91505092959194509250565b6000602082840312156132d3576132d2612d40565b5b60006132e184828501612f8d565b91505092915050565b600082825260208201905092915050565b600061330682612e05565b61331081856132ea565b9350613320818560208601612e21565b61332981612e4b565b840191505092915050565b61333d81612eb7565b82525050565b61334c81612dcf565b82525050565b600060a083016000830151848203600086015261336f82826132fb565b91505060208301516133846020860182613334565b5060408301516133976040860182613334565b5060608301516133aa6060860182613334565b5060808301516133bd6080860182613343565b508091505092915050565b600060208201905081810360008301526133e28184613352565b905092915050565b6133f381612dcf565b81146133fe57600080fd5b50565b600081359050613410816133ea565b92915050565b6000806040838503121561342d5761342c612d40565b5b600061343b85828601612f8d565b925050602061344c85828601613401565b9150509250929050565b600067ffffffffffffffff8211156134715761347061310f565b5b61347a82612e4b565b9050602081019050919050565b600061349a61349584613456565b61316f565b9050828152602081018484840111156134b6576134b561310a565b5b6134c18482856131bb565b509392505050565b600082601f8301126134de576134dd613105565b5b81356134ee848260208601613487565b91505092915050565b6000806000806080858703121561351157613510612d40565b5b600061351f87828801612f8d565b945050602061353087828801612f8d565b935050604061354187828801612ed8565b925050606085013567ffffffffffffffff81111561356257613561612d45565b5b61356e878288016134c9565b91505092959194509250565b6000806040838503121561359157613590612d40565b5b600061359f85828601612f8d565b92505060206135b085828601612f8d565b9150509250929050565b7f4e487b7100000000000000000000000000000000000000000000000000000000600052602260045260246000fd5b6000600282049050600182168061360157607f821691505b602082108103613614576136136135ba565b5b50919050565b7f4e6f7420656e6f7567682066756e647320696e2074686520636f6e747261637460008201527f2100000000000000000000000000000000000000000000000000000000000000602082015250565b6000613676602183612e10565b91506136818261361a565b604082019050919050565b600060208201905081810360008301526136a581613669565b9050919050565b7f4e487b7100000000000000000000000000000000000000000000000000000000600052601160045260246000fd5b60006136e682612eb7565b91506136f183612eb7565b9250828201905080821115613709576137086136ac565b5b92915050565b60006040820190506137246000830185612fe2565b6137316020830184612f4c565b9392505050565b600060608201905061374d6000830186612f4c565b61375a6020830185612fe2565b6137676040830184612f4c565b949350505050565b600061377a82612eb7565b915061378583612eb7565b925082820261379381612eb7565b915082820484148315176137aa576137a96136ac565b5b5092915050565b60006060820190506137c66000830186612fe2565b6137d36020830185612fe2565b6137e06040830184612fe2565b949350505050565b60006040820190506137fd6000830185612f4c565b61380a6020830184612fe2565b9392505050565b600061381c82612eb7565b915061382783612eb7565b925082820390508181111561383f5761383e6136ac565b5b92915050565b600081905092915050565b50565b6000613860600083613845565b915061386b82613850565b600082019050919050565b600061388182613853565b9150819050919050565b60006060820190506138a06000830186612fe2565b6138ad6020830185612f4c565b6138ba6040830184612fe2565b949350505050565b7f4e487b7100000000000000000000000000000000000000000000000000000000600052601260045260246000fd5b60006138fc82612eb7565b915061390783612eb7565b925082613917576139166138c2565b5b828204905092915050565b7f4e487b7100000000000000000000000000000000000000000000000000000000600052603260045260246000fd5b60008190508160005260206000209050919050565b60006020601f8301049050919050565b600082821b905092915050565b6000600883026139b37fffffffffffffffffffffffffffffffffffffffffffffffffffffffffffffffff82613976565b6139bd8683613976565b95508019841693508086168417925050509392505050565b6000819050919050565b60006139fa6139f56139f084612eb7565b6139d5565b612eb7565b9050919050565b6000819050919050565b613a14836139df565b613a28613a2082613a01565b848454613983565b825550505050565b600090565b613a3d613a30565b613a48818484613a0b565b505050565b5b81811015613a6c57613a61600082613a35565b600181019050613a4e565b5050565b601f821115613ab157613a8281613951565b613a8b84613966565b81016020851015613a9a578190505b613aae613aa685613966565b830182613a4d565b50505b505050565b600082821c905092915050565b6000613ad460001984600802613ab6565b1980831691505092915050565b6000613aed8383613ac3565b9150826002028217905092915050565b613b0682612e05565b67ffffffffffffffff811115613b1f57613b1e61310f565b5b613b2982546135e9565b613b34828285613a70565b600060209050601f831160018114613b675760008415613b55578287015190505b613b5f8582613ae1565b865550613bc7565b601f198416613b7586613951565b60005b82811015613b9d57848901518255600182019150602085019450602081019050613b78565b86831015613bba5784890151613bb6601f891682613ac3565b8355505b6001600288020188555050505b505050505050565b600060a082019050613be46000830188612fe2565b8181036020830152613bf68187612e5c565b9050613c056040830186612f4c565b613c126060830185612fe2565b613c1f6080830184612fe2565b9695505050505050565b600081905092915050565b6000613c3f82612e05565b613c498185613c29565b9350613c59818560208601612e21565b80840191505092915050565b6000613c718285613c34565b9150613c7d8284613c34565b91508190509392505050565b6000613c9482612eb7565b91507fffffffffffffffffffffffffffffffffffffffffffffffffffffffffffffffff8203613cc657613cc56136ac565b5b600182019050919050565b600081519050919050565b600082825260208201905092915050565b6000613cf882613cd1565b613d028185613cdc565b9350613d12818560208601612e21565b613d1b81612e4b565b840191505092915050565b6000608082019050613d3b6000830187612f4c565b613d486020830186612f4c565b613d556040830185612fe2565b8181036060830152613d678184613ced565b905095945050505050565b600081519050613d8181612d76565b92915050565b600060208284031215613d9d57613d9c612d40565b5b6000613dab84828501613d72565b91505092915050565b7f4e487b7100000000000000000000000000000000000000000000000000000000600052603160045260246000fdfea2646970667358221220fdd7242bc6d8bf1b7cdc1c7f9006cda94965a511c135bf1c9b2356ffe4d0ec7164736f6c63430008150033",
  "linkReferences": {},
  "deployedLinkReferences": {}
}