{
  "_format": "hh-sol-artifact-1",
  "contractName": "CreditCardzkEVM",
  "sourceName": "contracts/Credit Card/zkEVM/CreditCardzkEVM.sol",
  "abi": [
    {
      "inputs": [
        {
          "internalType": "string",
          "name": "_name",
          "type": "string"
        },
        {
          "internalType": "string",
          "name": "_symbol",
          "type": "string"
        },
        {
          "internalType": "address",
          "name": "_owner",
          "type": "address"
        },
        {
          "internalType": "address",
          "name": "_daiaddress",
          "type": "address"
        },
        {
          "internalType": "address",
          "name": "_wethaddress",
          "type": "address"
        },
        {
          "internalType": "uint256",
          "name": "_expirationDays",
          "type": "uint256"
        },
        {
          "internalType": "uint256",
          "name": "_interestRate",
          "type": "uint256"
        },
        {
          "internalType": "address",
          "name": "_pyth",
          "type": "address"
        },
        {
          "internalType": "bytes32",
          "name": "_daiPriceFeedId",
          "type": "bytes32"
        },
        {
          "internalType": "bytes32",
          "name": "_wethPriceFeedId",
          "type": "bytes32"
        }
      ],
      "stateMutability": "nonpayable",
      "type": "constructor"
    },
    {
      "inputs": [],
      "name": "ERC721EnumerableForbiddenBatchMint",
      "type": "error"
    },
    {
      "inputs": [
        {
          "internalType": "address",
          "name": "sender",
          "type": "address"
        },
        {
          "internalType": "uint256",
          "name": "tokenId",
          "type": "uint256"
        },
        {
          "internalType": "address",
          "name": "owner",
          "type": "address"
        }
      ],
      "name": "ERC721IncorrectOwner",
      "type": "error"
    },
    {
      "inputs": [
        {
          "internalType": "address",
          "name": "operator",
          "type": "address"
        },
        {
          "internalType": "uint256",
          "name": "tokenId",
          "type": "uint256"
        }
      ],
      "name": "ERC721InsufficientApproval",
      "type": "error"
    },
    {
      "inputs": [
        {
          "internalType": "address",
          "name": "approver",
          "type": "address"
        }
      ],
      "name": "ERC721InvalidApprover",
      "type": "error"
    },
    {
      "inputs": [
        {
          "internalType": "address",
          "name": "operator",
          "type": "address"
        }
      ],
      "name": "ERC721InvalidOperator",
      "type": "error"
    },
    {
      "inputs": [
        {
          "internalType": "address",
          "name": "owner",
          "type": "address"
        }
      ],
      "name": "ERC721InvalidOwner",
      "type": "error"
    },
    {
      "inputs": [
        {
          "internalType": "address",
          "name": "receiver",
          "type": "address"
        }
      ],
      "name": "ERC721InvalidReceiver",
      "type": "error"
    },
    {
      "inputs": [
        {
          "internalType": "address",
          "name": "sender",
          "type": "address"
        }
      ],
      "name": "ERC721InvalidSender",
      "type": "error"
    },
    {
      "inputs": [
        {
          "internalType": "uint256",
          "name": "tokenId",
          "type": "uint256"
        }
      ],
      "name": "ERC721NonexistentToken",
      "type": "error"
    },
    {
      "inputs": [
        {
          "internalType": "address",
          "name": "owner",
          "type": "address"
        },
        {
          "internalType": "uint256",
          "name": "index",
          "type": "uint256"
        }
      ],
      "name": "ERC721OutOfBoundsIndex",
      "type": "error"
    },
    {
      "inputs": [
        {
          "internalType": "address",
          "name": "owner",
          "type": "address"
        }
      ],
      "name": "OwnableInvalidOwner",
      "type": "error"
    },
    {
      "inputs": [
        {
          "internalType": "address",
          "name": "account",
          "type": "address"
        }
      ],
      "name": "OwnableUnauthorizedAccount",
      "type": "error"
    },
    {
      "anonymous": false,
      "inputs": [
        {
          "indexed": true,
          "internalType": "address",
          "name": "owner",
          "type": "address"
        },
        {
          "indexed": true,
          "internalType": "address",
          "name": "approved",
          "type": "address"
        },
        {
          "indexed": true,
          "internalType": "uint256",
          "name": "tokenId",
          "type": "uint256"
        }
      ],
      "name": "Approval",
      "type": "event"
    },
    {
      "anonymous": false,
      "inputs": [
        {
          "indexed": true,
          "internalType": "address",
          "name": "owner",
          "type": "address"
        },
        {
          "indexed": true,
          "internalType": "address",
          "name": "operator",
          "type": "address"
        },
        {
          "indexed": false,
          "internalType": "bool",
          "name": "approved",
          "type": "bool"
        }
      ],
      "name": "ApprovalForAll",
      "type": "event"
    },
    {
      "anonymous": false,
      "inputs": [
        {
          "indexed": true,
          "internalType": "address",
          "name": "previousOwner",
          "type": "address"
        },
        {
          "indexed": true,
          "internalType": "address",
          "name": "newOwner",
          "type": "address"
        }
      ],
      "name": "OwnershipTransferred",
      "type": "event"
    },
    {
      "anonymous": false,
      "inputs": [
        {
          "indexed": true,
          "internalType": "address",
          "name": "from",
          "type": "address"
        },
        {
          "indexed": true,
          "internalType": "address",
          "name": "to",
          "type": "address"
        },
        {
          "indexed": true,
          "internalType": "uint256",
          "name": "tokenId",
          "type": "uint256"
        }
      ],
      "name": "Transfer",
      "type": "event"
    },
    {
      "inputs": [
        {
          "internalType": "bytes32",
          "name": "priceFeedId",
          "type": "bytes32"
        },
        {
          "internalType": "uint256",
          "name": "usdAmountInWei",
          "type": "uint256"
        },
        {
          "internalType": "bytes[]",
          "name": "pythUpdateData",
          "type": "bytes[]"
        }
      ],
      "name": "_getTokenAmountFromUsd",
      "outputs": [
        {
          "internalType": "uint256",
          "name": "",
          "type": "uint256"
        }
      ],
      "stateMutability": "nonpayable",
      "type": "function"
    },
    {
      "inputs": [
        {
          "internalType": "bytes32",
          "name": "priceFeedId",
          "type": "bytes32"
        },
        {
          "internalType": "uint256",
          "name": "amount",
          "type": "uint256"
        },
        {
          "internalType": "bytes[]",
          "name": "pythUpdateData",
          "type": "bytes[]"
        }
      ],
      "name": "_getUsdValue",
      "outputs": [
        {
          "internalType": "uint256",
          "name": "",
          "type": "uint256"
        }
      ],
      "stateMutability": "nonpayable",
      "type": "function"
    },
    {
      "inputs": [
        {
          "internalType": "uint256",
          "name": "fundsAmount",
          "type": "uint256"
        }
      ],
      "name": "addFunds",
      "outputs": [],
      "stateMutability": "nonpayable",
      "type": "function"
    },
    {
      "inputs": [
        {
          "internalType": "address",
          "name": "to",
          "type": "address"
        },
        {
          "internalType": "uint256",
          "name": "tokenId",
          "type": "uint256"
        }
      ],
      "name": "approve",
      "outputs": [],
      "stateMutability": "nonpayable",
      "type": "function"
    },
    {
      "inputs": [
        {
          "internalType": "address",
          "name": "owner",
          "type": "address"
        }
      ],
      "name": "balanceOf",
      "outputs": [
        {
          "internalType": "uint256",
          "name": "",
          "type": "uint256"
        }
      ],
      "stateMutability": "view",
      "type": "function"
    },
    {
      "inputs": [
        {
          "internalType": "uint256",
          "name": "tokenId",
          "type": "uint256"
        },
        {
          "internalType": "bytes[]",
          "name": "pythUpdateData",
          "type": "bytes[]"
        }
      ],
      "name": "calculateHealthFactor",
      "outputs": [
        {
          "internalType": "uint256",
          "name": "",
          "type": "uint256"
        }
      ],
      "stateMutability": "nonpayable",
      "type": "function"
    },
    {
      "inputs": [],
      "name": "expirationTime",
      "outputs": [
        {
          "internalType": "uint256",
          "name": "",
          "type": "uint256"
        }
      ],
      "stateMutability": "view",
      "type": "function"
    },
    {
      "inputs": [
        {
          "internalType": "uint256",
          "name": "tokenId",
          "type": "uint256"
        }
      ],
      "name": "getApproved",
      "outputs": [
        {
          "internalType": "address",
          "name": "",
          "type": "address"
        }
      ],
      "stateMutability": "view",
      "type": "function"
    },
    {
      "inputs": [
        {
          "internalType": "uint256",
          "name": "tokenId",
          "type": "uint256"
        }
      ],
      "name": "getDaysUntilExpiration",
      "outputs": [
        {
          "internalType": "uint256",
          "name": "",
          "type": "uint256"
        }
      ],
      "stateMutability": "view",
      "type": "function"
    },
    {
      "inputs": [],
      "name": "getTotalSupply",
      "outputs": [
        {
          "internalType": "uint256",
          "name": "",
          "type": "uint256"
        }
      ],
      "stateMutability": "view",
      "type": "function"
    },
    {
      "inputs": [],
      "name": "interestRate",
      "outputs": [
        {
          "internalType": "uint256",
          "name": "",
          "type": "uint256"
        }
      ],
      "stateMutability": "view",
      "type": "function"
    },
    {
      "inputs": [
        {
          "internalType": "address",
          "name": "owner",
          "type": "address"
        },
        {
          "internalType": "address",
          "name": "operator",
          "type": "address"
        }
      ],
      "name": "isApprovedForAll",
      "outputs": [
        {
          "internalType": "bool",
          "name": "",
          "type": "bool"
        }
      ],
      "stateMutability": "view",
      "type": "function"
    },
    {
      "inputs": [
        {
          "internalType": "string",
          "name": "cardName",
          "type": "string"
        },
        {
          "internalType": "uint256",
          "name": "issueAmount",
          "type": "uint256"
        },
        {
          "internalType": "bytes[]",
          "name": "pythUpdateData",
          "type": "bytes[]"
        }
      ],
      "name": "issueCard",
      "outputs": [],
      "stateMutability": "nonpayable",
      "type": "function"
    },
    {
      "inputs": [
        {
          "internalType": "uint256",
          "name": "tokenId",
          "type": "uint256"
        },
        {
          "internalType": "bytes[]",
          "name": "pythUpdateData",
          "type": "bytes[]"
        }
      ],
      "name": "liquidate",
      "outputs": [],
      "stateMutability": "nonpayable",
      "type": "function"
    },
    {
      "inputs": [],
      "name": "lockedFunds",
      "outputs": [
        {
          "internalType": "uint256",
          "name": "",
          "type": "uint256"
        }
      ],
      "stateMutability": "view",
      "type": "function"
    },
    {
      "inputs": [],
      "name": "name",
      "outputs": [
        {
          "internalType": "string",
          "name": "",
          "type": "string"
        }
      ],
      "stateMutability": "view",
      "type": "function"
    },
    {
      "inputs": [],
      "name": "owner",
      "outputs": [
        {
          "internalType": "address",
          "name": "",
          "type": "address"
        }
      ],
      "stateMutability": "view",
      "type": "function"
    },
    {
      "inputs": [
        {
          "internalType": "uint256",
          "name": "tokenId",
          "type": "uint256"
        }
      ],
      "name": "ownerOf",
      "outputs": [
        {
          "internalType": "address",
          "name": "",
          "type": "address"
        }
      ],
      "stateMutability": "view",
      "type": "function"
    },
    {
      "inputs": [],
      "name": "poolBalance",
      "outputs": [
        {
          "internalType": "uint256",
          "name": "",
          "type": "uint256"
        }
      ],
      "stateMutability": "view",
      "type": "function"
    },
    {
      "inputs": [],
      "name": "renounceOwnership",
      "outputs": [],
      "stateMutability": "nonpayable",
      "type": "function"
    },
    {
      "inputs": [
        {
          "internalType": "uint256",
          "name": "tokenId",
          "type": "uint256"
        }
      ],
      "name": "repay",
      "outputs": [],
      "stateMutability": "nonpayable",
      "type": "function"
    },
    {
      "inputs": [
        {
          "internalType": "address",
          "name": "from",
          "type": "address"
        },
        {
          "internalType": "address",
          "name": "to",
          "type": "address"
        },
        {
          "internalType": "uint256",
          "name": "tokenId",
          "type": "uint256"
        }
      ],
      "name": "safeTransferFrom",
      "outputs": [],
      "stateMutability": "nonpayable",
      "type": "function"
    },
    {
      "inputs": [
        {
          "internalType": "address",
          "name": "from",
          "type": "address"
        },
        {
          "internalType": "address",
          "name": "to",
          "type": "address"
        },
        {
          "internalType": "uint256",
          "name": "tokenId",
          "type": "uint256"
        },
        {
          "internalType": "bytes",
          "name": "data",
          "type": "bytes"
        }
      ],
      "name": "safeTransferFrom",
      "outputs": [],
      "stateMutability": "nonpayable",
      "type": "function"
    },
    {
      "inputs": [
        {
          "internalType": "address",
          "name": "operator",
          "type": "address"
        },
        {
          "internalType": "bool",
          "name": "approved",
          "type": "bool"
        }
      ],
      "name": "setApprovalForAll",
      "outputs": [],
      "stateMutability": "nonpayable",
      "type": "function"
    },
    {
      "inputs": [
        {
          "internalType": "uint256",
          "name": "tokenId",
          "type": "uint256"
        },
        {
          "internalType": "uint256",
          "name": "spendAmount",
          "type": "uint256"
        },
        {
          "internalType": "address",
          "name": "recipient",
          "type": "address"
        }
      ],
      "name": "spendFromCard",
      "outputs": [],
      "stateMutability": "nonpayable",
      "type": "function"
    },
    {
      "inputs": [
        {
          "internalType": "bytes4",
          "name": "interfaceId",
          "type": "bytes4"
        }
      ],
      "name": "supportsInterface",
      "outputs": [
        {
          "internalType": "bool",
          "name": "",
          "type": "bool"
        }
      ],
      "stateMutability": "view",
      "type": "function"
    },
    {
      "inputs": [],
      "name": "symbol",
      "outputs": [
        {
          "internalType": "string",
          "name": "",
          "type": "string"
        }
      ],
      "stateMutability": "view",
      "type": "function"
    },
    {
      "inputs": [
        {
          "internalType": "uint256",
          "name": "index",
          "type": "uint256"
        }
      ],
      "name": "tokenByIndex",
      "outputs": [
        {
          "internalType": "uint256",
          "name": "",
          "type": "uint256"
        }
      ],
      "stateMutability": "view",
      "type": "function"
    },
    {
      "inputs": [
        {
          "internalType": "address",
          "name": "owner",
          "type": "address"
        },
        {
          "internalType": "uint256",
          "name": "index",
          "type": "uint256"
        }
      ],
      "name": "tokenOfOwnerByIndex",
      "outputs": [
        {
          "internalType": "uint256",
          "name": "",
          "type": "uint256"
        }
      ],
      "stateMutability": "view",
      "type": "function"
    },
    {
      "inputs": [
        {
          "internalType": "uint256",
          "name": "tokenId",
          "type": "uint256"
        }
      ],
      "name": "tokenURI",
      "outputs": [
        {
          "internalType": "string",
          "name": "",
          "type": "string"
        }
      ],
      "stateMutability": "view",
      "type": "function"
    },
    {
      "inputs": [],
      "name": "totalSupply",
      "outputs": [
        {
          "internalType": "uint256",
          "name": "",
          "type": "uint256"
        }
      ],
      "stateMutability": "view",
      "type": "function"
    },
    {
      "inputs": [
        {
          "internalType": "address",
          "name": "from",
          "type": "address"
        },
        {
          "internalType": "address",
          "name": "to",
          "type": "address"
        },
        {
          "internalType": "uint256",
          "name": "tokenId",
          "type": "uint256"
        }
      ],
      "name": "transferFrom",
      "outputs": [],
      "stateMutability": "nonpayable",
      "type": "function"
    },
    {
      "inputs": [
        {
          "internalType": "address",
          "name": "newOwner",
          "type": "address"
        }
      ],
      "name": "transferOwnership",
      "outputs": [],
      "stateMutability": "nonpayable",
      "type": "function"
    },
    {
      "inputs": [
        {
          "internalType": "uint256",
          "name": "amount",
          "type": "uint256"
        }
      ],
      "name": "withdrawFunds",
      "outputs": [],
      "stateMutability": "nonpayable",
      "type": "function"
    }
  ],
  "bytecode": "0x60806040523480156200001157600080fd5b5060405162005e3038038062005e30833981810160405281019062000037919062000518565b898989600073ffffffffffffffffffffffffffffffffffffffff168173ffffffffffffffffffffffffffffffffffffffff1603620000af5760006040517f1e4fbdf7000000000000000000000000000000000000000000000000000000008152600401620000a691906200065d565b60405180910390fd5b620000c081620001e660201b60201c565b508160019081620000d29190620008bb565b508060029081620000e49190620008bb565b50505086601460006101000a81548173ffffffffffffffffffffffffffffffffffffffff021916908373ffffffffffffffffffffffffffffffffffffffff16021790555085601360006101000a81548173ffffffffffffffffffffffffffffffffffffffff021916908373ffffffffffffffffffffffffffffffffffffffff16021790555062015180856200017a9190620009d1565b600f819055508360128190555082600b60006101000a81548173ffffffffffffffffffffffffffffffffffffffff021916908373ffffffffffffffffffffffffffffffffffffffff16021790555081600c8190555080600d819055505050505050505050505062000a1c565b60008060009054906101000a900473ffffffffffffffffffffffffffffffffffffffff169050816000806101000a81548173ffffffffffffffffffffffffffffffffffffffff021916908373ffffffffffffffffffffffffffffffffffffffff1602179055508173ffffffffffffffffffffffffffffffffffffffff168173ffffffffffffffffffffffffffffffffffffffff167f8be0079c531659141344cd1fd0a4f28419497f9722a3daafe3b4186f6b6457e060405160405180910390a35050565b6000604051905090565b600080fd5b600080fd5b600080fd5b600080fd5b6000601f19601f8301169050919050565b7f4e487b7100000000000000000000000000000000000000000000000000000000600052604160045260246000fd5b6200031382620002c8565b810181811067ffffffffffffffff82111715620003355762000334620002d9565b5b80604052505050565b60006200034a620002aa565b905062000358828262000308565b919050565b600067ffffffffffffffff8211156200037b576200037a620002d9565b5b6200038682620002c8565b9050602081019050919050565b60005b83811015620003b357808201518184015260208101905062000396565b60008484015250505050565b6000620003d6620003d0846200035d565b6200033e565b905082815260208101848484011115620003f557620003f4620002c3565b5b6200040284828562000393565b509392505050565b600082601f830112620004225762000421620002be565b5b815162000434848260208601620003bf565b91505092915050565b600073ffffffffffffffffffffffffffffffffffffffff82169050919050565b60006200046a826200043d565b9050919050565b6200047c816200045d565b81146200048857600080fd5b50565b6000815190506200049c8162000471565b92915050565b6000819050919050565b620004b781620004a2565b8114620004c357600080fd5b50565b600081519050620004d781620004ac565b92915050565b6000819050919050565b620004f281620004dd565b8114620004fe57600080fd5b50565b6000815190506200051281620004e7565b92915050565b6000806000806000806000806000806101408b8d0312156200053f576200053e620002b4565b5b60008b015167ffffffffffffffff81111562000560576200055f620002b9565b5b6200056e8d828e016200040a565b9a505060208b015167ffffffffffffffff811115620005925762000591620002b9565b5b620005a08d828e016200040a565b9950506040620005b38d828e016200048b565b9850506060620005c68d828e016200048b565b9750506080620005d98d828e016200048b565b96505060a0620005ec8d828e01620004c6565b95505060c0620005ff8d828e01620004c6565b94505060e0620006128d828e016200048b565b935050610100620006268d828e0162000501565b9250506101206200063a8d828e0162000501565b9150509295989b9194979a5092959850565b62000657816200045d565b82525050565b60006020820190506200067460008301846200064c565b92915050565b600081519050919050565b7f4e487b7100000000000000000000000000000000000000000000000000000000600052602260045260246000fd5b60006002820490506001821680620006cd57607f821691505b602082108103620006e357620006e262000685565b5b50919050565b60008190508160005260206000209050919050565b60006020601f8301049050919050565b600082821b905092915050565b6000600883026200074d7fffffffffffffffffffffffffffffffffffffffffffffffffffffffffffffffff826200070e565b6200075986836200070e565b95508019841693508086168417925050509392505050565b6000819050919050565b60006200079c620007966200079084620004a2565b62000771565b620004a2565b9050919050565b6000819050919050565b620007b8836200077b565b620007d0620007c782620007a3565b8484546200071b565b825550505050565b600090565b620007e7620007d8565b620007f4818484620007ad565b505050565b5b818110156200081c5762000810600082620007dd565b600181019050620007fa565b5050565b601f8211156200086b576200083581620006e9565b6200084084620006fe565b8101602085101562000850578190505b620008686200085f85620006fe565b830182620007f9565b50505b505050565b600082821c905092915050565b6000620008906000198460080262000870565b1980831691505092915050565b6000620008ab83836200087d565b9150826002028217905092915050565b620008c6826200067a565b67ffffffffffffffff811115620008e257620008e1620002d9565b5b620008ee8254620006b4565b620008fb82828562000820565b600060209050601f8311600181146200093357600084156200091e578287015190505b6200092a85826200089d565b8655506200099a565b601f1984166200094386620006e9565b60005b828110156200096d5784890151825560018201915060208501945060208101905062000946565b868310156200098d578489015162000989601f8916826200087d565b8355505b6001600288020188555050505b505050505050565b7f4e487b7100000000000000000000000000000000000000000000000000000000600052601160045260246000fd5b6000620009de82620004a2565b9150620009eb83620004a2565b9250828202620009fb81620004a2565b9150828204841483151762000a155762000a14620009a2565b5b5092915050565b6154048062000a2c6000396000f3fe608060405234801561001057600080fd5b50600436106102065760003560e01c806382bd31b41161011a578063be999705116100ad578063d84cb43d1161007c578063d84cb43d146105fd578063da284dcc1461062d578063e985e9c51461064b578063f2fde38b1461067b578063f66141701461069757610206565b8063be99970514610577578063c4e41b2214610593578063c87b56dd146105b1578063d369a2c6146105e157610206565b8063a22cb465116100e9578063a22cb46514610505578063a6e7092914610521578063b88d4fde1461053d578063b8afaa481461055957610206565b806382bd31b41461047b5780638da5cb5b146104ab57806395d89b41146104c957806396365d44146104e757610206565b8063371fd8e61161019d5780636352211e1161016c5780636352211e146103c357806370a08231146103f3578063715018a6146104235780637c3a00fd1461042d5780637df385831461044b57610206565b8063371fd8e61461032b57806342842e0e146103475780634765f101146103635780634f6ccce71461039357610206565b8063155dd5ee116101d9578063155dd5ee146102a557806318160ddd146102c157806323b872dd146102df5780632f745c59146102fb57610206565b806301ffc9a71461020b57806306fdde031461023b578063081812fc14610259578063095ea7b314610289575b600080fd5b6102256004803603810190610220919061382a565b6106b3565b6040516102329190613872565b60405180910390f35b6102436106c5565b604051610250919061391d565b60405180910390f35b610273600480360381019061026e9190613975565b610757565b60405161028091906139e3565b60405180910390f35b6102a3600480360381019061029e9190613a2a565b610773565b005b6102bf60048036038101906102ba9190613975565b610789565b005b6102c9610929565b6040516102d69190613a79565b60405180910390f35b6102f960048036038101906102f49190613a94565b610936565b005b61031560048036038101906103109190613a2a565b610a38565b6040516103229190613a79565b60405180910390f35b61034560048036038101906103409190613975565b610ae1565b005b610361600480360381019061035c9190613a94565b610e23565b005b61037d60048036038101906103789190613975565b610e43565b60405161038a9190613a79565b60405180910390f35b6103ad60048036038101906103a89190613975565b610ea3565b6040516103ba9190613a79565b60405180910390f35b6103dd60048036038101906103d89190613975565b610f19565b6040516103ea91906139e3565b60405180910390f35b61040d60048036038101906104089190613ae7565b610f2b565b60405161041a9190613a79565b60405180910390f35b61042b610fe5565b005b610435610ff9565b6040516104429190613a79565b60405180910390f35b61046560048036038101906104609190613baf565b610fff565b6040516104729190613a79565b60405180910390f35b61049560048036038101906104909190613c23565b61120d565b6040516104a29190613a79565b60405180910390f35b6104b3611236565b6040516104c091906139e3565b60405180910390f35b6104d161125f565b6040516104de919061391d565b60405180910390f35b6104ef6112f1565b6040516104fc9190613a79565b60405180910390f35b61051f600480360381019061051a9190613caf565b6112f7565b005b61053b60048036038101906105369190613e1f565b61130d565b005b61055760048036038101906105529190613f50565b61154a565b005b610561611567565b60405161056e9190613a79565b60405180910390f35b610591600480360381019061058c9190613975565b61156d565b005b61059b6116bd565b6040516105a89190613a79565b60405180910390f35b6105cb60048036038101906105c69190613975565b6116cc565b6040516105d8919061391d565b60405180910390f35b6105fb60048036038101906105f69190613fd3565b611735565b005b61061760048036038101906106129190613baf565b611a5a565b6040516106249190613a79565b60405180910390f35b610635611c68565b6040516106429190613a79565b60405180910390f35b61066560048036038101906106609190614026565b611c6e565b6040516106729190613872565b60405180910390f35b61069560048036038101906106909190613ae7565b611d02565b005b6106b160048036038101906106ac9190613c23565b611d88565b005b60006106be8261215e565b9050919050565b6060600180546106d490614095565b80601f016020809104026020016040519081016040528092919081815260200182805461070090614095565b801561074d5780601f106107225761010080835404028352916020019161074d565b820191906000526020600020905b81548152906001019060200180831161073057829003601f168201915b5050505050905090565b6000610762826121d8565b5061076c82612260565b9050919050565b610785828261078061229d565b6122a5565b5050565b6107916122b7565b80600081116107d5576040517f08c379a00000000000000000000000000000000000000000000000000000000081526004016107cc90614112565b60405180910390fd5b6011546010546107e59190614161565b821115610827576040517f08c379a000000000000000000000000000000000000000000000000000000000815260040161081e906141e1565b60405180910390fd5b81601060008282546108399190614161565b925050819055506000601460009054906101000a900473ffffffffffffffffffffffffffffffffffffffff1673ffffffffffffffffffffffffffffffffffffffff1663a9059cbb33856040518363ffffffff1660e01b815260040161089f929190614201565b6020604051808303816000875af11580156108be573d6000803e3d6000fd5b505050506040513d601f19601f820116820180604052508101906108e2919061423f565b905080610924576040517f08c379a000000000000000000000000000000000000000000000000000000000815260040161091b906142b8565b60405180910390fd5b505050565b6000600980549050905090565b600073ffffffffffffffffffffffffffffffffffffffff168273ffffffffffffffffffffffffffffffffffffffff16036109a85760006040517f64a0ae9200000000000000000000000000000000000000000000000000000000815260040161099f91906139e3565b60405180910390fd5b60006109bc83836109b761229d565b61233e565b90508373ffffffffffffffffffffffffffffffffffffffff168173ffffffffffffffffffffffffffffffffffffffff1614610a32578382826040517f64283d7b000000000000000000000000000000000000000000000000000000008152600401610a29939291906142d8565b60405180910390fd5b50505050565b6000610a4383610f2b565b8210610a885782826040517fa57d13dc000000000000000000000000000000000000000000000000000000008152600401610a7f929190614201565b60405180910390fd5b600760008473ffffffffffffffffffffffffffffffffffffffff1673ffffffffffffffffffffffffffffffffffffffff168152602001908152602001600020600083815260200190815260200160002054905092915050565b3373ffffffffffffffffffffffffffffffffffffffff16610b0182610f19565b73ffffffffffffffffffffffffffffffffffffffff1614610b57576040517f08c379a0000000000000000000000000000000000000000000000000000000008152600401610b4e9061435b565b60405180910390fd5b60006015600083815260200190815260200160002090508060050160009054906101000a900460ff1615610bc0576040517f08c379a0000000000000000000000000000000000000000000000000000000008152600401610bb7906143c7565b60405180910390fd5b600060646012548360020154610bd691906143e7565b610be09190614458565b8260020154610bef9190614489565b90506000601460009054906101000a900473ffffffffffffffffffffffffffffffffffffffff1673ffffffffffffffffffffffffffffffffffffffff166323b872dd3330856040518463ffffffff1660e01b8152600401610c52939291906144bd565b6020604051808303816000875af1158015610c71573d6000803e3d6000fd5b505050506040513d601f19601f82011682018060405250810190610c95919061423f565b905080610cd7576040517f08c379a0000000000000000000000000000000000000000000000000000000008152600401610cce90614566565b60405180910390fd5b8160106000828254610ce99190614489565b925050819055506000836002018190555060018360050160006101000a81548160ff021916908315150217905550826001015460116000828254610d2d9190614161565b925050819055506000601360009054906101000a900473ffffffffffffffffffffffffffffffffffffffff1673ffffffffffffffffffffffffffffffffffffffff1663a9059cbb3386600301546040518363ffffffff1660e01b8152600401610d97929190614201565b6020604051808303816000875af1158015610db6573d6000803e3d6000fd5b505050506040513d601f19601f82011682018060405250810190610dda919061423f565b905080610e1c576040517f08c379a0000000000000000000000000000000000000000000000000000000008152600401610e13906145d2565b60405180910390fd5b5050505050565b610e3e8383836040518060200160405280600081525061154a565b505050565b60008060156000848152602001908152602001600020905080600401544210610e70576000915050610e9e565b6000428260040154610e829190614161565b905060006201518082610e959190614458565b90508093505050505b919050565b6000610ead610929565b8210610ef3576000826040517fa57d13dc000000000000000000000000000000000000000000000000000000008152600401610eea929190614201565b60405180910390fd5b60098281548110610f0757610f066145f2565b5b90600052602060002001549050919050565b6000610f24826121d8565b9050919050565b60008073ffffffffffffffffffffffffffffffffffffffff168273ffffffffffffffffffffffffffffffffffffffff1603610f9e5760006040517f89c62b64000000000000000000000000000000000000000000000000000000008152600401610f9591906139e3565b60405180910390fd5b600460008373ffffffffffffffffffffffffffffffffffffffff1673ffffffffffffffffffffffffffffffffffffffff168152602001908152602001600020549050919050565b610fed6122b7565b610ff76000612354565b565b60125481565b600080600b60009054906101000a900473ffffffffffffffffffffffffffffffffffffffff1673ffffffffffffffffffffffffffffffffffffffff1663d47eed4585856040518363ffffffff1660e01b815260040161105f929190614785565b602060405180830381865afa15801561107c573d6000803e3d6000fd5b505050506040513d601f19601f820116820180604052508101906110a091906147be565b9050600b60009054906101000a900473ffffffffffffffffffffffffffffffffffffffff1673ffffffffffffffffffffffffffffffffffffffff1663ef9e5e288286866040518463ffffffff1660e01b8152600401611100929190614785565b6000604051808303818588803b15801561111957600080fd5b505af115801561112d573d6000803e3d6000fd5b50505050506000600b60009054906101000a900473ffffffffffffffffffffffffffffffffffffffff1673ffffffffffffffffffffffffffffffffffffffff166331d98b3f886040518263ffffffff1660e01b815260040161118f91906147fa565b608060405180830381865afa1580156111ac573d6000803e3d6000fd5b505050506040513d601f19601f820116820180604052508101906111d09190614944565b905060006111df826012612418565b905080670de0b6b3a7640000886111f691906143e7565b6112009190614458565b9350505050949350505050565b600080600061121d86868661252c565b9150915061122b8282612577565b925050509392505050565b60008060009054906101000a900473ffffffffffffffffffffffffffffffffffffffff16905090565b60606002805461126e90614095565b80601f016020809104026020016040519081016040528092919081815260200182805461129a90614095565b80156112e75780601f106112bc576101008083540402835291602001916112e7565b820191906000526020600020905b8154815290600101906020018083116112ca57829003601f168201915b5050505050905090565b60105481565b61130961130261229d565b83836125ee565b5050565b8260008111611351576040517f08c379a000000000000000000000000000000000000000000000000000000000815260040161134890614112565b60405180910390fd5b6000611361600c54868686611a5a565b9050600061137f600d5460028461137891906143e7565b8787610fff565b90506000601360009054906101000a900473ffffffffffffffffffffffffffffffffffffffff1673ffffffffffffffffffffffffffffffffffffffff166323b872dd3330856040518463ffffffff1660e01b81526004016113e2939291906144bd565b6020604051808303816000875af1158015611401573d6000803e3d6000fd5b505050506040513d601f19601f82011682018060405250810190611425919061423f565b905080611467576040517f08c379a000000000000000000000000000000000000000000000000000000000815260040161145e906145d2565b60405180910390fd5b60006114723361275d565b90506040518060c001604052808a815260200189815260200160008152602001848152602001600f54426114a69190614489565b8152602001600015158152506015600083815260200190815260200160002060008201518160000190816114da9190614b1d565b506020820151816001015560408201518160020155606082015181600301556080820151816004015560a08201518160050160006101000a81548160ff02191690831515021790555090505087601160008282546115389190614489565b92505081905550505050505050505050565b611555848484610936565b6115618484848461278c565b50505050565b60115481565b6115756122b7565b80600081116115b9576040517f08c379a00000000000000000000000000000000000000000000000000000000081526004016115b090614112565b60405180910390fd5b81601060008282546115cb9190614489565b925050819055506000601460009054906101000a900473ffffffffffffffffffffffffffffffffffffffff1673ffffffffffffffffffffffffffffffffffffffff166323b872dd3330866040518463ffffffff1660e01b8152600401611633939291906144bd565b6020604051808303816000875af1158015611652573d6000803e3d6000fd5b505050506040513d601f19601f82011682018060405250810190611676919061423f565b9050806116b8576040517f08c379a00000000000000000000000000000000000000000000000000000000081526004016116af90614c3b565b60405180910390fd5b505050565b60006116c7610929565b905090565b60606116d7826121d8565b5060006116e2612943565b90506000815111611702576040518060200160405280600081525061172d565b8061170c8461295a565b60405160200161171d929190614c97565b6040516020818303038152906040525b915050919050565b8160008111611779576040517f08c379a000000000000000000000000000000000000000000000000000000000815260040161177090614112565b60405180910390fd5b3373ffffffffffffffffffffffffffffffffffffffff1661179985610f19565b73ffffffffffffffffffffffffffffffffffffffff16146117ef576040517f08c379a00000000000000000000000000000000000000000000000000000000081526004016117e69061435b565b60405180910390fd5b60006015600086815260200190815260200160002090508060050160009054906101000a900460ff1615611858576040517f08c379a000000000000000000000000000000000000000000000000000000000815260040161184f906143c7565b60405180910390fd5b806004015442111561189f576040517f08c379a000000000000000000000000000000000000000000000000000000000815260040161189690614d07565b60405180910390fd5b8381600201546118af9190614489565b816001015410156118f5576040517f08c379a00000000000000000000000000000000000000000000000000000000081526004016118ec90614d73565b60405180910390fd5b60105484111561193a576040517f08c379a000000000000000000000000000000000000000000000000000000000815260040161193190614ddf565b60405180910390fd5b8381600201600082825461194e9190614489565b9250508190555083601060008282546119679190614161565b925050819055506000601460009054906101000a900473ffffffffffffffffffffffffffffffffffffffff1673ffffffffffffffffffffffffffffffffffffffff1663a9059cbb85876040518363ffffffff1660e01b81526004016119cd929190614201565b6020604051808303816000875af11580156119ec573d6000803e3d6000fd5b505050506040513d601f19601f82011682018060405250810190611a10919061423f565b905080611a52576040517f08c379a0000000000000000000000000000000000000000000000000000000008152600401611a4990614e4b565b60405180910390fd5b505050505050565b600080600b60009054906101000a900473ffffffffffffffffffffffffffffffffffffffff1673ffffffffffffffffffffffffffffffffffffffff1663d47eed4585856040518363ffffffff1660e01b8152600401611aba929190614785565b602060405180830381865afa158015611ad7573d6000803e3d6000fd5b505050506040513d601f19601f82011682018060405250810190611afb91906147be565b9050600b60009054906101000a900473ffffffffffffffffffffffffffffffffffffffff1673ffffffffffffffffffffffffffffffffffffffff1663ef9e5e288286866040518463ffffffff1660e01b8152600401611b5b929190614785565b6000604051808303818588803b158015611b7457600080fd5b505af1158015611b88573d6000803e3d6000fd5b50505050506000600b60009054906101000a900473ffffffffffffffffffffffffffffffffffffffff1673ffffffffffffffffffffffffffffffffffffffff166331d98b3f886040518263ffffffff1660e01b8152600401611bea91906147fa565b608060405180830381865afa158015611c07573d6000803e3d6000fd5b505050506040513d601f19601f82011682018060405250810190611c2b9190614944565b90506000611c3a826012612418565b9050670de0b6b3a76400008782611c5191906143e7565b611c5b9190614458565b9350505050949350505050565b600f5481565b6000600660008473ffffffffffffffffffffffffffffffffffffffff1673ffffffffffffffffffffffffffffffffffffffff16815260200190815260200160002060008373ffffffffffffffffffffffffffffffffffffffff1673ffffffffffffffffffffffffffffffffffffffff16815260200190815260200160002060009054906101000a900460ff16905092915050565b611d0a6122b7565b600073ffffffffffffffffffffffffffffffffffffffff168173ffffffffffffffffffffffffffffffffffffffff1603611d7c5760006040517f1e4fbdf7000000000000000000000000000000000000000000000000000000008152600401611d7391906139e3565b60405180910390fd5b611d8581612354565b50565b611d906122b7565b600073ffffffffffffffffffffffffffffffffffffffff16611db184610f19565b73ffffffffffffffffffffffffffffffffffffffff1603611e07576040517f08c379a0000000000000000000000000000000000000000000000000000000008152600401611dfe90614eb7565b60405180910390fd5b6000611e1484848461120d565b9050670de0b6b3a76400008110611e60576040517f08c379a0000000000000000000000000000000000000000000000000000000008152600401611e5790614f49565b60405180910390fd5b60006015600086815260200190815260200160002090508060050160009054906101000a900460ff1615611ec9576040517f08c379a0000000000000000000000000000000000000000000000000000000008152600401611ec090614fb5565b60405180910390fd5b600081600201548260010154611edf9190614161565b9050601054811115611f26576040517f08c379a0000000000000000000000000000000000000000000000000000000008152600401611f1d90615047565b60405180910390fd5b8060106000828254611f389190614161565b9250508190555060018260050160006101000a81548160ff021916908315150217905550816001015460116000828254611f729190614161565b925050819055506000601360009054906101000a900473ffffffffffffffffffffffffffffffffffffffff1673ffffffffffffffffffffffffffffffffffffffff1663a9059cbb611fc1611236565b85600301546040518363ffffffff1660e01b8152600401611fe3929190614201565b6020604051808303816000875af1158015612002573d6000803e3d6000fd5b505050506040513d601f19601f82011682018060405250810190612026919061423f565b905080612068576040517f08c379a000000000000000000000000000000000000000000000000000000000815260040161205f906145d2565b60405180910390fd5b6000601460009054906101000a900473ffffffffffffffffffffffffffffffffffffffff1673ffffffffffffffffffffffffffffffffffffffff1663a9059cbb6120b18a610f19565b856040518363ffffffff1660e01b81526004016120cf929190614201565b6020604051808303816000875af11580156120ee573d6000803e3d6000fd5b505050506040513d601f19601f82011682018060405250810190612112919061423f565b905080612154576040517f08c379a000000000000000000000000000000000000000000000000000000000815260040161214b90614e4b565b60405180910390fd5b5050505050505050565b60007f780e9d63000000000000000000000000000000000000000000000000000000007bffffffffffffffffffffffffffffffffffffffffffffffffffffffff1916827bffffffffffffffffffffffffffffffffffffffffffffffffffffffff191614806121d157506121d082612a28565b5b9050919050565b6000806121e483612b0a565b9050600073ffffffffffffffffffffffffffffffffffffffff168173ffffffffffffffffffffffffffffffffffffffff160361225757826040517f7e27328900000000000000000000000000000000000000000000000000000000815260040161224e9190613a79565b60405180910390fd5b80915050919050565b60006005600083815260200190815260200160002060009054906101000a900473ffffffffffffffffffffffffffffffffffffffff169050919050565b600033905090565b6122b28383836001612b47565b505050565b6122bf61229d565b73ffffffffffffffffffffffffffffffffffffffff166122dd611236565b73ffffffffffffffffffffffffffffffffffffffff161461233c5761230061229d565b6040517f118cdaa700000000000000000000000000000000000000000000000000000000815260040161233391906139e3565b60405180910390fd5b565b600061234b848484612d0c565b90509392505050565b60008060009054906101000a900473ffffffffffffffffffffffffffffffffffffffff169050816000806101000a81548173ffffffffffffffffffffffffffffffffffffffff021916908373ffffffffffffffffffffffffffffffffffffffff1602179055508173ffffffffffffffffffffffffffffffffffffffff168173ffffffffffffffffffffffffffffffffffffffff167f8be0079c531659141344cd1fd0a4f28419497f9722a3daafe3b4186f6b6457e060405160405180910390a35050565b600080836000015160070b128061243657506000836040015160030b135b8061246757507fffffffffffffffffffffffffffffffffffffffffffffffffffffffffffffff01836040015160030b125b1561247157600080fd5b600083604001517fffffffffffffffffffffffffffffffffffffffffffffffffffffffffffffffff6124a39190615067565b90508060ff168360ff16106124ee5780836124be91906150b1565b60ff16600a6124cd9190615229565b846000015167ffffffffffffffff166124e691906143e7565b915050612526565b82816124fa91906150b1565b60ff16600a6125099190615229565b846000015167ffffffffffffffff166125229190614458565b9150505b92915050565b6000806000601560008781526020019081526020016000209050612558600c5482600101548787611a5a565b925061256c600d5482600301548787611a5a565b915050935093915050565b60008083036125a8577fffffffffffffffffffffffffffffffffffffffffffffffffffffffffffffffff90506125e8565b600060646032846125b991906143e7565b6125c39190614458565b905083670de0b6b3a7640000826125da91906143e7565b6125e49190614458565b9150505b92915050565b600073ffffffffffffffffffffffffffffffffffffffff168273ffffffffffffffffffffffffffffffffffffffff160361265f57816040517f5b08ba1800000000000000000000000000000000000000000000000000000000815260040161265691906139e3565b60405180910390fd5b80600660008573ffffffffffffffffffffffffffffffffffffffff1673ffffffffffffffffffffffffffffffffffffffff16815260200190815260200160002060008473ffffffffffffffffffffffffffffffffffffffff1673ffffffffffffffffffffffffffffffffffffffff16815260200190815260200160002060006101000a81548160ff0219169083151502179055508173ffffffffffffffffffffffffffffffffffffffff168373ffffffffffffffffffffffffffffffffffffffff167f17307eab39ab6107e8899845ad3d59bd9653f200f220920489ca2b5937696c31836040516127509190613872565b60405180910390a3505050565b600080600e600081548092919061277390615274565b9190505590506127838382612e29565b80915050919050565b60008373ffffffffffffffffffffffffffffffffffffffff163b111561293d578273ffffffffffffffffffffffffffffffffffffffff1663150b7a026127d061229d565b8685856040518563ffffffff1660e01b81526004016127f29493929190615311565b6020604051808303816000875af192505050801561282e57506040513d601f19601f8201168201806040525081019061282b9190615372565b60015b6128b2573d806000811461285e576040519150601f19603f3d011682016040523d82523d6000602084013e612863565b606091505b5060008151036128aa57836040517f64a0ae920000000000000000000000000000000000000000000000000000000081526004016128a191906139e3565b60405180910390fd5b805181602001fd5b63150b7a0260e01b7bffffffffffffffffffffffffffffffffffffffffffffffffffffffff1916817bffffffffffffffffffffffffffffffffffffffffffffffffffffffff19161461293b57836040517f64a0ae9200000000000000000000000000000000000000000000000000000000815260040161293291906139e3565b60405180910390fd5b505b50505050565b606060405180602001604052806000815250905090565b60606000600161296984612e47565b01905060008167ffffffffffffffff81111561298857612987613cf4565b5b6040519080825280601f01601f1916602001820160405280156129ba5781602001600182028036833780820191505090505b509050600082602001820190505b600115612a1d578080600190039150507f3031323334353637383961626364656600000000000000000000000000000000600a86061a8153600a8581612a1157612a10614429565b5b049450600085036129c8575b819350505050919050565b60007f80ac58cd000000000000000000000000000000000000000000000000000000007bffffffffffffffffffffffffffffffffffffffffffffffffffffffff1916827bffffffffffffffffffffffffffffffffffffffffffffffffffffffff19161480612af357507f5b5e139f000000000000000000000000000000000000000000000000000000007bffffffffffffffffffffffffffffffffffffffffffffffffffffffff1916827bffffffffffffffffffffffffffffffffffffffffffffffffffffffff1916145b80612b035750612b0282612f9a565b5b9050919050565b60006003600083815260200190815260200160002060009054906101000a900473ffffffffffffffffffffffffffffffffffffffff169050919050565b8080612b805750600073ffffffffffffffffffffffffffffffffffffffff168273ffffffffffffffffffffffffffffffffffffffff1614155b15612cb4576000612b90846121d8565b9050600073ffffffffffffffffffffffffffffffffffffffff168373ffffffffffffffffffffffffffffffffffffffff1614158015612bfb57508273ffffffffffffffffffffffffffffffffffffffff168173ffffffffffffffffffffffffffffffffffffffff1614155b8015612c0e5750612c0c8184611c6e565b155b15612c5057826040517fa9fbf51f000000000000000000000000000000000000000000000000000000008152600401612c4791906139e3565b60405180910390fd5b8115612cb257838573ffffffffffffffffffffffffffffffffffffffff168273ffffffffffffffffffffffffffffffffffffffff167f8c5be1e5ebec7d5bd14f71427d1e84f3dd0314c0f7b2291e5b200ac8c7c3b92560405160405180910390a45b505b836005600085815260200190815260200160002060006101000a81548173ffffffffffffffffffffffffffffffffffffffff021916908373ffffffffffffffffffffffffffffffffffffffff16021790555050505050565b600080612d1a858585613004565b9050600073ffffffffffffffffffffffffffffffffffffffff168173ffffffffffffffffffffffffffffffffffffffff1603612d5e57612d598461321e565b612d9d565b8473ffffffffffffffffffffffffffffffffffffffff168173ffffffffffffffffffffffffffffffffffffffff1614612d9c57612d9b8185613267565b5b5b600073ffffffffffffffffffffffffffffffffffffffff168573ffffffffffffffffffffffffffffffffffffffff1603612ddf57612dda846133c8565b612e1e565b8473ffffffffffffffffffffffffffffffffffffffff168173ffffffffffffffffffffffffffffffffffffffff1614612e1d57612e1c8585613499565b5b5b809150509392505050565b612e43828260405180602001604052806000815250613524565b5050565b600080600090507a184f03e93ff9f4daa797ed6e38ed64bf6a1f0100000000000000008310612ea5577a184f03e93ff9f4daa797ed6e38ed64bf6a1f0100000000000000008381612e9b57612e9a614429565b5b0492506040810190505b6d04ee2d6d415b85acef81000000008310612ee2576d04ee2d6d415b85acef81000000008381612ed857612ed7614429565b5b0492506020810190505b662386f26fc100008310612f1157662386f26fc100008381612f0757612f06614429565b5b0492506010810190505b6305f5e1008310612f3a576305f5e1008381612f3057612f2f614429565b5b0492506008810190505b6127108310612f5f576127108381612f5557612f54614429565b5b0492506004810190505b60648310612f825760648381612f7857612f77614429565b5b0492506002810190505b600a8310612f91576001810190505b80915050919050565b60007f01ffc9a7000000000000000000000000000000000000000000000000000000007bffffffffffffffffffffffffffffffffffffffffffffffffffffffff1916827bffffffffffffffffffffffffffffffffffffffffffffffffffffffff1916149050919050565b60008061301084612b0a565b9050600073ffffffffffffffffffffffffffffffffffffffff168373ffffffffffffffffffffffffffffffffffffffff161461305257613051818486613540565b5b600073ffffffffffffffffffffffffffffffffffffffff168173ffffffffffffffffffffffffffffffffffffffff16146130e357613094600085600080612b47565b6001600460008373ffffffffffffffffffffffffffffffffffffffff1673ffffffffffffffffffffffffffffffffffffffff168152602001908152602001600020600082825403925050819055505b600073ffffffffffffffffffffffffffffffffffffffff168573ffffffffffffffffffffffffffffffffffffffff1614613166576001600460008773ffffffffffffffffffffffffffffffffffffffff1673ffffffffffffffffffffffffffffffffffffffff168152602001908152602001600020600082825401925050819055505b846003600086815260200190815260200160002060006101000a81548173ffffffffffffffffffffffffffffffffffffffff021916908373ffffffffffffffffffffffffffffffffffffffff160217905550838573ffffffffffffffffffffffffffffffffffffffff168273ffffffffffffffffffffffffffffffffffffffff167fddf252ad1be2c89b69c2b068fc378daa952ba7f163c4a11628f55a4df523b3ef60405160405180910390a4809150509392505050565b600980549050600a600083815260200190815260200160002081905550600981908060018154018082558091505060019003906000526020600020016000909190919091505550565b600061327283610f2b565b9050600060086000848152602001908152602001600020549050818114613357576000600760008673ffffffffffffffffffffffffffffffffffffffff1673ffffffffffffffffffffffffffffffffffffffff168152602001908152602001600020600084815260200190815260200160002054905080600760008773ffffffffffffffffffffffffffffffffffffffff1673ffffffffffffffffffffffffffffffffffffffff168152602001908152602001600020600084815260200190815260200160002081905550816008600083815260200190815260200160002081905550505b6008600084815260200190815260200160002060009055600760008573ffffffffffffffffffffffffffffffffffffffff1673ffffffffffffffffffffffffffffffffffffffff16815260200190815260200160002060008381526020019081526020016000206000905550505050565b600060016009805490506133dc9190614161565b90506000600a600084815260200190815260200160002054905060006009838154811061340c5761340b6145f2565b5b90600052602060002001549050806009838154811061342e5761342d6145f2565b5b906000526020600020018190555081600a600083815260200190815260200160002081905550600a600085815260200190815260200160002060009055600980548061347d5761347c61539f565b5b6001900381819060005260206000200160009055905550505050565b600060016134a684610f2b565b6134b09190614161565b905081600760008573ffffffffffffffffffffffffffffffffffffffff1673ffffffffffffffffffffffffffffffffffffffff168152602001908152602001600020600083815260200190815260200160002081905550806008600084815260200190815260200160002081905550505050565b61352e8383613604565b61353b600084848461278c565b505050565b61354b8383836136fd565b6135ff57600073ffffffffffffffffffffffffffffffffffffffff168373ffffffffffffffffffffffffffffffffffffffff16036135c057806040517f7e2732890000000000000000000000000000000000000000000000000000000081526004016135b79190613a79565b60405180910390fd5b81816040517f177e802f0000000000000000000000000000000000000000000000000000000081526004016135f6929190614201565b60405180910390fd5b505050565b600073ffffffffffffffffffffffffffffffffffffffff168273ffffffffffffffffffffffffffffffffffffffff16036136765760006040517f64a0ae9200000000000000000000000000000000000000000000000000000000815260040161366d91906139e3565b60405180910390fd5b60006136848383600061233e565b9050600073ffffffffffffffffffffffffffffffffffffffff168173ffffffffffffffffffffffffffffffffffffffff16146136f85760006040517f73c6ac6e0000000000000000000000000000000000000000000000000000000081526004016136ef91906139e3565b60405180910390fd5b505050565b60008073ffffffffffffffffffffffffffffffffffffffff168373ffffffffffffffffffffffffffffffffffffffff16141580156137b557508273ffffffffffffffffffffffffffffffffffffffff168473ffffffffffffffffffffffffffffffffffffffff16148061377657506137758484611c6e565b5b806137b457508273ffffffffffffffffffffffffffffffffffffffff1661379c83612260565b73ffffffffffffffffffffffffffffffffffffffff16145b5b90509392505050565b6000604051905090565b600080fd5b600080fd5b60007fffffffff0000000000000000000000000000000000000000000000000000000082169050919050565b613807816137d2565b811461381257600080fd5b50565b600081359050613824816137fe565b92915050565b6000602082840312156138405761383f6137c8565b5b600061384e84828501613815565b91505092915050565b60008115159050919050565b61386c81613857565b82525050565b60006020820190506138876000830184613863565b92915050565b600081519050919050565b600082825260208201905092915050565b60005b838110156138c75780820151818401526020810190506138ac565b60008484015250505050565b6000601f19601f8301169050919050565b60006138ef8261388d565b6138f98185613898565b93506139098185602086016138a9565b613912816138d3565b840191505092915050565b6000602082019050818103600083015261393781846138e4565b905092915050565b6000819050919050565b6139528161393f565b811461395d57600080fd5b50565b60008135905061396f81613949565b92915050565b60006020828403121561398b5761398a6137c8565b5b600061399984828501613960565b91505092915050565b600073ffffffffffffffffffffffffffffffffffffffff82169050919050565b60006139cd826139a2565b9050919050565b6139dd816139c2565b82525050565b60006020820190506139f860008301846139d4565b92915050565b613a07816139c2565b8114613a1257600080fd5b50565b600081359050613a24816139fe565b92915050565b60008060408385031215613a4157613a406137c8565b5b6000613a4f85828601613a15565b9250506020613a6085828601613960565b9150509250929050565b613a738161393f565b82525050565b6000602082019050613a8e6000830184613a6a565b92915050565b600080600060608486031215613aad57613aac6137c8565b5b6000613abb86828701613a15565b9350506020613acc86828701613a15565b9250506040613add86828701613960565b9150509250925092565b600060208284031215613afd57613afc6137c8565b5b6000613b0b84828501613a15565b91505092915050565b6000819050919050565b613b2781613b14565b8114613b3257600080fd5b50565b600081359050613b4481613b1e565b92915050565b600080fd5b600080fd5b600080fd5b60008083601f840112613b6f57613b6e613b4a565b5b8235905067ffffffffffffffff811115613b8c57613b8b613b4f565b5b602083019150836020820283011115613ba857613ba7613b54565b5b9250929050565b60008060008060608587031215613bc957613bc86137c8565b5b6000613bd787828801613b35565b9450506020613be887828801613960565b935050604085013567ffffffffffffffff811115613c0957613c086137cd565b5b613c1587828801613b59565b925092505092959194509250565b600080600060408486031215613c3c57613c3b6137c8565b5b6000613c4a86828701613960565b935050602084013567ffffffffffffffff811115613c6b57613c6a6137cd565b5b613c7786828701613b59565b92509250509250925092565b613c8c81613857565b8114613c9757600080fd5b50565b600081359050613ca981613c83565b92915050565b60008060408385031215613cc657613cc56137c8565b5b6000613cd485828601613a15565b9250506020613ce585828601613c9a565b9150509250929050565b600080fd5b7f4e487b7100000000000000000000000000000000000000000000000000000000600052604160045260246000fd5b613d2c826138d3565b810181811067ffffffffffffffff82111715613d4b57613d4a613cf4565b5b80604052505050565b6000613d5e6137be565b9050613d6a8282613d23565b919050565b600067ffffffffffffffff821115613d8a57613d89613cf4565b5b613d93826138d3565b9050602081019050919050565b82818337600083830152505050565b6000613dc2613dbd84613d6f565b613d54565b905082815260208101848484011115613dde57613ddd613cef565b5b613de9848285613da0565b509392505050565b600082601f830112613e0657613e05613b4a565b5b8135613e16848260208601613daf565b91505092915050565b60008060008060608587031215613e3957613e386137c8565b5b600085013567ffffffffffffffff811115613e5757613e566137cd565b5b613e6387828801613df1565b9450506020613e7487828801613960565b935050604085013567ffffffffffffffff811115613e9557613e946137cd565b5b613ea187828801613b59565b925092505092959194509250565b600067ffffffffffffffff821115613eca57613ec9613cf4565b5b613ed3826138d3565b9050602081019050919050565b6000613ef3613eee84613eaf565b613d54565b905082815260208101848484011115613f0f57613f0e613cef565b5b613f1a848285613da0565b509392505050565b600082601f830112613f3757613f36613b4a565b5b8135613f47848260208601613ee0565b91505092915050565b60008060008060808587031215613f6a57613f696137c8565b5b6000613f7887828801613a15565b9450506020613f8987828801613a15565b9350506040613f9a87828801613960565b925050606085013567ffffffffffffffff811115613fbb57613fba6137cd565b5b613fc787828801613f22565b91505092959194509250565b600080600060608486031215613fec57613feb6137c8565b5b6000613ffa86828701613960565b935050602061400b86828701613960565b925050604061401c86828701613a15565b9150509250925092565b6000806040838503121561403d5761403c6137c8565b5b600061404b85828601613a15565b925050602061405c85828601613a15565b9150509250929050565b7f4e487b7100000000000000000000000000000000000000000000000000000000600052602260045260246000fd5b600060028204905060018216806140ad57607f821691505b6020821081036140c0576140bf614066565b5b50919050565b7f416d6f756e74206d7573742062652067726561746572207468616e207a65726f600082015250565b60006140fc602083613898565b9150614107826140c6565b602082019050919050565b6000602082019050818103600083015261412b816140ef565b9050919050565b7f4e487b7100000000000000000000000000000000000000000000000000000000600052601160045260246000fd5b600061416c8261393f565b91506141778361393f565b925082820390508181111561418f5761418e614132565b5b92915050565b7f416d6f756e74206578636565647320756e6c6f636b65642066756e6473000000600082015250565b60006141cb601d83613898565b91506141d682614195565b602082019050919050565b600060208201905081810360008301526141fa816141be565b9050919050565b600060408201905061421660008301856139d4565b6142236020830184613a6a565b9392505050565b60008151905061423981613c83565b92915050565b600060208284031215614255576142546137c8565b5b60006142638482850161422a565b91505092915050565b7f5769746864726177616c206661696c6564000000000000000000000000000000600082015250565b60006142a2601183613898565b91506142ad8261426c565b602082019050919050565b600060208201905081810360008301526142d181614295565b9050919050565b60006060820190506142ed60008301866139d4565b6142fa6020830185613a6a565b61430760408301846139d4565b949350505050565b7f4e6f74207468652063617264206f776e65720000000000000000000000000000600082015250565b6000614345601283613898565b91506143508261430f565b602082019050919050565b6000602082019050818103600083015261437481614338565b9050919050565b7f4361726420686173206265656e20646973636172646564000000000000000000600082015250565b60006143b1601783613898565b91506143bc8261437b565b602082019050919050565b600060208201905081810360008301526143e0816143a4565b9050919050565b60006143f28261393f565b91506143fd8361393f565b925082820261440b8161393f565b9150828204841483151761442257614421614132565b5b5092915050565b7f4e487b7100000000000000000000000000000000000000000000000000000000600052601260045260246000fd5b60006144638261393f565b915061446e8361393f565b92508261447e5761447d614429565b5b828204905092915050565b60006144948261393f565b915061449f8361393f565b92508282019050808211156144b7576144b6614132565b5b92915050565b60006060820190506144d260008301866139d4565b6144df60208301856139d4565b6144ec6040830184613a6a565b949350505050565b7f444149207472616e7366657220666f722072657061796d656e74206661696c6560008201527f6400000000000000000000000000000000000000000000000000000000000000602082015250565b6000614550602183613898565b915061455b826144f4565b604082019050919050565b6000602082019050818103600083015261457f81614543565b9050919050565b7f436f6c6c61746572616c207472616e73666572206661696c6564000000000000600082015250565b60006145bc601a83613898565b91506145c782614586565b602082019050919050565b600060208201905081810360008301526145eb816145af565b9050919050565b7f4e487b7100000000000000000000000000000000000000000000000000000000600052603260045260246000fd5b600082825260208201905092915050565b6000819050919050565b600082825260208201905092915050565b6000614659838561463c565b9350614666838584613da0565b61466f836138d3565b840190509392505050565b600061468784848461464d565b90509392505050565b600080fd5b600080fd5b600080fd5b600080833560016020038436030381126146bc576146bb61469a565b5b83810192508235915060208301925067ffffffffffffffff8211156146e4576146e3614690565b5b6001820236038313156146fa576146f9614695565b5b509250929050565b6000602082019050919050565b600061471b8385614621565b93508360208402850161472d84614632565b8060005b87811015614773578484038952614748828461469f565b61475386828461467a565b955061475e84614702565b935060208b019a505050600181019050614731565b50829750879450505050509392505050565b600060208201905081810360008301526147a081848661470f565b90509392505050565b6000815190506147b881613949565b92915050565b6000602082840312156147d4576147d36137c8565b5b60006147e2848285016147a9565b91505092915050565b6147f481613b14565b82525050565b600060208201905061480f60008301846147eb565b92915050565b600080fd5b60008160070b9050919050565b6148308161481a565b811461483b57600080fd5b50565b60008151905061484d81614827565b92915050565b600067ffffffffffffffff82169050919050565b61487081614853565b811461487b57600080fd5b50565b60008151905061488d81614867565b92915050565b60008160030b9050919050565b6148a981614893565b81146148b457600080fd5b50565b6000815190506148c6816148a0565b92915050565b6000608082840312156148e2576148e1614815565b5b6148ec6080613d54565b905060006148fc8482850161483e565b60008301525060206149108482850161487e565b6020830152506040614924848285016148b7565b6040830152506060614938848285016147a9565b60608301525092915050565b60006080828403121561495a576149596137c8565b5b6000614968848285016148cc565b91505092915050565b60008190508160005260206000209050919050565b60006020601f8301049050919050565b600082821b905092915050565b6000600883026149d37fffffffffffffffffffffffffffffffffffffffffffffffffffffffffffffffff82614996565b6149dd8683614996565b95508019841693508086168417925050509392505050565b6000819050919050565b6000614a1a614a15614a108461393f565b6149f5565b61393f565b9050919050565b6000819050919050565b614a34836149ff565b614a48614a4082614a21565b8484546149a3565b825550505050565b600090565b614a5d614a50565b614a68818484614a2b565b505050565b5b81811015614a8c57614a81600082614a55565b600181019050614a6e565b5050565b601f821115614ad157614aa281614971565b614aab84614986565b81016020851015614aba578190505b614ace614ac685614986565b830182614a6d565b50505b505050565b600082821c905092915050565b6000614af460001984600802614ad6565b1980831691505092915050565b6000614b0d8383614ae3565b9150826002028217905092915050565b614b268261388d565b67ffffffffffffffff811115614b3f57614b3e613cf4565b5b614b498254614095565b614b54828285614a90565b600060209050601f831160018114614b875760008415614b75578287015190505b614b7f8582614b01565b865550614be7565b601f198416614b9586614971565b60005b82811015614bbd57848901518255600182019150602085019450602081019050614b98565b86831015614bda5784890151614bd6601f891682614ae3565b8355505b6001600288020188555050505b505050505050565b7f5472616e73666572204661696c65642100000000000000000000000000000000600082015250565b6000614c25601083613898565b9150614c3082614bef565b602082019050919050565b60006020820190508181036000830152614c5481614c18565b9050919050565b600081905092915050565b6000614c718261388d565b614c7b8185614c5b565b9350614c8b8185602086016138a9565b80840191505092915050565b6000614ca38285614c66565b9150614caf8284614c66565b91508190509392505050565b7f4361726420657870697265640000000000000000000000000000000000000000600082015250565b6000614cf1600c83613898565b9150614cfc82614cbb565b602082019050919050565b60006020820190508181036000830152614d2081614ce4565b9050919050565b7f4578636565647320636172642773207370656e64696e67206c696d6974000000600082015250565b6000614d5d601d83613898565b9150614d6882614d27565b602082019050919050565b60006020820190508181036000830152614d8c81614d50565b9050919050565b7f496e73756666696369656e742066756e647320696e20706f6f6c000000000000600082015250565b6000614dc9601a83613898565b9150614dd482614d93565b602082019050919050565b60006020820190508181036000830152614df881614dbc565b9050919050565b7f444149207472616e73666572206661696c656400000000000000000000000000600082015250565b6000614e35601383613898565b9150614e4082614dff565b602082019050919050565b60006020820190508181036000830152614e6481614e28565b9050919050565b7f546f6b656e496420646f65736e27742065786973740000000000000000000000600082015250565b6000614ea1601583613898565b9150614eac82614e6b565b602082019050919050565b60006020820190508181036000830152614ed081614e94565b9050919050565b7f4865616c746820666163746f72206e6f74206c6f7720656e6f75676820666f7260008201527f206c69717569646174696f6e0000000000000000000000000000000000000000602082015250565b6000614f33602c83613898565b9150614f3e82614ed7565b604082019050919050565b60006020820190508181036000830152614f6281614f26565b9050919050565b7f436172642068617320616c7265616479206265656e2064697363617264656400600082015250565b6000614f9f601f83613898565b9150614faa82614f69565b602082019050919050565b60006020820190508181036000830152614fce81614f92565b9050919050565b7f496e73756666696369656e742044414920696e20706f6f6c20666f72206c697160008201527f7569646174696f6e000000000000000000000000000000000000000000000000602082015250565b6000615031602883613898565b915061503c82614fd5565b604082019050919050565b6000602082019050818103600083015261506081615024565b9050919050565b600061507282614893565b915061507d83614893565b925082820261508b81614893565b915080821461509d5761509c614132565b5b5092915050565b600060ff82169050919050565b60006150bc826150a4565b91506150c7836150a4565b9250828203905060ff8111156150e0576150df614132565b5b92915050565b60008160011c9050919050565b6000808291508390505b600185111561513d5780860481111561511957615118614132565b5b60018516156151285780820291505b8081029050615136856150e6565b94506150fd565b94509492505050565b6000826151565760019050615212565b816151645760009050615212565b816001811461517a5760028114615184576151b3565b6001915050615212565b60ff84111561519657615195614132565b5b8360020a9150848211156151ad576151ac614132565b5b50615212565b5060208310610133831016604e8410600b84101617156151e85782820a9050838111156151e3576151e2614132565b5b615212565b6151f584848460016150f3565b9250905081840481111561520c5761520b614132565b5b81810290505b9392505050565b600063ffffffff82169050919050565b60006152348261393f565b915061523f83615219565b925061526c7fffffffffffffffffffffffffffffffffffffffffffffffffffffffffffffffff8484615146565b905092915050565b600061527f8261393f565b91507fffffffffffffffffffffffffffffffffffffffffffffffffffffffffffffffff82036152b1576152b0614132565b5b600182019050919050565b600081519050919050565b600082825260208201905092915050565b60006152e3826152bc565b6152ed81856152c7565b93506152fd8185602086016138a9565b615306816138d3565b840191505092915050565b600060808201905061532660008301876139d4565b61533360208301866139d4565b6153406040830185613a6a565b818103606083015261535281846152d8565b905095945050505050565b60008151905061536c816137fe565b92915050565b600060208284031215615388576153876137c8565b5b60006153968482850161535d565b91505092915050565b7f4e487b7100000000000000000000000000000000000000000000000000000000600052603160045260246000fdfea2646970667358221220b095fb3a3b6b7e1fb3a09bffe22b85b27e77c3f94619a4c60d9887574b007f6f64736f6c63430008150033",
  "linkReferences": {},
  "deployedLinkReferences": {}
}