{
  "_format": "hh-sol-artifact-1",
  "contractName": "CCFactory",
  "sourceName": "contracts/Credit Card/CCFactory.sol",
  "abi": [
    {
      "anonymous": false,
      "inputs": [
        {
          "indexed": true,
          "internalType": "address",
          "name": "creditCardAddress",
          "type": "address"
        },
        {
          "indexed": true,
          "internalType": "address",
          "name": "owner",
          "type": "address"
        }
      ],
      "name": "CreditCardCreated",
      "type": "event"
    },
    {
      "inputs": [
        {
          "internalType": "string",
          "name": "name",
          "type": "string"
        },
        {
          "internalType": "string",
          "name": "symbol",
          "type": "string"
        },
        {
          "internalType": "address",
          "name": "daiAddress",
          "type": "address"
        },
        {
          "internalType": "address",
          "name": "wethAddress",
          "type": "address"
        },
        {
          "internalType": "uint256",
          "name": "expirationTime",
          "type": "uint256"
        },
        {
          "internalType": "uint256",
          "name": "interestRate",
          "type": "uint256"
        }
      ],
      "name": "createCreditCard",
      "outputs": [
        {
          "internalType": "address",
          "name": "",
          "type": "address"
        }
      ],
      "stateMutability": "nonpayable",
      "type": "function"
    },
    {
      "inputs": [
        {
          "internalType": "address",
          "name": "owner",
          "type": "address"
        }
      ],
      "name": "getCreditCardsIssued",
      "outputs": [
        {
          "internalType": "address[]",
          "name": "",
          "type": "address[]"
        }
      ],
      "stateMutability": "view",
      "type": "function"
    }
  ],
  "bytecode": "0x608060405234801561001057600080fd5b50615c6b806100206000396000f3fe60806040523480156200001157600080fd5b50600436106200003a5760003560e01c80639d004b5d146200003f578063e04b4e411462000075575b600080fd5b6200005d600480360381019062000057919062000351565b620000ab565b6040516200006c919062000451565b60405180910390f35b6200009360048036038101906200008d919062000612565b62000179565b604051620000a29190620006fd565b60405180910390f35b60606000808373ffffffffffffffffffffffffffffffffffffffff1673ffffffffffffffffffffffffffffffffffffffff1681526020019081526020016000208054806020026020016040519081016040528092919081815260200182805480156200016d57602002820191906000526020600020905b8160009054906101000a900473ffffffffffffffffffffffffffffffffffffffff1673ffffffffffffffffffffffffffffffffffffffff168152602001906001019080831162000122575b50505050509050919050565b600080878733888888886040516200019190620002ca565b620001a39796959493929190620007b4565b604051809103906000f080158015620001c0573d6000803e3d6000fd5b5090506000803373ffffffffffffffffffffffffffffffffffffffff1673ffffffffffffffffffffffffffffffffffffffff168152602001908152602001600020819080600181540180825580915050600190039060005260206000200160009091909190916101000a81548173ffffffffffffffffffffffffffffffffffffffff021916908373ffffffffffffffffffffffffffffffffffffffff1602179055503373ffffffffffffffffffffffffffffffffffffffff168173ffffffffffffffffffffffffffffffffffffffff167f1e1158d973497ac1bba659b5877c2b50325a24219aa9ecdfc666b4f1d6b7811760405160405180910390a3809150509695505050505050565b6153f6806200084083390190565b6000604051905090565b600080fd5b600080fd5b600073ffffffffffffffffffffffffffffffffffffffff82169050919050565b60006200031982620002ec565b9050919050565b6200032b816200030c565b81146200033757600080fd5b50565b6000813590506200034b8162000320565b92915050565b6000602082840312156200036a5762000369620002e2565b5b60006200037a848285016200033a565b91505092915050565b600081519050919050565b600082825260208201905092915050565b6000819050602082019050919050565b620003ba816200030c565b82525050565b6000620003ce8383620003af565b60208301905092915050565b6000602082019050919050565b6000620003f48262000383565b6200040081856200038e565b93506200040d836200039f565b8060005b8381101562000444578151620004288882620003c0565b97506200043583620003da565b92505060018101905062000411565b5085935050505092915050565b600060208201905081810360008301526200046d8184620003e7565b905092915050565b600080fd5b600080fd5b6000601f19601f8301169050919050565b7f4e487b7100000000000000000000000000000000000000000000000000000000600052604160045260246000fd5b620004ca826200047f565b810181811067ffffffffffffffff82111715620004ec57620004eb62000490565b5b80604052505050565b600062000501620002d8565b90506200050f8282620004bf565b919050565b600067ffffffffffffffff82111562000532576200053162000490565b5b6200053d826200047f565b9050602081019050919050565b82818337600083830152505050565b6000620005706200056a8462000514565b620004f5565b9050828152602081018484840111156200058f576200058e6200047a565b5b6200059c8482856200054a565b509392505050565b600082601f830112620005bc57620005bb62000475565b5b8135620005ce84826020860162000559565b91505092915050565b6000819050919050565b620005ec81620005d7565b8114620005f857600080fd5b50565b6000813590506200060c81620005e1565b92915050565b60008060008060008060c08789031215620006325762000631620002e2565b5b600087013567ffffffffffffffff811115620006535762000652620002e7565b5b6200066189828a01620005a4565b965050602087013567ffffffffffffffff811115620006855762000684620002e7565b5b6200069389828a01620005a4565b9550506040620006a689828a016200033a565b9450506060620006b989828a016200033a565b9350506080620006cc89828a01620005fb565b92505060a0620006df89828a01620005fb565b9150509295509295509295565b620006f7816200030c565b82525050565b6000602082019050620007146000830184620006ec565b92915050565b600081519050919050565b600082825260208201905092915050565b60005b838110156200075657808201518184015260208101905062000739565b60008484015250505050565b60006200076f826200071a565b6200077b818562000725565b93506200078d81856020860162000736565b62000798816200047f565b840191505092915050565b620007ae81620005d7565b82525050565b600060e0820190508181036000830152620007d0818a62000762565b90508181036020830152620007e6818962000762565b9050620007f76040830188620006ec565b620008066060830187620006ec565b620008156080830186620006ec565b6200082460a0830185620007a3565b6200083360c0830184620007a3565b9897505050505050505056fe60806040523480156200001157600080fd5b50604051620053f6380380620053f6833981810160405281019062000037919062000485565b8686866001600081905550600073ffffffffffffffffffffffffffffffffffffffff168173ffffffffffffffffffffffffffffffffffffffff1603620000b75760006040517f1e4fbdf7000000000000000000000000000000000000000000000000000000008152600401620000ae919062000587565b60405180910390fd5b620000c8816200018c60201b60201c565b508160029081620000da9190620007e5565b508060039081620000ec9190620007e5565b50505083601260006101000a81548173ffffffffffffffffffffffffffffffffffffffff021916908373ffffffffffffffffffffffffffffffffffffffff16021790555082601160006101000a81548173ffffffffffffffffffffffffffffffffffffffff021916908373ffffffffffffffffffffffffffffffffffffffff16021790555081600d819055508060108190555050505050505050620008cc565b6000600160009054906101000a900473ffffffffffffffffffffffffffffffffffffffff16905081600160006101000a81548173ffffffffffffffffffffffffffffffffffffffff021916908373ffffffffffffffffffffffffffffffffffffffff1602179055508173ffffffffffffffffffffffffffffffffffffffff168173ffffffffffffffffffffffffffffffffffffffff167f8be0079c531659141344cd1fd0a4f28419497f9722a3daafe3b4186f6b6457e060405160405180910390a35050565b6000604051905090565b600080fd5b600080fd5b600080fd5b600080fd5b6000601f19601f8301169050919050565b7f4e487b7100000000000000000000000000000000000000000000000000000000600052604160045260246000fd5b620002bb8262000270565b810181811067ffffffffffffffff82111715620002dd57620002dc62000281565b5b80604052505050565b6000620002f262000252565b9050620003008282620002b0565b919050565b600067ffffffffffffffff82111562000323576200032262000281565b5b6200032e8262000270565b9050602081019050919050565b60005b838110156200035b5780820151818401526020810190506200033e565b60008484015250505050565b60006200037e620003788462000305565b620002e6565b9050828152602081018484840111156200039d576200039c6200026b565b5b620003aa8482856200033b565b509392505050565b600082601f830112620003ca57620003c962000266565b5b8151620003dc84826020860162000367565b91505092915050565b600073ffffffffffffffffffffffffffffffffffffffff82169050919050565b60006200041282620003e5565b9050919050565b620004248162000405565b81146200043057600080fd5b50565b600081519050620004448162000419565b92915050565b6000819050919050565b6200045f816200044a565b81146200046b57600080fd5b50565b6000815190506200047f8162000454565b92915050565b600080600080600080600060e0888a031215620004a757620004a66200025c565b5b600088015167ffffffffffffffff811115620004c857620004c762000261565b5b620004d68a828b01620003b2565b975050602088015167ffffffffffffffff811115620004fa57620004f962000261565b5b620005088a828b01620003b2565b96505060406200051b8a828b0162000433565b95505060606200052e8a828b0162000433565b9450506080620005418a828b0162000433565b93505060a0620005548a828b016200046e565b92505060c0620005678a828b016200046e565b91505092959891949750929550565b620005818162000405565b82525050565b60006020820190506200059e600083018462000576565b92915050565b600081519050919050565b7f4e487b7100000000000000000000000000000000000000000000000000000000600052602260045260246000fd5b60006002820490506001821680620005f757607f821691505b6020821081036200060d576200060c620005af565b5b50919050565b60008190508160005260206000209050919050565b60006020601f8301049050919050565b600082821b905092915050565b600060088302620006777fffffffffffffffffffffffffffffffffffffffffffffffffffffffffffffffff8262000638565b62000683868362000638565b95508019841693508086168417925050509392505050565b6000819050919050565b6000620006c6620006c0620006ba846200044a565b6200069b565b6200044a565b9050919050565b6000819050919050565b620006e283620006a5565b620006fa620006f182620006cd565b84845462000645565b825550505050565b600090565b6200071162000702565b6200071e818484620006d7565b505050565b5b8181101562000746576200073a60008262000707565b60018101905062000724565b5050565b601f82111562000795576200075f8162000613565b6200076a8462000628565b810160208510156200077a578190505b62000792620007898562000628565b83018262000723565b50505b505050565b600082821c905092915050565b6000620007ba600019846008026200079a565b1980831691505092915050565b6000620007d58383620007a7565b9150826002028217905092915050565b620007f082620005a4565b67ffffffffffffffff8111156200080c576200080b62000281565b5b620008188254620005de565b620008258282856200074a565b600060209050601f8311600181146200085d576000841562000848578287015190505b620008548582620007c7565b865550620008c4565b601f1984166200086d8662000613565b60005b82811015620008975784890151825560018201915060208501945060208101905062000870565b86831015620008b75784890151620008b3601f891682620007a7565b8355505b6001600288020188555050505b505050505050565b614b1a80620008dc6000396000f3fe608060405234801561001057600080fd5b50600436106101fb5760003560e01c80636352211e1161011a578063b88d4fde116100ad578063c87b56dd1161007c578063c87b56dd146105c2578063d369a2c6146105f2578063da284dcc1461060e578063e985e9c51461062c578063f2fde38b1461065c576101fb565b8063b88d4fde1461054e578063b8afaa481461056a578063be99970514610588578063c4e41b22146105a4576101fb565b80638da5cb5b116100e95780638da5cb5b146104d857806395d89b41146104f657806396365d4414610514578063a22cb46514610532576101fb565b80636352211e1461045057806370a0823114610480578063715018a6146104b05780637c3a00fd146104ba576101fb565b80632f745c5911610192578063415f124011610161578063415f1240146103cc57806342413691146103e857806342842e0e146104045780634f6ccce714610420576101fb565b80632f745c591461032057806331296bea14610350578063371fd8e6146103805780633d28b1561461039c576101fb565b8063155dd5ee116101ce578063155dd5ee1461029a57806318160ddd146102b657806323a4deb5146102d457806323b872dd14610304576101fb565b806301ffc9a71461020057806306fdde0314610230578063081812fc1461024e578063095ea7b31461027e575b600080fd5b61021a600480360381019061021591906134c3565b610678565b604051610227919061350b565b60405180910390f35b61023861068a565b60405161024591906135b6565b60405180910390f35b6102686004803603810190610263919061360e565b61071c565b604051610275919061367c565b60405180910390f35b610298600480360381019061029391906136c3565b610738565b005b6102b460048036038101906102af919061360e565b61074e565b005b6102be6108ee565b6040516102cb9190613712565b60405180910390f35b6102ee60048036038101906102e9919061360e565b6108fb565b6040516102fb9190613712565b60405180910390f35b61031e6004803603810190610319919061372d565b610920565b005b61033a600480360381019061033591906136c3565b610a22565b6040516103479190613712565b60405180910390f35b61036a600480360381019061036591906136c3565b610acb565b6040516103779190613712565b60405180910390f35b61039a6004803603810190610395919061360e565b610ba2565b005b6103b660048036038101906103b191906136c3565b610ef4565b6040516103c39190613712565b60405180910390f35b6103e660048036038101906103e1919061360e565b610fcb565b005b61040260048036038101906103fd91906138b5565b61139d565b005b61041e6004803603810190610419919061372d565b611608565b005b61043a6004803603810190610435919061360e565b611628565b6040516104479190613712565b60405180910390f35b61046a6004803603810190610465919061360e565b61169e565b604051610477919061367c565b60405180910390f35b61049a60048036038101906104959190613911565b6116b0565b6040516104a79190613712565b60405180910390f35b6104b861176a565b005b6104c261177e565b6040516104cf9190613712565b60405180910390f35b6104e0611784565b6040516104ed919061367c565b60405180910390f35b6104fe6117ae565b60405161050b91906135b6565b60405180910390f35b61051c611840565b6040516105299190613712565b60405180910390f35b61054c6004803603810190610547919061396a565b611846565b005b61056860048036038101906105639190613a4b565b61185c565b005b610572611879565b60405161057f9190613712565b60405180910390f35b6105a2600480360381019061059d919061360e565b61187f565b005b6105ac6119cf565b6040516105b99190613712565b60405180910390f35b6105dc60048036038101906105d7919061360e565b6119de565b6040516105e991906135b6565b60405180910390f35b61060c60048036038101906106079190613ace565b611a47565b005b610616611d7c565b6040516106239190613712565b60405180910390f35b61064660048036038101906106419190613b21565b611d82565b604051610653919061350b565b60405180910390f35b61067660048036038101906106719190613911565b611e16565b005b600061068382611e9c565b9050919050565b60606002805461069990613b90565b80601f01602080910402602001604051908101604052809291908181526020018280546106c590613b90565b80156107125780601f106106e757610100808354040283529160200191610712565b820191906000526020600020905b8154815290600101906020018083116106f557829003601f168201915b5050505050905090565b600061072782611f16565b5061073182611f9e565b9050919050565b61074a8282610745611fdb565b611fe3565b5050565b610756611ff5565b806000811161079a576040517f08c379a000000000000000000000000000000000000000000000000000000000815260040161079190613c0d565b60405180910390fd5b600f54600e546107aa9190613c5c565b8211156107ec576040517f08c379a00000000000000000000000000000000000000000000000000000000081526004016107e390613cdc565b60405180910390fd5b81600e60008282546107fe9190613c5c565b925050819055506000601260009054906101000a900473ffffffffffffffffffffffffffffffffffffffff1673ffffffffffffffffffffffffffffffffffffffff1663a9059cbb33856040518363ffffffff1660e01b8152600401610864929190613cfc565b6020604051808303816000875af1158015610883573d6000803e3d6000fd5b505050506040513d601f19601f820116820180604052508101906108a79190613d3a565b9050806108e9576040517f08c379a00000000000000000000000000000000000000000000000000000000081526004016108e090613db3565b60405180910390fd5b505050565b6000600a80549050905090565b60008060006109098461207c565b9150915061091782826120e4565b92505050919050565b600073ffffffffffffffffffffffffffffffffffffffff168273ffffffffffffffffffffffffffffffffffffffff16036109925760006040517f64a0ae92000000000000000000000000000000000000000000000000000000008152600401610989919061367c565b60405180910390fd5b60006109a683836109a1611fdb565b61215b565b90508373ffffffffffffffffffffffffffffffffffffffff168173ffffffffffffffffffffffffffffffffffffffff1614610a1c578382826040517f64283d7b000000000000000000000000000000000000000000000000000000008152600401610a1393929190613dd3565b60405180910390fd5b50505050565b6000610a2d836116b0565b8210610a725782826040517fa57d13dc000000000000000000000000000000000000000000000000000000008152600401610a69929190613cfc565b60405180910390fd5b600860008473ffffffffffffffffffffffffffffffffffffffff1673ffffffffffffffffffffffffffffffffffffffff168152602001908152602001600020600083815260200190815260200160002054905092915050565b60008083905060008173ffffffffffffffffffffffffffffffffffffffff1673__$068e7624c72f26f22f03af1278762db902$__632ba1c96a90916040518263ffffffff1660e01b8152600401610b229190613e69565b60a060405180830381865af4158015610b3f573d6000803e3d6000fd5b505050506040513d601f19601f82011682018060405250810190610b639190613f11565b505050915050670de0b6b3a7640000846402540be40083610b849190613f8c565b610b8e9190613f8c565b610b989190613ffd565b9250505092915050565b610baa612171565b3373ffffffffffffffffffffffffffffffffffffffff16610bca8261169e565b73ffffffffffffffffffffffffffffffffffffffff1614610c20576040517f08c379a0000000000000000000000000000000000000000000000000000000008152600401610c179061407a565b60405180910390fd5b60006013600083815260200190815260200160002090508060050160009054906101000a900460ff1615610c89576040517f08c379a0000000000000000000000000000000000000000000000000000000008152600401610c80906140e6565b60405180910390fd5b600060646010548360020154610c9f9190613f8c565b610ca99190613ffd565b8260020154610cb89190614106565b90506000601260009054906101000a900473ffffffffffffffffffffffffffffffffffffffff1673ffffffffffffffffffffffffffffffffffffffff166323b872dd3330856040518463ffffffff1660e01b8152600401610d1b9392919061413a565b6020604051808303816000875af1158015610d3a573d6000803e3d6000fd5b505050506040513d601f19601f82011682018060405250810190610d5e9190613d3a565b905080610da0576040517f08c379a0000000000000000000000000000000000000000000000000000000008152600401610d97906141e3565b60405180910390fd5b81600e6000828254610db29190614106565b925050819055506000836002018190555060018360050160006101000a81548160ff0219169083151502179055508260010154600f6000828254610df69190613c5c565b925050819055506000601160009054906101000a900473ffffffffffffffffffffffffffffffffffffffff1673ffffffffffffffffffffffffffffffffffffffff1663a9059cbb3386600301546040518363ffffffff1660e01b8152600401610e60929190613cfc565b6020604051808303816000875af1158015610e7f573d6000803e3d6000fd5b505050506040513d601f19601f82011682018060405250810190610ea39190613d3a565b905080610ee5576040517f08c379a0000000000000000000000000000000000000000000000000000000008152600401610edc9061424f565b60405180910390fd5b50505050610ef16121b7565b50565b60008083905060008173ffffffffffffffffffffffffffffffffffffffff1673__$068e7624c72f26f22f03af1278762db902$__632ba1c96a90916040518263ffffffff1660e01b8152600401610f4b9190613e69565b60a060405180830381865af4158015610f68573d6000803e3d6000fd5b505050506040513d601f19601f82011682018060405250810190610f8c9190613f11565b5050509150506402540be40081610fa39190613f8c565b670de0b6b3a764000085610fb79190613f8c565b610fc19190613ffd565b9250505092915050565b610fd3611ff5565b600073ffffffffffffffffffffffffffffffffffffffff16610ff48261169e565b73ffffffffffffffffffffffffffffffffffffffff160361104a576040517f08c379a0000000000000000000000000000000000000000000000000000000008152600401611041906142bb565b60405180910390fd5b6000611055826108fb565b9050670de0b6b3a764000081106110a1576040517f08c379a00000000000000000000000000000000000000000000000000000000081526004016110989061434d565b60405180910390fd5b60006013600084815260200190815260200160002090508060050160009054906101000a900460ff161561110a576040517f08c379a0000000000000000000000000000000000000000000000000000000008152600401611101906143b9565b60405180910390fd5b6000816002015482600101546111209190613c5c565b9050600e54811115611167576040517f08c379a000000000000000000000000000000000000000000000000000000000815260040161115e9061444b565b60405180910390fd5b80600e60008282546111799190613c5c565b9250508190555060018260050160006101000a81548160ff0219169083151502179055508160010154600f60008282546111b39190613c5c565b925050819055506000601160009054906101000a900473ffffffffffffffffffffffffffffffffffffffff1673ffffffffffffffffffffffffffffffffffffffff1663a9059cbb611202611784565b85600301546040518363ffffffff1660e01b8152600401611224929190613cfc565b6020604051808303816000875af1158015611243573d6000803e3d6000fd5b505050506040513d601f19601f820116820180604052508101906112679190613d3a565b9050806112a9576040517f08c379a00000000000000000000000000000000000000000000000000000000081526004016112a09061424f565b60405180910390fd5b6000601260009054906101000a900473ffffffffffffffffffffffffffffffffffffffff1673ffffffffffffffffffffffffffffffffffffffff1663a9059cbb6112f28861169e565b856040518363ffffffff1660e01b8152600401611310929190613cfc565b6020604051808303816000875af115801561132f573d6000803e3d6000fd5b505050506040513d601f19601f820116820180604052508101906113539190613d3a565b905080611395576040517f08c379a000000000000000000000000000000000000000000000000000000000815260040161138c906144b7565b60405180910390fd5b505050505050565b6113a5612171565b80600081116113e9576040517f08c379a00000000000000000000000000000000000000000000000000000000081526004016113e090613c0d565b60405180910390fd5b60006114097314866185b1962b63c3ea9e03bc1da838bab34c1984610acb565b9050600061143773694aa1769357215de4fac081bf1f309adc3253066002846114329190613f8c565b610ef4565b90506000601160009054906101000a900473ffffffffffffffffffffffffffffffffffffffff1673ffffffffffffffffffffffffffffffffffffffff166323b872dd3330856040518463ffffffff1660e01b815260040161149a9392919061413a565b6020604051808303816000875af11580156114b9573d6000803e3d6000fd5b505050506040513d601f19601f820116820180604052508101906114dd9190613d3a565b90508061151f576040517f08c379a00000000000000000000000000000000000000000000000000000000081526004016115169061424f565b60405180910390fd5b600061152a336121c1565b90506040518060c0016040528088815260200187815260200160008152602001848152602001600d544261155e9190614106565b8152602001600015158152506013600083815260200190815260200160002060008201518160000190816115929190614679565b506020820151816001015560408201518160020155606082015181600301556080820151816004015560a08201518160050160006101000a81548160ff02191690831515021790555090505085600f60008282546115f09190614106565b9250508190555050505050506116046121b7565b5050565b6116238383836040518060200160405280600081525061185c565b505050565b60006116326108ee565b8210611678576000826040517fa57d13dc00000000000000000000000000000000000000000000000000000000815260040161166f929190613cfc565b60405180910390fd5b600a828154811061168c5761168b61474b565b5b90600052602060002001549050919050565b60006116a982611f16565b9050919050565b60008073ffffffffffffffffffffffffffffffffffffffff168273ffffffffffffffffffffffffffffffffffffffff16036117235760006040517f89c62b6400000000000000000000000000000000000000000000000000000000815260040161171a919061367c565b60405180910390fd5b600560008373ffffffffffffffffffffffffffffffffffffffff1673ffffffffffffffffffffffffffffffffffffffff168152602001908152602001600020549050919050565b611772611ff5565b61177c60006121f0565b565b60105481565b6000600160009054906101000a900473ffffffffffffffffffffffffffffffffffffffff16905090565b6060600380546117bd90613b90565b80601f01602080910402602001604051908101604052809291908181526020018280546117e990613b90565b80156118365780601f1061180b57610100808354040283529160200191611836565b820191906000526020600020905b81548152906001019060200180831161181957829003601f168201915b5050505050905090565b600e5481565b611858611851611fdb565b83836122b6565b5050565b611867848484610920565b61187384848484612425565b50505050565b600f5481565b611887611ff5565b80600081116118cb576040517f08c379a00000000000000000000000000000000000000000000000000000000081526004016118c290613c0d565b60405180910390fd5b81600e60008282546118dd9190614106565b925050819055506000601260009054906101000a900473ffffffffffffffffffffffffffffffffffffffff1673ffffffffffffffffffffffffffffffffffffffff166323b872dd3330866040518463ffffffff1660e01b81526004016119459392919061413a565b6020604051808303816000875af1158015611964573d6000803e3d6000fd5b505050506040513d601f19601f820116820180604052508101906119889190613d3a565b9050806119ca576040517f08c379a00000000000000000000000000000000000000000000000000000000081526004016119c1906147c6565b60405180910390fd5b505050565b60006119d96108ee565b905090565b60606119e982611f16565b5060006119f46125dc565b90506000815111611a145760405180602001604052806000815250611a3f565b80611a1e846125f3565b604051602001611a2f929190614822565b6040516020818303038152906040525b915050919050565b611a4f612171565b8160008111611a93576040517f08c379a0000000000000000000000000000000000000000000000000000000008152600401611a8a90613c0d565b60405180910390fd5b3373ffffffffffffffffffffffffffffffffffffffff16611ab38561169e565b73ffffffffffffffffffffffffffffffffffffffff1614611b09576040517f08c379a0000000000000000000000000000000000000000000000000000000008152600401611b009061407a565b60405180910390fd5b60006013600086815260200190815260200160002090508060050160009054906101000a900460ff1615611b72576040517f08c379a0000000000000000000000000000000000000000000000000000000008152600401611b69906140e6565b60405180910390fd5b8060040154421115611bb9576040517f08c379a0000000000000000000000000000000000000000000000000000000008152600401611bb090614892565b60405180910390fd5b838160020154611bc99190614106565b81600101541015611c0f576040517f08c379a0000000000000000000000000000000000000000000000000000000008152600401611c06906148fe565b60405180910390fd5b600e54841115611c54576040517f08c379a0000000000000000000000000000000000000000000000000000000008152600401611c4b9061496a565b60405180910390fd5b83816002016000828254611c689190614106565b9250508190555083600e6000828254611c819190613c5c565b925050819055506000601260009054906101000a900473ffffffffffffffffffffffffffffffffffffffff1673ffffffffffffffffffffffffffffffffffffffff1663a9059cbb85876040518363ffffffff1660e01b8152600401611ce7929190613cfc565b6020604051808303816000875af1158015611d06573d6000803e3d6000fd5b505050506040513d601f19601f82011682018060405250810190611d2a9190613d3a565b905080611d6c576040517f08c379a0000000000000000000000000000000000000000000000000000000008152600401611d63906144b7565b60405180910390fd5b505050611d776121b7565b505050565b600d5481565b6000600760008473ffffffffffffffffffffffffffffffffffffffff1673ffffffffffffffffffffffffffffffffffffffff16815260200190815260200160002060008373ffffffffffffffffffffffffffffffffffffffff1673ffffffffffffffffffffffffffffffffffffffff16815260200190815260200160002060009054906101000a900460ff16905092915050565b611e1e611ff5565b600073ffffffffffffffffffffffffffffffffffffffff168173ffffffffffffffffffffffffffffffffffffffff1603611e905760006040517f1e4fbdf7000000000000000000000000000000000000000000000000000000008152600401611e87919061367c565b60405180910390fd5b611e99816121f0565b50565b60007f780e9d63000000000000000000000000000000000000000000000000000000007bffffffffffffffffffffffffffffffffffffffffffffffffffffffff1916827bffffffffffffffffffffffffffffffffffffffffffffffffffffffff19161480611f0f5750611f0e826126c1565b5b9050919050565b600080611f22836127a3565b9050600073ffffffffffffffffffffffffffffffffffffffff168173ffffffffffffffffffffffffffffffffffffffff1603611f9557826040517f7e273289000000000000000000000000000000000000000000000000000000008152600401611f8c9190613712565b60405180910390fd5b80915050919050565b60006006600083815260200190815260200160002060009054906101000a900473ffffffffffffffffffffffffffffffffffffffff169050919050565b600033905090565b611ff083838360016127e0565b505050565b611ffd611fdb565b73ffffffffffffffffffffffffffffffffffffffff1661201b611784565b73ffffffffffffffffffffffffffffffffffffffff161461207a5761203e611fdb565b6040517f118cdaa7000000000000000000000000000000000000000000000000000000008152600401612071919061367c565b60405180910390fd5b565b60008060006013600085815260200190815260200160002090506120b87314866185b1962b63c3ea9e03bc1da838bab34c198260010154610acb565b92506120dc73694aa1769357215de4fac081bf1f309adc3253068260030154610acb565b915050915091565b6000808303612115577fffffffffffffffffffffffffffffffffffffffffffffffffffffffffffffffff9050612155565b600060646032846121269190613f8c565b6121309190613ffd565b905083670de0b6b3a7640000826121479190613f8c565b6121519190613ffd565b9150505b92915050565b60006121688484846129a5565b90509392505050565b6002600054036121ad576040517f3ee5aeb500000000000000000000000000000000000000000000000000000000815260040160405180910390fd5b6002600081905550565b6001600081905550565b600080600c60008154809291906121d79061498a565b9190505590506121e78382612ac2565b80915050919050565b6000600160009054906101000a900473ffffffffffffffffffffffffffffffffffffffff16905081600160006101000a81548173ffffffffffffffffffffffffffffffffffffffff021916908373ffffffffffffffffffffffffffffffffffffffff1602179055508173ffffffffffffffffffffffffffffffffffffffff168173ffffffffffffffffffffffffffffffffffffffff167f8be0079c531659141344cd1fd0a4f28419497f9722a3daafe3b4186f6b6457e060405160405180910390a35050565b600073ffffffffffffffffffffffffffffffffffffffff168273ffffffffffffffffffffffffffffffffffffffff160361232757816040517f5b08ba1800000000000000000000000000000000000000000000000000000000815260040161231e919061367c565b60405180910390fd5b80600760008573ffffffffffffffffffffffffffffffffffffffff1673ffffffffffffffffffffffffffffffffffffffff16815260200190815260200160002060008473ffffffffffffffffffffffffffffffffffffffff1673ffffffffffffffffffffffffffffffffffffffff16815260200190815260200160002060006101000a81548160ff0219169083151502179055508173ffffffffffffffffffffffffffffffffffffffff168373ffffffffffffffffffffffffffffffffffffffff167f17307eab39ab6107e8899845ad3d59bd9653f200f220920489ca2b5937696c3183604051612418919061350b565b60405180910390a3505050565b60008373ffffffffffffffffffffffffffffffffffffffff163b11156125d6578273ffffffffffffffffffffffffffffffffffffffff1663150b7a02612469611fdb565b8685856040518563ffffffff1660e01b815260040161248b9493929190614a27565b6020604051808303816000875af19250505080156124c757506040513d601f19601f820116820180604052508101906124c49190614a88565b60015b61254b573d80600081146124f7576040519150601f19603f3d011682016040523d82523d6000602084013e6124fc565b606091505b50600081510361254357836040517f64a0ae9200000000000000000000000000000000000000000000000000000000815260040161253a919061367c565b60405180910390fd5b805181602001fd5b63150b7a0260e01b7bffffffffffffffffffffffffffffffffffffffffffffffffffffffff1916817bffffffffffffffffffffffffffffffffffffffffffffffffffffffff1916146125d457836040517f64a0ae920000000000000000000000000000000000000000000000000000000081526004016125cb919061367c565b60405180910390fd5b505b50505050565b606060405180602001604052806000815250905090565b60606000600161260284612ae0565b01905060008167ffffffffffffffff8111156126215761262061378a565b5b6040519080825280601f01601f1916602001820160405280156126535781602001600182028036833780820191505090505b509050600082602001820190505b6001156126b6578080600190039150507f3031323334353637383961626364656600000000000000000000000000000000600a86061a8153600a85816126aa576126a9613fce565b5b04945060008503612661575b819350505050919050565b60007f80ac58cd000000000000000000000000000000000000000000000000000000007bffffffffffffffffffffffffffffffffffffffffffffffffffffffff1916827bffffffffffffffffffffffffffffffffffffffffffffffffffffffff1916148061278c57507f5b5e139f000000000000000000000000000000000000000000000000000000007bffffffffffffffffffffffffffffffffffffffffffffffffffffffff1916827bffffffffffffffffffffffffffffffffffffffffffffffffffffffff1916145b8061279c575061279b82612c33565b5b9050919050565b60006004600083815260200190815260200160002060009054906101000a900473ffffffffffffffffffffffffffffffffffffffff169050919050565b80806128195750600073ffffffffffffffffffffffffffffffffffffffff168273ffffffffffffffffffffffffffffffffffffffff1614155b1561294d57600061282984611f16565b9050600073ffffffffffffffffffffffffffffffffffffffff168373ffffffffffffffffffffffffffffffffffffffff161415801561289457508273ffffffffffffffffffffffffffffffffffffffff168173ffffffffffffffffffffffffffffffffffffffff1614155b80156128a757506128a58184611d82565b155b156128e957826040517fa9fbf51f0000000000000000000000000000000000000000000000000000000081526004016128e0919061367c565b60405180910390fd5b811561294b57838573ffffffffffffffffffffffffffffffffffffffff168273ffffffffffffffffffffffffffffffffffffffff167f8c5be1e5ebec7d5bd14f71427d1e84f3dd0314c0f7b2291e5b200ac8c7c3b92560405160405180910390a45b505b836006600085815260200190815260200160002060006101000a81548173ffffffffffffffffffffffffffffffffffffffff021916908373ffffffffffffffffffffffffffffffffffffffff16021790555050505050565b6000806129b3858585612c9d565b9050600073ffffffffffffffffffffffffffffffffffffffff168173ffffffffffffffffffffffffffffffffffffffff16036129f7576129f284612eb7565b612a36565b8473ffffffffffffffffffffffffffffffffffffffff168173ffffffffffffffffffffffffffffffffffffffff1614612a3557612a348185612f00565b5b5b600073ffffffffffffffffffffffffffffffffffffffff168573ffffffffffffffffffffffffffffffffffffffff1603612a7857612a7384613061565b612ab7565b8473ffffffffffffffffffffffffffffffffffffffff168173ffffffffffffffffffffffffffffffffffffffff1614612ab657612ab58585613132565b5b5b809150509392505050565b612adc8282604051806020016040528060008152506131bd565b5050565b600080600090507a184f03e93ff9f4daa797ed6e38ed64bf6a1f0100000000000000008310612b3e577a184f03e93ff9f4daa797ed6e38ed64bf6a1f0100000000000000008381612b3457612b33613fce565b5b0492506040810190505b6d04ee2d6d415b85acef81000000008310612b7b576d04ee2d6d415b85acef81000000008381612b7157612b70613fce565b5b0492506020810190505b662386f26fc100008310612baa57662386f26fc100008381612ba057612b9f613fce565b5b0492506010810190505b6305f5e1008310612bd3576305f5e1008381612bc957612bc8613fce565b5b0492506008810190505b6127108310612bf8576127108381612bee57612bed613fce565b5b0492506004810190505b60648310612c1b5760648381612c1157612c10613fce565b5b0492506002810190505b600a8310612c2a576001810190505b80915050919050565b60007f01ffc9a7000000000000000000000000000000000000000000000000000000007bffffffffffffffffffffffffffffffffffffffffffffffffffffffff1916827bffffffffffffffffffffffffffffffffffffffffffffffffffffffff1916149050919050565b600080612ca9846127a3565b9050600073ffffffffffffffffffffffffffffffffffffffff168373ffffffffffffffffffffffffffffffffffffffff1614612ceb57612cea8184866131d9565b5b600073ffffffffffffffffffffffffffffffffffffffff168173ffffffffffffffffffffffffffffffffffffffff1614612d7c57612d2d6000856000806127e0565b6001600560008373ffffffffffffffffffffffffffffffffffffffff1673ffffffffffffffffffffffffffffffffffffffff168152602001908152602001600020600082825403925050819055505b600073ffffffffffffffffffffffffffffffffffffffff168573ffffffffffffffffffffffffffffffffffffffff1614612dff576001600560008773ffffffffffffffffffffffffffffffffffffffff1673ffffffffffffffffffffffffffffffffffffffff168152602001908152602001600020600082825401925050819055505b846004600086815260200190815260200160002060006101000a81548173ffffffffffffffffffffffffffffffffffffffff021916908373ffffffffffffffffffffffffffffffffffffffff160217905550838573ffffffffffffffffffffffffffffffffffffffff168273ffffffffffffffffffffffffffffffffffffffff167fddf252ad1be2c89b69c2b068fc378daa952ba7f163c4a11628f55a4df523b3ef60405160405180910390a4809150509392505050565b600a80549050600b600083815260200190815260200160002081905550600a81908060018154018082558091505060019003906000526020600020016000909190919091505550565b6000612f0b836116b0565b9050600060096000848152602001908152602001600020549050818114612ff0576000600860008673ffffffffffffffffffffffffffffffffffffffff1673ffffffffffffffffffffffffffffffffffffffff168152602001908152602001600020600084815260200190815260200160002054905080600860008773ffffffffffffffffffffffffffffffffffffffff1673ffffffffffffffffffffffffffffffffffffffff168152602001908152602001600020600084815260200190815260200160002081905550816009600083815260200190815260200160002081905550505b6009600084815260200190815260200160002060009055600860008573ffffffffffffffffffffffffffffffffffffffff1673ffffffffffffffffffffffffffffffffffffffff16815260200190815260200160002060008381526020019081526020016000206000905550505050565b60006001600a805490506130759190613c5c565b90506000600b60008481526020019081526020016000205490506000600a83815481106130a5576130a461474b565b5b9060005260206000200154905080600a83815481106130c7576130c661474b565b5b906000526020600020018190555081600b600083815260200190815260200160002081905550600b600085815260200190815260200160002060009055600a80548061311657613115614ab5565b5b6001900381819060005260206000200160009055905550505050565b6000600161313f846116b0565b6131499190613c5c565b905081600860008573ffffffffffffffffffffffffffffffffffffffff1673ffffffffffffffffffffffffffffffffffffffff168152602001908152602001600020600083815260200190815260200160002081905550806009600084815260200190815260200160002081905550505050565b6131c7838361329d565b6131d46000848484612425565b505050565b6131e4838383613396565b61329857600073ffffffffffffffffffffffffffffffffffffffff168373ffffffffffffffffffffffffffffffffffffffff160361325957806040517f7e2732890000000000000000000000000000000000000000000000000000000081526004016132509190613712565b60405180910390fd5b81816040517f177e802f00000000000000000000000000000000000000000000000000000000815260040161328f929190613cfc565b60405180910390fd5b505050565b600073ffffffffffffffffffffffffffffffffffffffff168273ffffffffffffffffffffffffffffffffffffffff160361330f5760006040517f64a0ae92000000000000000000000000000000000000000000000000000000008152600401613306919061367c565b60405180910390fd5b600061331d8383600061215b565b9050600073ffffffffffffffffffffffffffffffffffffffff168173ffffffffffffffffffffffffffffffffffffffff16146133915760006040517f73c6ac6e000000000000000000000000000000000000000000000000000000008152600401613388919061367c565b60405180910390fd5b505050565b60008073ffffffffffffffffffffffffffffffffffffffff168373ffffffffffffffffffffffffffffffffffffffff161415801561344e57508273ffffffffffffffffffffffffffffffffffffffff168473ffffffffffffffffffffffffffffffffffffffff16148061340f575061340e8484611d82565b5b8061344d57508273ffffffffffffffffffffffffffffffffffffffff1661343583611f9e565b73ffffffffffffffffffffffffffffffffffffffff16145b5b90509392505050565b6000604051905090565b600080fd5b600080fd5b60007fffffffff0000000000000000000000000000000000000000000000000000000082169050919050565b6134a08161346b565b81146134ab57600080fd5b50565b6000813590506134bd81613497565b92915050565b6000602082840312156134d9576134d8613461565b5b60006134e7848285016134ae565b91505092915050565b60008115159050919050565b613505816134f0565b82525050565b600060208201905061352060008301846134fc565b92915050565b600081519050919050565b600082825260208201905092915050565b60005b83811015613560578082015181840152602081019050613545565b60008484015250505050565b6000601f19601f8301169050919050565b600061358882613526565b6135928185613531565b93506135a2818560208601613542565b6135ab8161356c565b840191505092915050565b600060208201905081810360008301526135d0818461357d565b905092915050565b6000819050919050565b6135eb816135d8565b81146135f657600080fd5b50565b600081359050613608816135e2565b92915050565b60006020828403121561362457613623613461565b5b6000613632848285016135f9565b91505092915050565b600073ffffffffffffffffffffffffffffffffffffffff82169050919050565b60006136668261363b565b9050919050565b6136768161365b565b82525050565b6000602082019050613691600083018461366d565b92915050565b6136a08161365b565b81146136ab57600080fd5b50565b6000813590506136bd81613697565b92915050565b600080604083850312156136da576136d9613461565b5b60006136e8858286016136ae565b92505060206136f9858286016135f9565b9150509250929050565b61370c816135d8565b82525050565b60006020820190506137276000830184613703565b92915050565b60008060006060848603121561374657613745613461565b5b6000613754868287016136ae565b9350506020613765868287016136ae565b9250506040613776868287016135f9565b9150509250925092565b600080fd5b600080fd5b7f4e487b7100000000000000000000000000000000000000000000000000000000600052604160045260246000fd5b6137c28261356c565b810181811067ffffffffffffffff821117156137e1576137e061378a565b5b80604052505050565b60006137f4613457565b905061380082826137b9565b919050565b600067ffffffffffffffff8211156138205761381f61378a565b5b6138298261356c565b9050602081019050919050565b82818337600083830152505050565b600061385861385384613805565b6137ea565b90508281526020810184848401111561387457613873613785565b5b61387f848285613836565b509392505050565b600082601f83011261389c5761389b613780565b5b81356138ac848260208601613845565b91505092915050565b600080604083850312156138cc576138cb613461565b5b600083013567ffffffffffffffff8111156138ea576138e9613466565b5b6138f685828601613887565b9250506020613907858286016135f9565b9150509250929050565b60006020828403121561392757613926613461565b5b6000613935848285016136ae565b91505092915050565b613947816134f0565b811461395257600080fd5b50565b6000813590506139648161393e565b92915050565b6000806040838503121561398157613980613461565b5b600061398f858286016136ae565b92505060206139a085828601613955565b9150509250929050565b600067ffffffffffffffff8211156139c5576139c461378a565b5b6139ce8261356c565b9050602081019050919050565b60006139ee6139e9846139aa565b6137ea565b905082815260208101848484011115613a0a57613a09613785565b5b613a15848285613836565b509392505050565b600082601f830112613a3257613a31613780565b5b8135613a428482602086016139db565b91505092915050565b60008060008060808587031215613a6557613a64613461565b5b6000613a73878288016136ae565b9450506020613a84878288016136ae565b9350506040613a95878288016135f9565b925050606085013567ffffffffffffffff811115613ab657613ab5613466565b5b613ac287828801613a1d565b91505092959194509250565b600080600060608486031215613ae757613ae6613461565b5b6000613af5868287016135f9565b9350506020613b06868287016135f9565b9250506040613b17868287016136ae565b9150509250925092565b60008060408385031215613b3857613b37613461565b5b6000613b46858286016136ae565b9250506020613b57858286016136ae565b9150509250929050565b7f4e487b7100000000000000000000000000000000000000000000000000000000600052602260045260246000fd5b60006002820490506001821680613ba857607f821691505b602082108103613bbb57613bba613b61565b5b50919050565b7f416d6f756e74206d7573742062652067726561746572207468616e207a65726f600082015250565b6000613bf7602083613531565b9150613c0282613bc1565b602082019050919050565b60006020820190508181036000830152613c2681613bea565b9050919050565b7f4e487b7100000000000000000000000000000000000000000000000000000000600052601160045260246000fd5b6000613c67826135d8565b9150613c72836135d8565b9250828203905081811115613c8a57613c89613c2d565b5b92915050565b7f416d6f756e74206578636565647320756e6c6f636b65642066756e6473000000600082015250565b6000613cc6601d83613531565b9150613cd182613c90565b602082019050919050565b60006020820190508181036000830152613cf581613cb9565b9050919050565b6000604082019050613d11600083018561366d565b613d1e6020830184613703565b9392505050565b600081519050613d348161393e565b92915050565b600060208284031215613d5057613d4f613461565b5b6000613d5e84828501613d25565b91505092915050565b7f5769746864726177616c206661696c6564000000000000000000000000000000600082015250565b6000613d9d601183613531565b9150613da882613d67565b602082019050919050565b60006020820190508181036000830152613dcc81613d90565b9050919050565b6000606082019050613de8600083018661366d565b613df56020830185613703565b613e02604083018461366d565b949350505050565b6000819050919050565b6000613e2f613e2a613e258461363b565b613e0a565b61363b565b9050919050565b6000613e4182613e14565b9050919050565b6000613e5382613e36565b9050919050565b613e6381613e48565b82525050565b6000602082019050613e7e6000830184613e5a565b92915050565b600069ffffffffffffffffffff82169050919050565b613ea381613e84565b8114613eae57600080fd5b50565b600081519050613ec081613e9a565b92915050565b6000819050919050565b613ed981613ec6565b8114613ee457600080fd5b50565b600081519050613ef681613ed0565b92915050565b600081519050613f0b816135e2565b92915050565b600080600080600060a08688031215613f2d57613f2c613461565b5b6000613f3b88828901613eb1565b9550506020613f4c88828901613ee7565b9450506040613f5d88828901613efc565b9350506060613f6e88828901613efc565b9250506080613f7f88828901613eb1565b9150509295509295909350565b6000613f97826135d8565b9150613fa2836135d8565b9250828202613fb0816135d8565b91508282048414831517613fc757613fc6613c2d565b5b5092915050565b7f4e487b7100000000000000000000000000000000000000000000000000000000600052601260045260246000fd5b6000614008826135d8565b9150614013836135d8565b92508261402357614022613fce565b5b828204905092915050565b7f4e6f74207468652063617264206f776e65720000000000000000000000000000600082015250565b6000614064601283613531565b915061406f8261402e565b602082019050919050565b6000602082019050818103600083015261409381614057565b9050919050565b7f4361726420686173206265656e20646973636172646564000000000000000000600082015250565b60006140d0601783613531565b91506140db8261409a565b602082019050919050565b600060208201905081810360008301526140ff816140c3565b9050919050565b6000614111826135d8565b915061411c836135d8565b925082820190508082111561413457614133613c2d565b5b92915050565b600060608201905061414f600083018661366d565b61415c602083018561366d565b6141696040830184613703565b949350505050565b7f444149207472616e7366657220666f722072657061796d656e74206661696c6560008201527f6400000000000000000000000000000000000000000000000000000000000000602082015250565b60006141cd602183613531565b91506141d882614171565b604082019050919050565b600060208201905081810360008301526141fc816141c0565b9050919050565b7f436f6c6c61746572616c207472616e73666572206661696c6564000000000000600082015250565b6000614239601a83613531565b915061424482614203565b602082019050919050565b600060208201905081810360008301526142688161422c565b9050919050565b7f546f6b656e496420646f65736e27742065786973740000000000000000000000600082015250565b60006142a5601583613531565b91506142b08261426f565b602082019050919050565b600060208201905081810360008301526142d481614298565b9050919050565b7f4865616c746820666163746f72206e6f74206c6f7720656e6f75676820666f7260008201527f206c69717569646174696f6e0000000000000000000000000000000000000000602082015250565b6000614337602c83613531565b9150614342826142db565b604082019050919050565b600060208201905081810360008301526143668161432a565b9050919050565b7f436172642068617320616c7265616479206265656e2064697363617264656400600082015250565b60006143a3601f83613531565b91506143ae8261436d565b602082019050919050565b600060208201905081810360008301526143d281614396565b9050919050565b7f496e73756666696369656e742044414920696e20706f6f6c20666f72206c697160008201527f7569646174696f6e000000000000000000000000000000000000000000000000602082015250565b6000614435602883613531565b9150614440826143d9565b604082019050919050565b6000602082019050818103600083015261446481614428565b9050919050565b7f444149207472616e73666572206661696c656400000000000000000000000000600082015250565b60006144a1601383613531565b91506144ac8261446b565b602082019050919050565b600060208201905081810360008301526144d081614494565b9050919050565b60008190508160005260206000209050919050565b60006020601f8301049050919050565b600082821b905092915050565b6000600883026145397fffffffffffffffffffffffffffffffffffffffffffffffffffffffffffffffff826144fc565b61454386836144fc565b95508019841693508086168417925050509392505050565b600061457661457161456c846135d8565b613e0a565b6135d8565b9050919050565b6000819050919050565b6145908361455b565b6145a461459c8261457d565b848454614509565b825550505050565b600090565b6145b96145ac565b6145c4818484614587565b505050565b5b818110156145e8576145dd6000826145b1565b6001810190506145ca565b5050565b601f82111561462d576145fe816144d7565b614607846144ec565b81016020851015614616578190505b61462a614622856144ec565b8301826145c9565b50505b505050565b600082821c905092915050565b600061465060001984600802614632565b1980831691505092915050565b6000614669838361463f565b9150826002028217905092915050565b61468282613526565b67ffffffffffffffff81111561469b5761469a61378a565b5b6146a58254613b90565b6146b08282856145ec565b600060209050601f8311600181146146e357600084156146d1578287015190505b6146db858261465d565b865550614743565b601f1984166146f1866144d7565b60005b82811015614719578489015182556001820191506020850194506020810190506146f4565b868310156147365784890151614732601f89168261463f565b8355505b6001600288020188555050505b505050505050565b7f4e487b7100000000000000000000000000000000000000000000000000000000600052603260045260246000fd5b7f5472616e73666572204661696c65642100000000000000000000000000000000600082015250565b60006147b0601083613531565b91506147bb8261477a565b602082019050919050565b600060208201905081810360008301526147df816147a3565b9050919050565b600081905092915050565b60006147fc82613526565b61480681856147e6565b9350614816818560208601613542565b80840191505092915050565b600061482e82856147f1565b915061483a82846147f1565b91508190509392505050565b7f4361726420657870697265640000000000000000000000000000000000000000600082015250565b600061487c600c83613531565b915061488782614846565b602082019050919050565b600060208201905081810360008301526148ab8161486f565b9050919050565b7f4578636565647320636172642773207370656e64696e67206c696d6974000000600082015250565b60006148e8601d83613531565b91506148f3826148b2565b602082019050919050565b60006020820190508181036000830152614917816148db565b9050919050565b7f496e73756666696369656e742066756e647320696e20706f6f6c000000000000600082015250565b6000614954601a83613531565b915061495f8261491e565b602082019050919050565b6000602082019050818103600083015261498381614947565b9050919050565b6000614995826135d8565b91507fffffffffffffffffffffffffffffffffffffffffffffffffffffffffffffffff82036149c7576149c6613c2d565b5b600182019050919050565b600081519050919050565b600082825260208201905092915050565b60006149f9826149d2565b614a0381856149dd565b9350614a13818560208601613542565b614a1c8161356c565b840191505092915050565b6000608082019050614a3c600083018761366d565b614a49602083018661366d565b614a566040830185613703565b8181036060830152614a6881846149ee565b905095945050505050565b600081519050614a8281613497565b92915050565b600060208284031215614a9e57614a9d613461565b5b6000614aac84828501614a73565b91505092915050565b7f4e487b7100000000000000000000000000000000000000000000000000000000600052603160045260246000fdfea2646970667358221220ea486f2134c253eb232b5136419e2e74d6d71a82df1687f9b197f33448880c1f64736f6c63430008150033a26469706673582212205a53ed20c8bc9ce23fc05897caba42fbc6c862481a0693fa4711e82963b6a30d64736f6c63430008150033",
  "linkReferences": {
    "contracts/Credit Card/Oracle/OracleLib.sol": {
      "OracleLib": [
        {
          "length": 20,
          "start": 7208
        },
        {
          "length": 20,
          "start": 8273
        }
      ]
    }
  },
  "deployedLinkReferences": {
    "contracts/Credit Card/Oracle/OracleLib.sol": {
      "OracleLib": [
        {
          "length": 20,
          "start": 7176
        },
        {
          "length": 20,
          "start": 8241
        }
      ]
    }
  }
}