{
  "_format": "hh-sol-artifact-1",
  "contractName": "CreditCard",
  "sourceName": "contracts/Credit Card/CreditCard.sol",
  "abi": [
    {
      "inputs": [
        {
          "internalType": "string",
          "name": "_name",
          "type": "string"
        },
        {
          "internalType": "string",
          "name": "_symbol",
          "type": "string"
        },
        {
          "internalType": "address",
          "name": "_owner",
          "type": "address"
        },
        {
          "internalType": "uint256",
          "name": "_expirationTime",
          "type": "uint256"
        },
        {
          "internalType": "uint256",
          "name": "_interestRate",
          "type": "uint256"
        }
      ],
      "stateMutability": "nonpayable",
      "type": "constructor"
    },
    {
      "inputs": [
        {
          "internalType": "address",
          "name": "sender",
          "type": "address"
        },
        {
          "internalType": "uint256",
          "name": "tokenId",
          "type": "uint256"
        },
        {
          "internalType": "address",
          "name": "owner",
          "type": "address"
        }
      ],
      "name": "ERC721IncorrectOwner",
      "type": "error"
    },
    {
      "inputs": [
        {
          "internalType": "address",
          "name": "operator",
          "type": "address"
        },
        {
          "internalType": "uint256",
          "name": "tokenId",
          "type": "uint256"
        }
      ],
      "name": "ERC721InsufficientApproval",
      "type": "error"
    },
    {
      "inputs": [
        {
          "internalType": "address",
          "name": "approver",
          "type": "address"
        }
      ],
      "name": "ERC721InvalidApprover",
      "type": "error"
    },
    {
      "inputs": [
        {
          "internalType": "address",
          "name": "operator",
          "type": "address"
        }
      ],
      "name": "ERC721InvalidOperator",
      "type": "error"
    },
    {
      "inputs": [
        {
          "internalType": "address",
          "name": "owner",
          "type": "address"
        }
      ],
      "name": "ERC721InvalidOwner",
      "type": "error"
    },
    {
      "inputs": [
        {
          "internalType": "address",
          "name": "receiver",
          "type": "address"
        }
      ],
      "name": "ERC721InvalidReceiver",
      "type": "error"
    },
    {
      "inputs": [
        {
          "internalType": "address",
          "name": "sender",
          "type": "address"
        }
      ],
      "name": "ERC721InvalidSender",
      "type": "error"
    },
    {
      "inputs": [
        {
          "internalType": "uint256",
          "name": "tokenId",
          "type": "uint256"
        }
      ],
      "name": "ERC721NonexistentToken",
      "type": "error"
    },
    {
      "inputs": [
        {
          "internalType": "address",
          "name": "owner",
          "type": "address"
        }
      ],
      "name": "OwnableInvalidOwner",
      "type": "error"
    },
    {
      "inputs": [
        {
          "internalType": "address",
          "name": "account",
          "type": "address"
        }
      ],
      "name": "OwnableUnauthorizedAccount",
      "type": "error"
    },
    {
      "inputs": [],
      "name": "ReentrancyGuardReentrantCall",
      "type": "error"
    },
    {
      "anonymous": false,
      "inputs": [
        {
          "indexed": true,
          "internalType": "address",
          "name": "owner",
          "type": "address"
        },
        {
          "indexed": true,
          "internalType": "address",
          "name": "approved",
          "type": "address"
        },
        {
          "indexed": true,
          "internalType": "uint256",
          "name": "tokenId",
          "type": "uint256"
        }
      ],
      "name": "Approval",
      "type": "event"
    },
    {
      "anonymous": false,
      "inputs": [
        {
          "indexed": true,
          "internalType": "address",
          "name": "owner",
          "type": "address"
        },
        {
          "indexed": true,
          "internalType": "address",
          "name": "operator",
          "type": "address"
        },
        {
          "indexed": false,
          "internalType": "bool",
          "name": "approved",
          "type": "bool"
        }
      ],
      "name": "ApprovalForAll",
      "type": "event"
    },
    {
      "anonymous": false,
      "inputs": [
        {
          "indexed": true,
          "internalType": "address",
          "name": "previousOwner",
          "type": "address"
        },
        {
          "indexed": true,
          "internalType": "address",
          "name": "newOwner",
          "type": "address"
        }
      ],
      "name": "OwnershipTransferred",
      "type": "event"
    },
    {
      "anonymous": false,
      "inputs": [
        {
          "indexed": true,
          "internalType": "address",
          "name": "from",
          "type": "address"
        },
        {
          "indexed": true,
          "internalType": "address",
          "name": "to",
          "type": "address"
        },
        {
          "indexed": true,
          "internalType": "uint256",
          "name": "tokenId",
          "type": "uint256"
        }
      ],
      "name": "Transfer",
      "type": "event"
    },
    {
      "inputs": [
        {
          "internalType": "address",
          "name": "priceFeedAddress",
          "type": "address"
        },
        {
          "internalType": "uint256",
          "name": "usdAmountInWei",
          "type": "uint256"
        }
      ],
      "name": "_getTokenAmountFromUsd",
      "outputs": [
        {
          "internalType": "uint256",
          "name": "",
          "type": "uint256"
        }
      ],
      "stateMutability": "view",
      "type": "function"
    },
    {
      "inputs": [
        {
          "internalType": "address",
          "name": "priceFeedAddress",
          "type": "address"
        },
        {
          "internalType": "uint256",
          "name": "amount",
          "type": "uint256"
        }
      ],
      "name": "_getUsdValue",
      "outputs": [
        {
          "internalType": "uint256",
          "name": "",
          "type": "uint256"
        }
      ],
      "stateMutability": "view",
      "type": "function"
    },
    {
      "inputs": [
        {
          "internalType": "uint256",
          "name": "fundsAmount",
          "type": "uint256"
        }
      ],
      "name": "addFunds",
      "outputs": [],
      "stateMutability": "nonpayable",
      "type": "function"
    },
    {
      "inputs": [
        {
          "internalType": "address",
          "name": "to",
          "type": "address"
        },
        {
          "internalType": "uint256",
          "name": "tokenId",
          "type": "uint256"
        }
      ],
      "name": "approve",
      "outputs": [],
      "stateMutability": "nonpayable",
      "type": "function"
    },
    {
      "inputs": [
        {
          "internalType": "address",
          "name": "owner",
          "type": "address"
        }
      ],
      "name": "balanceOf",
      "outputs": [
        {
          "internalType": "uint256",
          "name": "",
          "type": "uint256"
        }
      ],
      "stateMutability": "view",
      "type": "function"
    },
    {
      "inputs": [
        {
          "internalType": "uint256",
          "name": "tokenId",
          "type": "uint256"
        }
      ],
      "name": "calculateHealthFactor",
      "outputs": [
        {
          "internalType": "uint256",
          "name": "",
          "type": "uint256"
        }
      ],
      "stateMutability": "view",
      "type": "function"
    },
    {
      "inputs": [],
      "name": "expirationTime",
      "outputs": [
        {
          "internalType": "uint256",
          "name": "",
          "type": "uint256"
        }
      ],
      "stateMutability": "view",
      "type": "function"
    },
    {
      "inputs": [
        {
          "internalType": "uint256",
          "name": "tokenId",
          "type": "uint256"
        }
      ],
      "name": "getApproved",
      "outputs": [
        {
          "internalType": "address",
          "name": "",
          "type": "address"
        }
      ],
      "stateMutability": "view",
      "type": "function"
    },
    {
      "inputs": [],
      "name": "interestRate",
      "outputs": [
        {
          "internalType": "uint256",
          "name": "",
          "type": "uint256"
        }
      ],
      "stateMutability": "view",
      "type": "function"
    },
    {
      "inputs": [
        {
          "internalType": "address",
          "name": "owner",
          "type": "address"
        },
        {
          "internalType": "address",
          "name": "operator",
          "type": "address"
        }
      ],
      "name": "isApprovedForAll",
      "outputs": [
        {
          "internalType": "bool",
          "name": "",
          "type": "bool"
        }
      ],
      "stateMutability": "view",
      "type": "function"
    },
    {
      "inputs": [
        {
          "internalType": "string",
          "name": "cardName",
          "type": "string"
        },
        {
          "internalType": "uint256",
          "name": "issueAmount",
          "type": "uint256"
        }
      ],
      "name": "issueCard",
      "outputs": [],
      "stateMutability": "nonpayable",
      "type": "function"
    },
    {
      "inputs": [
        {
          "internalType": "uint256",
          "name": "tokenId",
          "type": "uint256"
        }
      ],
      "name": "liquidate",
      "outputs": [],
      "stateMutability": "nonpayable",
      "type": "function"
    },
    {
      "inputs": [],
      "name": "lockedFunds",
      "outputs": [
        {
          "internalType": "uint256",
          "name": "",
          "type": "uint256"
        }
      ],
      "stateMutability": "view",
      "type": "function"
    },
    {
      "inputs": [],
      "name": "name",
      "outputs": [
        {
          "internalType": "string",
          "name": "",
          "type": "string"
        }
      ],
      "stateMutability": "view",
      "type": "function"
    },
    {
      "inputs": [],
      "name": "owner",
      "outputs": [
        {
          "internalType": "address",
          "name": "",
          "type": "address"
        }
      ],
      "stateMutability": "view",
      "type": "function"
    },
    {
      "inputs": [
        {
          "internalType": "uint256",
          "name": "tokenId",
          "type": "uint256"
        }
      ],
      "name": "ownerOf",
      "outputs": [
        {
          "internalType": "address",
          "name": "",
          "type": "address"
        }
      ],
      "stateMutability": "view",
      "type": "function"
    },
    {
      "inputs": [],
      "name": "poolBalance",
      "outputs": [
        {
          "internalType": "uint256",
          "name": "",
          "type": "uint256"
        }
      ],
      "stateMutability": "view",
      "type": "function"
    },
    {
      "inputs": [],
      "name": "renounceOwnership",
      "outputs": [],
      "stateMutability": "nonpayable",
      "type": "function"
    },
    {
      "inputs": [
        {
          "internalType": "uint256",
          "name": "tokenId",
          "type": "uint256"
        }
      ],
      "name": "repay",
      "outputs": [],
      "stateMutability": "nonpayable",
      "type": "function"
    },
    {
      "inputs": [
        {
          "internalType": "address",
          "name": "from",
          "type": "address"
        },
        {
          "internalType": "address",
          "name": "to",
          "type": "address"
        },
        {
          "internalType": "uint256",
          "name": "tokenId",
          "type": "uint256"
        }
      ],
      "name": "safeTransferFrom",
      "outputs": [],
      "stateMutability": "nonpayable",
      "type": "function"
    },
    {
      "inputs": [
        {
          "internalType": "address",
          "name": "from",
          "type": "address"
        },
        {
          "internalType": "address",
          "name": "to",
          "type": "address"
        },
        {
          "internalType": "uint256",
          "name": "tokenId",
          "type": "uint256"
        },
        {
          "internalType": "bytes",
          "name": "data",
          "type": "bytes"
        }
      ],
      "name": "safeTransferFrom",
      "outputs": [],
      "stateMutability": "nonpayable",
      "type": "function"
    },
    {
      "inputs": [
        {
          "internalType": "address",
          "name": "operator",
          "type": "address"
        },
        {
          "internalType": "bool",
          "name": "approved",
          "type": "bool"
        }
      ],
      "name": "setApprovalForAll",
      "outputs": [],
      "stateMutability": "nonpayable",
      "type": "function"
    },
    {
      "inputs": [
        {
          "internalType": "uint256",
          "name": "tokenId",
          "type": "uint256"
        },
        {
          "internalType": "uint256",
          "name": "spendAmount",
          "type": "uint256"
        },
        {
          "internalType": "address",
          "name": "recipient",
          "type": "address"
        }
      ],
      "name": "spendFromCard",
      "outputs": [],
      "stateMutability": "nonpayable",
      "type": "function"
    },
    {
      "inputs": [
        {
          "internalType": "bytes4",
          "name": "interfaceId",
          "type": "bytes4"
        }
      ],
      "name": "supportsInterface",
      "outputs": [
        {
          "internalType": "bool",
          "name": "",
          "type": "bool"
        }
      ],
      "stateMutability": "view",
      "type": "function"
    },
    {
      "inputs": [],
      "name": "symbol",
      "outputs": [
        {
          "internalType": "string",
          "name": "",
          "type": "string"
        }
      ],
      "stateMutability": "view",
      "type": "function"
    },
    {
      "inputs": [
        {
          "internalType": "uint256",
          "name": "tokenId",
          "type": "uint256"
        }
      ],
      "name": "tokenURI",
      "outputs": [
        {
          "internalType": "string",
          "name": "",
          "type": "string"
        }
      ],
      "stateMutability": "view",
      "type": "function"
    },
    {
      "inputs": [
        {
          "internalType": "address",
          "name": "from",
          "type": "address"
        },
        {
          "internalType": "address",
          "name": "to",
          "type": "address"
        },
        {
          "internalType": "uint256",
          "name": "tokenId",
          "type": "uint256"
        }
      ],
      "name": "transferFrom",
      "outputs": [],
      "stateMutability": "nonpayable",
      "type": "function"
    },
    {
      "inputs": [
        {
          "internalType": "address",
          "name": "newOwner",
          "type": "address"
        }
      ],
      "name": "transferOwnership",
      "outputs": [],
      "stateMutability": "nonpayable",
      "type": "function"
    },
    {
      "inputs": [
        {
          "internalType": "uint256",
          "name": "amount",
          "type": "uint256"
        }
      ],
      "name": "withdrawFunds",
      "outputs": [],
      "stateMutability": "nonpayable",
      "type": "function"
    }
  ],
  "bytecode": "0x60806040523480156200001157600080fd5b5060405162004bb138038062004bb1833981810160405281019062000037919062000401565b8484846001600081905550600073ffffffffffffffffffffffffffffffffffffffff168173ffffffffffffffffffffffffffffffffffffffff1603620000b75760006040517f1e4fbdf7000000000000000000000000000000000000000000000000000000008152600401620000ae9190620004d8565b60405180910390fd5b620000c8816200010860201b60201c565b508160029081620000da919062000736565b508060039081620000ec919062000736565b5050508160098190555080600c8190555050505050506200081d565b6000600160009054906101000a900473ffffffffffffffffffffffffffffffffffffffff16905081600160006101000a81548173ffffffffffffffffffffffffffffffffffffffff021916908373ffffffffffffffffffffffffffffffffffffffff1602179055508173ffffffffffffffffffffffffffffffffffffffff168173ffffffffffffffffffffffffffffffffffffffff167f8be0079c531659141344cd1fd0a4f28419497f9722a3daafe3b4186f6b6457e060405160405180910390a35050565b6000604051905090565b600080fd5b600080fd5b600080fd5b600080fd5b6000601f19601f8301169050919050565b7f4e487b7100000000000000000000000000000000000000000000000000000000600052604160045260246000fd5b6200023782620001ec565b810181811067ffffffffffffffff82111715620002595762000258620001fd565b5b80604052505050565b60006200026e620001ce565b90506200027c82826200022c565b919050565b600067ffffffffffffffff8211156200029f576200029e620001fd565b5b620002aa82620001ec565b9050602081019050919050565b60005b83811015620002d7578082015181840152602081019050620002ba565b60008484015250505050565b6000620002fa620002f48462000281565b62000262565b905082815260208101848484011115620003195762000318620001e7565b5b62000326848285620002b7565b509392505050565b600082601f830112620003465762000345620001e2565b5b815162000358848260208601620002e3565b91505092915050565b600073ffffffffffffffffffffffffffffffffffffffff82169050919050565b60006200038e8262000361565b9050919050565b620003a08162000381565b8114620003ac57600080fd5b50565b600081519050620003c08162000395565b92915050565b6000819050919050565b620003db81620003c6565b8114620003e757600080fd5b50565b600081519050620003fb81620003d0565b92915050565b600080600080600060a0868803121562000420576200041f620001d8565b5b600086015167ffffffffffffffff811115620004415762000440620001dd565b5b6200044f888289016200032e565b955050602086015167ffffffffffffffff811115620004735762000472620001dd565b5b62000481888289016200032e565b94505060406200049488828901620003af565b9350506060620004a788828901620003ea565b9250506080620004ba88828901620003ea565b9150509295509295909350565b620004d28162000381565b82525050565b6000602082019050620004ef6000830184620004c7565b92915050565b600081519050919050565b7f4e487b7100000000000000000000000000000000000000000000000000000000600052602260045260246000fd5b600060028204905060018216806200054857607f821691505b6020821081036200055e576200055d62000500565b5b50919050565b60008190508160005260206000209050919050565b60006020601f8301049050919050565b600082821b905092915050565b600060088302620005c87fffffffffffffffffffffffffffffffffffffffffffffffffffffffffffffffff8262000589565b620005d4868362000589565b95508019841693508086168417925050509392505050565b6000819050919050565b600062000617620006116200060b84620003c6565b620005ec565b620003c6565b9050919050565b6000819050919050565b6200063383620005f6565b6200064b62000642826200061e565b84845462000596565b825550505050565b600090565b6200066262000653565b6200066f81848462000628565b505050565b5b8181101562000697576200068b60008262000658565b60018101905062000675565b5050565b601f821115620006e657620006b08162000564565b620006bb8462000579565b81016020851015620006cb578190505b620006e3620006da8562000579565b83018262000674565b50505b505050565b600082821c905092915050565b60006200070b60001984600802620006eb565b1980831691505092915050565b6000620007268383620006f8565b9150826002028217905092915050565b6200074182620004f5565b67ffffffffffffffff8111156200075d576200075c620001fd565b5b6200076982546200052f565b620007768282856200069b565b600060209050601f831160018114620007ae576000841562000799578287015190505b620007a5858262000718565b86555062000815565b601f198416620007be8662000564565b60005b82811015620007e857848901518255600182019150602085019450602081019050620007c1565b8683101562000808578489015162000804601f891682620006f8565b8355505b6001600288020188555050505b505050505050565b614384806200082d6000396000f3fe608060405234801561001057600080fd5b50600436106101cf5760003560e01c806370a0823111610104578063b88d4fde116100a2578063d369a2c611610071578063d369a2c61461052a578063da284dcc14610546578063e985e9c514610564578063f2fde38b14610594576101cf565b8063b88d4fde146104a4578063b8afaa48146104c0578063be999705146104de578063c87b56dd146104fa576101cf565b80638da5cb5b116100de5780638da5cb5b1461042e57806395d89b411461044c57806396365d441461046a578063a22cb46514610488576101cf565b806370a08231146103d6578063715018a6146104065780637c3a00fd14610410576101cf565b806331296bea11610171578063415f12401161014b578063415f124014610352578063424136911461036e57806342842e0e1461038a5780636352211e146103a6576101cf565b806331296bea146102d6578063371fd8e6146103065780633d28b15614610322576101cf565b8063095ea7b3116101ad578063095ea7b314610252578063155dd5ee1461026e57806323a4deb51461028a57806323b872dd146102ba576101cf565b806301ffc9a7146101d457806306fdde0314610204578063081812fc14610222575b600080fd5b6101ee60048036038101906101e99190612d8b565b6105b0565b6040516101fb9190612dd3565b60405180910390f35b61020c610692565b6040516102199190612e7e565b60405180910390f35b61023c60048036038101906102379190612ed6565b610724565b6040516102499190612f44565b60405180910390f35b61026c60048036038101906102679190612f8b565b610740565b005b61028860048036038101906102839190612ed6565b610756565b005b6102a4600480360381019061029f9190612ed6565b6108e8565b6040516102b19190612fda565b60405180910390f35b6102d460048036038101906102cf9190612ff5565b61090d565b005b6102f060048036038101906102eb9190612f8b565b610a0f565b6040516102fd9190612fda565b60405180910390f35b610320600480360381019061031b9190612ed6565b610ae6565b005b61033c60048036038101906103379190612f8b565b610e1c565b6040516103499190612fda565b60405180910390f35b61036c60048036038101906103679190612ed6565b610ef3565b005b6103886004803603810190610383919061317d565b6112a9565b005b6103a4600480360381019061039f9190612ff5565b611506565b005b6103c060048036038101906103bb9190612ed6565b611526565b6040516103cd9190612f44565b60405180910390f35b6103f060048036038101906103eb91906131d9565b611538565b6040516103fd9190612fda565b60405180910390f35b61040e6115f2565b005b610418611606565b6040516104259190612fda565b60405180910390f35b61043661160c565b6040516104439190612f44565b60405180910390f35b610454611636565b6040516104619190612e7e565b60405180910390f35b6104726116c8565b60405161047f9190612fda565b60405180910390f35b6104a2600480360381019061049d9190613232565b6116ce565b005b6104be60048036038101906104b99190613313565b6116e4565b005b6104c8611701565b6040516104d59190612fda565b60405180910390f35b6104f860048036038101906104f39190612ed6565b611707565b005b610514600480360381019061050f9190612ed6565b611849565b6040516105219190612e7e565b60405180910390f35b610544600480360381019061053f9190613396565b6118b2565b005b61054e611bd9565b60405161055b9190612fda565b60405180910390f35b61057e600480360381019061057991906133e9565b611bdf565b60405161058b9190612dd3565b60405180910390f35b6105ae60048036038101906105a991906131d9565b611c73565b005b60007f80ac58cd000000000000000000000000000000000000000000000000000000007bffffffffffffffffffffffffffffffffffffffffffffffffffffffff1916827bffffffffffffffffffffffffffffffffffffffffffffffffffffffff1916148061067b57507f5b5e139f000000000000000000000000000000000000000000000000000000007bffffffffffffffffffffffffffffffffffffffffffffffffffffffff1916827bffffffffffffffffffffffffffffffffffffffffffffffffffffffff1916145b8061068b575061068a82611cf9565b5b9050919050565b6060600280546106a190613458565b80601f01602080910402602001604051908101604052809291908181526020018280546106cd90613458565b801561071a5780601f106106ef5761010080835404028352916020019161071a565b820191906000526020600020905b8154815290600101906020018083116106fd57829003601f168201915b5050505050905090565b600061072f82611d63565b5061073982611deb565b9050919050565b610752828261074d611e28565b611e30565b5050565b61075e611e42565b80600081116107a2576040517f08c379a0000000000000000000000000000000000000000000000000000000008152600401610799906134d5565b60405180910390fd5b600b54600a546107b29190613524565b8211156107f4576040517f08c379a00000000000000000000000000000000000000000000000000000000081526004016107eb906135a4565b60405180910390fd5b81600a60008282546108069190613524565b925050819055506000733e622317f8c93f7328350cf0b56d9ed4c620c5d673ffffffffffffffffffffffffffffffffffffffff1663a9059cbb33856040518363ffffffff1660e01b815260040161085e9291906135c4565b6020604051808303816000875af115801561087d573d6000803e3d6000fd5b505050506040513d601f19601f820116820180604052508101906108a19190613602565b9050806108e3576040517f08c379a00000000000000000000000000000000000000000000000000000000081526004016108da9061367b565b60405180910390fd5b505050565b60008060006108f684611ec9565b915091506109048282611f31565b92505050919050565b600073ffffffffffffffffffffffffffffffffffffffff168273ffffffffffffffffffffffffffffffffffffffff160361097f5760006040517f64a0ae920000000000000000000000000000000000000000000000000000000081526004016109769190612f44565b60405180910390fd5b6000610993838361098e611e28565b611fa8565b90508373ffffffffffffffffffffffffffffffffffffffff168173ffffffffffffffffffffffffffffffffffffffff1614610a09578382826040517f64283d7b000000000000000000000000000000000000000000000000000000008152600401610a009392919061369b565b60405180910390fd5b50505050565b60008083905060008173ffffffffffffffffffffffffffffffffffffffff1673__$068e7624c72f26f22f03af1278762db902$__632ba1c96a90916040518263ffffffff1660e01b8152600401610a669190613731565b60a060405180830381865af4158015610a83573d6000803e3d6000fd5b505050506040513d601f19601f82011682018060405250810190610aa791906137d9565b505050915050670de0b6b3a7640000846402540be40083610ac89190613854565b610ad29190613854565b610adc91906138c5565b9250505092915050565b610aee6121c2565b3373ffffffffffffffffffffffffffffffffffffffff16610b0e82611526565b73ffffffffffffffffffffffffffffffffffffffff1614610b64576040517f08c379a0000000000000000000000000000000000000000000000000000000008152600401610b5b90613942565b60405180910390fd5b6000600d600083815260200190815260200160002090508060050160009054906101000a900460ff1615610bcd576040517f08c379a0000000000000000000000000000000000000000000000000000000008152600401610bc4906139ae565b60405180910390fd5b60006064600c548360020154610be39190613854565b610bed91906138c5565b8260020154610bfc91906139ce565b90506000733e622317f8c93f7328350cf0b56d9ed4c620c5d673ffffffffffffffffffffffffffffffffffffffff166323b872dd3330856040518463ffffffff1660e01b8152600401610c5193929190613a02565b6020604051808303816000875af1158015610c70573d6000803e3d6000fd5b505050506040513d601f19601f82011682018060405250810190610c949190613602565b905080610cd6576040517f08c379a0000000000000000000000000000000000000000000000000000000008152600401610ccd90613aab565b60405180910390fd5b81600a6000828254610ce891906139ce565b925050819055506000836002018190555060018360050160006101000a81548160ff0219169083151502179055508260010154600b6000828254610d2c9190613524565b92505081905550600073dd13e55209fd76afe204dbda4007c227904f0a8173ffffffffffffffffffffffffffffffffffffffff1663a9059cbb3386600301546040518363ffffffff1660e01b8152600401610d889291906135c4565b6020604051808303816000875af1158015610da7573d6000803e3d6000fd5b505050506040513d601f19601f82011682018060405250810190610dcb9190613602565b905080610e0d576040517f08c379a0000000000000000000000000000000000000000000000000000000008152600401610e0490613b17565b60405180910390fd5b50505050610e19612208565b50565b60008083905060008173ffffffffffffffffffffffffffffffffffffffff1673__$068e7624c72f26f22f03af1278762db902$__632ba1c96a90916040518263ffffffff1660e01b8152600401610e739190613731565b60a060405180830381865af4158015610e90573d6000803e3d6000fd5b505050506040513d601f19601f82011682018060405250810190610eb491906137d9565b5050509150506402540be40081610ecb9190613854565b670de0b6b3a764000085610edf9190613854565b610ee991906138c5565b9250505092915050565b610efb611e42565b600073ffffffffffffffffffffffffffffffffffffffff16610f1c82611526565b73ffffffffffffffffffffffffffffffffffffffff1603610f72576040517f08c379a0000000000000000000000000000000000000000000000000000000008152600401610f6990613b83565b60405180910390fd5b6000610f7d826108e8565b9050670de0b6b3a76400008110610fc9576040517f08c379a0000000000000000000000000000000000000000000000000000000008152600401610fc090613c15565b60405180910390fd5b6000600d600084815260200190815260200160002090508060050160009054906101000a900460ff1615611032576040517f08c379a000000000000000000000000000000000000000000000000000000000815260040161102990613c81565b60405180910390fd5b6000816002015482600101546110489190613524565b9050600a5481111561108f576040517f08c379a000000000000000000000000000000000000000000000000000000000815260040161108690613d13565b60405180910390fd5b80600a60008282546110a19190613524565b9250508190555060018260050160006101000a81548160ff0219169083151502179055508160010154600b60008282546110db9190613524565b92505081905550600073dd13e55209fd76afe204dbda4007c227904f0a8173ffffffffffffffffffffffffffffffffffffffff1663a9059cbb61111c61160c565b85600301546040518363ffffffff1660e01b815260040161113e9291906135c4565b6020604051808303816000875af115801561115d573d6000803e3d6000fd5b505050506040513d601f19601f820116820180604052508101906111819190613602565b9050806111c3576040517f08c379a00000000000000000000000000000000000000000000000000000000081526004016111ba90613b17565b60405180910390fd5b6000733e622317f8c93f7328350cf0b56d9ed4c620c5d673ffffffffffffffffffffffffffffffffffffffff1663a9059cbb6111fe88611526565b856040518363ffffffff1660e01b815260040161121c9291906135c4565b6020604051808303816000875af115801561123b573d6000803e3d6000fd5b505050506040513d601f19601f8201168201806040525081019061125f9190613602565b9050806112a1576040517f08c379a000000000000000000000000000000000000000000000000000000000815260040161129890613d7f565b60405180910390fd5b505050505050565b6112b16121c2565b80600081116112f5576040517f08c379a00000000000000000000000000000000000000000000000000000000081526004016112ec906134d5565b60405180910390fd5b60006113157314866185b1962b63c3ea9e03bc1da838bab34c1984610a0f565b9050600061134373694aa1769357215de4fac081bf1f309adc32530660028461133e9190613854565b610e1c565b9050600073dd13e55209fd76afe204dbda4007c227904f0a8173ffffffffffffffffffffffffffffffffffffffff166323b872dd3330856040518463ffffffff1660e01b815260040161139893929190613a02565b6020604051808303816000875af11580156113b7573d6000803e3d6000fd5b505050506040513d601f19601f820116820180604052508101906113db9190613602565b90508061141d576040517f08c379a000000000000000000000000000000000000000000000000000000000815260040161141490613b17565b60405180910390fd5b600061142833612212565b90506040518060c00160405280888152602001878152602001600081526020018481526020016009544261145c91906139ce565b815260200160001515815250600d600083815260200190815260200160002060008201518160000190816114909190613f41565b506020820151816001015560408201518160020155606082015181600301556080820151816004015560a08201518160050160006101000a81548160ff02191690831515021790555090505085600b60008282546114ee91906139ce565b925050819055505050505050611502612208565b5050565b611521838383604051806020016040528060008152506116e4565b505050565b600061153182611d63565b9050919050565b60008073ffffffffffffffffffffffffffffffffffffffff168273ffffffffffffffffffffffffffffffffffffffff16036115ab5760006040517f89c62b640000000000000000000000000000000000000000000000000000000081526004016115a29190612f44565b60405180910390fd5b600560008373ffffffffffffffffffffffffffffffffffffffff1673ffffffffffffffffffffffffffffffffffffffff168152602001908152602001600020549050919050565b6115fa611e42565b6116046000612241565b565b600c5481565b6000600160009054906101000a900473ffffffffffffffffffffffffffffffffffffffff16905090565b60606003805461164590613458565b80601f016020809104026020016040519081016040528092919081815260200182805461167190613458565b80156116be5780601f10611693576101008083540402835291602001916116be565b820191906000526020600020905b8154815290600101906020018083116116a157829003601f168201915b5050505050905090565b600a5481565b6116e06116d9611e28565b8383612307565b5050565b6116ef84848461090d565b6116fb84848484612476565b50505050565b600b5481565b61170f611e42565b8060008111611753576040517f08c379a000000000000000000000000000000000000000000000000000000000815260040161174a906134d5565b60405180910390fd5b81600a600082825461176591906139ce565b925050819055506000733e622317f8c93f7328350cf0b56d9ed4c620c5d673ffffffffffffffffffffffffffffffffffffffff166323b872dd3330866040518463ffffffff1660e01b81526004016117bf93929190613a02565b6020604051808303816000875af11580156117de573d6000803e3d6000fd5b505050506040513d601f19601f820116820180604052508101906118029190613602565b905080611844576040517f08c379a000000000000000000000000000000000000000000000000000000000815260040161183b9061405f565b60405180910390fd5b505050565b606061185482611d63565b50600061185f61262d565b9050600081511161187f57604051806020016040528060008152506118aa565b8061188984612644565b60405160200161189a9291906140bb565b6040516020818303038152906040525b915050919050565b6118ba6121c2565b81600081116118fe576040517f08c379a00000000000000000000000000000000000000000000000000000000081526004016118f5906134d5565b60405180910390fd5b3373ffffffffffffffffffffffffffffffffffffffff1661191e85611526565b73ffffffffffffffffffffffffffffffffffffffff1614611974576040517f08c379a000000000000000000000000000000000000000000000000000000000815260040161196b90613942565b60405180910390fd5b6000600d600086815260200190815260200160002090508060050160009054906101000a900460ff16156119dd576040517f08c379a00000000000000000000000000000000000000000000000000000000081526004016119d4906139ae565b60405180910390fd5b8060040154421115611a24576040517f08c379a0000000000000000000000000000000000000000000000000000000008152600401611a1b9061412b565b60405180910390fd5b838160020154611a3491906139ce565b81600101541015611a7a576040517f08c379a0000000000000000000000000000000000000000000000000000000008152600401611a7190614197565b60405180910390fd5b600a54841115611abf576040517f08c379a0000000000000000000000000000000000000000000000000000000008152600401611ab690614203565b60405180910390fd5b83816002016000828254611ad391906139ce565b9250508190555083600a6000828254611aec9190613524565b925050819055506000733e622317f8c93f7328350cf0b56d9ed4c620c5d673ffffffffffffffffffffffffffffffffffffffff1663a9059cbb85876040518363ffffffff1660e01b8152600401611b449291906135c4565b6020604051808303816000875af1158015611b63573d6000803e3d6000fd5b505050506040513d601f19601f82011682018060405250810190611b879190613602565b905080611bc9576040517f08c379a0000000000000000000000000000000000000000000000000000000008152600401611bc090613d7f565b60405180910390fd5b505050611bd4612208565b505050565b60095481565b6000600760008473ffffffffffffffffffffffffffffffffffffffff1673ffffffffffffffffffffffffffffffffffffffff16815260200190815260200160002060008373ffffffffffffffffffffffffffffffffffffffff1673ffffffffffffffffffffffffffffffffffffffff16815260200190815260200160002060009054906101000a900460ff16905092915050565b611c7b611e42565b600073ffffffffffffffffffffffffffffffffffffffff168173ffffffffffffffffffffffffffffffffffffffff1603611ced5760006040517f1e4fbdf7000000000000000000000000000000000000000000000000000000008152600401611ce49190612f44565b60405180910390fd5b611cf681612241565b50565b60007f01ffc9a7000000000000000000000000000000000000000000000000000000007bffffffffffffffffffffffffffffffffffffffffffffffffffffffff1916827bffffffffffffffffffffffffffffffffffffffffffffffffffffffff1916149050919050565b600080611d6f83612712565b9050600073ffffffffffffffffffffffffffffffffffffffff168173ffffffffffffffffffffffffffffffffffffffff1603611de257826040517f7e273289000000000000000000000000000000000000000000000000000000008152600401611dd99190612fda565b60405180910390fd5b80915050919050565b60006006600083815260200190815260200160002060009054906101000a900473ffffffffffffffffffffffffffffffffffffffff169050919050565b600033905090565b611e3d838383600161274f565b505050565b611e4a611e28565b73ffffffffffffffffffffffffffffffffffffffff16611e6861160c565b73ffffffffffffffffffffffffffffffffffffffff1614611ec757611e8b611e28565b6040517f118cdaa7000000000000000000000000000000000000000000000000000000008152600401611ebe9190612f44565b60405180910390fd5b565b6000806000600d60008581526020019081526020016000209050611f057314866185b1962b63c3ea9e03bc1da838bab34c198260010154610a0f565b9250611f2973694aa1769357215de4fac081bf1f309adc3253068260030154610a0f565b915050915091565b6000808303611f62577fffffffffffffffffffffffffffffffffffffffffffffffffffffffffffffffff9050611fa2565b60006064603284611f739190613854565b611f7d91906138c5565b905083670de0b6b3a764000082611f949190613854565b611f9e91906138c5565b9150505b92915050565b600080611fb484612712565b9050600073ffffffffffffffffffffffffffffffffffffffff168373ffffffffffffffffffffffffffffffffffffffff1614611ff657611ff5818486612914565b5b600073ffffffffffffffffffffffffffffffffffffffff168173ffffffffffffffffffffffffffffffffffffffff16146120875761203860008560008061274f565b6001600560008373ffffffffffffffffffffffffffffffffffffffff1673ffffffffffffffffffffffffffffffffffffffff168152602001908152602001600020600082825403925050819055505b600073ffffffffffffffffffffffffffffffffffffffff168573ffffffffffffffffffffffffffffffffffffffff161461210a576001600560008773ffffffffffffffffffffffffffffffffffffffff1673ffffffffffffffffffffffffffffffffffffffff168152602001908152602001600020600082825401925050819055505b846004600086815260200190815260200160002060006101000a81548173ffffffffffffffffffffffffffffffffffffffff021916908373ffffffffffffffffffffffffffffffffffffffff160217905550838573ffffffffffffffffffffffffffffffffffffffff168273ffffffffffffffffffffffffffffffffffffffff167fddf252ad1be2c89b69c2b068fc378daa952ba7f163c4a11628f55a4df523b3ef60405160405180910390a4809150509392505050565b6002600054036121fe576040517f3ee5aeb500000000000000000000000000000000000000000000000000000000815260040160405180910390fd5b6002600081905550565b6001600081905550565b6000806008600081548092919061222890614223565b91905055905061223883826129d8565b80915050919050565b6000600160009054906101000a900473ffffffffffffffffffffffffffffffffffffffff16905081600160006101000a81548173ffffffffffffffffffffffffffffffffffffffff021916908373ffffffffffffffffffffffffffffffffffffffff1602179055508173ffffffffffffffffffffffffffffffffffffffff168173ffffffffffffffffffffffffffffffffffffffff167f8be0079c531659141344cd1fd0a4f28419497f9722a3daafe3b4186f6b6457e060405160405180910390a35050565b600073ffffffffffffffffffffffffffffffffffffffff168273ffffffffffffffffffffffffffffffffffffffff160361237857816040517f5b08ba1800000000000000000000000000000000000000000000000000000000815260040161236f9190612f44565b60405180910390fd5b80600760008573ffffffffffffffffffffffffffffffffffffffff1673ffffffffffffffffffffffffffffffffffffffff16815260200190815260200160002060008473ffffffffffffffffffffffffffffffffffffffff1673ffffffffffffffffffffffffffffffffffffffff16815260200190815260200160002060006101000a81548160ff0219169083151502179055508173ffffffffffffffffffffffffffffffffffffffff168373ffffffffffffffffffffffffffffffffffffffff167f17307eab39ab6107e8899845ad3d59bd9653f200f220920489ca2b5937696c31836040516124699190612dd3565b60405180910390a3505050565b60008373ffffffffffffffffffffffffffffffffffffffff163b1115612627578273ffffffffffffffffffffffffffffffffffffffff1663150b7a026124ba611e28565b8685856040518563ffffffff1660e01b81526004016124dc94939291906142c0565b6020604051808303816000875af192505050801561251857506040513d601f19601f820116820180604052508101906125159190614321565b60015b61259c573d8060008114612548576040519150601f19603f3d011682016040523d82523d6000602084013e61254d565b606091505b50600081510361259457836040517f64a0ae9200000000000000000000000000000000000000000000000000000000815260040161258b9190612f44565b60405180910390fd5b805181602001fd5b63150b7a0260e01b7bffffffffffffffffffffffffffffffffffffffffffffffffffffffff1916817bffffffffffffffffffffffffffffffffffffffffffffffffffffffff19161461262557836040517f64a0ae9200000000000000000000000000000000000000000000000000000000815260040161261c9190612f44565b60405180910390fd5b505b50505050565b606060405180602001604052806000815250905090565b606060006001612653846129f6565b01905060008167ffffffffffffffff81111561267257612671613052565b5b6040519080825280601f01601f1916602001820160405280156126a45781602001600182028036833780820191505090505b509050600082602001820190505b600115612707578080600190039150507f3031323334353637383961626364656600000000000000000000000000000000600a86061a8153600a85816126fb576126fa613896565b5b049450600085036126b2575b819350505050919050565b60006004600083815260200190815260200160002060009054906101000a900473ffffffffffffffffffffffffffffffffffffffff169050919050565b80806127885750600073ffffffffffffffffffffffffffffffffffffffff168273ffffffffffffffffffffffffffffffffffffffff1614155b156128bc57600061279884611d63565b9050600073ffffffffffffffffffffffffffffffffffffffff168373ffffffffffffffffffffffffffffffffffffffff161415801561280357508273ffffffffffffffffffffffffffffffffffffffff168173ffffffffffffffffffffffffffffffffffffffff1614155b801561281657506128148184611bdf565b155b1561285857826040517fa9fbf51f00000000000000000000000000000000000000000000000000000000815260040161284f9190612f44565b60405180910390fd5b81156128ba57838573ffffffffffffffffffffffffffffffffffffffff168273ffffffffffffffffffffffffffffffffffffffff167f8c5be1e5ebec7d5bd14f71427d1e84f3dd0314c0f7b2291e5b200ac8c7c3b92560405160405180910390a45b505b836006600085815260200190815260200160002060006101000a81548173ffffffffffffffffffffffffffffffffffffffff021916908373ffffffffffffffffffffffffffffffffffffffff16021790555050505050565b61291f838383612b49565b6129d357600073ffffffffffffffffffffffffffffffffffffffff168373ffffffffffffffffffffffffffffffffffffffff160361299457806040517f7e27328900000000000000000000000000000000000000000000000000000000815260040161298b9190612fda565b60405180910390fd5b81816040517f177e802f0000000000000000000000000000000000000000000000000000000081526004016129ca9291906135c4565b60405180910390fd5b505050565b6129f2828260405180602001604052806000815250612c0a565b5050565b600080600090507a184f03e93ff9f4daa797ed6e38ed64bf6a1f0100000000000000008310612a54577a184f03e93ff9f4daa797ed6e38ed64bf6a1f0100000000000000008381612a4a57612a49613896565b5b0492506040810190505b6d04ee2d6d415b85acef81000000008310612a91576d04ee2d6d415b85acef81000000008381612a8757612a86613896565b5b0492506020810190505b662386f26fc100008310612ac057662386f26fc100008381612ab657612ab5613896565b5b0492506010810190505b6305f5e1008310612ae9576305f5e1008381612adf57612ade613896565b5b0492506008810190505b6127108310612b0e576127108381612b0457612b03613896565b5b0492506004810190505b60648310612b315760648381612b2757612b26613896565b5b0492506002810190505b600a8310612b40576001810190505b80915050919050565b60008073ffffffffffffffffffffffffffffffffffffffff168373ffffffffffffffffffffffffffffffffffffffff1614158015612c0157508273ffffffffffffffffffffffffffffffffffffffff168473ffffffffffffffffffffffffffffffffffffffff161480612bc25750612bc18484611bdf565b5b80612c0057508273ffffffffffffffffffffffffffffffffffffffff16612be883611deb565b73ffffffffffffffffffffffffffffffffffffffff16145b5b90509392505050565b612c148383612c26565b612c216000848484612476565b505050565b600073ffffffffffffffffffffffffffffffffffffffff168273ffffffffffffffffffffffffffffffffffffffff1603612c985760006040517f64a0ae92000000000000000000000000000000000000000000000000000000008152600401612c8f9190612f44565b60405180910390fd5b6000612ca683836000611fa8565b9050600073ffffffffffffffffffffffffffffffffffffffff168173ffffffffffffffffffffffffffffffffffffffff1614612d1a5760006040517f73c6ac6e000000000000000000000000000000000000000000000000000000008152600401612d119190612f44565b60405180910390fd5b505050565b6000604051905090565b600080fd5b600080fd5b60007fffffffff0000000000000000000000000000000000000000000000000000000082169050919050565b612d6881612d33565b8114612d7357600080fd5b50565b600081359050612d8581612d5f565b92915050565b600060208284031215612da157612da0612d29565b5b6000612daf84828501612d76565b91505092915050565b60008115159050919050565b612dcd81612db8565b82525050565b6000602082019050612de86000830184612dc4565b92915050565b600081519050919050565b600082825260208201905092915050565b60005b83811015612e28578082015181840152602081019050612e0d565b60008484015250505050565b6000601f19601f8301169050919050565b6000612e5082612dee565b612e5a8185612df9565b9350612e6a818560208601612e0a565b612e7381612e34565b840191505092915050565b60006020820190508181036000830152612e988184612e45565b905092915050565b6000819050919050565b612eb381612ea0565b8114612ebe57600080fd5b50565b600081359050612ed081612eaa565b92915050565b600060208284031215612eec57612eeb612d29565b5b6000612efa84828501612ec1565b91505092915050565b600073ffffffffffffffffffffffffffffffffffffffff82169050919050565b6000612f2e82612f03565b9050919050565b612f3e81612f23565b82525050565b6000602082019050612f596000830184612f35565b92915050565b612f6881612f23565b8114612f7357600080fd5b50565b600081359050612f8581612f5f565b92915050565b60008060408385031215612fa257612fa1612d29565b5b6000612fb085828601612f76565b9250506020612fc185828601612ec1565b9150509250929050565b612fd481612ea0565b82525050565b6000602082019050612fef6000830184612fcb565b92915050565b60008060006060848603121561300e5761300d612d29565b5b600061301c86828701612f76565b935050602061302d86828701612f76565b925050604061303e86828701612ec1565b9150509250925092565b600080fd5b600080fd5b7f4e487b7100000000000000000000000000000000000000000000000000000000600052604160045260246000fd5b61308a82612e34565b810181811067ffffffffffffffff821117156130a9576130a8613052565b5b80604052505050565b60006130bc612d1f565b90506130c88282613081565b919050565b600067ffffffffffffffff8211156130e8576130e7613052565b5b6130f182612e34565b9050602081019050919050565b82818337600083830152505050565b600061312061311b846130cd565b6130b2565b90508281526020810184848401111561313c5761313b61304d565b5b6131478482856130fe565b509392505050565b600082601f83011261316457613163613048565b5b813561317484826020860161310d565b91505092915050565b6000806040838503121561319457613193612d29565b5b600083013567ffffffffffffffff8111156131b2576131b1612d2e565b5b6131be8582860161314f565b92505060206131cf85828601612ec1565b9150509250929050565b6000602082840312156131ef576131ee612d29565b5b60006131fd84828501612f76565b91505092915050565b61320f81612db8565b811461321a57600080fd5b50565b60008135905061322c81613206565b92915050565b6000806040838503121561324957613248612d29565b5b600061325785828601612f76565b92505060206132688582860161321d565b9150509250929050565b600067ffffffffffffffff82111561328d5761328c613052565b5b61329682612e34565b9050602081019050919050565b60006132b66132b184613272565b6130b2565b9050828152602081018484840111156132d2576132d161304d565b5b6132dd8482856130fe565b509392505050565b600082601f8301126132fa576132f9613048565b5b813561330a8482602086016132a3565b91505092915050565b6000806000806080858703121561332d5761332c612d29565b5b600061333b87828801612f76565b945050602061334c87828801612f76565b935050604061335d87828801612ec1565b925050606085013567ffffffffffffffff81111561337e5761337d612d2e565b5b61338a878288016132e5565b91505092959194509250565b6000806000606084860312156133af576133ae612d29565b5b60006133bd86828701612ec1565b93505060206133ce86828701612ec1565b92505060406133df86828701612f76565b9150509250925092565b60008060408385031215613400576133ff612d29565b5b600061340e85828601612f76565b925050602061341f85828601612f76565b9150509250929050565b7f4e487b7100000000000000000000000000000000000000000000000000000000600052602260045260246000fd5b6000600282049050600182168061347057607f821691505b60208210810361348357613482613429565b5b50919050565b7f416d6f756e74206d7573742062652067726561746572207468616e207a65726f600082015250565b60006134bf602083612df9565b91506134ca82613489565b602082019050919050565b600060208201905081810360008301526134ee816134b2565b9050919050565b7f4e487b7100000000000000000000000000000000000000000000000000000000600052601160045260246000fd5b600061352f82612ea0565b915061353a83612ea0565b9250828203905081811115613552576135516134f5565b5b92915050565b7f416d6f756e74206578636565647320756e6c6f636b65642066756e6473000000600082015250565b600061358e601d83612df9565b915061359982613558565b602082019050919050565b600060208201905081810360008301526135bd81613581565b9050919050565b60006040820190506135d96000830185612f35565b6135e66020830184612fcb565b9392505050565b6000815190506135fc81613206565b92915050565b60006020828403121561361857613617612d29565b5b6000613626848285016135ed565b91505092915050565b7f5769746864726177616c206661696c6564000000000000000000000000000000600082015250565b6000613665601183612df9565b91506136708261362f565b602082019050919050565b6000602082019050818103600083015261369481613658565b9050919050565b60006060820190506136b06000830186612f35565b6136bd6020830185612fcb565b6136ca6040830184612f35565b949350505050565b6000819050919050565b60006136f76136f26136ed84612f03565b6136d2565b612f03565b9050919050565b6000613709826136dc565b9050919050565b600061371b826136fe565b9050919050565b61372b81613710565b82525050565b60006020820190506137466000830184613722565b92915050565b600069ffffffffffffffffffff82169050919050565b61376b8161374c565b811461377657600080fd5b50565b60008151905061378881613762565b92915050565b6000819050919050565b6137a18161378e565b81146137ac57600080fd5b50565b6000815190506137be81613798565b92915050565b6000815190506137d381612eaa565b92915050565b600080600080600060a086880312156137f5576137f4612d29565b5b600061380388828901613779565b9550506020613814888289016137af565b9450506040613825888289016137c4565b9350506060613836888289016137c4565b925050608061384788828901613779565b9150509295509295909350565b600061385f82612ea0565b915061386a83612ea0565b925082820261387881612ea0565b9150828204841483151761388f5761388e6134f5565b5b5092915050565b7f4e487b7100000000000000000000000000000000000000000000000000000000600052601260045260246000fd5b60006138d082612ea0565b91506138db83612ea0565b9250826138eb576138ea613896565b5b828204905092915050565b7f4e6f74207468652063617264206f776e65720000000000000000000000000000600082015250565b600061392c601283612df9565b9150613937826138f6565b602082019050919050565b6000602082019050818103600083015261395b8161391f565b9050919050565b7f4361726420686173206265656e20646973636172646564000000000000000000600082015250565b6000613998601783612df9565b91506139a382613962565b602082019050919050565b600060208201905081810360008301526139c78161398b565b9050919050565b60006139d982612ea0565b91506139e483612ea0565b92508282019050808211156139fc576139fb6134f5565b5b92915050565b6000606082019050613a176000830186612f35565b613a246020830185612f35565b613a316040830184612fcb565b949350505050565b7f444149207472616e7366657220666f722072657061796d656e74206661696c6560008201527f6400000000000000000000000000000000000000000000000000000000000000602082015250565b6000613a95602183612df9565b9150613aa082613a39565b604082019050919050565b60006020820190508181036000830152613ac481613a88565b9050919050565b7f436f6c6c61746572616c207472616e73666572206661696c6564000000000000600082015250565b6000613b01601a83612df9565b9150613b0c82613acb565b602082019050919050565b60006020820190508181036000830152613b3081613af4565b9050919050565b7f546f6b656e496420646f65736e27742065786973740000000000000000000000600082015250565b6000613b6d601583612df9565b9150613b7882613b37565b602082019050919050565b60006020820190508181036000830152613b9c81613b60565b9050919050565b7f4865616c746820666163746f72206e6f74206c6f7720656e6f75676820666f7260008201527f206c69717569646174696f6e0000000000000000000000000000000000000000602082015250565b6000613bff602c83612df9565b9150613c0a82613ba3565b604082019050919050565b60006020820190508181036000830152613c2e81613bf2565b9050919050565b7f436172642068617320616c7265616479206265656e2064697363617264656400600082015250565b6000613c6b601f83612df9565b9150613c7682613c35565b602082019050919050565b60006020820190508181036000830152613c9a81613c5e565b9050919050565b7f496e73756666696369656e742044414920696e20706f6f6c20666f72206c697160008201527f7569646174696f6e000000000000000000000000000000000000000000000000602082015250565b6000613cfd602883612df9565b9150613d0882613ca1565b604082019050919050565b60006020820190508181036000830152613d2c81613cf0565b9050919050565b7f444149207472616e73666572206661696c656400000000000000000000000000600082015250565b6000613d69601383612df9565b9150613d7482613d33565b602082019050919050565b60006020820190508181036000830152613d9881613d5c565b9050919050565b60008190508160005260206000209050919050565b60006020601f8301049050919050565b600082821b905092915050565b600060088302613e017fffffffffffffffffffffffffffffffffffffffffffffffffffffffffffffffff82613dc4565b613e0b8683613dc4565b95508019841693508086168417925050509392505050565b6000613e3e613e39613e3484612ea0565b6136d2565b612ea0565b9050919050565b6000819050919050565b613e5883613e23565b613e6c613e6482613e45565b848454613dd1565b825550505050565b600090565b613e81613e74565b613e8c818484613e4f565b505050565b5b81811015613eb057613ea5600082613e79565b600181019050613e92565b5050565b601f821115613ef557613ec681613d9f565b613ecf84613db4565b81016020851015613ede578190505b613ef2613eea85613db4565b830182613e91565b50505b505050565b600082821c905092915050565b6000613f1860001984600802613efa565b1980831691505092915050565b6000613f318383613f07565b9150826002028217905092915050565b613f4a82612dee565b67ffffffffffffffff811115613f6357613f62613052565b5b613f6d8254613458565b613f78828285613eb4565b600060209050601f831160018114613fab5760008415613f99578287015190505b613fa38582613f25565b86555061400b565b601f198416613fb986613d9f565b60005b82811015613fe157848901518255600182019150602085019450602081019050613fbc565b86831015613ffe5784890151613ffa601f891682613f07565b8355505b6001600288020188555050505b505050505050565b7f5472616e73666572204661696c65642100000000000000000000000000000000600082015250565b6000614049601083612df9565b915061405482614013565b602082019050919050565b600060208201905081810360008301526140788161403c565b9050919050565b600081905092915050565b600061409582612dee565b61409f818561407f565b93506140af818560208601612e0a565b80840191505092915050565b60006140c7828561408a565b91506140d3828461408a565b91508190509392505050565b7f4361726420657870697265640000000000000000000000000000000000000000600082015250565b6000614115600c83612df9565b9150614120826140df565b602082019050919050565b6000602082019050818103600083015261414481614108565b9050919050565b7f4578636565647320636172642773207370656e64696e67206c696d6974000000600082015250565b6000614181601d83612df9565b915061418c8261414b565b602082019050919050565b600060208201905081810360008301526141b081614174565b9050919050565b7f496e73756666696369656e742066756e647320696e20706f6f6c000000000000600082015250565b60006141ed601a83612df9565b91506141f8826141b7565b602082019050919050565b6000602082019050818103600083015261421c816141e0565b9050919050565b600061422e82612ea0565b91507fffffffffffffffffffffffffffffffffffffffffffffffffffffffffffffffff82036142605761425f6134f5565b5b600182019050919050565b600081519050919050565b600082825260208201905092915050565b60006142928261426b565b61429c8185614276565b93506142ac818560208601612e0a565b6142b581612e34565b840191505092915050565b60006080820190506142d56000830187612f35565b6142e26020830186612f35565b6142ef6040830185612fcb565b81810360608301526143018184614287565b905095945050505050565b60008151905061431b81612d5f565b92915050565b60006020828403121561433757614336612d29565b5b60006143458482850161430c565b9150509291505056fea2646970667358221220ffa4660b9da5e3c1fc97c3b2e6e83b147e52aa839070b8ede1c7869ce9e5f36764736f6c63430008150033",
  "linkReferences": {
    "contracts/Credit Card/Oracle/OracleLib.sol": {
      "OracleLib": [
        {
          "length": 20,
          "start": 4701
        },
        {
          "length": 20,
          "start": 5738
        }
      ]
    }
  },
  "deployedLinkReferences": {
    "contracts/Credit Card/Oracle/OracleLib.sol": {
      "OracleLib": [
        {
          "length": 20,
          "start": 2608
        },
        {
          "length": 20,
          "start": 3645
        }
      ]
    }
  }
}