{
  "_format": "hh-sol-artifact-1",
  "contractName": "DebitCard",
  "sourceName": "contracts/Debit Card/DebitCard.sol",
  "abi": [
    {
      "inputs": [
        {
          "internalType": "string",
          "name": "name",
          "type": "string"
        },
        {
          "internalType": "string",
          "name": "symbol",
          "type": "string"
        },
        {
          "internalType": "address",
          "name": "initialOwner",
          "type": "address"
        }
      ],
      "stateMutability": "nonpayable",
      "type": "constructor"
    },
    {
      "inputs": [],
      "name": "CardExpired",
      "type": "error"
    },
    {
      "inputs": [],
      "name": "CardHasBeenDiscarded",
      "type": "error"
    },
    {
      "inputs": [
        {
          "internalType": "address",
          "name": "sender",
          "type": "address"
        },
        {
          "internalType": "uint256",
          "name": "tokenId",
          "type": "uint256"
        },
        {
          "internalType": "address",
          "name": "owner",
          "type": "address"
        }
      ],
      "name": "ERC721IncorrectOwner",
      "type": "error"
    },
    {
      "inputs": [
        {
          "internalType": "address",
          "name": "operator",
          "type": "address"
        },
        {
          "internalType": "uint256",
          "name": "tokenId",
          "type": "uint256"
        }
      ],
      "name": "ERC721InsufficientApproval",
      "type": "error"
    },
    {
      "inputs": [
        {
          "internalType": "address",
          "name": "approver",
          "type": "address"
        }
      ],
      "name": "ERC721InvalidApprover",
      "type": "error"
    },
    {
      "inputs": [
        {
          "internalType": "address",
          "name": "operator",
          "type": "address"
        }
      ],
      "name": "ERC721InvalidOperator",
      "type": "error"
    },
    {
      "inputs": [
        {
          "internalType": "address",
          "name": "owner",
          "type": "address"
        }
      ],
      "name": "ERC721InvalidOwner",
      "type": "error"
    },
    {
      "inputs": [
        {
          "internalType": "address",
          "name": "receiver",
          "type": "address"
        }
      ],
      "name": "ERC721InvalidReceiver",
      "type": "error"
    },
    {
      "inputs": [
        {
          "internalType": "address",
          "name": "sender",
          "type": "address"
        }
      ],
      "name": "ERC721InvalidSender",
      "type": "error"
    },
    {
      "inputs": [
        {
          "internalType": "uint256",
          "name": "tokenId",
          "type": "uint256"
        }
      ],
      "name": "ERC721NonexistentToken",
      "type": "error"
    },
    {
      "inputs": [],
      "name": "EnforcedPause",
      "type": "error"
    },
    {
      "inputs": [],
      "name": "ExpectedPause",
      "type": "error"
    },
    {
      "inputs": [],
      "name": "InsufficientCredit",
      "type": "error"
    },
    {
      "inputs": [],
      "name": "InsufficientPoolBalance",
      "type": "error"
    },
    {
      "inputs": [],
      "name": "NotAuthorized",
      "type": "error"
    },
    {
      "inputs": [
        {
          "internalType": "address",
          "name": "owner",
          "type": "address"
        }
      ],
      "name": "OwnableInvalidOwner",
      "type": "error"
    },
    {
      "inputs": [
        {
          "internalType": "address",
          "name": "account",
          "type": "address"
        }
      ],
      "name": "OwnableUnauthorizedAccount",
      "type": "error"
    },
    {
      "inputs": [],
      "name": "SendEnoughFunds",
      "type": "error"
    },
    {
      "inputs": [],
      "name": "TransferFailed",
      "type": "error"
    },
    {
      "inputs": [],
      "name": "ZeroAmountIssued",
      "type": "error"
    },
    {
      "anonymous": false,
      "inputs": [
        {
          "indexed": true,
          "internalType": "address",
          "name": "owner",
          "type": "address"
        },
        {
          "indexed": true,
          "internalType": "address",
          "name": "approved",
          "type": "address"
        },
        {
          "indexed": true,
          "internalType": "uint256",
          "name": "tokenId",
          "type": "uint256"
        }
      ],
      "name": "Approval",
      "type": "event"
    },
    {
      "anonymous": false,
      "inputs": [
        {
          "indexed": true,
          "internalType": "address",
          "name": "owner",
          "type": "address"
        },
        {
          "indexed": true,
          "internalType": "address",
          "name": "operator",
          "type": "address"
        },
        {
          "indexed": false,
          "internalType": "bool",
          "name": "approved",
          "type": "bool"
        }
      ],
      "name": "ApprovalForAll",
      "type": "event"
    },
    {
      "anonymous": false,
      "inputs": [
        {
          "indexed": false,
          "internalType": "uint256",
          "name": "tokenId",
          "type": "uint256"
        }
      ],
      "name": "CardDiscarded",
      "type": "event"
    },
    {
      "anonymous": false,
      "inputs": [
        {
          "indexed": false,
          "internalType": "uint256",
          "name": "tokenId",
          "type": "uint256"
        },
        {
          "indexed": false,
          "internalType": "string",
          "name": "cardName",
          "type": "string"
        },
        {
          "indexed": false,
          "internalType": "address",
          "name": "issuedTo",
          "type": "address"
        },
        {
          "indexed": false,
          "internalType": "uint256",
          "name": "amountIssued",
          "type": "uint256"
        },
        {
          "indexed": false,
          "internalType": "uint256",
          "name": "expirationTime",
          "type": "uint256"
        }
      ],
      "name": "CardIssued",
      "type": "event"
    },
    {
      "anonymous": false,
      "inputs": [
        {
          "indexed": false,
          "internalType": "uint256",
          "name": "tokenId",
          "type": "uint256"
        },
        {
          "indexed": false,
          "internalType": "uint256",
          "name": "additionalAmount",
          "type": "uint256"
        },
        {
          "indexed": false,
          "internalType": "uint256",
          "name": "newExpirationTime",
          "type": "uint256"
        }
      ],
      "name": "CardUpdated",
      "type": "event"
    },
    {
      "anonymous": false,
      "inputs": [],
      "name": "ContractPaused",
      "type": "event"
    },
    {
      "anonymous": false,
      "inputs": [],
      "name": "ContractUnpaused",
      "type": "event"
    },
    {
      "anonymous": false,
      "inputs": [
        {
          "indexed": false,
          "internalType": "uint256",
          "name": "amount",
          "type": "uint256"
        },
        {
          "indexed": false,
          "internalType": "address",
          "name": "addedBy",
          "type": "address"
        }
      ],
      "name": "FundsAddedToPool",
      "type": "event"
    },
    {
      "anonymous": false,
      "inputs": [
        {
          "indexed": false,
          "internalType": "uint256",
          "name": "tokenId",
          "type": "uint256"
        },
        {
          "indexed": false,
          "internalType": "address",
          "name": "recipient",
          "type": "address"
        },
        {
          "indexed": false,
          "internalType": "uint256",
          "name": "spendAmount",
          "type": "uint256"
        }
      ],
      "name": "FundsSpentFromCard",
      "type": "event"
    },
    {
      "anonymous": false,
      "inputs": [
        {
          "indexed": true,
          "internalType": "address",
          "name": "previousOwner",
          "type": "address"
        },
        {
          "indexed": true,
          "internalType": "address",
          "name": "newOwner",
          "type": "address"
        }
      ],
      "name": "OwnershipTransferred",
      "type": "event"
    },
    {
      "anonymous": false,
      "inputs": [
        {
          "indexed": false,
          "internalType": "address",
          "name": "account",
          "type": "address"
        }
      ],
      "name": "Paused",
      "type": "event"
    },
    {
      "anonymous": false,
      "inputs": [
        {
          "indexed": true,
          "internalType": "address",
          "name": "from",
          "type": "address"
        },
        {
          "indexed": true,
          "internalType": "address",
          "name": "to",
          "type": "address"
        },
        {
          "indexed": true,
          "internalType": "uint256",
          "name": "tokenId",
          "type": "uint256"
        }
      ],
      "name": "Transfer",
      "type": "event"
    },
    {
      "anonymous": false,
      "inputs": [
        {
          "indexed": false,
          "internalType": "address",
          "name": "account",
          "type": "address"
        }
      ],
      "name": "Unpaused",
      "type": "event"
    },
    {
      "inputs": [
        {
          "internalType": "uint256",
          "name": "amount",
          "type": "uint256"
        }
      ],
      "name": "addFundsToPool",
      "outputs": [],
      "stateMutability": "payable",
      "type": "function"
    },
    {
      "inputs": [
        {
          "internalType": "address",
          "name": "to",
          "type": "address"
        },
        {
          "internalType": "uint256",
          "name": "tokenId",
          "type": "uint256"
        }
      ],
      "name": "approve",
      "outputs": [],
      "stateMutability": "nonpayable",
      "type": "function"
    },
    {
      "inputs": [
        {
          "internalType": "address",
          "name": "owner",
          "type": "address"
        }
      ],
      "name": "balanceOf",
      "outputs": [
        {
          "internalType": "uint256",
          "name": "",
          "type": "uint256"
        }
      ],
      "stateMutability": "view",
      "type": "function"
    },
    {
      "inputs": [
        {
          "internalType": "uint256",
          "name": "tokenId",
          "type": "uint256"
        }
      ],
      "name": "burn",
      "outputs": [],
      "stateMutability": "nonpayable",
      "type": "function"
    },
    {
      "inputs": [
        {
          "internalType": "uint256",
          "name": "tokenId",
          "type": "uint256"
        }
      ],
      "name": "discardCard",
      "outputs": [],
      "stateMutability": "nonpayable",
      "type": "function"
    },
    {
      "inputs": [
        {
          "internalType": "uint256",
          "name": "tokenId",
          "type": "uint256"
        }
      ],
      "name": "getApproved",
      "outputs": [
        {
          "internalType": "address",
          "name": "",
          "type": "address"
        }
      ],
      "stateMutability": "view",
      "type": "function"
    },
    {
      "inputs": [
        {
          "internalType": "uint256",
          "name": "tokenId",
          "type": "uint256"
        }
      ],
      "name": "getCardInfo",
      "outputs": [
        {
          "components": [
            {
              "internalType": "string",
              "name": "cardName",
              "type": "string"
            },
            {
              "internalType": "uint256",
              "name": "amountIssued",
              "type": "uint256"
            },
            {
              "internalType": "uint256",
              "name": "amountSpent",
              "type": "uint256"
            },
            {
              "internalType": "uint256",
              "name": "expirationTime",
              "type": "uint256"
            },
            {
              "internalType": "bool",
              "name": "hasBeenDiscarded",
              "type": "bool"
            }
          ],
          "internalType": "struct DebitCard.CardInfo",
          "name": "",
          "type": "tuple"
        }
      ],
      "stateMutability": "view",
      "type": "function"
    },
    {
      "inputs": [
        {
          "internalType": "address",
          "name": "owner",
          "type": "address"
        },
        {
          "internalType": "address",
          "name": "operator",
          "type": "address"
        }
      ],
      "name": "isApprovedForAll",
      "outputs": [
        {
          "internalType": "bool",
          "name": "",
          "type": "bool"
        }
      ],
      "stateMutability": "view",
      "type": "function"
    },
    {
      "inputs": [
        {
          "internalType": "string",
          "name": "name",
          "type": "string"
        },
        {
          "internalType": "address",
          "name": "to",
          "type": "address"
        },
        {
          "internalType": "uint256",
          "name": "amountIssued",
          "type": "uint256"
        },
        {
          "internalType": "uint256",
          "name": "expirationTime",
          "type": "uint256"
        }
      ],
      "name": "issueCard",
      "outputs": [],
      "stateMutability": "nonpayable",
      "type": "function"
    },
    {
      "inputs": [],
      "name": "name",
      "outputs": [
        {
          "internalType": "string",
          "name": "",
          "type": "string"
        }
      ],
      "stateMutability": "view",
      "type": "function"
    },
    {
      "inputs": [],
      "name": "owner",
      "outputs": [
        {
          "internalType": "address",
          "name": "",
          "type": "address"
        }
      ],
      "stateMutability": "view",
      "type": "function"
    },
    {
      "inputs": [
        {
          "internalType": "uint256",
          "name": "tokenId",
          "type": "uint256"
        }
      ],
      "name": "ownerOf",
      "outputs": [
        {
          "internalType": "address",
          "name": "",
          "type": "address"
        }
      ],
      "stateMutability": "view",
      "type": "function"
    },
    {
      "inputs": [],
      "name": "pause",
      "outputs": [],
      "stateMutability": "nonpayable",
      "type": "function"
    },
    {
      "inputs": [],
      "name": "paused",
      "outputs": [
        {
          "internalType": "bool",
          "name": "",
          "type": "bool"
        }
      ],
      "stateMutability": "view",
      "type": "function"
    },
    {
      "inputs": [],
      "name": "poolName",
      "outputs": [
        {
          "internalType": "string",
          "name": "",
          "type": "string"
        }
      ],
      "stateMutability": "view",
      "type": "function"
    },
    {
      "inputs": [],
      "name": "poolSize",
      "outputs": [
        {
          "internalType": "uint256",
          "name": "",
          "type": "uint256"
        }
      ],
      "stateMutability": "view",
      "type": "function"
    },
    {
      "inputs": [],
      "name": "renounceOwnership",
      "outputs": [],
      "stateMutability": "nonpayable",
      "type": "function"
    },
    {
      "inputs": [
        {
          "internalType": "address",
          "name": "from",
          "type": "address"
        },
        {
          "internalType": "address",
          "name": "to",
          "type": "address"
        },
        {
          "internalType": "uint256",
          "name": "tokenId",
          "type": "uint256"
        }
      ],
      "name": "safeTransferFrom",
      "outputs": [],
      "stateMutability": "nonpayable",
      "type": "function"
    },
    {
      "inputs": [
        {
          "internalType": "address",
          "name": "from",
          "type": "address"
        },
        {
          "internalType": "address",
          "name": "to",
          "type": "address"
        },
        {
          "internalType": "uint256",
          "name": "tokenId",
          "type": "uint256"
        },
        {
          "internalType": "bytes",
          "name": "data",
          "type": "bytes"
        }
      ],
      "name": "safeTransferFrom",
      "outputs": [],
      "stateMutability": "nonpayable",
      "type": "function"
    },
    {
      "inputs": [
        {
          "internalType": "address",
          "name": "operator",
          "type": "address"
        },
        {
          "internalType": "bool",
          "name": "approved",
          "type": "bool"
        }
      ],
      "name": "setApprovalForAll",
      "outputs": [],
      "stateMutability": "nonpayable",
      "type": "function"
    },
    {
      "inputs": [
        {
          "internalType": "uint256",
          "name": "tokenId",
          "type": "uint256"
        },
        {
          "internalType": "address",
          "name": "recipient",
          "type": "address"
        },
        {
          "internalType": "uint256",
          "name": "spendAmount",
          "type": "uint256"
        }
      ],
      "name": "spendFromCard",
      "outputs": [],
      "stateMutability": "nonpayable",
      "type": "function"
    },
    {
      "inputs": [
        {
          "internalType": "bytes4",
          "name": "interfaceId",
          "type": "bytes4"
        }
      ],
      "name": "supportsInterface",
      "outputs": [
        {
          "internalType": "bool",
          "name": "",
          "type": "bool"
        }
      ],
      "stateMutability": "view",
      "type": "function"
    },
    {
      "inputs": [],
      "name": "symbol",
      "outputs": [
        {
          "internalType": "string",
          "name": "",
          "type": "string"
        }
      ],
      "stateMutability": "view",
      "type": "function"
    },
    {
      "inputs": [
        {
          "internalType": "uint256",
          "name": "tokenId",
          "type": "uint256"
        }
      ],
      "name": "tokenURI",
      "outputs": [
        {
          "internalType": "string",
          "name": "",
          "type": "string"
        }
      ],
      "stateMutability": "view",
      "type": "function"
    },
    {
      "inputs": [
        {
          "internalType": "address",
          "name": "from",
          "type": "address"
        },
        {
          "internalType": "address",
          "name": "to",
          "type": "address"
        },
        {
          "internalType": "uint256",
          "name": "tokenId",
          "type": "uint256"
        }
      ],
      "name": "transferFrom",
      "outputs": [],
      "stateMutability": "nonpayable",
      "type": "function"
    },
    {
      "inputs": [
        {
          "internalType": "address",
          "name": "newOwner",
          "type": "address"
        }
      ],
      "name": "transferOwnership",
      "outputs": [],
      "stateMutability": "nonpayable",
      "type": "function"
    },
    {
      "inputs": [],
      "name": "unpause",
      "outputs": [],
      "stateMutability": "nonpayable",
      "type": "function"
    },
    {
      "inputs": [
        {
          "internalType": "uint256",
          "name": "tokenId",
          "type": "uint256"
        },
        {
          "internalType": "uint256",
          "name": "additionalAmount",
          "type": "uint256"
        },
        {
          "internalType": "uint256",
          "name": "newExpirationTime",
          "type": "uint256"
        }
      ],
      "name": "updateCard",
      "outputs": [],
      "stateMutability": "nonpayable",
      "type": "function"
    }
  ],
  "bytecode": "0x608060405260016007553480156200001657600080fd5b5060405162003c1b38038062003c1b83398181016040528101906200003c9190620003e0565b8083838160009081620000509190620006c5565b508060019081620000629190620006c5565b5050506000600660006101000a81548160ff021916908315150217905550600073ffffffffffffffffffffffffffffffffffffffff168173ffffffffffffffffffffffffffffffffffffffff1603620000f55760006040517f1e4fbdf7000000000000000000000000000000000000000000000000000000008152600401620000ec9190620007bd565b60405180910390fd5b62000106816200012260201b60201c565b508260099081620001189190620006c5565b50505050620007da565b6000600660019054906101000a900473ffffffffffffffffffffffffffffffffffffffff16905081600660016101000a81548173ffffffffffffffffffffffffffffffffffffffff021916908373ffffffffffffffffffffffffffffffffffffffff1602179055508173ffffffffffffffffffffffffffffffffffffffff168173ffffffffffffffffffffffffffffffffffffffff167f8be0079c531659141344cd1fd0a4f28419497f9722a3daafe3b4186f6b6457e060405160405180910390a35050565b6000604051905090565b600080fd5b600080fd5b600080fd5b600080fd5b6000601f19601f8301169050919050565b7f4e487b7100000000000000000000000000000000000000000000000000000000600052604160045260246000fd5b620002518262000206565b810181811067ffffffffffffffff8211171562000273576200027262000217565b5b80604052505050565b600062000288620001e8565b905062000296828262000246565b919050565b600067ffffffffffffffff821115620002b957620002b862000217565b5b620002c48262000206565b9050602081019050919050565b60005b83811015620002f1578082015181840152602081019050620002d4565b60008484015250505050565b6000620003146200030e846200029b565b6200027c565b90508281526020810184848401111562000333576200033262000201565b5b62000340848285620002d1565b509392505050565b600082601f83011262000360576200035f620001fc565b5b815162000372848260208601620002fd565b91505092915050565b600073ffffffffffffffffffffffffffffffffffffffff82169050919050565b6000620003a8826200037b565b9050919050565b620003ba816200039b565b8114620003c657600080fd5b50565b600081519050620003da81620003af565b92915050565b600080600060608486031215620003fc57620003fb620001f2565b5b600084015167ffffffffffffffff8111156200041d576200041c620001f7565b5b6200042b8682870162000348565b935050602084015167ffffffffffffffff8111156200044f576200044e620001f7565b5b6200045d8682870162000348565b92505060406200047086828701620003c9565b9150509250925092565b600081519050919050565b7f4e487b7100000000000000000000000000000000000000000000000000000000600052602260045260246000fd5b60006002820490506001821680620004cd57607f821691505b602082108103620004e357620004e262000485565b5b50919050565b60008190508160005260206000209050919050565b60006020601f8301049050919050565b600082821b905092915050565b6000600883026200054d7fffffffffffffffffffffffffffffffffffffffffffffffffffffffffffffffff826200050e565b6200055986836200050e565b95508019841693508086168417925050509392505050565b6000819050919050565b6000819050919050565b6000620005a6620005a06200059a8462000571565b6200057b565b62000571565b9050919050565b6000819050919050565b620005c28362000585565b620005da620005d182620005ad565b8484546200051b565b825550505050565b600090565b620005f1620005e2565b620005fe818484620005b7565b505050565b5b8181101562000626576200061a600082620005e7565b60018101905062000604565b5050565b601f82111562000675576200063f81620004e9565b6200064a84620004fe565b810160208510156200065a578190505b620006726200066985620004fe565b83018262000603565b50505b505050565b600082821c905092915050565b60006200069a600019846008026200067a565b1980831691505092915050565b6000620006b5838362000687565b9150826002028217905092915050565b620006d0826200047a565b67ffffffffffffffff811115620006ec57620006eb62000217565b5b620006f88254620004b4565b620007058282856200062a565b600060209050601f8311600181146200073d576000841562000728578287015190505b620007348582620006a7565b865550620007a4565b601f1984166200074d86620004e9565b60005b82811015620007775784890151825560018201915060208501945060208101905062000750565b8683101562000797578489015162000793601f89168262000687565b8355505b6001600288020188555050505b505050505050565b620007b7816200039b565b82525050565b6000602082019050620007d46000830184620007ac565b92915050565b61343180620007ea6000396000f3fe6080604052600436106101b75760003560e01c80636352211e116100ec578063970129be1161008a578063c87b56dd11610064578063c87b56dd146105bf578063e985e9c5146105fc578063f2fde38b14610639578063f3466dfa14610662576101b7565b8063970129be14610530578063a22cb4651461056d578063b88d4fde14610596576101b7565b8063715018a6116100c6578063715018a6146104ac5780638456cb59146104c35780638da5cb5b146104da57806395d89b4114610505576101b7565b80636352211e14610409578063668c745d1461044657806370a082311461046f576101b7565b806326ab7b341161015957806342966c681161013357806342966c68146103615780634466f18b1461038a5780634ec18db9146103b35780635c975abb146103de576101b7565b806326ab7b34146102f85780633f4ba83a1461032157806342842e0e14610338576101b7565b8063095ea7b311610195578063095ea7b3146102615780630c2250e51461028a57806321fcb0dd146102b357806323b872dd146102cf576101b7565b806301ffc9a7146101bc57806306fdde03146101f9578063081812fc14610224575b600080fd5b3480156101c857600080fd5b506101e360048036038101906101de919061251d565b61068d565b6040516101f09190612565565b60405180910390f35b34801561020557600080fd5b5061020e61076f565b60405161021b9190612610565b60405180910390f35b34801561023057600080fd5b5061024b60048036038101906102469190612668565b610801565b60405161025891906126d6565b60405180910390f35b34801561026d57600080fd5b506102886004803603810190610283919061271d565b61081d565b005b34801561029657600080fd5b506102b160048036038101906102ac9190612668565b610833565b005b6102cd60048036038101906102c89190612668565b6108aa565b005b3480156102db57600080fd5b506102f660048036038101906102f1919061275d565b610940565b005b34801561030457600080fd5b5061031f600480360381019061031a91906127b0565b610a42565b005b34801561032d57600080fd5b50610336610ac6565b005b34801561034457600080fd5b5061035f600480360381019061035a919061275d565b610b04565b005b34801561036d57600080fd5b5061038860048036038101906103839190612668565b610b24565b005b34801561039657600080fd5b506103b160048036038101906103ac9190612803565b610b3b565b005b3480156103bf57600080fd5b506103c8610e19565b6040516103d59190612865565b60405180910390f35b3480156103ea57600080fd5b506103f3610e1f565b6040516104009190612565565b60405180910390f35b34801561041557600080fd5b50610430600480360381019061042b9190612668565b610e36565b60405161043d91906126d6565b60405180910390f35b34801561045257600080fd5b5061046d600480360381019061046891906129b5565b610e48565b005b34801561047b57600080fd5b5061049660048036038101906104919190612a38565b610f3e565b6040516104a39190612865565b60405180910390f35b3480156104b857600080fd5b506104c1610ff8565b005b3480156104cf57600080fd5b506104d861100c565b005b3480156104e657600080fd5b506104ef61104a565b6040516104fc91906126d6565b60405180910390f35b34801561051157600080fd5b5061051a611074565b6040516105279190612610565b60405180910390f35b34801561053c57600080fd5b5061055760048036038101906105529190612668565b611106565b6040516105649190612b43565b60405180910390f35b34801561057957600080fd5b50610594600480360381019061058f9190612b91565b6111fe565b005b3480156105a257600080fd5b506105bd60048036038101906105b89190612c72565b611214565b005b3480156105cb57600080fd5b506105e660048036038101906105e19190612668565b611231565b6040516105f39190612610565b60405180910390f35b34801561060857600080fd5b50610623600480360381019061061e9190612cf5565b61129a565b6040516106309190612565565b60405180910390f35b34801561064557600080fd5b50610660600480360381019061065b9190612a38565b61132e565b005b34801561066e57600080fd5b506106776113b4565b6040516106849190612610565b60405180910390f35b60007f80ac58cd000000000000000000000000000000000000000000000000000000007bffffffffffffffffffffffffffffffffffffffffffffffffffffffff1916827bffffffffffffffffffffffffffffffffffffffffffffffffffffffff1916148061075857507f5b5e139f000000000000000000000000000000000000000000000000000000007bffffffffffffffffffffffffffffffffffffffffffffffffffffffff1916827bffffffffffffffffffffffffffffffffffffffffffffffffffffffff1916145b80610768575061076782611442565b5b9050919050565b60606000805461077e90612d64565b80601f01602080910402602001604051908101604052809291908181526020018280546107aa90612d64565b80156107f75780601f106107cc576101008083540402835291602001916107f7565b820191906000526020600020905b8154815290600101906020018083116107da57829003601f168201915b5050505050905090565b600061080c826114ac565b5061081682611534565b9050919050565b61082f828261082a611571565b611579565b5050565b61083b61158b565b6000600a6000838152602001908152602001600020905060018160040160006101000a81548160ff0219169083151502179055507f5e718c7871bfd8857599af41b40f69b6a7406960840c986fc47338eba8808b858260405161089e9190612865565b60405180910390a15050565b6108b261158b565b3481146108eb576040517ff9db597800000000000000000000000000000000000000000000000000000000815260040160405180910390fd5b80600860008282546108fd9190612dc4565b925050819055507fdd9502f23468ca95d8409f0a29a3d85ccd00929e542794b33dfbd69a7eab563f8133604051610935929190612df8565b60405180910390a150565b600073ffffffffffffffffffffffffffffffffffffffff168273ffffffffffffffffffffffffffffffffffffffff16036109b25760006040517f64a0ae920000000000000000000000000000000000000000000000000000000081526004016109a991906126d6565b60405180910390fd5b60006109c683836109c1611571565b611612565b90508373ffffffffffffffffffffffffffffffffffffffff168173ffffffffffffffffffffffffffffffffffffffff1614610a3c578382826040517f64283d7b000000000000000000000000000000000000000000000000000000008152600401610a3393929190612e21565b60405180910390fd5b50505050565b610a4a61158b565b6000600a6000858152602001908152602001600020905082816001016000828254610a759190612dc4565b925050819055508181600301819055507f748cfa0f8261f0b8cac61804f8a85ca562c08c1befbf32bbd6dfe03960d29e0f848484604051610ab893929190612e58565b60405180910390a150505050565b610ace61158b565b610ad661182c565b7f0e5e3b3fb504c22cf5c42fa07d521225937514c654007e1f12646f89768d6f9460405160405180910390a1565b610b1f83838360405180602001604052806000815250611214565b505050565b610b37600082610b32611571565b611612565b5050565b610b4361188f565b6000600a600085815260200190815260200160002090503373ffffffffffffffffffffffffffffffffffffffff16610b7a85610e36565b73ffffffffffffffffffffffffffffffffffffffff1614610bc7576040517fea8e4eb500000000000000000000000000000000000000000000000000000000815260040160405180910390fd5b8060030154421115610c05576040517fa21660f000000000000000000000000000000000000000000000000000000000815260040160405180910390fd5b600115158160040160009054906101000a900460ff16151503610c54576040517f9ae33a2600000000000000000000000000000000000000000000000000000000815260040160405180910390fd5b6000816001015403610c92576040517f690a407600000000000000000000000000000000000000000000000000000000815260040160405180910390fd5b8181600201548260010154610ca79190612e8f565b1015610cdf576040517f8ac4bc7300000000000000000000000000000000000000000000000000000000815260040160405180910390fd5b81471015610d19576040517fbc6072f100000000000000000000000000000000000000000000000000000000815260040160405180910390fd5b81816002016000828254610d2d9190612dc4565b9250508190555060008373ffffffffffffffffffffffffffffffffffffffff1683604051610d5a90612ef4565b60006040518083038185875af1925050503d8060008114610d97576040519150601f19603f3d011682016040523d82523d6000602084013e610d9c565b606091505b5050905080610dd7576040517f90b8ec1800000000000000000000000000000000000000000000000000000000815260040160405180910390fd5b7f7e3c238356c8eb6519c01391fd819024a54e7219735fda1b58ecbf6f6335e301858585604051610e0a93929190612f09565b60405180910390a15050505050565b60085481565b6000600660009054906101000a900460ff16905090565b6000610e41826114ac565b9050919050565b610e5061158b565b6000610e5b846118d0565b905060006040518060a001604052808781526020018581526020016000815260200184815260200160001515815250905080600a60008481526020019081526020016000206000820151816000019081610eb591906130ec565b5060208201518160010155604082015181600201556060820151816003015560808201518160040160006101000a81548160ff0219169083151502179055509050507fbffd54593e1ce21bc0cf8a13206ba0358211dd80b29f9b09553c673c6519c97c8287878787604051610f2e9594939291906131be565b60405180910390a1505050505050565b60008073ffffffffffffffffffffffffffffffffffffffff168273ffffffffffffffffffffffffffffffffffffffff1603610fb15760006040517f89c62b64000000000000000000000000000000000000000000000000000000008152600401610fa891906126d6565b60405180910390fd5b600360008373ffffffffffffffffffffffffffffffffffffffff1673ffffffffffffffffffffffffffffffffffffffff168152602001908152602001600020549050919050565b61100061158b565b61100a60006118ff565b565b61101461158b565b61101c6119c5565b7fab35696f06e428ebc5ceba8cd17f8fed287baf43440206d1943af1ee53e6d26760405160405180910390a1565b6000600660019054906101000a900473ffffffffffffffffffffffffffffffffffffffff16905090565b60606001805461108390612d64565b80601f01602080910402602001604051908101604052809291908181526020018280546110af90612d64565b80156110fc5780601f106110d1576101008083540402835291602001916110fc565b820191906000526020600020905b8154815290600101906020018083116110df57829003601f168201915b5050505050905090565b61110e612480565b600a60008381526020019081526020016000206040518060a001604052908160008201805461113c90612d64565b80601f016020809104026020016040519081016040528092919081815260200182805461116890612d64565b80156111b55780601f1061118a576101008083540402835291602001916111b5565b820191906000526020600020905b81548152906001019060200180831161119857829003601f168201915b505050505081526020016001820154815260200160028201548152602001600382015481526020016004820160009054906101000a900460ff1615151515815250509050919050565b611210611209611571565b8383611a28565b5050565b61121f848484610940565b61122b84848484611b97565b50505050565b606061123c826114ac565b506000611247611d4e565b905060008151116112675760405180602001604052806000815250611292565b8061127184611d65565b604051602001611282929190613254565b6040516020818303038152906040525b915050919050565b6000600560008473ffffffffffffffffffffffffffffffffffffffff1673ffffffffffffffffffffffffffffffffffffffff16815260200190815260200160002060008373ffffffffffffffffffffffffffffffffffffffff1673ffffffffffffffffffffffffffffffffffffffff16815260200190815260200160002060009054906101000a900460ff16905092915050565b61133661158b565b600073ffffffffffffffffffffffffffffffffffffffff168173ffffffffffffffffffffffffffffffffffffffff16036113a85760006040517f1e4fbdf700000000000000000000000000000000000000000000000000000000815260040161139f91906126d6565b60405180910390fd5b6113b1816118ff565b50565b600980546113c190612d64565b80601f01602080910402602001604051908101604052809291908181526020018280546113ed90612d64565b801561143a5780601f1061140f5761010080835404028352916020019161143a565b820191906000526020600020905b81548152906001019060200180831161141d57829003601f168201915b505050505081565b60007f01ffc9a7000000000000000000000000000000000000000000000000000000007bffffffffffffffffffffffffffffffffffffffffffffffffffffffff1916827bffffffffffffffffffffffffffffffffffffffffffffffffffffffff1916149050919050565b6000806114b883611e33565b9050600073ffffffffffffffffffffffffffffffffffffffff168173ffffffffffffffffffffffffffffffffffffffff160361152b57826040517f7e2732890000000000000000000000000000000000000000000000000000000081526004016115229190612865565b60405180910390fd5b80915050919050565b60006004600083815260200190815260200160002060009054906101000a900473ffffffffffffffffffffffffffffffffffffffff169050919050565b600033905090565b6115868383836001611e70565b505050565b611593611571565b73ffffffffffffffffffffffffffffffffffffffff166115b161104a565b73ffffffffffffffffffffffffffffffffffffffff1614611610576115d4611571565b6040517f118cdaa700000000000000000000000000000000000000000000000000000000815260040161160791906126d6565b60405180910390fd5b565b60008061161e84611e33565b9050600073ffffffffffffffffffffffffffffffffffffffff168373ffffffffffffffffffffffffffffffffffffffff16146116605761165f818486612035565b5b600073ffffffffffffffffffffffffffffffffffffffff168173ffffffffffffffffffffffffffffffffffffffff16146116f1576116a2600085600080611e70565b6001600360008373ffffffffffffffffffffffffffffffffffffffff1673ffffffffffffffffffffffffffffffffffffffff168152602001908152602001600020600082825403925050819055505b600073ffffffffffffffffffffffffffffffffffffffff168573ffffffffffffffffffffffffffffffffffffffff1614611774576001600360008773ffffffffffffffffffffffffffffffffffffffff1673ffffffffffffffffffffffffffffffffffffffff168152602001908152602001600020600082825401925050819055505b846002600086815260200190815260200160002060006101000a81548173ffffffffffffffffffffffffffffffffffffffff021916908373ffffffffffffffffffffffffffffffffffffffff160217905550838573ffffffffffffffffffffffffffffffffffffffff168273ffffffffffffffffffffffffffffffffffffffff167fddf252ad1be2c89b69c2b068fc378daa952ba7f163c4a11628f55a4df523b3ef60405160405180910390a4809150509392505050565b6118346120f9565b6000600660006101000a81548160ff0219169083151502179055507f5db9ee0a495bf2e6ff9c91a7834c1ba4fdd244a5e8aa4e537bd38aeae4b073aa611878611571565b60405161188591906126d6565b60405180910390a1565b611897610e1f565b156118ce576040517fd93c066500000000000000000000000000000000000000000000000000000000815260040160405180910390fd5b565b600080600760008154809291906118e690613278565b9190505590506118f68382612139565b80915050919050565b6000600660019054906101000a900473ffffffffffffffffffffffffffffffffffffffff16905081600660016101000a81548173ffffffffffffffffffffffffffffffffffffffff021916908373ffffffffffffffffffffffffffffffffffffffff1602179055508173ffffffffffffffffffffffffffffffffffffffff168173ffffffffffffffffffffffffffffffffffffffff167f8be0079c531659141344cd1fd0a4f28419497f9722a3daafe3b4186f6b6457e060405160405180910390a35050565b6119cd61188f565b6001600660006101000a81548160ff0219169083151502179055507f62e78cea01bee320cd4e420270b5ea74000d11b0c9f74754ebdbfc544b05a258611a11611571565b604051611a1e91906126d6565b60405180910390a1565b600073ffffffffffffffffffffffffffffffffffffffff168273ffffffffffffffffffffffffffffffffffffffff1603611a9957816040517f5b08ba18000000000000000000000000000000000000000000000000000000008152600401611a9091906126d6565b60405180910390fd5b80600560008573ffffffffffffffffffffffffffffffffffffffff1673ffffffffffffffffffffffffffffffffffffffff16815260200190815260200160002060008473ffffffffffffffffffffffffffffffffffffffff1673ffffffffffffffffffffffffffffffffffffffff16815260200190815260200160002060006101000a81548160ff0219169083151502179055508173ffffffffffffffffffffffffffffffffffffffff168373ffffffffffffffffffffffffffffffffffffffff167f17307eab39ab6107e8899845ad3d59bd9653f200f220920489ca2b5937696c3183604051611b8a9190612565565b60405180910390a3505050565b60008373ffffffffffffffffffffffffffffffffffffffff163b1115611d48578273ffffffffffffffffffffffffffffffffffffffff1663150b7a02611bdb611571565b8685856040518563ffffffff1660e01b8152600401611bfd9493929190613315565b6020604051808303816000875af1925050508015611c3957506040513d601f19601f82011682018060405250810190611c369190613376565b60015b611cbd573d8060008114611c69576040519150601f19603f3d011682016040523d82523d6000602084013e611c6e565b606091505b506000815103611cb557836040517f64a0ae92000000000000000000000000000000000000000000000000000000008152600401611cac91906126d6565b60405180910390fd5b805181602001fd5b63150b7a0260e01b7bffffffffffffffffffffffffffffffffffffffffffffffffffffffff1916817bffffffffffffffffffffffffffffffffffffffffffffffffffffffff191614611d4657836040517f64a0ae92000000000000000000000000000000000000000000000000000000008152600401611d3d91906126d6565b60405180910390fd5b505b50505050565b606060405180602001604052806000815250905090565b606060006001611d7484612157565b01905060008167ffffffffffffffff811115611d9357611d9261288a565b5b6040519080825280601f01601f191660200182016040528015611dc55781602001600182028036833780820191505090505b509050600082602001820190505b600115611e28578080600190039150507f3031323334353637383961626364656600000000000000000000000000000000600a86061a8153600a8581611e1c57611e1b6133a3565b5b04945060008503611dd3575b819350505050919050565b60006002600083815260200190815260200160002060009054906101000a900473ffffffffffffffffffffffffffffffffffffffff169050919050565b8080611ea95750600073ffffffffffffffffffffffffffffffffffffffff168273ffffffffffffffffffffffffffffffffffffffff1614155b15611fdd576000611eb9846114ac565b9050600073ffffffffffffffffffffffffffffffffffffffff168373ffffffffffffffffffffffffffffffffffffffff1614158015611f2457508273ffffffffffffffffffffffffffffffffffffffff168173ffffffffffffffffffffffffffffffffffffffff1614155b8015611f375750611f35818461129a565b155b15611f7957826040517fa9fbf51f000000000000000000000000000000000000000000000000000000008152600401611f7091906126d6565b60405180910390fd5b8115611fdb57838573ffffffffffffffffffffffffffffffffffffffff168273ffffffffffffffffffffffffffffffffffffffff167f8c5be1e5ebec7d5bd14f71427d1e84f3dd0314c0f7b2291e5b200ac8c7c3b92560405160405180910390a45b505b836004600085815260200190815260200160002060006101000a81548173ffffffffffffffffffffffffffffffffffffffff021916908373ffffffffffffffffffffffffffffffffffffffff16021790555050505050565b6120408383836122aa565b6120f457600073ffffffffffffffffffffffffffffffffffffffff168373ffffffffffffffffffffffffffffffffffffffff16036120b557806040517f7e2732890000000000000000000000000000000000000000000000000000000081526004016120ac9190612865565b60405180910390fd5b81816040517f177e802f0000000000000000000000000000000000000000000000000000000081526004016120eb9291906133d2565b60405180910390fd5b505050565b612101610e1f565b612137576040517f8dfc202b00000000000000000000000000000000000000000000000000000000815260040160405180910390fd5b565b61215382826040518060200160405280600081525061236b565b5050565b600080600090507a184f03e93ff9f4daa797ed6e38ed64bf6a1f01000000000000000083106121b5577a184f03e93ff9f4daa797ed6e38ed64bf6a1f01000000000000000083816121ab576121aa6133a3565b5b0492506040810190505b6d04ee2d6d415b85acef810000000083106121f2576d04ee2d6d415b85acef810000000083816121e8576121e76133a3565b5b0492506020810190505b662386f26fc10000831061222157662386f26fc100008381612217576122166133a3565b5b0492506010810190505b6305f5e100831061224a576305f5e10083816122405761223f6133a3565b5b0492506008810190505b612710831061226f576127108381612265576122646133a3565b5b0492506004810190505b606483106122925760648381612288576122876133a3565b5b0492506002810190505b600a83106122a1576001810190505b80915050919050565b60008073ffffffffffffffffffffffffffffffffffffffff168373ffffffffffffffffffffffffffffffffffffffff161415801561236257508273ffffffffffffffffffffffffffffffffffffffff168473ffffffffffffffffffffffffffffffffffffffff1614806123235750612322848461129a565b5b8061236157508273ffffffffffffffffffffffffffffffffffffffff1661234983611534565b73ffffffffffffffffffffffffffffffffffffffff16145b5b90509392505050565b6123758383612387565b6123826000848484611b97565b505050565b600073ffffffffffffffffffffffffffffffffffffffff168273ffffffffffffffffffffffffffffffffffffffff16036123f95760006040517f64a0ae920000000000000000000000000000000000000000000000000000000081526004016123f091906126d6565b60405180910390fd5b600061240783836000611612565b9050600073ffffffffffffffffffffffffffffffffffffffff168173ffffffffffffffffffffffffffffffffffffffff161461247b5760006040517f73c6ac6e00000000000000000000000000000000000000000000000000000000815260040161247291906126d6565b60405180910390fd5b505050565b6040518060a00160405280606081526020016000815260200160008152602001600081526020016000151581525090565b6000604051905090565b600080fd5b600080fd5b60007fffffffff0000000000000000000000000000000000000000000000000000000082169050919050565b6124fa816124c5565b811461250557600080fd5b50565b600081359050612517816124f1565b92915050565b600060208284031215612533576125326124bb565b5b600061254184828501612508565b91505092915050565b60008115159050919050565b61255f8161254a565b82525050565b600060208201905061257a6000830184612556565b92915050565b600081519050919050565b600082825260208201905092915050565b60005b838110156125ba57808201518184015260208101905061259f565b60008484015250505050565b6000601f19601f8301169050919050565b60006125e282612580565b6125ec818561258b565b93506125fc81856020860161259c565b612605816125c6565b840191505092915050565b6000602082019050818103600083015261262a81846125d7565b905092915050565b6000819050919050565b61264581612632565b811461265057600080fd5b50565b6000813590506126628161263c565b92915050565b60006020828403121561267e5761267d6124bb565b5b600061268c84828501612653565b91505092915050565b600073ffffffffffffffffffffffffffffffffffffffff82169050919050565b60006126c082612695565b9050919050565b6126d0816126b5565b82525050565b60006020820190506126eb60008301846126c7565b92915050565b6126fa816126b5565b811461270557600080fd5b50565b600081359050612717816126f1565b92915050565b60008060408385031215612734576127336124bb565b5b600061274285828601612708565b925050602061275385828601612653565b9150509250929050565b600080600060608486031215612776576127756124bb565b5b600061278486828701612708565b935050602061279586828701612708565b92505060406127a686828701612653565b9150509250925092565b6000806000606084860312156127c9576127c86124bb565b5b60006127d786828701612653565b93505060206127e886828701612653565b92505060406127f986828701612653565b9150509250925092565b60008060006060848603121561281c5761281b6124bb565b5b600061282a86828701612653565b935050602061283b86828701612708565b925050604061284c86828701612653565b9150509250925092565b61285f81612632565b82525050565b600060208201905061287a6000830184612856565b92915050565b600080fd5b600080fd5b7f4e487b7100000000000000000000000000000000000000000000000000000000600052604160045260246000fd5b6128c2826125c6565b810181811067ffffffffffffffff821117156128e1576128e061288a565b5b80604052505050565b60006128f46124b1565b905061290082826128b9565b919050565b600067ffffffffffffffff8211156129205761291f61288a565b5b612929826125c6565b9050602081019050919050565b82818337600083830152505050565b600061295861295384612905565b6128ea565b90508281526020810184848401111561297457612973612885565b5b61297f848285612936565b509392505050565b600082601f83011261299c5761299b612880565b5b81356129ac848260208601612945565b91505092915050565b600080600080608085870312156129cf576129ce6124bb565b5b600085013567ffffffffffffffff8111156129ed576129ec6124c0565b5b6129f987828801612987565b9450506020612a0a87828801612708565b9350506040612a1b87828801612653565b9250506060612a2c87828801612653565b91505092959194509250565b600060208284031215612a4e57612a4d6124bb565b5b6000612a5c84828501612708565b91505092915050565b600082825260208201905092915050565b6000612a8182612580565b612a8b8185612a65565b9350612a9b81856020860161259c565b612aa4816125c6565b840191505092915050565b612ab881612632565b82525050565b612ac78161254a565b82525050565b600060a0830160008301518482036000860152612aea8282612a76565b9150506020830151612aff6020860182612aaf565b506040830151612b126040860182612aaf565b506060830151612b256060860182612aaf565b506080830151612b386080860182612abe565b508091505092915050565b60006020820190508181036000830152612b5d8184612acd565b905092915050565b612b6e8161254a565b8114612b7957600080fd5b50565b600081359050612b8b81612b65565b92915050565b60008060408385031215612ba857612ba76124bb565b5b6000612bb685828601612708565b9250506020612bc785828601612b7c565b9150509250929050565b600067ffffffffffffffff821115612bec57612beb61288a565b5b612bf5826125c6565b9050602081019050919050565b6000612c15612c1084612bd1565b6128ea565b905082815260208101848484011115612c3157612c30612885565b5b612c3c848285612936565b509392505050565b600082601f830112612c5957612c58612880565b5b8135612c69848260208601612c02565b91505092915050565b60008060008060808587031215612c8c57612c8b6124bb565b5b6000612c9a87828801612708565b9450506020612cab87828801612708565b9350506040612cbc87828801612653565b925050606085013567ffffffffffffffff811115612cdd57612cdc6124c0565b5b612ce987828801612c44565b91505092959194509250565b60008060408385031215612d0c57612d0b6124bb565b5b6000612d1a85828601612708565b9250506020612d2b85828601612708565b9150509250929050565b7f4e487b7100000000000000000000000000000000000000000000000000000000600052602260045260246000fd5b60006002820490506001821680612d7c57607f821691505b602082108103612d8f57612d8e612d35565b5b50919050565b7f4e487b7100000000000000000000000000000000000000000000000000000000600052601160045260246000fd5b6000612dcf82612632565b9150612dda83612632565b9250828201905080821115612df257612df1612d95565b5b92915050565b6000604082019050612e0d6000830185612856565b612e1a60208301846126c7565b9392505050565b6000606082019050612e3660008301866126c7565b612e436020830185612856565b612e5060408301846126c7565b949350505050565b6000606082019050612e6d6000830186612856565b612e7a6020830185612856565b612e876040830184612856565b949350505050565b6000612e9a82612632565b9150612ea583612632565b9250828203905081811115612ebd57612ebc612d95565b5b92915050565b600081905092915050565b50565b6000612ede600083612ec3565b9150612ee982612ece565b600082019050919050565b6000612eff82612ed1565b9150819050919050565b6000606082019050612f1e6000830186612856565b612f2b60208301856126c7565b612f386040830184612856565b949350505050565b60008190508160005260206000209050919050565b60006020601f8301049050919050565b600082821b905092915050565b600060088302612fa27fffffffffffffffffffffffffffffffffffffffffffffffffffffffffffffffff82612f65565b612fac8683612f65565b95508019841693508086168417925050509392505050565b6000819050919050565b6000612fe9612fe4612fdf84612632565b612fc4565b612632565b9050919050565b6000819050919050565b61300383612fce565b61301761300f82612ff0565b848454612f72565b825550505050565b600090565b61302c61301f565b613037818484612ffa565b505050565b5b8181101561305b57613050600082613024565b60018101905061303d565b5050565b601f8211156130a05761307181612f40565b61307a84612f55565b81016020851015613089578190505b61309d61309585612f55565b83018261303c565b50505b505050565b600082821c905092915050565b60006130c3600019846008026130a5565b1980831691505092915050565b60006130dc83836130b2565b9150826002028217905092915050565b6130f582612580565b67ffffffffffffffff81111561310e5761310d61288a565b5b6131188254612d64565b61312382828561305f565b600060209050601f8311600181146131565760008415613144578287015190505b61314e85826130d0565b8655506131b6565b601f19841661316486612f40565b60005b8281101561318c57848901518255600182019150602085019450602081019050613167565b868310156131a957848901516131a5601f8916826130b2565b8355505b6001600288020188555050505b505050505050565b600060a0820190506131d36000830188612856565b81810360208301526131e581876125d7565b90506131f460408301866126c7565b6132016060830185612856565b61320e6080830184612856565b9695505050505050565b600081905092915050565b600061322e82612580565b6132388185613218565b935061324881856020860161259c565b80840191505092915050565b60006132608285613223565b915061326c8284613223565b91508190509392505050565b600061328382612632565b91507fffffffffffffffffffffffffffffffffffffffffffffffffffffffffffffffff82036132b5576132b4612d95565b5b600182019050919050565b600081519050919050565b600082825260208201905092915050565b60006132e7826132c0565b6132f181856132cb565b935061330181856020860161259c565b61330a816125c6565b840191505092915050565b600060808201905061332a60008301876126c7565b61333760208301866126c7565b6133446040830185612856565b818103606083015261335681846132dc565b905095945050505050565b600081519050613370816124f1565b92915050565b60006020828403121561338c5761338b6124bb565b5b600061339a84828501613361565b91505092915050565b7f4e487b7100000000000000000000000000000000000000000000000000000000600052601260045260246000fd5b60006040820190506133e760008301856126c7565b6133f46020830184612856565b939250505056fea26469706673582212203d460a7fde7c1ed0c6b5208f2b1c73d09290c47afa95aecf5893e6500ac400e964736f6c63430008150033",
  "linkReferences": {},
  "deployedLinkReferences": {}
}