{
  "_format": "hh-sol-artifact-1",
  "contractName": "DebitCard",
  "sourceName": "contracts/Debit Card/DebitCard.sol",
  "abi": [
    {
      "inputs": [
        {
          "internalType": "string",
          "name": "name",
          "type": "string"
        },
        {
          "internalType": "string",
          "name": "symbol",
          "type": "string"
        },
        {
          "internalType": "address",
          "name": "initialOwner",
          "type": "address"
        }
      ],
      "stateMutability": "nonpayable",
      "type": "constructor"
    },
    {
      "inputs": [],
      "name": "CardExpired",
      "type": "error"
    },
    {
      "inputs": [],
      "name": "CardHasBeenDiscarded",
      "type": "error"
    },
    {
      "inputs": [],
      "name": "ERC721EnumerableForbiddenBatchMint",
      "type": "error"
    },
    {
      "inputs": [
        {
          "internalType": "address",
          "name": "sender",
          "type": "address"
        },
        {
          "internalType": "uint256",
          "name": "tokenId",
          "type": "uint256"
        },
        {
          "internalType": "address",
          "name": "owner",
          "type": "address"
        }
      ],
      "name": "ERC721IncorrectOwner",
      "type": "error"
    },
    {
      "inputs": [
        {
          "internalType": "address",
          "name": "operator",
          "type": "address"
        },
        {
          "internalType": "uint256",
          "name": "tokenId",
          "type": "uint256"
        }
      ],
      "name": "ERC721InsufficientApproval",
      "type": "error"
    },
    {
      "inputs": [
        {
          "internalType": "address",
          "name": "approver",
          "type": "address"
        }
      ],
      "name": "ERC721InvalidApprover",
      "type": "error"
    },
    {
      "inputs": [
        {
          "internalType": "address",
          "name": "operator",
          "type": "address"
        }
      ],
      "name": "ERC721InvalidOperator",
      "type": "error"
    },
    {
      "inputs": [
        {
          "internalType": "address",
          "name": "owner",
          "type": "address"
        }
      ],
      "name": "ERC721InvalidOwner",
      "type": "error"
    },
    {
      "inputs": [
        {
          "internalType": "address",
          "name": "receiver",
          "type": "address"
        }
      ],
      "name": "ERC721InvalidReceiver",
      "type": "error"
    },
    {
      "inputs": [
        {
          "internalType": "address",
          "name": "sender",
          "type": "address"
        }
      ],
      "name": "ERC721InvalidSender",
      "type": "error"
    },
    {
      "inputs": [
        {
          "internalType": "uint256",
          "name": "tokenId",
          "type": "uint256"
        }
      ],
      "name": "ERC721NonexistentToken",
      "type": "error"
    },
    {
      "inputs": [
        {
          "internalType": "address",
          "name": "owner",
          "type": "address"
        },
        {
          "internalType": "uint256",
          "name": "index",
          "type": "uint256"
        }
      ],
      "name": "ERC721OutOfBoundsIndex",
      "type": "error"
    },
    {
      "inputs": [],
      "name": "EnforcedPause",
      "type": "error"
    },
    {
      "inputs": [],
      "name": "ExpectedPause",
      "type": "error"
    },
    {
      "inputs": [],
      "name": "InsufficientCredit",
      "type": "error"
    },
    {
      "inputs": [],
      "name": "InsufficientPoolBalance",
      "type": "error"
    },
    {
      "inputs": [],
      "name": "NotAuthorized",
      "type": "error"
    },
    {
      "inputs": [
        {
          "internalType": "address",
          "name": "owner",
          "type": "address"
        }
      ],
      "name": "OwnableInvalidOwner",
      "type": "error"
    },
    {
      "inputs": [
        {
          "internalType": "address",
          "name": "account",
          "type": "address"
        }
      ],
      "name": "OwnableUnauthorizedAccount",
      "type": "error"
    },
    {
      "inputs": [],
      "name": "SendEnoughFunds",
      "type": "error"
    },
    {
      "inputs": [],
      "name": "TransferFailed",
      "type": "error"
    },
    {
      "inputs": [],
      "name": "ZeroAmountIssued",
      "type": "error"
    },
    {
      "anonymous": false,
      "inputs": [
        {
          "indexed": true,
          "internalType": "address",
          "name": "owner",
          "type": "address"
        },
        {
          "indexed": true,
          "internalType": "address",
          "name": "approved",
          "type": "address"
        },
        {
          "indexed": true,
          "internalType": "uint256",
          "name": "tokenId",
          "type": "uint256"
        }
      ],
      "name": "Approval",
      "type": "event"
    },
    {
      "anonymous": false,
      "inputs": [
        {
          "indexed": true,
          "internalType": "address",
          "name": "owner",
          "type": "address"
        },
        {
          "indexed": true,
          "internalType": "address",
          "name": "operator",
          "type": "address"
        },
        {
          "indexed": false,
          "internalType": "bool",
          "name": "approved",
          "type": "bool"
        }
      ],
      "name": "ApprovalForAll",
      "type": "event"
    },
    {
      "anonymous": false,
      "inputs": [
        {
          "indexed": false,
          "internalType": "uint256",
          "name": "tokenId",
          "type": "uint256"
        }
      ],
      "name": "CardDiscarded",
      "type": "event"
    },
    {
      "anonymous": false,
      "inputs": [
        {
          "indexed": false,
          "internalType": "uint256",
          "name": "tokenId",
          "type": "uint256"
        },
        {
          "indexed": false,
          "internalType": "string",
          "name": "cardName",
          "type": "string"
        },
        {
          "indexed": false,
          "internalType": "address",
          "name": "issuedTo",
          "type": "address"
        },
        {
          "indexed": false,
          "internalType": "uint256",
          "name": "amountIssued",
          "type": "uint256"
        },
        {
          "indexed": false,
          "internalType": "uint256",
          "name": "expirationTime",
          "type": "uint256"
        }
      ],
      "name": "CardIssued",
      "type": "event"
    },
    {
      "anonymous": false,
      "inputs": [
        {
          "indexed": false,
          "internalType": "uint256",
          "name": "tokenId",
          "type": "uint256"
        },
        {
          "indexed": false,
          "internalType": "uint256",
          "name": "additionalAmount",
          "type": "uint256"
        },
        {
          "indexed": false,
          "internalType": "uint256",
          "name": "newExpirationTime",
          "type": "uint256"
        }
      ],
      "name": "CardUpdated",
      "type": "event"
    },
    {
      "anonymous": false,
      "inputs": [],
      "name": "ContractPaused",
      "type": "event"
    },
    {
      "anonymous": false,
      "inputs": [],
      "name": "ContractUnpaused",
      "type": "event"
    },
    {
      "anonymous": false,
      "inputs": [
        {
          "indexed": false,
          "internalType": "uint256",
          "name": "amount",
          "type": "uint256"
        },
        {
          "indexed": false,
          "internalType": "address",
          "name": "addedBy",
          "type": "address"
        }
      ],
      "name": "FundsAddedToPool",
      "type": "event"
    },
    {
      "anonymous": false,
      "inputs": [
        {
          "indexed": false,
          "internalType": "uint256",
          "name": "tokenId",
          "type": "uint256"
        },
        {
          "indexed": false,
          "internalType": "address",
          "name": "recipient",
          "type": "address"
        },
        {
          "indexed": false,
          "internalType": "uint256",
          "name": "spendAmount",
          "type": "uint256"
        }
      ],
      "name": "FundsSpentFromCard",
      "type": "event"
    },
    {
      "anonymous": false,
      "inputs": [
        {
          "indexed": true,
          "internalType": "address",
          "name": "previousOwner",
          "type": "address"
        },
        {
          "indexed": true,
          "internalType": "address",
          "name": "newOwner",
          "type": "address"
        }
      ],
      "name": "OwnershipTransferred",
      "type": "event"
    },
    {
      "anonymous": false,
      "inputs": [
        {
          "indexed": false,
          "internalType": "address",
          "name": "account",
          "type": "address"
        }
      ],
      "name": "Paused",
      "type": "event"
    },
    {
      "anonymous": false,
      "inputs": [
        {
          "indexed": true,
          "internalType": "address",
          "name": "from",
          "type": "address"
        },
        {
          "indexed": true,
          "internalType": "address",
          "name": "to",
          "type": "address"
        },
        {
          "indexed": true,
          "internalType": "uint256",
          "name": "tokenId",
          "type": "uint256"
        }
      ],
      "name": "Transfer",
      "type": "event"
    },
    {
      "anonymous": false,
      "inputs": [
        {
          "indexed": false,
          "internalType": "address",
          "name": "account",
          "type": "address"
        }
      ],
      "name": "Unpaused",
      "type": "event"
    },
    {
      "inputs": [
        {
          "internalType": "uint256",
          "name": "amount",
          "type": "uint256"
        }
      ],
      "name": "addFundsToPool",
      "outputs": [],
      "stateMutability": "payable",
      "type": "function"
    },
    {
      "inputs": [
        {
          "internalType": "address",
          "name": "to",
          "type": "address"
        },
        {
          "internalType": "uint256",
          "name": "tokenId",
          "type": "uint256"
        }
      ],
      "name": "approve",
      "outputs": [],
      "stateMutability": "nonpayable",
      "type": "function"
    },
    {
      "inputs": [
        {
          "internalType": "address",
          "name": "owner",
          "type": "address"
        }
      ],
      "name": "balanceOf",
      "outputs": [
        {
          "internalType": "uint256",
          "name": "",
          "type": "uint256"
        }
      ],
      "stateMutability": "view",
      "type": "function"
    },
    {
      "inputs": [
        {
          "internalType": "uint256",
          "name": "tokenId",
          "type": "uint256"
        }
      ],
      "name": "discardCard",
      "outputs": [],
      "stateMutability": "nonpayable",
      "type": "function"
    },
    {
      "inputs": [
        {
          "internalType": "uint256",
          "name": "tokenId",
          "type": "uint256"
        }
      ],
      "name": "getApproved",
      "outputs": [
        {
          "internalType": "address",
          "name": "",
          "type": "address"
        }
      ],
      "stateMutability": "view",
      "type": "function"
    },
    {
      "inputs": [
        {
          "internalType": "uint256",
          "name": "tokenId",
          "type": "uint256"
        }
      ],
      "name": "getCardInfo",
      "outputs": [
        {
          "components": [
            {
              "internalType": "string",
              "name": "cardName",
              "type": "string"
            },
            {
              "internalType": "uint256",
              "name": "amountIssued",
              "type": "uint256"
            },
            {
              "internalType": "uint256",
              "name": "amountSpent",
              "type": "uint256"
            },
            {
              "internalType": "uint256",
              "name": "expirationTime",
              "type": "uint256"
            },
            {
              "internalType": "bool",
              "name": "hasBeenDiscarded",
              "type": "bool"
            }
          ],
          "internalType": "struct DebitCard.CardInfo",
          "name": "",
          "type": "tuple"
        }
      ],
      "stateMutability": "view",
      "type": "function"
    },
    {
      "inputs": [],
      "name": "getTotalSupply",
      "outputs": [
        {
          "internalType": "uint256",
          "name": "",
          "type": "uint256"
        }
      ],
      "stateMutability": "view",
      "type": "function"
    },
    {
      "inputs": [
        {
          "internalType": "address",
          "name": "owner",
          "type": "address"
        },
        {
          "internalType": "address",
          "name": "operator",
          "type": "address"
        }
      ],
      "name": "isApprovedForAll",
      "outputs": [
        {
          "internalType": "bool",
          "name": "",
          "type": "bool"
        }
      ],
      "stateMutability": "view",
      "type": "function"
    },
    {
      "inputs": [
        {
          "internalType": "string",
          "name": "name",
          "type": "string"
        },
        {
          "internalType": "address",
          "name": "to",
          "type": "address"
        },
        {
          "internalType": "uint256",
          "name": "amountIssued",
          "type": "uint256"
        },
        {
          "internalType": "uint256",
          "name": "expirationTime",
          "type": "uint256"
        }
      ],
      "name": "issueCard",
      "outputs": [],
      "stateMutability": "nonpayable",
      "type": "function"
    },
    {
      "inputs": [],
      "name": "name",
      "outputs": [
        {
          "internalType": "string",
          "name": "",
          "type": "string"
        }
      ],
      "stateMutability": "view",
      "type": "function"
    },
    {
      "inputs": [],
      "name": "owner",
      "outputs": [
        {
          "internalType": "address",
          "name": "",
          "type": "address"
        }
      ],
      "stateMutability": "view",
      "type": "function"
    },
    {
      "inputs": [
        {
          "internalType": "uint256",
          "name": "tokenId",
          "type": "uint256"
        }
      ],
      "name": "ownerOf",
      "outputs": [
        {
          "internalType": "address",
          "name": "",
          "type": "address"
        }
      ],
      "stateMutability": "view",
      "type": "function"
    },
    {
      "inputs": [],
      "name": "pause",
      "outputs": [],
      "stateMutability": "nonpayable",
      "type": "function"
    },
    {
      "inputs": [],
      "name": "paused",
      "outputs": [
        {
          "internalType": "bool",
          "name": "",
          "type": "bool"
        }
      ],
      "stateMutability": "view",
      "type": "function"
    },
    {
      "inputs": [],
      "name": "poolName",
      "outputs": [
        {
          "internalType": "string",
          "name": "",
          "type": "string"
        }
      ],
      "stateMutability": "view",
      "type": "function"
    },
    {
      "inputs": [],
      "name": "poolSize",
      "outputs": [
        {
          "internalType": "uint256",
          "name": "",
          "type": "uint256"
        }
      ],
      "stateMutability": "view",
      "type": "function"
    },
    {
      "inputs": [],
      "name": "renounceOwnership",
      "outputs": [],
      "stateMutability": "nonpayable",
      "type": "function"
    },
    {
      "inputs": [
        {
          "internalType": "address",
          "name": "from",
          "type": "address"
        },
        {
          "internalType": "address",
          "name": "to",
          "type": "address"
        },
        {
          "internalType": "uint256",
          "name": "tokenId",
          "type": "uint256"
        }
      ],
      "name": "safeTransferFrom",
      "outputs": [],
      "stateMutability": "nonpayable",
      "type": "function"
    },
    {
      "inputs": [
        {
          "internalType": "address",
          "name": "from",
          "type": "address"
        },
        {
          "internalType": "address",
          "name": "to",
          "type": "address"
        },
        {
          "internalType": "uint256",
          "name": "tokenId",
          "type": "uint256"
        },
        {
          "internalType": "bytes",
          "name": "data",
          "type": "bytes"
        }
      ],
      "name": "safeTransferFrom",
      "outputs": [],
      "stateMutability": "nonpayable",
      "type": "function"
    },
    {
      "inputs": [
        {
          "internalType": "address",
          "name": "operator",
          "type": "address"
        },
        {
          "internalType": "bool",
          "name": "approved",
          "type": "bool"
        }
      ],
      "name": "setApprovalForAll",
      "outputs": [],
      "stateMutability": "nonpayable",
      "type": "function"
    },
    {
      "inputs": [
        {
          "internalType": "uint256",
          "name": "tokenId",
          "type": "uint256"
        },
        {
          "internalType": "address",
          "name": "recipient",
          "type": "address"
        },
        {
          "internalType": "uint256",
          "name": "spendAmount",
          "type": "uint256"
        }
      ],
      "name": "spendFromCard",
      "outputs": [],
      "stateMutability": "nonpayable",
      "type": "function"
    },
    {
      "inputs": [
        {
          "internalType": "bytes4",
          "name": "interfaceId",
          "type": "bytes4"
        }
      ],
      "name": "supportsInterface",
      "outputs": [
        {
          "internalType": "bool",
          "name": "",
          "type": "bool"
        }
      ],
      "stateMutability": "view",
      "type": "function"
    },
    {
      "inputs": [],
      "name": "symbol",
      "outputs": [
        {
          "internalType": "string",
          "name": "",
          "type": "string"
        }
      ],
      "stateMutability": "view",
      "type": "function"
    },
    {
      "inputs": [
        {
          "internalType": "uint256",
          "name": "index",
          "type": "uint256"
        }
      ],
      "name": "tokenByIndex",
      "outputs": [
        {
          "internalType": "uint256",
          "name": "",
          "type": "uint256"
        }
      ],
      "stateMutability": "view",
      "type": "function"
    },
    {
      "inputs": [
        {
          "internalType": "address",
          "name": "owner",
          "type": "address"
        },
        {
          "internalType": "uint256",
          "name": "index",
          "type": "uint256"
        }
      ],
      "name": "tokenOfOwnerByIndex",
      "outputs": [
        {
          "internalType": "uint256",
          "name": "",
          "type": "uint256"
        }
      ],
      "stateMutability": "view",
      "type": "function"
    },
    {
      "inputs": [
        {
          "internalType": "uint256",
          "name": "tokenId",
          "type": "uint256"
        }
      ],
      "name": "tokenURI",
      "outputs": [
        {
          "internalType": "string",
          "name": "",
          "type": "string"
        }
      ],
      "stateMutability": "view",
      "type": "function"
    },
    {
      "inputs": [],
      "name": "totalSupply",
      "outputs": [
        {
          "internalType": "uint256",
          "name": "",
          "type": "uint256"
        }
      ],
      "stateMutability": "view",
      "type": "function"
    },
    {
      "inputs": [
        {
          "internalType": "address",
          "name": "from",
          "type": "address"
        },
        {
          "internalType": "address",
          "name": "to",
          "type": "address"
        },
        {
          "internalType": "uint256",
          "name": "tokenId",
          "type": "uint256"
        }
      ],
      "name": "transferFrom",
      "outputs": [],
      "stateMutability": "nonpayable",
      "type": "function"
    },
    {
      "inputs": [
        {
          "internalType": "address",
          "name": "newOwner",
          "type": "address"
        }
      ],
      "name": "transferOwnership",
      "outputs": [],
      "stateMutability": "nonpayable",
      "type": "function"
    },
    {
      "inputs": [],
      "name": "unpause",
      "outputs": [],
      "stateMutability": "nonpayable",
      "type": "function"
    },
    {
      "inputs": [
        {
          "internalType": "uint256",
          "name": "tokenId",
          "type": "uint256"
        },
        {
          "internalType": "uint256",
          "name": "additionalAmount",
          "type": "uint256"
        },
        {
          "internalType": "uint256",
          "name": "newExpirationTime",
          "type": "uint256"
        }
      ],
      "name": "updateCard",
      "outputs": [],
      "stateMutability": "nonpayable",
      "type": "function"
    }
  ],
  "bytecode": "0x60806040523480156200001157600080fd5b5060405162004343380380620043438339818101604052810190620000379190620003db565b80838381600090816200004b9190620006c0565b5080600190816200005d9190620006c0565b5050506000600a60006101000a81548160ff021916908315150217905550600073ffffffffffffffffffffffffffffffffffffffff168173ffffffffffffffffffffffffffffffffffffffff1603620000f05760006040517f1e4fbdf7000000000000000000000000000000000000000000000000000000008152600401620000e79190620007b8565b60405180910390fd5b62000101816200011d60201b60201c565b5082600d9081620001139190620006c0565b50505050620007d5565b6000600a60019054906101000a900473ffffffffffffffffffffffffffffffffffffffff16905081600a60016101000a81548173ffffffffffffffffffffffffffffffffffffffff021916908373ffffffffffffffffffffffffffffffffffffffff1602179055508173ffffffffffffffffffffffffffffffffffffffff168173ffffffffffffffffffffffffffffffffffffffff167f8be0079c531659141344cd1fd0a4f28419497f9722a3daafe3b4186f6b6457e060405160405180910390a35050565b6000604051905090565b600080fd5b600080fd5b600080fd5b600080fd5b6000601f19601f8301169050919050565b7f4e487b7100000000000000000000000000000000000000000000000000000000600052604160045260246000fd5b6200024c8262000201565b810181811067ffffffffffffffff821117156200026e576200026d62000212565b5b80604052505050565b600062000283620001e3565b905062000291828262000241565b919050565b600067ffffffffffffffff821115620002b457620002b362000212565b5b620002bf8262000201565b9050602081019050919050565b60005b83811015620002ec578082015181840152602081019050620002cf565b60008484015250505050565b60006200030f620003098462000296565b62000277565b9050828152602081018484840111156200032e576200032d620001fc565b5b6200033b848285620002cc565b509392505050565b600082601f8301126200035b576200035a620001f7565b5b81516200036d848260208601620002f8565b91505092915050565b600073ffffffffffffffffffffffffffffffffffffffff82169050919050565b6000620003a38262000376565b9050919050565b620003b58162000396565b8114620003c157600080fd5b50565b600081519050620003d581620003aa565b92915050565b600080600060608486031215620003f757620003f6620001ed565b5b600084015167ffffffffffffffff811115620004185762000417620001f2565b5b620004268682870162000343565b935050602084015167ffffffffffffffff8111156200044a5762000449620001f2565b5b620004588682870162000343565b92505060406200046b86828701620003c4565b9150509250925092565b600081519050919050565b7f4e487b7100000000000000000000000000000000000000000000000000000000600052602260045260246000fd5b60006002820490506001821680620004c857607f821691505b602082108103620004de57620004dd62000480565b5b50919050565b60008190508160005260206000209050919050565b60006020601f8301049050919050565b600082821b905092915050565b600060088302620005487fffffffffffffffffffffffffffffffffffffffffffffffffffffffffffffffff8262000509565b62000554868362000509565b95508019841693508086168417925050509392505050565b6000819050919050565b6000819050919050565b6000620005a16200059b62000595846200056c565b62000576565b6200056c565b9050919050565b6000819050919050565b620005bd8362000580565b620005d5620005cc82620005a8565b84845462000516565b825550505050565b600090565b620005ec620005dd565b620005f9818484620005b2565b505050565b5b81811015620006215762000615600082620005e2565b600181019050620005ff565b5050565b601f82111562000670576200063a81620004e4565b6200064584620004f9565b8101602085101562000655578190505b6200066d6200066485620004f9565b830182620005fe565b50505b505050565b600082821c905092915050565b6000620006956000198460080262000675565b1980831691505092915050565b6000620006b0838362000682565b9150826002028217905092915050565b620006cb8262000475565b67ffffffffffffffff811115620006e757620006e662000212565b5b620006f38254620004af565b6200070082828562000625565b600060209050601f83116001811462000738576000841562000723578287015190505b6200072f8582620006a2565b8655506200079f565b601f1984166200074886620004e4565b60005b8281101562000772578489015182556001820191506020850194506020810190506200074b565b868310156200079257848901516200078e601f89168262000682565b8355505b6001600288020188555050505b505050505050565b620007b28162000396565b82525050565b6000602082019050620007cf6000830184620007a7565b92915050565b613b5e80620007e56000396000f3fe6080604052600436106101d85760003560e01c80635c975abb11610102578063970129be11610095578063c87b56dd11610064578063c87b56dd14610687578063e985e9c5146106c4578063f2fde38b14610701578063f3466dfa1461072a576101d8565b8063970129be146105cd578063a22cb4651461060a578063b88d4fde14610633578063c4e41b221461065c576101d8565b8063715018a6116100d1578063715018a6146105495780638456cb59146105605780638da5cb5b1461057757806395d89b41146105a2576101d8565b80635c975abb1461047b5780636352211e146104a6578063668c745d146104e357806370a082311461050c576101d8565b806323b872dd1161017a57806342842e0e1161014957806342842e0e146103c15780634466f18b146103ea5780634ec18db9146104135780634f6ccce71461043e576101d8565b806323b872dd1461031b57806326ab7b34146103445780632f745c591461036d5780633f4ba83a146103aa576101d8565b8063095ea7b3116101b6578063095ea7b3146102825780630c2250e5146102ab57806318160ddd146102d457806321fcb0dd146102ff576101d8565b806301ffc9a7146101dd57806306fdde031461021a578063081812fc14610245575b600080fd5b3480156101e957600080fd5b5061020460048036038101906101ff9190612bec565b610755565b6040516102119190612c34565b60405180910390f35b34801561022657600080fd5b5061022f610767565b60405161023c9190612cdf565b60405180910390f35b34801561025157600080fd5b5061026c60048036038101906102679190612d37565b6107f9565b6040516102799190612da5565b60405180910390f35b34801561028e57600080fd5b506102a960048036038101906102a49190612dec565b610815565b005b3480156102b757600080fd5b506102d260048036038101906102cd9190612d37565b61082b565b005b3480156102e057600080fd5b506102e96108a2565b6040516102f69190612e3b565b60405180910390f35b61031960048036038101906103149190612d37565b6108af565b005b34801561032757600080fd5b50610342600480360381019061033d9190612e56565b610945565b005b34801561035057600080fd5b5061036b60048036038101906103669190612ea9565b610a47565b005b34801561037957600080fd5b50610394600480360381019061038f9190612dec565b610acb565b6040516103a19190612e3b565b60405180910390f35b3480156103b657600080fd5b506103bf610b74565b005b3480156103cd57600080fd5b506103e860048036038101906103e39190612e56565b610bb2565b005b3480156103f657600080fd5b50610411600480360381019061040c9190612efc565b610bd2565b005b34801561041f57600080fd5b50610428610eb0565b6040516104359190612e3b565b60405180910390f35b34801561044a57600080fd5b5061046560048036038101906104609190612d37565b610eb6565b6040516104729190612e3b565b60405180910390f35b34801561048757600080fd5b50610490610f2c565b60405161049d9190612c34565b60405180910390f35b3480156104b257600080fd5b506104cd60048036038101906104c89190612d37565b610f43565b6040516104da9190612da5565b60405180910390f35b3480156104ef57600080fd5b5061050a60048036038101906105059190613084565b610f55565b005b34801561051857600080fd5b50610533600480360381019061052e9190613107565b61104b565b6040516105409190612e3b565b60405180910390f35b34801561055557600080fd5b5061055e611105565b005b34801561056c57600080fd5b50610575611119565b005b34801561058357600080fd5b5061058c611157565b6040516105999190612da5565b60405180910390f35b3480156105ae57600080fd5b506105b7611181565b6040516105c49190612cdf565b60405180910390f35b3480156105d957600080fd5b506105f460048036038101906105ef9190612d37565b611213565b6040516106019190613212565b60405180910390f35b34801561061657600080fd5b50610631600480360381019061062c9190613260565b61130b565b005b34801561063f57600080fd5b5061065a60048036038101906106559190613341565b611321565b005b34801561066857600080fd5b5061067161133e565b60405161067e9190612e3b565b60405180910390f35b34801561069357600080fd5b506106ae60048036038101906106a99190612d37565b61134d565b6040516106bb9190612cdf565b60405180910390f35b3480156106d057600080fd5b506106eb60048036038101906106e691906133c4565b6113b6565b6040516106f89190612c34565b60405180910390f35b34801561070d57600080fd5b5061072860048036038101906107239190613107565b61144a565b005b34801561073657600080fd5b5061073f6114d0565b60405161074c9190612cdf565b60405180910390f35b60006107608261155e565b9050919050565b60606000805461077690613433565b80601f01602080910402602001604051908101604052809291908181526020018280546107a290613433565b80156107ef5780601f106107c4576101008083540402835291602001916107ef565b820191906000526020600020905b8154815290600101906020018083116107d257829003601f168201915b5050505050905090565b6000610804826115d8565b5061080e82611660565b9050919050565b610827828261082261169d565b6116a5565b5050565b6108336116b7565b6000600e6000838152602001908152602001600020905060018160040160006101000a81548160ff0219169083151502179055507f5e718c7871bfd8857599af41b40f69b6a7406960840c986fc47338eba8808b85826040516108969190612e3b565b60405180910390a15050565b6000600880549050905090565b6108b76116b7565b3481146108f0576040517ff9db597800000000000000000000000000000000000000000000000000000000815260040160405180910390fd5b80600c60008282546109029190613493565b925050819055507fdd9502f23468ca95d8409f0a29a3d85ccd00929e542794b33dfbd69a7eab563f813360405161093a9291906134c7565b60405180910390a150565b600073ffffffffffffffffffffffffffffffffffffffff168273ffffffffffffffffffffffffffffffffffffffff16036109b75760006040517f64a0ae920000000000000000000000000000000000000000000000000000000081526004016109ae9190612da5565b60405180910390fd5b60006109cb83836109c661169d565b61173e565b90508373ffffffffffffffffffffffffffffffffffffffff168173ffffffffffffffffffffffffffffffffffffffff1614610a41578382826040517f64283d7b000000000000000000000000000000000000000000000000000000008152600401610a38939291906134f0565b60405180910390fd5b50505050565b610a4f6116b7565b6000600e6000858152602001908152602001600020905082816001016000828254610a7a9190613493565b925050819055508181600301819055507f748cfa0f8261f0b8cac61804f8a85ca562c08c1befbf32bbd6dfe03960d29e0f848484604051610abd93929190613527565b60405180910390a150505050565b6000610ad68361104b565b8210610b1b5782826040517fa57d13dc000000000000000000000000000000000000000000000000000000008152600401610b1292919061355e565b60405180910390fd5b600660008473ffffffffffffffffffffffffffffffffffffffff1673ffffffffffffffffffffffffffffffffffffffff168152602001908152602001600020600083815260200190815260200160002054905092915050565b610b7c6116b7565b610b84611754565b7f0e5e3b3fb504c22cf5c42fa07d521225937514c654007e1f12646f89768d6f9460405160405180910390a1565b610bcd83838360405180602001604052806000815250611321565b505050565b610bda6117b7565b6000600e600085815260200190815260200160002090503373ffffffffffffffffffffffffffffffffffffffff16610c1185610f43565b73ffffffffffffffffffffffffffffffffffffffff1614610c5e576040517fea8e4eb500000000000000000000000000000000000000000000000000000000815260040160405180910390fd5b8060030154421115610c9c576040517fa21660f000000000000000000000000000000000000000000000000000000000815260040160405180910390fd5b600115158160040160009054906101000a900460ff16151503610ceb576040517f9ae33a2600000000000000000000000000000000000000000000000000000000815260040160405180910390fd5b6000816001015403610d29576040517f690a407600000000000000000000000000000000000000000000000000000000815260040160405180910390fd5b8181600201548260010154610d3e9190613587565b1015610d76576040517f8ac4bc7300000000000000000000000000000000000000000000000000000000815260040160405180910390fd5b81471015610db0576040517fbc6072f100000000000000000000000000000000000000000000000000000000815260040160405180910390fd5b81816002016000828254610dc49190613493565b9250508190555060008373ffffffffffffffffffffffffffffffffffffffff1683604051610df1906135ec565b60006040518083038185875af1925050503d8060008114610e2e576040519150601f19603f3d011682016040523d82523d6000602084013e610e33565b606091505b5050905080610e6e576040517f90b8ec1800000000000000000000000000000000000000000000000000000000815260040160405180910390fd5b7f7e3c238356c8eb6519c01391fd819024a54e7219735fda1b58ecbf6f6335e301858585604051610ea193929190613601565b60405180910390a15050505050565b600c5481565b6000610ec06108a2565b8210610f06576000826040517fa57d13dc000000000000000000000000000000000000000000000000000000008152600401610efd92919061355e565b60405180910390fd5b60088281548110610f1a57610f19613638565b5b90600052602060002001549050919050565b6000600a60009054906101000a900460ff16905090565b6000610f4e826115d8565b9050919050565b610f5d6116b7565b6000610f68846117f8565b905060006040518060a001604052808781526020018581526020016000815260200184815260200160001515815250905080600e60008481526020019081526020016000206000820151816000019081610fc29190613813565b5060208201518160010155604082015181600201556060820151816003015560808201518160040160006101000a81548160ff0219169083151502179055509050507fbffd54593e1ce21bc0cf8a13206ba0358211dd80b29f9b09553c673c6519c97c828787878760405161103b9594939291906138e5565b60405180910390a1505050505050565b60008073ffffffffffffffffffffffffffffffffffffffff168273ffffffffffffffffffffffffffffffffffffffff16036110be5760006040517f89c62b640000000000000000000000000000000000000000000000000000000081526004016110b59190612da5565b60405180910390fd5b600360008373ffffffffffffffffffffffffffffffffffffffff1673ffffffffffffffffffffffffffffffffffffffff168152602001908152602001600020549050919050565b61110d6116b7565b6111176000611827565b565b6111216116b7565b6111296118ed565b7fab35696f06e428ebc5ceba8cd17f8fed287baf43440206d1943af1ee53e6d26760405160405180910390a1565b6000600a60019054906101000a900473ffffffffffffffffffffffffffffffffffffffff16905090565b60606001805461119090613433565b80601f01602080910402602001604051908101604052809291908181526020018280546111bc90613433565b80156112095780601f106111de57610100808354040283529160200191611209565b820191906000526020600020905b8154815290600101906020018083116111ec57829003601f168201915b5050505050905090565b61121b612b4f565b600e60008381526020019081526020016000206040518060a001604052908160008201805461124990613433565b80601f016020809104026020016040519081016040528092919081815260200182805461127590613433565b80156112c25780601f10611297576101008083540402835291602001916112c2565b820191906000526020600020905b8154815290600101906020018083116112a557829003601f168201915b505050505081526020016001820154815260200160028201548152602001600382015481526020016004820160009054906101000a900460ff1615151515815250509050919050565b61131d61131661169d565b8383611950565b5050565b61132c848484610945565b61133884848484611abf565b50505050565b60006113486108a2565b905090565b6060611358826115d8565b506000611363611c76565b9050600081511161138357604051806020016040528060008152506113ae565b8061138d84611c8d565b60405160200161139e92919061397b565b6040516020818303038152906040525b915050919050565b6000600560008473ffffffffffffffffffffffffffffffffffffffff1673ffffffffffffffffffffffffffffffffffffffff16815260200190815260200160002060008373ffffffffffffffffffffffffffffffffffffffff1673ffffffffffffffffffffffffffffffffffffffff16815260200190815260200160002060009054906101000a900460ff16905092915050565b6114526116b7565b600073ffffffffffffffffffffffffffffffffffffffff168173ffffffffffffffffffffffffffffffffffffffff16036114c45760006040517f1e4fbdf70000000000000000000000000000000000000000000000000000000081526004016114bb9190612da5565b60405180910390fd5b6114cd81611827565b50565b600d80546114dd90613433565b80601f016020809104026020016040519081016040528092919081815260200182805461150990613433565b80156115565780601f1061152b57610100808354040283529160200191611556565b820191906000526020600020905b81548152906001019060200180831161153957829003601f168201915b505050505081565b60007f780e9d63000000000000000000000000000000000000000000000000000000007bffffffffffffffffffffffffffffffffffffffffffffffffffffffff1916827bffffffffffffffffffffffffffffffffffffffffffffffffffffffff191614806115d157506115d082611d5b565b5b9050919050565b6000806115e483611e3d565b9050600073ffffffffffffffffffffffffffffffffffffffff168173ffffffffffffffffffffffffffffffffffffffff160361165757826040517f7e27328900000000000000000000000000000000000000000000000000000000815260040161164e9190612e3b565b60405180910390fd5b80915050919050565b60006004600083815260200190815260200160002060009054906101000a900473ffffffffffffffffffffffffffffffffffffffff169050919050565b600033905090565b6116b28383836001611e7a565b505050565b6116bf61169d565b73ffffffffffffffffffffffffffffffffffffffff166116dd611157565b73ffffffffffffffffffffffffffffffffffffffff161461173c5761170061169d565b6040517f118cdaa70000000000000000000000000000000000000000000000000000000081526004016117339190612da5565b60405180910390fd5b565b600061174b84848461203f565b90509392505050565b61175c61205d565b6000600a60006101000a81548160ff0219169083151502179055507f5db9ee0a495bf2e6ff9c91a7834c1ba4fdd244a5e8aa4e537bd38aeae4b073aa6117a061169d565b6040516117ad9190612da5565b60405180910390a1565b6117bf610f2c565b156117f6576040517fd93c066500000000000000000000000000000000000000000000000000000000815260040160405180910390fd5b565b600080600b600081548092919061180e9061399f565b91905055905061181e838261209d565b80915050919050565b6000600a60019054906101000a900473ffffffffffffffffffffffffffffffffffffffff16905081600a60016101000a81548173ffffffffffffffffffffffffffffffffffffffff021916908373ffffffffffffffffffffffffffffffffffffffff1602179055508173ffffffffffffffffffffffffffffffffffffffff168173ffffffffffffffffffffffffffffffffffffffff167f8be0079c531659141344cd1fd0a4f28419497f9722a3daafe3b4186f6b6457e060405160405180910390a35050565b6118f56117b7565b6001600a60006101000a81548160ff0219169083151502179055507f62e78cea01bee320cd4e420270b5ea74000d11b0c9f74754ebdbfc544b05a25861193961169d565b6040516119469190612da5565b60405180910390a1565b600073ffffffffffffffffffffffffffffffffffffffff168273ffffffffffffffffffffffffffffffffffffffff16036119c157816040517f5b08ba180000000000000000000000000000000000000000000000000000000081526004016119b89190612da5565b60405180910390fd5b80600560008573ffffffffffffffffffffffffffffffffffffffff1673ffffffffffffffffffffffffffffffffffffffff16815260200190815260200160002060008473ffffffffffffffffffffffffffffffffffffffff1673ffffffffffffffffffffffffffffffffffffffff16815260200190815260200160002060006101000a81548160ff0219169083151502179055508173ffffffffffffffffffffffffffffffffffffffff168373ffffffffffffffffffffffffffffffffffffffff167f17307eab39ab6107e8899845ad3d59bd9653f200f220920489ca2b5937696c3183604051611ab29190612c34565b60405180910390a3505050565b60008373ffffffffffffffffffffffffffffffffffffffff163b1115611c70578273ffffffffffffffffffffffffffffffffffffffff1663150b7a02611b0361169d565b8685856040518563ffffffff1660e01b8152600401611b259493929190613a3c565b6020604051808303816000875af1925050508015611b6157506040513d601f19601f82011682018060405250810190611b5e9190613a9d565b60015b611be5573d8060008114611b91576040519150601f19603f3d011682016040523d82523d6000602084013e611b96565b606091505b506000815103611bdd57836040517f64a0ae92000000000000000000000000000000000000000000000000000000008152600401611bd49190612da5565b60405180910390fd5b805181602001fd5b63150b7a0260e01b7bffffffffffffffffffffffffffffffffffffffffffffffffffffffff1916817bffffffffffffffffffffffffffffffffffffffffffffffffffffffff191614611c6e57836040517f64a0ae92000000000000000000000000000000000000000000000000000000008152600401611c659190612da5565b60405180910390fd5b505b50505050565b606060405180602001604052806000815250905090565b606060006001611c9c846120bb565b01905060008167ffffffffffffffff811115611cbb57611cba612f59565b5b6040519080825280601f01601f191660200182016040528015611ced5781602001600182028036833780820191505090505b509050600082602001820190505b600115611d50578080600190039150507f3031323334353637383961626364656600000000000000000000000000000000600a86061a8153600a8581611d4457611d43613aca565b5b04945060008503611cfb575b819350505050919050565b60007f80ac58cd000000000000000000000000000000000000000000000000000000007bffffffffffffffffffffffffffffffffffffffffffffffffffffffff1916827bffffffffffffffffffffffffffffffffffffffffffffffffffffffff19161480611e2657507f5b5e139f000000000000000000000000000000000000000000000000000000007bffffffffffffffffffffffffffffffffffffffffffffffffffffffff1916827bffffffffffffffffffffffffffffffffffffffffffffffffffffffff1916145b80611e365750611e358261220e565b5b9050919050565b60006002600083815260200190815260200160002060009054906101000a900473ffffffffffffffffffffffffffffffffffffffff169050919050565b8080611eb35750600073ffffffffffffffffffffffffffffffffffffffff168273ffffffffffffffffffffffffffffffffffffffff1614155b15611fe7576000611ec3846115d8565b9050600073ffffffffffffffffffffffffffffffffffffffff168373ffffffffffffffffffffffffffffffffffffffff1614158015611f2e57508273ffffffffffffffffffffffffffffffffffffffff168173ffffffffffffffffffffffffffffffffffffffff1614155b8015611f415750611f3f81846113b6565b155b15611f8357826040517fa9fbf51f000000000000000000000000000000000000000000000000000000008152600401611f7a9190612da5565b60405180910390fd5b8115611fe557838573ffffffffffffffffffffffffffffffffffffffff168273ffffffffffffffffffffffffffffffffffffffff167f8c5be1e5ebec7d5bd14f71427d1e84f3dd0314c0f7b2291e5b200ac8c7c3b92560405160405180910390a45b505b836004600085815260200190815260200160002060006101000a81548173ffffffffffffffffffffffffffffffffffffffff021916908373ffffffffffffffffffffffffffffffffffffffff16021790555050505050565b60006120496117b7565b612054848484612278565b90509392505050565b612065610f2c565b61209b576040517f8dfc202b00000000000000000000000000000000000000000000000000000000815260040160405180910390fd5b565b6120b7828260405180602001604052806000815250612395565b5050565b600080600090507a184f03e93ff9f4daa797ed6e38ed64bf6a1f0100000000000000008310612119577a184f03e93ff9f4daa797ed6e38ed64bf6a1f010000000000000000838161210f5761210e613aca565b5b0492506040810190505b6d04ee2d6d415b85acef81000000008310612156576d04ee2d6d415b85acef8100000000838161214c5761214b613aca565b5b0492506020810190505b662386f26fc10000831061218557662386f26fc10000838161217b5761217a613aca565b5b0492506010810190505b6305f5e10083106121ae576305f5e10083816121a4576121a3613aca565b5b0492506008810190505b61271083106121d35761271083816121c9576121c8613aca565b5b0492506004810190505b606483106121f657606483816121ec576121eb613aca565b5b0492506002810190505b600a8310612205576001810190505b80915050919050565b60007f01ffc9a7000000000000000000000000000000000000000000000000000000007bffffffffffffffffffffffffffffffffffffffffffffffffffffffff1916827bffffffffffffffffffffffffffffffffffffffffffffffffffffffff1916149050919050565b6000806122868585856123b1565b9050600073ffffffffffffffffffffffffffffffffffffffff168173ffffffffffffffffffffffffffffffffffffffff16036122ca576122c5846125cb565b612309565b8473ffffffffffffffffffffffffffffffffffffffff168173ffffffffffffffffffffffffffffffffffffffff1614612308576123078185612614565b5b5b600073ffffffffffffffffffffffffffffffffffffffff168573ffffffffffffffffffffffffffffffffffffffff160361234b5761234684612775565b61238a565b8473ffffffffffffffffffffffffffffffffffffffff168173ffffffffffffffffffffffffffffffffffffffff1614612389576123888585612846565b5b5b809150509392505050565b61239f83836128d1565b6123ac6000848484611abf565b505050565b6000806123bd84611e3d565b9050600073ffffffffffffffffffffffffffffffffffffffff168373ffffffffffffffffffffffffffffffffffffffff16146123ff576123fe8184866129ca565b5b600073ffffffffffffffffffffffffffffffffffffffff168173ffffffffffffffffffffffffffffffffffffffff161461249057612441600085600080611e7a565b6001600360008373ffffffffffffffffffffffffffffffffffffffff1673ffffffffffffffffffffffffffffffffffffffff168152602001908152602001600020600082825403925050819055505b600073ffffffffffffffffffffffffffffffffffffffff168573ffffffffffffffffffffffffffffffffffffffff1614612513576001600360008773ffffffffffffffffffffffffffffffffffffffff1673ffffffffffffffffffffffffffffffffffffffff168152602001908152602001600020600082825401925050819055505b846002600086815260200190815260200160002060006101000a81548173ffffffffffffffffffffffffffffffffffffffff021916908373ffffffffffffffffffffffffffffffffffffffff160217905550838573ffffffffffffffffffffffffffffffffffffffff168273ffffffffffffffffffffffffffffffffffffffff167fddf252ad1be2c89b69c2b068fc378daa952ba7f163c4a11628f55a4df523b3ef60405160405180910390a4809150509392505050565b6008805490506009600083815260200190815260200160002081905550600881908060018154018082558091505060019003906000526020600020016000909190919091505550565b600061261f8361104b565b9050600060076000848152602001908152602001600020549050818114612704576000600660008673ffffffffffffffffffffffffffffffffffffffff1673ffffffffffffffffffffffffffffffffffffffff168152602001908152602001600020600084815260200190815260200160002054905080600660008773ffffffffffffffffffffffffffffffffffffffff1673ffffffffffffffffffffffffffffffffffffffff168152602001908152602001600020600084815260200190815260200160002081905550816007600083815260200190815260200160002081905550505b6007600084815260200190815260200160002060009055600660008573ffffffffffffffffffffffffffffffffffffffff1673ffffffffffffffffffffffffffffffffffffffff16815260200190815260200160002060008381526020019081526020016000206000905550505050565b600060016008805490506127899190613587565b90506000600960008481526020019081526020016000205490506000600883815481106127b9576127b8613638565b5b9060005260206000200154905080600883815481106127db576127da613638565b5b90600052602060002001819055508160096000838152602001908152602001600020819055506009600085815260200190815260200160002060009055600880548061282a57612829613af9565b5b6001900381819060005260206000200160009055905550505050565b600060016128538461104b565b61285d9190613587565b905081600660008573ffffffffffffffffffffffffffffffffffffffff1673ffffffffffffffffffffffffffffffffffffffff168152602001908152602001600020600083815260200190815260200160002081905550806007600084815260200190815260200160002081905550505050565b600073ffffffffffffffffffffffffffffffffffffffff168273ffffffffffffffffffffffffffffffffffffffff16036129435760006040517f64a0ae9200000000000000000000000000000000000000000000000000000000815260040161293a9190612da5565b60405180910390fd5b60006129518383600061173e565b9050600073ffffffffffffffffffffffffffffffffffffffff168173ffffffffffffffffffffffffffffffffffffffff16146129c55760006040517f73c6ac6e0000000000000000000000000000000000000000000000000000000081526004016129bc9190612da5565b60405180910390fd5b505050565b6129d5838383612a8e565b612a8957600073ffffffffffffffffffffffffffffffffffffffff168373ffffffffffffffffffffffffffffffffffffffff1603612a4a57806040517f7e273289000000000000000000000000000000000000000000000000000000008152600401612a419190612e3b565b60405180910390fd5b81816040517f177e802f000000000000000000000000000000000000000000000000000000008152600401612a8092919061355e565b60405180910390fd5b505050565b60008073ffffffffffffffffffffffffffffffffffffffff168373ffffffffffffffffffffffffffffffffffffffff1614158015612b4657508273ffffffffffffffffffffffffffffffffffffffff168473ffffffffffffffffffffffffffffffffffffffff161480612b075750612b0684846113b6565b5b80612b4557508273ffffffffffffffffffffffffffffffffffffffff16612b2d83611660565b73ffffffffffffffffffffffffffffffffffffffff16145b5b90509392505050565b6040518060a00160405280606081526020016000815260200160008152602001600081526020016000151581525090565b6000604051905090565b600080fd5b600080fd5b60007fffffffff0000000000000000000000000000000000000000000000000000000082169050919050565b612bc981612b94565b8114612bd457600080fd5b50565b600081359050612be681612bc0565b92915050565b600060208284031215612c0257612c01612b8a565b5b6000612c1084828501612bd7565b91505092915050565b60008115159050919050565b612c2e81612c19565b82525050565b6000602082019050612c496000830184612c25565b92915050565b600081519050919050565b600082825260208201905092915050565b60005b83811015612c89578082015181840152602081019050612c6e565b60008484015250505050565b6000601f19601f8301169050919050565b6000612cb182612c4f565b612cbb8185612c5a565b9350612ccb818560208601612c6b565b612cd481612c95565b840191505092915050565b60006020820190508181036000830152612cf98184612ca6565b905092915050565b6000819050919050565b612d1481612d01565b8114612d1f57600080fd5b50565b600081359050612d3181612d0b565b92915050565b600060208284031215612d4d57612d4c612b8a565b5b6000612d5b84828501612d22565b91505092915050565b600073ffffffffffffffffffffffffffffffffffffffff82169050919050565b6000612d8f82612d64565b9050919050565b612d9f81612d84565b82525050565b6000602082019050612dba6000830184612d96565b92915050565b612dc981612d84565b8114612dd457600080fd5b50565b600081359050612de681612dc0565b92915050565b60008060408385031215612e0357612e02612b8a565b5b6000612e1185828601612dd7565b9250506020612e2285828601612d22565b9150509250929050565b612e3581612d01565b82525050565b6000602082019050612e506000830184612e2c565b92915050565b600080600060608486031215612e6f57612e6e612b8a565b5b6000612e7d86828701612dd7565b9350506020612e8e86828701612dd7565b9250506040612e9f86828701612d22565b9150509250925092565b600080600060608486031215612ec257612ec1612b8a565b5b6000612ed086828701612d22565b9350506020612ee186828701612d22565b9250506040612ef286828701612d22565b9150509250925092565b600080600060608486031215612f1557612f14612b8a565b5b6000612f2386828701612d22565b9350506020612f3486828701612dd7565b9250506040612f4586828701612d22565b9150509250925092565b600080fd5b600080fd5b7f4e487b7100000000000000000000000000000000000000000000000000000000600052604160045260246000fd5b612f9182612c95565b810181811067ffffffffffffffff82111715612fb057612faf612f59565b5b80604052505050565b6000612fc3612b80565b9050612fcf8282612f88565b919050565b600067ffffffffffffffff821115612fef57612fee612f59565b5b612ff882612c95565b9050602081019050919050565b82818337600083830152505050565b600061302761302284612fd4565b612fb9565b90508281526020810184848401111561304357613042612f54565b5b61304e848285613005565b509392505050565b600082601f83011261306b5761306a612f4f565b5b813561307b848260208601613014565b91505092915050565b6000806000806080858703121561309e5761309d612b8a565b5b600085013567ffffffffffffffff8111156130bc576130bb612b8f565b5b6130c887828801613056565b94505060206130d987828801612dd7565b93505060406130ea87828801612d22565b92505060606130fb87828801612d22565b91505092959194509250565b60006020828403121561311d5761311c612b8a565b5b600061312b84828501612dd7565b91505092915050565b600082825260208201905092915050565b600061315082612c4f565b61315a8185613134565b935061316a818560208601612c6b565b61317381612c95565b840191505092915050565b61318781612d01565b82525050565b61319681612c19565b82525050565b600060a08301600083015184820360008601526131b98282613145565b91505060208301516131ce602086018261317e565b5060408301516131e1604086018261317e565b5060608301516131f4606086018261317e565b506080830151613207608086018261318d565b508091505092915050565b6000602082019050818103600083015261322c818461319c565b905092915050565b61323d81612c19565b811461324857600080fd5b50565b60008135905061325a81613234565b92915050565b6000806040838503121561327757613276612b8a565b5b600061328585828601612dd7565b92505060206132968582860161324b565b9150509250929050565b600067ffffffffffffffff8211156132bb576132ba612f59565b5b6132c482612c95565b9050602081019050919050565b60006132e46132df846132a0565b612fb9565b905082815260208101848484011115613300576132ff612f54565b5b61330b848285613005565b509392505050565b600082601f83011261332857613327612f4f565b5b81356133388482602086016132d1565b91505092915050565b6000806000806080858703121561335b5761335a612b8a565b5b600061336987828801612dd7565b945050602061337a87828801612dd7565b935050604061338b87828801612d22565b925050606085013567ffffffffffffffff8111156133ac576133ab612b8f565b5b6133b887828801613313565b91505092959194509250565b600080604083850312156133db576133da612b8a565b5b60006133e985828601612dd7565b92505060206133fa85828601612dd7565b9150509250929050565b7f4e487b7100000000000000000000000000000000000000000000000000000000600052602260045260246000fd5b6000600282049050600182168061344b57607f821691505b60208210810361345e5761345d613404565b5b50919050565b7f4e487b7100000000000000000000000000000000000000000000000000000000600052601160045260246000fd5b600061349e82612d01565b91506134a983612d01565b92508282019050808211156134c1576134c0613464565b5b92915050565b60006040820190506134dc6000830185612e2c565b6134e96020830184612d96565b9392505050565b60006060820190506135056000830186612d96565b6135126020830185612e2c565b61351f6040830184612d96565b949350505050565b600060608201905061353c6000830186612e2c565b6135496020830185612e2c565b6135566040830184612e2c565b949350505050565b60006040820190506135736000830185612d96565b6135806020830184612e2c565b9392505050565b600061359282612d01565b915061359d83612d01565b92508282039050818111156135b5576135b4613464565b5b92915050565b600081905092915050565b50565b60006135d66000836135bb565b91506135e1826135c6565b600082019050919050565b60006135f7826135c9565b9150819050919050565b60006060820190506136166000830186612e2c565b6136236020830185612d96565b6136306040830184612e2c565b949350505050565b7f4e487b7100000000000000000000000000000000000000000000000000000000600052603260045260246000fd5b60008190508160005260206000209050919050565b60006020601f8301049050919050565b600082821b905092915050565b6000600883026136c97fffffffffffffffffffffffffffffffffffffffffffffffffffffffffffffffff8261368c565b6136d3868361368c565b95508019841693508086168417925050509392505050565b6000819050919050565b600061371061370b61370684612d01565b6136eb565b612d01565b9050919050565b6000819050919050565b61372a836136f5565b61373e61373682613717565b848454613699565b825550505050565b600090565b613753613746565b61375e818484613721565b505050565b5b818110156137825761377760008261374b565b600181019050613764565b5050565b601f8211156137c75761379881613667565b6137a18461367c565b810160208510156137b0578190505b6137c46137bc8561367c565b830182613763565b50505b505050565b600082821c905092915050565b60006137ea600019846008026137cc565b1980831691505092915050565b600061380383836137d9565b9150826002028217905092915050565b61381c82612c4f565b67ffffffffffffffff81111561383557613834612f59565b5b61383f8254613433565b61384a828285613786565b600060209050601f83116001811461387d576000841561386b578287015190505b61387585826137f7565b8655506138dd565b601f19841661388b86613667565b60005b828110156138b35784890151825560018201915060208501945060208101905061388e565b868310156138d057848901516138cc601f8916826137d9565b8355505b6001600288020188555050505b505050505050565b600060a0820190506138fa6000830188612e2c565b818103602083015261390c8187612ca6565b905061391b6040830186612d96565b6139286060830185612e2c565b6139356080830184612e2c565b9695505050505050565b600081905092915050565b600061395582612c4f565b61395f818561393f565b935061396f818560208601612c6b565b80840191505092915050565b6000613987828561394a565b9150613993828461394a565b91508190509392505050565b60006139aa82612d01565b91507fffffffffffffffffffffffffffffffffffffffffffffffffffffffffffffffff82036139dc576139db613464565b5b600182019050919050565b600081519050919050565b600082825260208201905092915050565b6000613a0e826139e7565b613a1881856139f2565b9350613a28818560208601612c6b565b613a3181612c95565b840191505092915050565b6000608082019050613a516000830187612d96565b613a5e6020830186612d96565b613a6b6040830185612e2c565b8181036060830152613a7d8184613a03565b905095945050505050565b600081519050613a9781612bc0565b92915050565b600060208284031215613ab357613ab2612b8a565b5b6000613ac184828501613a88565b91505092915050565b7f4e487b7100000000000000000000000000000000000000000000000000000000600052601260045260246000fd5b7f4e487b7100000000000000000000000000000000000000000000000000000000600052603160045260246000fdfea2646970667358221220f701c71acd5f0ad272dc4262408dec62e0bc3846cd2253afd5b8d0adce4eb3ef64736f6c63430008150033",
  "linkReferences": {},
  "deployedLinkReferences": {}
}