{
  "_format": "hh-sol-artifact-1",
  "contractName": "CCFactory",
  "sourceName": "contracts/Credit Card/Chainlink/CCFactory.sol",
  "abi": [
    {
      "anonymous": false,
      "inputs": [
        {
          "indexed": true,
          "internalType": "address",
          "name": "creditCardAddress",
          "type": "address"
        },
        {
          "indexed": true,
          "internalType": "address",
          "name": "owner",
          "type": "address"
        }
      ],
      "name": "CreditCardCreated",
      "type": "event"
    },
    {
      "inputs": [
        {
          "internalType": "string",
          "name": "name",
          "type": "string"
        },
        {
          "internalType": "string",
          "name": "symbol",
          "type": "string"
        },
        {
          "internalType": "address",
          "name": "daiAddress",
          "type": "address"
        },
        {
          "internalType": "address",
          "name": "wethAddress",
          "type": "address"
        },
        {
          "internalType": "uint256",
          "name": "expirationTime",
          "type": "uint256"
        },
        {
          "internalType": "uint256",
          "name": "interestRate",
          "type": "uint256"
        }
      ],
      "name": "createCreditCard",
      "outputs": [
        {
          "internalType": "address",
          "name": "",
          "type": "address"
        }
      ],
      "stateMutability": "nonpayable",
      "type": "function"
    },
    {
      "inputs": [],
      "name": "getAllCreditCards",
      "outputs": [
        {
          "internalType": "address[]",
          "name": "",
          "type": "address[]"
        }
      ],
      "stateMutability": "view",
      "type": "function"
    },
    {
      "inputs": [
        {
          "internalType": "address",
          "name": "owner",
          "type": "address"
        }
      ],
      "name": "getCreditCardsIssuedByAddress",
      "outputs": [
        {
          "internalType": "address[]",
          "name": "",
          "type": "address[]"
        }
      ],
      "stateMutability": "view",
      "type": "function"
    }
  ],
  "bytecode": "0x608060405234801561001057600080fd5b50615eb3806100206000396000f3fe60806040523480156200001157600080fd5b5060043610620000465760003560e01c806317da6ba8146200004b5780636161da5d1462000081578063e04b4e4114620000a3575b600080fd5b62000069600480360381019062000063919062000474565b620000d9565b60405162000078919062000574565b60405180910390f35b6200008b620001a8565b6040516200009a919062000574565b60405180910390f35b620000c16004803603810190620000bb919062000735565b62000238565b604051620000d0919062000820565b60405180910390f35b6060600160008373ffffffffffffffffffffffffffffffffffffffff1673ffffffffffffffffffffffffffffffffffffffff1681526020019081526020016000208054806020026020016040519081016040528092919081815260200182805480156200019c57602002820191906000526020600020905b8160009054906101000a900473ffffffffffffffffffffffffffffffffffffffff1673ffffffffffffffffffffffffffffffffffffffff168152602001906001019080831162000151575b50505050509050919050565b606060008054806020026020016040519081016040528092919081815260200182805480156200022e57602002820191906000526020600020905b8160009054906101000a900473ffffffffffffffffffffffffffffffffffffffff1673ffffffffffffffffffffffffffffffffffffffff1681526020019060010190808311620001e3575b5050505050905090565b600080878733888888886040516200025090620003ed565b620002629796959493929190620008d7565b604051809103906000f0801580156200027f573d6000803e3d6000fd5b509050600160003373ffffffffffffffffffffffffffffffffffffffff1673ffffffffffffffffffffffffffffffffffffffff168152602001908152602001600020819080600181540180825580915050600190039060005260206000200160009091909190916101000a81548173ffffffffffffffffffffffffffffffffffffffff021916908373ffffffffffffffffffffffffffffffffffffffff1602179055506000819080600181540180825580915050600190039060005260206000200160009091909190916101000a81548173ffffffffffffffffffffffffffffffffffffffff021916908373ffffffffffffffffffffffffffffffffffffffff1602179055503373ffffffffffffffffffffffffffffffffffffffff168173ffffffffffffffffffffffffffffffffffffffff167f1e1158d973497ac1bba659b5877c2b50325a24219aa9ecdfc666b4f1d6b7811760405160405180910390a3809150509695505050505050565b61551b806200096383390190565b6000604051905090565b600080fd5b600080fd5b600073ffffffffffffffffffffffffffffffffffffffff82169050919050565b60006200043c826200040f565b9050919050565b6200044e816200042f565b81146200045a57600080fd5b50565b6000813590506200046e8162000443565b92915050565b6000602082840312156200048d576200048c62000405565b5b60006200049d848285016200045d565b91505092915050565b600081519050919050565b600082825260208201905092915050565b6000819050602082019050919050565b620004dd816200042f565b82525050565b6000620004f18383620004d2565b60208301905092915050565b6000602082019050919050565b60006200051782620004a6565b620005238185620004b1565b93506200053083620004c2565b8060005b83811015620005675781516200054b8882620004e3565b97506200055883620004fd565b92505060018101905062000534565b5085935050505092915050565b600060208201905081810360008301526200059081846200050a565b905092915050565b600080fd5b600080fd5b6000601f19601f8301169050919050565b7f4e487b7100000000000000000000000000000000000000000000000000000000600052604160045260246000fd5b620005ed82620005a2565b810181811067ffffffffffffffff821117156200060f576200060e620005b3565b5b80604052505050565b600062000624620003fb565b9050620006328282620005e2565b919050565b600067ffffffffffffffff821115620006555762000654620005b3565b5b6200066082620005a2565b9050602081019050919050565b82818337600083830152505050565b6000620006936200068d8462000637565b62000618565b905082815260208101848484011115620006b257620006b16200059d565b5b620006bf8482856200066d565b509392505050565b600082601f830112620006df57620006de62000598565b5b8135620006f18482602086016200067c565b91505092915050565b6000819050919050565b6200070f81620006fa565b81146200071b57600080fd5b50565b6000813590506200072f8162000704565b92915050565b60008060008060008060c0878903121562000755576200075462000405565b5b600087013567ffffffffffffffff8111156200077657620007756200040a565b5b6200078489828a01620006c7565b965050602087013567ffffffffffffffff811115620007a857620007a76200040a565b5b620007b689828a01620006c7565b9550506040620007c989828a016200045d565b9450506060620007dc89828a016200045d565b9350506080620007ef89828a016200071e565b92505060a06200080289828a016200071e565b9150509295509295509295565b6200081a816200042f565b82525050565b60006020820190506200083760008301846200080f565b92915050565b600081519050919050565b600082825260208201905092915050565b60005b83811015620008795780820151818401526020810190506200085c565b60008484015250505050565b600062000892826200083d565b6200089e818562000848565b9350620008b081856020860162000859565b620008bb81620005a2565b840191505092915050565b620008d181620006fa565b82525050565b600060e0820190508181036000830152620008f3818a62000885565b9050818103602083015262000909818962000885565b90506200091a60408301886200080f565b6200092960608301876200080f565b6200093860808301866200080f565b6200094760a0830185620008c6565b6200095660c0830184620008c6565b9897505050505050505056fe60806040523480156200001157600080fd5b506040516200551b3803806200551b833981810160405281019062000037919062000495565b8686866001600081905550600073ffffffffffffffffffffffffffffffffffffffff168173ffffffffffffffffffffffffffffffffffffffff1603620000b75760006040517f1e4fbdf7000000000000000000000000000000000000000000000000000000008152600401620000ae919062000597565b60405180910390fd5b620000c8816200019c60201b60201c565b508160029081620000da9190620007f5565b508060039081620000ec9190620007f5565b50505083601260006101000a81548173ffffffffffffffffffffffffffffffffffffffff021916908373ffffffffffffffffffffffffffffffffffffffff16021790555082601160006101000a81548173ffffffffffffffffffffffffffffffffffffffff021916908373ffffffffffffffffffffffffffffffffffffffff16021790555062015180826200018291906200090b565b600d81905550806010819055505050505050505062000956565b6000600160009054906101000a900473ffffffffffffffffffffffffffffffffffffffff16905081600160006101000a81548173ffffffffffffffffffffffffffffffffffffffff021916908373ffffffffffffffffffffffffffffffffffffffff1602179055508173ffffffffffffffffffffffffffffffffffffffff168173ffffffffffffffffffffffffffffffffffffffff167f8be0079c531659141344cd1fd0a4f28419497f9722a3daafe3b4186f6b6457e060405160405180910390a35050565b6000604051905090565b600080fd5b600080fd5b600080fd5b600080fd5b6000601f19601f8301169050919050565b7f4e487b7100000000000000000000000000000000000000000000000000000000600052604160045260246000fd5b620002cb8262000280565b810181811067ffffffffffffffff82111715620002ed57620002ec62000291565b5b80604052505050565b60006200030262000262565b9050620003108282620002c0565b919050565b600067ffffffffffffffff82111562000333576200033262000291565b5b6200033e8262000280565b9050602081019050919050565b60005b838110156200036b5780820151818401526020810190506200034e565b60008484015250505050565b60006200038e620003888462000315565b620002f6565b905082815260208101848484011115620003ad57620003ac6200027b565b5b620003ba8482856200034b565b509392505050565b600082601f830112620003da57620003d962000276565b5b8151620003ec84826020860162000377565b91505092915050565b600073ffffffffffffffffffffffffffffffffffffffff82169050919050565b60006200042282620003f5565b9050919050565b620004348162000415565b81146200044057600080fd5b50565b600081519050620004548162000429565b92915050565b6000819050919050565b6200046f816200045a565b81146200047b57600080fd5b50565b6000815190506200048f8162000464565b92915050565b600080600080600080600060e0888a031215620004b757620004b66200026c565b5b600088015167ffffffffffffffff811115620004d857620004d762000271565b5b620004e68a828b01620003c2565b975050602088015167ffffffffffffffff8111156200050a576200050962000271565b5b620005188a828b01620003c2565b96505060406200052b8a828b0162000443565b95505060606200053e8a828b0162000443565b9450506080620005518a828b0162000443565b93505060a0620005648a828b016200047e565b92505060c0620005778a828b016200047e565b91505092959891949750929550565b620005918162000415565b82525050565b6000602082019050620005ae600083018462000586565b92915050565b600081519050919050565b7f4e487b7100000000000000000000000000000000000000000000000000000000600052602260045260246000fd5b600060028204905060018216806200060757607f821691505b6020821081036200061d576200061c620005bf565b5b50919050565b60008190508160005260206000209050919050565b60006020601f8301049050919050565b600082821b905092915050565b600060088302620006877fffffffffffffffffffffffffffffffffffffffffffffffffffffffffffffffff8262000648565b62000693868362000648565b95508019841693508086168417925050509392505050565b6000819050919050565b6000620006d6620006d0620006ca846200045a565b620006ab565b6200045a565b9050919050565b6000819050919050565b620006f283620006b5565b6200070a6200070182620006dd565b84845462000655565b825550505050565b600090565b6200072162000712565b6200072e818484620006e7565b505050565b5b8181101562000756576200074a60008262000717565b60018101905062000734565b5050565b601f821115620007a5576200076f8162000623565b6200077a8462000638565b810160208510156200078a578190505b620007a2620007998562000638565b83018262000733565b50505b505050565b600082821c905092915050565b6000620007ca60001984600802620007aa565b1980831691505092915050565b6000620007e58383620007b7565b9150826002028217905092915050565b6200080082620005b4565b67ffffffffffffffff8111156200081c576200081b62000291565b5b620008288254620005ee565b620008358282856200075a565b600060209050601f8311600181146200086d576000841562000858578287015190505b620008648582620007d7565b865550620008d4565b601f1984166200087d8662000623565b60005b82811015620008a75784890151825560018201915060208501945060208101905062000880565b86831015620008c75784890151620008c3601f891682620007b7565b8355505b6001600288020188555050505b505050505050565b7f4e487b7100000000000000000000000000000000000000000000000000000000600052601160045260246000fd5b600062000918826200045a565b915062000925836200045a565b925082820262000935816200045a565b915082820484148315176200094f576200094e620008dc565b5b5092915050565b614bb580620009666000396000f3fe608060405234801561001057600080fd5b50600436106102065760003560e01c80636352211e1161011a578063b88d4fde116100ad578063c87b56dd1161007c578063c87b56dd146105fd578063d369a2c61461062d578063da284dcc14610649578063e985e9c514610667578063f2fde38b1461069757610206565b8063b88d4fde14610589578063b8afaa48146105a5578063be999705146105c3578063c4e41b22146105df57610206565b80638da5cb5b116100e95780638da5cb5b1461051357806395d89b411461053157806396365d441461054f578063a22cb4651461056d57610206565b80636352211e1461048b57806370a08231146104bb578063715018a6146104eb5780637c3a00fd146104f557610206565b80632f745c591161019d578063415f12401161016c578063415f1240146103d757806342413691146103f357806342842e0e1461040f5780634765f1011461042b5780634f6ccce71461045b57610206565b80632f745c591461032b57806331296bea1461035b578063371fd8e61461038b5780633d28b156146103a757610206565b8063155dd5ee116101d9578063155dd5ee146102a557806318160ddd146102c157806323a4deb5146102df57806323b872dd1461030f57610206565b806301ffc9a71461020b57806306fdde031461023b578063081812fc14610259578063095ea7b314610289575b600080fd5b6102256004803603810190610220919061355e565b6106b3565b60405161023291906135a6565b60405180910390f35b6102436106c5565b6040516102509190613651565b60405180910390f35b610273600480360381019061026e91906136a9565b610757565b6040516102809190613717565b60405180910390f35b6102a3600480360381019061029e919061375e565b610773565b005b6102bf60048036038101906102ba91906136a9565b610789565b005b6102c9610929565b6040516102d691906137ad565b60405180910390f35b6102f960048036038101906102f491906136a9565b610936565b60405161030691906137ad565b60405180910390f35b610329600480360381019061032491906137c8565b61095b565b005b6103456004803603810190610340919061375e565b610a5d565b60405161035291906137ad565b60405180910390f35b6103756004803603810190610370919061375e565b610b06565b60405161038291906137ad565b60405180910390f35b6103a560048036038101906103a091906136a9565b610bdd565b005b6103c160048036038101906103bc919061375e565b610f2f565b6040516103ce91906137ad565b60405180910390f35b6103f160048036038101906103ec91906136a9565b611006565b005b61040d60048036038101906104089190613950565b6113d8565b005b610429600480360381019061042491906137c8565b611643565b005b610445600480360381019061044091906136a9565b611663565b60405161045291906137ad565b60405180910390f35b610475600480360381019061047091906136a9565b6116c3565b60405161048291906137ad565b60405180910390f35b6104a560048036038101906104a091906136a9565b611739565b6040516104b29190613717565b60405180910390f35b6104d560048036038101906104d091906139ac565b61174b565b6040516104e291906137ad565b60405180910390f35b6104f3611805565b005b6104fd611819565b60405161050a91906137ad565b60405180910390f35b61051b61181f565b6040516105289190613717565b60405180910390f35b610539611849565b6040516105469190613651565b60405180910390f35b6105576118db565b60405161056491906137ad565b60405180910390f35b61058760048036038101906105829190613a05565b6118e1565b005b6105a3600480360381019061059e9190613ae6565b6118f7565b005b6105ad611914565b6040516105ba91906137ad565b60405180910390f35b6105dd60048036038101906105d891906136a9565b61191a565b005b6105e7611a6a565b6040516105f491906137ad565b60405180910390f35b610617600480360381019061061291906136a9565b611a79565b6040516106249190613651565b60405180910390f35b61064760048036038101906106429190613b69565b611ae2565b005b610651611e17565b60405161065e91906137ad565b60405180910390f35b610681600480360381019061067c9190613bbc565b611e1d565b60405161068e91906135a6565b60405180910390f35b6106b160048036038101906106ac91906139ac565b611eb1565b005b60006106be82611f37565b9050919050565b6060600280546106d490613c2b565b80601f016020809104026020016040519081016040528092919081815260200182805461070090613c2b565b801561074d5780601f106107225761010080835404028352916020019161074d565b820191906000526020600020905b81548152906001019060200180831161073057829003601f168201915b5050505050905090565b600061076282611fb1565b5061076c82612039565b9050919050565b6107858282610780612076565b61207e565b5050565b610791612090565b80600081116107d5576040517f08c379a00000000000000000000000000000000000000000000000000000000081526004016107cc90613ca8565b60405180910390fd5b600f54600e546107e59190613cf7565b821115610827576040517f08c379a000000000000000000000000000000000000000000000000000000000815260040161081e90613d77565b60405180910390fd5b81600e60008282546108399190613cf7565b925050819055506000601260009054906101000a900473ffffffffffffffffffffffffffffffffffffffff1673ffffffffffffffffffffffffffffffffffffffff1663a9059cbb33856040518363ffffffff1660e01b815260040161089f929190613d97565b6020604051808303816000875af11580156108be573d6000803e3d6000fd5b505050506040513d601f19601f820116820180604052508101906108e29190613dd5565b905080610924576040517f08c379a000000000000000000000000000000000000000000000000000000000815260040161091b90613e4e565b60405180910390fd5b505050565b6000600a80549050905090565b600080600061094484612117565b91509150610952828261217f565b92505050919050565b600073ffffffffffffffffffffffffffffffffffffffff168273ffffffffffffffffffffffffffffffffffffffff16036109cd5760006040517f64a0ae920000000000000000000000000000000000000000000000000000000081526004016109c49190613717565b60405180910390fd5b60006109e183836109dc612076565b6121f6565b90508373ffffffffffffffffffffffffffffffffffffffff168173ffffffffffffffffffffffffffffffffffffffff1614610a57578382826040517f64283d7b000000000000000000000000000000000000000000000000000000008152600401610a4e93929190613e6e565b60405180910390fd5b50505050565b6000610a688361174b565b8210610aad5782826040517fa57d13dc000000000000000000000000000000000000000000000000000000008152600401610aa4929190613d97565b60405180910390fd5b600860008473ffffffffffffffffffffffffffffffffffffffff1673ffffffffffffffffffffffffffffffffffffffff168152602001908152602001600020600083815260200190815260200160002054905092915050565b60008083905060008173ffffffffffffffffffffffffffffffffffffffff1673__$703b814cb1e0c3340b038883d2c8bb67e7$__632ba1c96a90916040518263ffffffff1660e01b8152600401610b5d9190613f04565b60a060405180830381865af4158015610b7a573d6000803e3d6000fd5b505050506040513d601f19601f82011682018060405250810190610b9e9190613fac565b505050915050670de0b6b3a7640000846402540be40083610bbf9190614027565b610bc99190614027565b610bd39190614098565b9250505092915050565b610be561220c565b3373ffffffffffffffffffffffffffffffffffffffff16610c0582611739565b73ffffffffffffffffffffffffffffffffffffffff1614610c5b576040517f08c379a0000000000000000000000000000000000000000000000000000000008152600401610c5290614115565b60405180910390fd5b60006013600083815260200190815260200160002090508060050160009054906101000a900460ff1615610cc4576040517f08c379a0000000000000000000000000000000000000000000000000000000008152600401610cbb90614181565b60405180910390fd5b600060646010548360020154610cda9190614027565b610ce49190614098565b8260020154610cf391906141a1565b90506000601260009054906101000a900473ffffffffffffffffffffffffffffffffffffffff1673ffffffffffffffffffffffffffffffffffffffff166323b872dd3330856040518463ffffffff1660e01b8152600401610d56939291906141d5565b6020604051808303816000875af1158015610d75573d6000803e3d6000fd5b505050506040513d601f19601f82011682018060405250810190610d999190613dd5565b905080610ddb576040517f08c379a0000000000000000000000000000000000000000000000000000000008152600401610dd29061427e565b60405180910390fd5b81600e6000828254610ded91906141a1565b925050819055506000836002018190555060018360050160006101000a81548160ff0219169083151502179055508260010154600f6000828254610e319190613cf7565b925050819055506000601160009054906101000a900473ffffffffffffffffffffffffffffffffffffffff1673ffffffffffffffffffffffffffffffffffffffff1663a9059cbb3386600301546040518363ffffffff1660e01b8152600401610e9b929190613d97565b6020604051808303816000875af1158015610eba573d6000803e3d6000fd5b505050506040513d601f19601f82011682018060405250810190610ede9190613dd5565b905080610f20576040517f08c379a0000000000000000000000000000000000000000000000000000000008152600401610f17906142ea565b60405180910390fd5b50505050610f2c612252565b50565b60008083905060008173ffffffffffffffffffffffffffffffffffffffff1673__$703b814cb1e0c3340b038883d2c8bb67e7$__632ba1c96a90916040518263ffffffff1660e01b8152600401610f869190613f04565b60a060405180830381865af4158015610fa3573d6000803e3d6000fd5b505050506040513d601f19601f82011682018060405250810190610fc79190613fac565b5050509150506402540be40081610fde9190614027565b670de0b6b3a764000085610ff29190614027565b610ffc9190614098565b9250505092915050565b61100e612090565b600073ffffffffffffffffffffffffffffffffffffffff1661102f82611739565b73ffffffffffffffffffffffffffffffffffffffff1603611085576040517f08c379a000000000000000000000000000000000000000000000000000000000815260040161107c90614356565b60405180910390fd5b600061109082610936565b9050670de0b6b3a764000081106110dc576040517f08c379a00000000000000000000000000000000000000000000000000000000081526004016110d3906143e8565b60405180910390fd5b60006013600084815260200190815260200160002090508060050160009054906101000a900460ff1615611145576040517f08c379a000000000000000000000000000000000000000000000000000000000815260040161113c90614454565b60405180910390fd5b60008160020154826001015461115b9190613cf7565b9050600e548111156111a2576040517f08c379a0000000000000000000000000000000000000000000000000000000008152600401611199906144e6565b60405180910390fd5b80600e60008282546111b49190613cf7565b9250508190555060018260050160006101000a81548160ff0219169083151502179055508160010154600f60008282546111ee9190613cf7565b925050819055506000601160009054906101000a900473ffffffffffffffffffffffffffffffffffffffff1673ffffffffffffffffffffffffffffffffffffffff1663a9059cbb61123d61181f565b85600301546040518363ffffffff1660e01b815260040161125f929190613d97565b6020604051808303816000875af115801561127e573d6000803e3d6000fd5b505050506040513d601f19601f820116820180604052508101906112a29190613dd5565b9050806112e4576040517f08c379a00000000000000000000000000000000000000000000000000000000081526004016112db906142ea565b60405180910390fd5b6000601260009054906101000a900473ffffffffffffffffffffffffffffffffffffffff1673ffffffffffffffffffffffffffffffffffffffff1663a9059cbb61132d88611739565b856040518363ffffffff1660e01b815260040161134b929190613d97565b6020604051808303816000875af115801561136a573d6000803e3d6000fd5b505050506040513d601f19601f8201168201806040525081019061138e9190613dd5565b9050806113d0576040517f08c379a00000000000000000000000000000000000000000000000000000000081526004016113c790614552565b60405180910390fd5b505050505050565b6113e061220c565b8060008111611424576040517f08c379a000000000000000000000000000000000000000000000000000000000815260040161141b90613ca8565b60405180910390fd5b60006114447314866185b1962b63c3ea9e03bc1da838bab34c1984610b06565b9050600061147273694aa1769357215de4fac081bf1f309adc32530660028461146d9190614027565b610f2f565b90506000601160009054906101000a900473ffffffffffffffffffffffffffffffffffffffff1673ffffffffffffffffffffffffffffffffffffffff166323b872dd3330856040518463ffffffff1660e01b81526004016114d5939291906141d5565b6020604051808303816000875af11580156114f4573d6000803e3d6000fd5b505050506040513d601f19601f820116820180604052508101906115189190613dd5565b90508061155a576040517f08c379a0000000000000000000000000000000000000000000000000000000008152600401611551906142ea565b60405180910390fd5b60006115653361225c565b90506040518060c0016040528088815260200187815260200160008152602001848152602001600d544261159991906141a1565b8152602001600015158152506013600083815260200190815260200160002060008201518160000190816115cd9190614714565b506020820151816001015560408201518160020155606082015181600301556080820151816004015560a08201518160050160006101000a81548160ff02191690831515021790555090505085600f600082825461162b91906141a1565b92505081905550505050505061163f612252565b5050565b61165e838383604051806020016040528060008152506118f7565b505050565b600080601360008481526020019081526020016000209050806004015442106116905760009150506116be565b60004282600401546116a29190613cf7565b9050600062015180826116b59190614098565b90508093505050505b919050565b60006116cd610929565b8210611713576000826040517fa57d13dc00000000000000000000000000000000000000000000000000000000815260040161170a929190613d97565b60405180910390fd5b600a8281548110611727576117266147e6565b5b90600052602060002001549050919050565b600061174482611fb1565b9050919050565b60008073ffffffffffffffffffffffffffffffffffffffff168273ffffffffffffffffffffffffffffffffffffffff16036117be5760006040517f89c62b640000000000000000000000000000000000000000000000000000000081526004016117b59190613717565b60405180910390fd5b600560008373ffffffffffffffffffffffffffffffffffffffff1673ffffffffffffffffffffffffffffffffffffffff168152602001908152602001600020549050919050565b61180d612090565b611817600061228b565b565b60105481565b6000600160009054906101000a900473ffffffffffffffffffffffffffffffffffffffff16905090565b60606003805461185890613c2b565b80601f016020809104026020016040519081016040528092919081815260200182805461188490613c2b565b80156118d15780601f106118a6576101008083540402835291602001916118d1565b820191906000526020600020905b8154815290600101906020018083116118b457829003601f168201915b5050505050905090565b600e5481565b6118f36118ec612076565b8383612351565b5050565b61190284848461095b565b61190e848484846124c0565b50505050565b600f5481565b611922612090565b8060008111611966576040517f08c379a000000000000000000000000000000000000000000000000000000000815260040161195d90613ca8565b60405180910390fd5b81600e600082825461197891906141a1565b925050819055506000601260009054906101000a900473ffffffffffffffffffffffffffffffffffffffff1673ffffffffffffffffffffffffffffffffffffffff166323b872dd3330866040518463ffffffff1660e01b81526004016119e0939291906141d5565b6020604051808303816000875af11580156119ff573d6000803e3d6000fd5b505050506040513d601f19601f82011682018060405250810190611a239190613dd5565b905080611a65576040517f08c379a0000000000000000000000000000000000000000000000000000000008152600401611a5c90614861565b60405180910390fd5b505050565b6000611a74610929565b905090565b6060611a8482611fb1565b506000611a8f612677565b90506000815111611aaf5760405180602001604052806000815250611ada565b80611ab98461268e565b604051602001611aca9291906148bd565b6040516020818303038152906040525b915050919050565b611aea61220c565b8160008111611b2e576040517f08c379a0000000000000000000000000000000000000000000000000000000008152600401611b2590613ca8565b60405180910390fd5b3373ffffffffffffffffffffffffffffffffffffffff16611b4e85611739565b73ffffffffffffffffffffffffffffffffffffffff1614611ba4576040517f08c379a0000000000000000000000000000000000000000000000000000000008152600401611b9b90614115565b60405180910390fd5b60006013600086815260200190815260200160002090508060050160009054906101000a900460ff1615611c0d576040517f08c379a0000000000000000000000000000000000000000000000000000000008152600401611c0490614181565b60405180910390fd5b8060040154421115611c54576040517f08c379a0000000000000000000000000000000000000000000000000000000008152600401611c4b9061492d565b60405180910390fd5b838160020154611c6491906141a1565b81600101541015611caa576040517f08c379a0000000000000000000000000000000000000000000000000000000008152600401611ca190614999565b60405180910390fd5b600e54841115611cef576040517f08c379a0000000000000000000000000000000000000000000000000000000008152600401611ce690614a05565b60405180910390fd5b83816002016000828254611d0391906141a1565b9250508190555083600e6000828254611d1c9190613cf7565b925050819055506000601260009054906101000a900473ffffffffffffffffffffffffffffffffffffffff1673ffffffffffffffffffffffffffffffffffffffff1663a9059cbb85876040518363ffffffff1660e01b8152600401611d82929190613d97565b6020604051808303816000875af1158015611da1573d6000803e3d6000fd5b505050506040513d601f19601f82011682018060405250810190611dc59190613dd5565b905080611e07576040517f08c379a0000000000000000000000000000000000000000000000000000000008152600401611dfe90614552565b60405180910390fd5b505050611e12612252565b505050565b600d5481565b6000600760008473ffffffffffffffffffffffffffffffffffffffff1673ffffffffffffffffffffffffffffffffffffffff16815260200190815260200160002060008373ffffffffffffffffffffffffffffffffffffffff1673ffffffffffffffffffffffffffffffffffffffff16815260200190815260200160002060009054906101000a900460ff16905092915050565b611eb9612090565b600073ffffffffffffffffffffffffffffffffffffffff168173ffffffffffffffffffffffffffffffffffffffff1603611f2b5760006040517f1e4fbdf7000000000000000000000000000000000000000000000000000000008152600401611f229190613717565b60405180910390fd5b611f348161228b565b50565b60007f780e9d63000000000000000000000000000000000000000000000000000000007bffffffffffffffffffffffffffffffffffffffffffffffffffffffff1916827bffffffffffffffffffffffffffffffffffffffffffffffffffffffff19161480611faa5750611fa98261275c565b5b9050919050565b600080611fbd8361283e565b9050600073ffffffffffffffffffffffffffffffffffffffff168173ffffffffffffffffffffffffffffffffffffffff160361203057826040517f7e27328900000000000000000000000000000000000000000000000000000000815260040161202791906137ad565b60405180910390fd5b80915050919050565b60006006600083815260200190815260200160002060009054906101000a900473ffffffffffffffffffffffffffffffffffffffff169050919050565b600033905090565b61208b838383600161287b565b505050565b612098612076565b73ffffffffffffffffffffffffffffffffffffffff166120b661181f565b73ffffffffffffffffffffffffffffffffffffffff1614612115576120d9612076565b6040517f118cdaa700000000000000000000000000000000000000000000000000000000815260040161210c9190613717565b60405180910390fd5b565b60008060006013600085815260200190815260200160002090506121537314866185b1962b63c3ea9e03bc1da838bab34c198260010154610b06565b925061217773694aa1769357215de4fac081bf1f309adc3253068260030154610b06565b915050915091565b60008083036121b0577fffffffffffffffffffffffffffffffffffffffffffffffffffffffffffffffff90506121f0565b600060646032846121c19190614027565b6121cb9190614098565b905083670de0b6b3a7640000826121e29190614027565b6121ec9190614098565b9150505b92915050565b6000612203848484612a40565b90509392505050565b600260005403612248576040517f3ee5aeb500000000000000000000000000000000000000000000000000000000815260040160405180910390fd5b6002600081905550565b6001600081905550565b600080600c600081548092919061227290614a25565b9190505590506122828382612b5d565b80915050919050565b6000600160009054906101000a900473ffffffffffffffffffffffffffffffffffffffff16905081600160006101000a81548173ffffffffffffffffffffffffffffffffffffffff021916908373ffffffffffffffffffffffffffffffffffffffff1602179055508173ffffffffffffffffffffffffffffffffffffffff168173ffffffffffffffffffffffffffffffffffffffff167f8be0079c531659141344cd1fd0a4f28419497f9722a3daafe3b4186f6b6457e060405160405180910390a35050565b600073ffffffffffffffffffffffffffffffffffffffff168273ffffffffffffffffffffffffffffffffffffffff16036123c257816040517f5b08ba180000000000000000000000000000000000000000000000000000000081526004016123b99190613717565b60405180910390fd5b80600760008573ffffffffffffffffffffffffffffffffffffffff1673ffffffffffffffffffffffffffffffffffffffff16815260200190815260200160002060008473ffffffffffffffffffffffffffffffffffffffff1673ffffffffffffffffffffffffffffffffffffffff16815260200190815260200160002060006101000a81548160ff0219169083151502179055508173ffffffffffffffffffffffffffffffffffffffff168373ffffffffffffffffffffffffffffffffffffffff167f17307eab39ab6107e8899845ad3d59bd9653f200f220920489ca2b5937696c31836040516124b391906135a6565b60405180910390a3505050565b60008373ffffffffffffffffffffffffffffffffffffffff163b1115612671578273ffffffffffffffffffffffffffffffffffffffff1663150b7a02612504612076565b8685856040518563ffffffff1660e01b81526004016125269493929190614ac2565b6020604051808303816000875af192505050801561256257506040513d601f19601f8201168201806040525081019061255f9190614b23565b60015b6125e6573d8060008114612592576040519150601f19603f3d011682016040523d82523d6000602084013e612597565b606091505b5060008151036125de57836040517f64a0ae920000000000000000000000000000000000000000000000000000000081526004016125d59190613717565b60405180910390fd5b805181602001fd5b63150b7a0260e01b7bffffffffffffffffffffffffffffffffffffffffffffffffffffffff1916817bffffffffffffffffffffffffffffffffffffffffffffffffffffffff19161461266f57836040517f64a0ae920000000000000000000000000000000000000000000000000000000081526004016126669190613717565b60405180910390fd5b505b50505050565b606060405180602001604052806000815250905090565b60606000600161269d84612b7b565b01905060008167ffffffffffffffff8111156126bc576126bb613825565b5b6040519080825280601f01601f1916602001820160405280156126ee5781602001600182028036833780820191505090505b509050600082602001820190505b600115612751578080600190039150507f3031323334353637383961626364656600000000000000000000000000000000600a86061a8153600a858161274557612744614069565b5b049450600085036126fc575b819350505050919050565b60007f80ac58cd000000000000000000000000000000000000000000000000000000007bffffffffffffffffffffffffffffffffffffffffffffffffffffffff1916827bffffffffffffffffffffffffffffffffffffffffffffffffffffffff1916148061282757507f5b5e139f000000000000000000000000000000000000000000000000000000007bffffffffffffffffffffffffffffffffffffffffffffffffffffffff1916827bffffffffffffffffffffffffffffffffffffffffffffffffffffffff1916145b80612837575061283682612cce565b5b9050919050565b60006004600083815260200190815260200160002060009054906101000a900473ffffffffffffffffffffffffffffffffffffffff169050919050565b80806128b45750600073ffffffffffffffffffffffffffffffffffffffff168273ffffffffffffffffffffffffffffffffffffffff1614155b156129e85760006128c484611fb1565b9050600073ffffffffffffffffffffffffffffffffffffffff168373ffffffffffffffffffffffffffffffffffffffff161415801561292f57508273ffffffffffffffffffffffffffffffffffffffff168173ffffffffffffffffffffffffffffffffffffffff1614155b801561294257506129408184611e1d565b155b1561298457826040517fa9fbf51f00000000000000000000000000000000000000000000000000000000815260040161297b9190613717565b60405180910390fd5b81156129e657838573ffffffffffffffffffffffffffffffffffffffff168273ffffffffffffffffffffffffffffffffffffffff167f8c5be1e5ebec7d5bd14f71427d1e84f3dd0314c0f7b2291e5b200ac8c7c3b92560405160405180910390a45b505b836006600085815260200190815260200160002060006101000a81548173ffffffffffffffffffffffffffffffffffffffff021916908373ffffffffffffffffffffffffffffffffffffffff16021790555050505050565b600080612a4e858585612d38565b9050600073ffffffffffffffffffffffffffffffffffffffff168173ffffffffffffffffffffffffffffffffffffffff1603612a9257612a8d84612f52565b612ad1565b8473ffffffffffffffffffffffffffffffffffffffff168173ffffffffffffffffffffffffffffffffffffffff1614612ad057612acf8185612f9b565b5b5b600073ffffffffffffffffffffffffffffffffffffffff168573ffffffffffffffffffffffffffffffffffffffff1603612b1357612b0e846130fc565b612b52565b8473ffffffffffffffffffffffffffffffffffffffff168173ffffffffffffffffffffffffffffffffffffffff1614612b5157612b5085856131cd565b5b5b809150509392505050565b612b77828260405180602001604052806000815250613258565b5050565b600080600090507a184f03e93ff9f4daa797ed6e38ed64bf6a1f0100000000000000008310612bd9577a184f03e93ff9f4daa797ed6e38ed64bf6a1f0100000000000000008381612bcf57612bce614069565b5b0492506040810190505b6d04ee2d6d415b85acef81000000008310612c16576d04ee2d6d415b85acef81000000008381612c0c57612c0b614069565b5b0492506020810190505b662386f26fc100008310612c4557662386f26fc100008381612c3b57612c3a614069565b5b0492506010810190505b6305f5e1008310612c6e576305f5e1008381612c6457612c63614069565b5b0492506008810190505b6127108310612c93576127108381612c8957612c88614069565b5b0492506004810190505b60648310612cb65760648381612cac57612cab614069565b5b0492506002810190505b600a8310612cc5576001810190505b80915050919050565b60007f01ffc9a7000000000000000000000000000000000000000000000000000000007bffffffffffffffffffffffffffffffffffffffffffffffffffffffff1916827bffffffffffffffffffffffffffffffffffffffffffffffffffffffff1916149050919050565b600080612d448461283e565b9050600073ffffffffffffffffffffffffffffffffffffffff168373ffffffffffffffffffffffffffffffffffffffff1614612d8657612d85818486613274565b5b600073ffffffffffffffffffffffffffffffffffffffff168173ffffffffffffffffffffffffffffffffffffffff1614612e1757612dc860008560008061287b565b6001600560008373ffffffffffffffffffffffffffffffffffffffff1673ffffffffffffffffffffffffffffffffffffffff168152602001908152602001600020600082825403925050819055505b600073ffffffffffffffffffffffffffffffffffffffff168573ffffffffffffffffffffffffffffffffffffffff1614612e9a576001600560008773ffffffffffffffffffffffffffffffffffffffff1673ffffffffffffffffffffffffffffffffffffffff168152602001908152602001600020600082825401925050819055505b846004600086815260200190815260200160002060006101000a81548173ffffffffffffffffffffffffffffffffffffffff021916908373ffffffffffffffffffffffffffffffffffffffff160217905550838573ffffffffffffffffffffffffffffffffffffffff168273ffffffffffffffffffffffffffffffffffffffff167fddf252ad1be2c89b69c2b068fc378daa952ba7f163c4a11628f55a4df523b3ef60405160405180910390a4809150509392505050565b600a80549050600b600083815260200190815260200160002081905550600a81908060018154018082558091505060019003906000526020600020016000909190919091505550565b6000612fa68361174b565b905060006009600084815260200190815260200160002054905081811461308b576000600860008673ffffffffffffffffffffffffffffffffffffffff1673ffffffffffffffffffffffffffffffffffffffff168152602001908152602001600020600084815260200190815260200160002054905080600860008773ffffffffffffffffffffffffffffffffffffffff1673ffffffffffffffffffffffffffffffffffffffff168152602001908152602001600020600084815260200190815260200160002081905550816009600083815260200190815260200160002081905550505b6009600084815260200190815260200160002060009055600860008573ffffffffffffffffffffffffffffffffffffffff1673ffffffffffffffffffffffffffffffffffffffff16815260200190815260200160002060008381526020019081526020016000206000905550505050565b60006001600a805490506131109190613cf7565b90506000600b60008481526020019081526020016000205490506000600a83815481106131405761313f6147e6565b5b9060005260206000200154905080600a8381548110613162576131616147e6565b5b906000526020600020018190555081600b600083815260200190815260200160002081905550600b600085815260200190815260200160002060009055600a8054806131b1576131b0614b50565b5b6001900381819060005260206000200160009055905550505050565b600060016131da8461174b565b6131e49190613cf7565b905081600860008573ffffffffffffffffffffffffffffffffffffffff1673ffffffffffffffffffffffffffffffffffffffff168152602001908152602001600020600083815260200190815260200160002081905550806009600084815260200190815260200160002081905550505050565b6132628383613338565b61326f60008484846124c0565b505050565b61327f838383613431565b61333357600073ffffffffffffffffffffffffffffffffffffffff168373ffffffffffffffffffffffffffffffffffffffff16036132f457806040517f7e2732890000000000000000000000000000000000000000000000000000000081526004016132eb91906137ad565b60405180910390fd5b81816040517f177e802f00000000000000000000000000000000000000000000000000000000815260040161332a929190613d97565b60405180910390fd5b505050565b600073ffffffffffffffffffffffffffffffffffffffff168273ffffffffffffffffffffffffffffffffffffffff16036133aa5760006040517f64a0ae920000000000000000000000000000000000000000000000000000000081526004016133a19190613717565b60405180910390fd5b60006133b8838360006121f6565b9050600073ffffffffffffffffffffffffffffffffffffffff168173ffffffffffffffffffffffffffffffffffffffff161461342c5760006040517f73c6ac6e0000000000000000000000000000000000000000000000000000000081526004016134239190613717565b60405180910390fd5b505050565b60008073ffffffffffffffffffffffffffffffffffffffff168373ffffffffffffffffffffffffffffffffffffffff16141580156134e957508273ffffffffffffffffffffffffffffffffffffffff168473ffffffffffffffffffffffffffffffffffffffff1614806134aa57506134a98484611e1d565b5b806134e857508273ffffffffffffffffffffffffffffffffffffffff166134d083612039565b73ffffffffffffffffffffffffffffffffffffffff16145b5b90509392505050565b6000604051905090565b600080fd5b600080fd5b60007fffffffff0000000000000000000000000000000000000000000000000000000082169050919050565b61353b81613506565b811461354657600080fd5b50565b60008135905061355881613532565b92915050565b600060208284031215613574576135736134fc565b5b600061358284828501613549565b91505092915050565b60008115159050919050565b6135a08161358b565b82525050565b60006020820190506135bb6000830184613597565b92915050565b600081519050919050565b600082825260208201905092915050565b60005b838110156135fb5780820151818401526020810190506135e0565b60008484015250505050565b6000601f19601f8301169050919050565b6000613623826135c1565b61362d81856135cc565b935061363d8185602086016135dd565b61364681613607565b840191505092915050565b6000602082019050818103600083015261366b8184613618565b905092915050565b6000819050919050565b61368681613673565b811461369157600080fd5b50565b6000813590506136a38161367d565b92915050565b6000602082840312156136bf576136be6134fc565b5b60006136cd84828501613694565b91505092915050565b600073ffffffffffffffffffffffffffffffffffffffff82169050919050565b6000613701826136d6565b9050919050565b613711816136f6565b82525050565b600060208201905061372c6000830184613708565b92915050565b61373b816136f6565b811461374657600080fd5b50565b60008135905061375881613732565b92915050565b60008060408385031215613775576137746134fc565b5b600061378385828601613749565b925050602061379485828601613694565b9150509250929050565b6137a781613673565b82525050565b60006020820190506137c2600083018461379e565b92915050565b6000806000606084860312156137e1576137e06134fc565b5b60006137ef86828701613749565b935050602061380086828701613749565b925050604061381186828701613694565b9150509250925092565b600080fd5b600080fd5b7f4e487b7100000000000000000000000000000000000000000000000000000000600052604160045260246000fd5b61385d82613607565b810181811067ffffffffffffffff8211171561387c5761387b613825565b5b80604052505050565b600061388f6134f2565b905061389b8282613854565b919050565b600067ffffffffffffffff8211156138bb576138ba613825565b5b6138c482613607565b9050602081019050919050565b82818337600083830152505050565b60006138f36138ee846138a0565b613885565b90508281526020810184848401111561390f5761390e613820565b5b61391a8482856138d1565b509392505050565b600082601f8301126139375761393661381b565b5b81356139478482602086016138e0565b91505092915050565b60008060408385031215613967576139666134fc565b5b600083013567ffffffffffffffff81111561398557613984613501565b5b61399185828601613922565b92505060206139a285828601613694565b9150509250929050565b6000602082840312156139c2576139c16134fc565b5b60006139d084828501613749565b91505092915050565b6139e28161358b565b81146139ed57600080fd5b50565b6000813590506139ff816139d9565b92915050565b60008060408385031215613a1c57613a1b6134fc565b5b6000613a2a85828601613749565b9250506020613a3b858286016139f0565b9150509250929050565b600067ffffffffffffffff821115613a6057613a5f613825565b5b613a6982613607565b9050602081019050919050565b6000613a89613a8484613a45565b613885565b905082815260208101848484011115613aa557613aa4613820565b5b613ab08482856138d1565b509392505050565b600082601f830112613acd57613acc61381b565b5b8135613add848260208601613a76565b91505092915050565b60008060008060808587031215613b0057613aff6134fc565b5b6000613b0e87828801613749565b9450506020613b1f87828801613749565b9350506040613b3087828801613694565b925050606085013567ffffffffffffffff811115613b5157613b50613501565b5b613b5d87828801613ab8565b91505092959194509250565b600080600060608486031215613b8257613b816134fc565b5b6000613b9086828701613694565b9350506020613ba186828701613694565b9250506040613bb286828701613749565b9150509250925092565b60008060408385031215613bd357613bd26134fc565b5b6000613be185828601613749565b9250506020613bf285828601613749565b9150509250929050565b7f4e487b7100000000000000000000000000000000000000000000000000000000600052602260045260246000fd5b60006002820490506001821680613c4357607f821691505b602082108103613c5657613c55613bfc565b5b50919050565b7f416d6f756e74206d7573742062652067726561746572207468616e207a65726f600082015250565b6000613c926020836135cc565b9150613c9d82613c5c565b602082019050919050565b60006020820190508181036000830152613cc181613c85565b9050919050565b7f4e487b7100000000000000000000000000000000000000000000000000000000600052601160045260246000fd5b6000613d0282613673565b9150613d0d83613673565b9250828203905081811115613d2557613d24613cc8565b5b92915050565b7f416d6f756e74206578636565647320756e6c6f636b65642066756e6473000000600082015250565b6000613d61601d836135cc565b9150613d6c82613d2b565b602082019050919050565b60006020820190508181036000830152613d9081613d54565b9050919050565b6000604082019050613dac6000830185613708565b613db9602083018461379e565b9392505050565b600081519050613dcf816139d9565b92915050565b600060208284031215613deb57613dea6134fc565b5b6000613df984828501613dc0565b91505092915050565b7f5769746864726177616c206661696c6564000000000000000000000000000000600082015250565b6000613e386011836135cc565b9150613e4382613e02565b602082019050919050565b60006020820190508181036000830152613e6781613e2b565b9050919050565b6000606082019050613e836000830186613708565b613e90602083018561379e565b613e9d6040830184613708565b949350505050565b6000819050919050565b6000613eca613ec5613ec0846136d6565b613ea5565b6136d6565b9050919050565b6000613edc82613eaf565b9050919050565b6000613eee82613ed1565b9050919050565b613efe81613ee3565b82525050565b6000602082019050613f196000830184613ef5565b92915050565b600069ffffffffffffffffffff82169050919050565b613f3e81613f1f565b8114613f4957600080fd5b50565b600081519050613f5b81613f35565b92915050565b6000819050919050565b613f7481613f61565b8114613f7f57600080fd5b50565b600081519050613f9181613f6b565b92915050565b600081519050613fa68161367d565b92915050565b600080600080600060a08688031215613fc857613fc76134fc565b5b6000613fd688828901613f4c565b9550506020613fe788828901613f82565b9450506040613ff888828901613f97565b935050606061400988828901613f97565b925050608061401a88828901613f4c565b9150509295509295909350565b600061403282613673565b915061403d83613673565b925082820261404b81613673565b9150828204841483151761406257614061613cc8565b5b5092915050565b7f4e487b7100000000000000000000000000000000000000000000000000000000600052601260045260246000fd5b60006140a382613673565b91506140ae83613673565b9250826140be576140bd614069565b5b828204905092915050565b7f4e6f74207468652063617264206f776e65720000000000000000000000000000600082015250565b60006140ff6012836135cc565b915061410a826140c9565b602082019050919050565b6000602082019050818103600083015261412e816140f2565b9050919050565b7f4361726420686173206265656e20646973636172646564000000000000000000600082015250565b600061416b6017836135cc565b915061417682614135565b602082019050919050565b6000602082019050818103600083015261419a8161415e565b9050919050565b60006141ac82613673565b91506141b783613673565b92508282019050808211156141cf576141ce613cc8565b5b92915050565b60006060820190506141ea6000830186613708565b6141f76020830185613708565b614204604083018461379e565b949350505050565b7f444149207472616e7366657220666f722072657061796d656e74206661696c6560008201527f6400000000000000000000000000000000000000000000000000000000000000602082015250565b60006142686021836135cc565b91506142738261420c565b604082019050919050565b600060208201905081810360008301526142978161425b565b9050919050565b7f436f6c6c61746572616c207472616e73666572206661696c6564000000000000600082015250565b60006142d4601a836135cc565b91506142df8261429e565b602082019050919050565b60006020820190508181036000830152614303816142c7565b9050919050565b7f546f6b656e496420646f65736e27742065786973740000000000000000000000600082015250565b60006143406015836135cc565b915061434b8261430a565b602082019050919050565b6000602082019050818103600083015261436f81614333565b9050919050565b7f4865616c746820666163746f72206e6f74206c6f7720656e6f75676820666f7260008201527f206c69717569646174696f6e0000000000000000000000000000000000000000602082015250565b60006143d2602c836135cc565b91506143dd82614376565b604082019050919050565b60006020820190508181036000830152614401816143c5565b9050919050565b7f436172642068617320616c7265616479206265656e2064697363617264656400600082015250565b600061443e601f836135cc565b915061444982614408565b602082019050919050565b6000602082019050818103600083015261446d81614431565b9050919050565b7f496e73756666696369656e742044414920696e20706f6f6c20666f72206c697160008201527f7569646174696f6e000000000000000000000000000000000000000000000000602082015250565b60006144d06028836135cc565b91506144db82614474565b604082019050919050565b600060208201905081810360008301526144ff816144c3565b9050919050565b7f444149207472616e73666572206661696c656400000000000000000000000000600082015250565b600061453c6013836135cc565b915061454782614506565b602082019050919050565b6000602082019050818103600083015261456b8161452f565b9050919050565b60008190508160005260206000209050919050565b60006020601f8301049050919050565b600082821b905092915050565b6000600883026145d47fffffffffffffffffffffffffffffffffffffffffffffffffffffffffffffffff82614597565b6145de8683614597565b95508019841693508086168417925050509392505050565b600061461161460c61460784613673565b613ea5565b613673565b9050919050565b6000819050919050565b61462b836145f6565b61463f61463782614618565b8484546145a4565b825550505050565b600090565b614654614647565b61465f818484614622565b505050565b5b818110156146835761467860008261464c565b600181019050614665565b5050565b601f8211156146c85761469981614572565b6146a284614587565b810160208510156146b1578190505b6146c56146bd85614587565b830182614664565b50505b505050565b600082821c905092915050565b60006146eb600019846008026146cd565b1980831691505092915050565b600061470483836146da565b9150826002028217905092915050565b61471d826135c1565b67ffffffffffffffff81111561473657614735613825565b5b6147408254613c2b565b61474b828285614687565b600060209050601f83116001811461477e576000841561476c578287015190505b61477685826146f8565b8655506147de565b601f19841661478c86614572565b60005b828110156147b45784890151825560018201915060208501945060208101905061478f565b868310156147d157848901516147cd601f8916826146da565b8355505b6001600288020188555050505b505050505050565b7f4e487b7100000000000000000000000000000000000000000000000000000000600052603260045260246000fd5b7f5472616e73666572204661696c65642100000000000000000000000000000000600082015250565b600061484b6010836135cc565b915061485682614815565b602082019050919050565b6000602082019050818103600083015261487a8161483e565b9050919050565b600081905092915050565b6000614897826135c1565b6148a18185614881565b93506148b18185602086016135dd565b80840191505092915050565b60006148c9828561488c565b91506148d5828461488c565b91508190509392505050565b7f4361726420657870697265640000000000000000000000000000000000000000600082015250565b6000614917600c836135cc565b9150614922826148e1565b602082019050919050565b600060208201905081810360008301526149468161490a565b9050919050565b7f4578636565647320636172642773207370656e64696e67206c696d6974000000600082015250565b6000614983601d836135cc565b915061498e8261494d565b602082019050919050565b600060208201905081810360008301526149b281614976565b9050919050565b7f496e73756666696369656e742066756e647320696e20706f6f6c000000000000600082015250565b60006149ef601a836135cc565b91506149fa826149b9565b602082019050919050565b60006020820190508181036000830152614a1e816149e2565b9050919050565b6000614a3082613673565b91507fffffffffffffffffffffffffffffffffffffffffffffffffffffffffffffffff8203614a6257614a61613cc8565b5b600182019050919050565b600081519050919050565b600082825260208201905092915050565b6000614a9482614a6d565b614a9e8185614a78565b9350614aae8185602086016135dd565b614ab781613607565b840191505092915050565b6000608082019050614ad76000830187613708565b614ae46020830186613708565b614af1604083018561379e565b8181036060830152614b038184614a89565b905095945050505050565b600081519050614b1d81613532565b92915050565b600060208284031215614b3957614b386134fc565b5b6000614b4784828501614b0e565b91505092915050565b7f4e487b7100000000000000000000000000000000000000000000000000000000600052603160045260246000fdfea26469706673582212205d7806dcbd585e9e697a60ef1063602d5f57a640cfb2a7ef4b7bfa0558b54dc664736f6c63430008150033a26469706673582212204c9b174157b48079dd0b430eaf67afa10076a967dbaf89971a6609219b0d5f9b64736f6c63430008150033",
  "linkReferences": {
    "contracts/Credit Card/Chainlink/Oracle/OracleLib.sol": {
      "OracleLib": [
        {
          "length": 20,
          "start": 7696
        },
        {
          "length": 20,
          "start": 8761
        }
      ]
    }
  },
  "deployedLinkReferences": {
    "contracts/Credit Card/Chainlink/Oracle/OracleLib.sol": {
      "OracleLib": [
        {
          "length": 20,
          "start": 7664
        },
        {
          "length": 20,
          "start": 8729
        }
      ]
    }
  }
}